:0E02F600E4F5C7F5C5F5C675C3FF75C4FF2254
:10022B00AD07AC06C2AF75C78175C501ECF5C3AFA1
:10023B00058FC475C65A75C6A500E5C21201120D0D
:10024B00BD00010C740129F9E43AFA9001F574FF31
:0F025B00F5F012012445F070D31202F6D2AF2253
:1002A900AD07AC06C2AFECF5C3AF058FC475C78106
:1002B90075C50375C65A75C6A5001202F6D2AF22D6
:10026A00AD07AC06C2AF75C78175C502ECF5C3AF61
:10027A00058FC41200F9F5C275C65A75C6A5000DD8
:10028A00BD00010C740129F9E43AFA9001F574FFF2
:0F029A00F5F012012445F070D31202F6D2AF2214
:1001CB006920616D2067656E69757320212121217E
:1001DB002121216920616D2067656E69757320216E
:1001EB002121212121216920616D2067656E6975AF
:1001FB007320212121212121216920616D20676537
:10020B006E69757320212121212121216920616DC6
:10021B002067656E69757320212121212121210021
:1002C900759850438E40538EFE53890F758BD075A8
:0902D9008DFFC2ABD28EC2AC2233
:0C02E20074602DF58274003CF583E0FF91
:0802EE008F993099FDC299229D
:0C0304001200F9FF60051202EE80F522E5
:10013A0078007C007D017BFF7A0179CB7E007F60AD
:10014A001200D37F33E4FD7CC89001287444F0A3E5
:10015A00DCFC1202C91202EEE4FFFE1202A97B01C4
:10016A007A0079609001F5E4F0A374C8F0E4FFFE28
:10017A0012022BE4FCFD1202E20DBD00010CED643B
:10018A00C84C70F27B017A0079009001F5E4F0A383
:10019A007460F0E4FFFE12026A7B017A00796090D3
:1001AA0001F5E4F0A374C8F0E4FFFE12022BE4FCAC
:1001BA00FD1202E20DBD00010CED64C84C70F28024
:0101CA00FE36
:03000000020310E8
:0C031000787FE4F6D8FD75810702013A01
:10000300E709F608DFFA8046E709F208DFFA803EDF
:1000130088828C83E709F0A3DFFA8032E309F608CC
:10002300DFFA8078E309F208DFFA807088828C8334
:10003300E309F0A3DFFA806489828A83E0A3F608E8
:10004300DFFA805889828A83E0A3F208DFFA804CC2
:1000530080D280FA80C680D4806980F28033801099
:1000630080A680EA809A80A880DA80E280CA803302
:1000730089828A83ECFAE493A3C8C582C8CCC5837A
:10008300CCF0A3C8C582C8CCC583CCDFE9DEE7804A
:100093000D89828A83E493A3F608DFF9ECFAA9F0C9
:1000A300EDFB2289828A83ECFAE0A3C8C582C8CC1F
:1000B300C583CCF0A3C8C582C8CCC583CCDFEADE38
:1000C300E880DB89828A83E493A3F208DFF980CC9A
:1000D30088F0EF60010E4E60C388F0ED2402B40493
:1000E3000050B9F582EB2402B4040050AF2323453A
:0600F3008223900053730C
:1000F900BB010689828A83E0225002E722BBFE0205
:09010900E32289828A83E4932237
:10011200BB010689828A83F0225002F722BBFE01CC
:02012200F322C6
:10012400C5F0F8A3E028F0C5F0F8E5821582700266
:060134001583E038F02203
:00000001FF
