:10151D00AD071FED600B0000007E1A1EEE60F1801E
:01152D00FAC3
:01152E00229A
:0F152F007DA57C06ED1D70011C144C70F7DFF1DB
:01153E00228A
:0214B300AB0785
:1014B500AF031BEF60107E04EED3940040F27FFA79
:0614C50012152F1E80F23B
:0114CB0022FE
:10145200776966692072657365740D0A007769663B
:101462006920736574206170207375636573730DF1
:021472000A006E
:10004600C2AF12142B43AF011213D943AF10E4F51C
:10005600B8F5B543B501121474D2AF120DC37E04C0
:100066007F007D007B017A0079121208817BFF7A7E
:1000760014795212150A1213841209F8EF60EE7BF6
:09008600FF7A14795F12150A22B9
:1008C3004448543131207472756520200D0A004468
:1008D300485431312066616C736520200D0A005441
:1008E300454D500048554D49004F4E0031206F6E25
:1008F300210D0A004F46460031206F6666210D0A1E
:100903000032206F6E210D0A0032206F6666210DC2
:100913000A0033206F6E210D0A0033206F666621B3
:100923000D0A0034206F6E210D0A0034206F6666B5
:10093300210D0A0073776974636820696E76616CB0
:10094300696420636F6D6D616E640D0A004C4947E5
:100953004854006C6967687431206F6E210D0A007A
:100963006C6967687431206F6666210D0A00494E11
:1009730043006C696768743120696E63210D0A0056
:10098300444543006C696768743120646563210DD5
:100993000A006C696768743220696E63210D0A006E
:1009A3006C696768743220646563210D0A006C69A1
:1009B30067687420696E76616C696420636F6D6D1E
:1009C300616E643232320D0A00696E76616C69645D
:1009D30020636F6D6D616E643131310D0A005345D3
:1009E300545749464900535749544348004F4B0015
:0509F3004641494C00E3
:1014E200D2C47F0112151DC2C47F1212152FD2C49D
:0514F2007F0402151D3E
:10131F00E490094CF090094BF030C4FD7F02121598
:10132F001D90094CE025E0F030C403E004F020C428
:10133F00FD90094BE004F0E0C3940840DC90094CA9
:02134F00E0FFBD
:011351002279
:0B0B150090093FEBF0A3EAF0A3E9F029
:100B2000E4A3F0A3F0A3F0A3F0A3F01214E230C406
:100B300003020BBD30C4FDC2AF7F0812151D121396
:100B40001F900942EFF012131F900943EFF01213A8
:100B50001F900944EFF012131F900945EFF0121394
:100B60001F900946EFF0D2AF900943E0FD90094293
:100B7000E02DFDE433FC900944E07A002DFDEA3CD1
:100B8000FCA3E02DFDEA3CFC7E00EDB5070CEEB5C4
:100B900004087BFF7A0879C380067BFF7A0879D244
:100BA00012150A900944E0FF900947E4F0A3EFF022
:100BB000900942E0FF900949E4F0A3EFF090094E5C
:100BC00074FFF0A37408F0A374E2F090093FE0FB17
:100BD000A3E0FAA3E0F9120D04EA494B600590097D
:100BE00047802490094E74FFF0A37408F0A374E7C3
:100BF000F090093FE0FBA3E0FAA3E0F9120D04EA4C
:100C0000494B6009900949E0FEA3E0FF227EFF7F87
:010C1000FFE4
:010C110022C0
:1000960090093FEBF0A3EAF0A3E9F0A3E0FBA3E0AD
:1000A600FAA3E0F990000712079F24CE6078147037
:1000B600030201911470030201F524036003020296
:1000C6005890094E74FFF0A37408F0A374ECF090F6
:1000D600093FE0FBA3E0FAA3E0F9120D04EA494B5D
:1000E60060107D017F021212EA7BFF7A0879EF0227
:1000F600025390094E74FFF0A37408F0A374F7F04E
:1001060090093FE0FBA3E0FAA3E0F9120D04EA49E7
:100116004B70030202647D017F0212127A7BFF7A22
:100126000879FB02025390094E74FFF0A37408F09D
:10013600A374ECF090093FE0FBA3E0FAA3E0F91208
:100146000D04EA494B60107D027F021212EA7BFF22
:100156007A09790402025390094E74FFF0A37408D9
:10016600F0A374F7F090093FE0FBA3E0FAA3E0F9EF
:10017600120D04EA494B70030202647D027F0212EB
:10018600127A7BFF7A09790C02025390094E74FFAA
:10019600F0A37408F0A374ECF090093FE0FBA3E031
:1001A600FAA3E0F9120D04EA494B60107D047F02C0
:1001B6001212EA7BFF7A09791502025390094E74EE
:1001C600FFF0A37408F0A374F7F090093FE0FBA3D7
:1001D600E0FAA3E0F9120D04EA494B700302026447
:1001E6007D047F0212127A7BFF7A09791D805E9068
:1001F600094E74FFF0A37408F0A374ECF090093F65
:10020600E0FBA3E0FAA3E0F9120D04EA494B600F04
:100216007D087F021212EA7BFF7A097926802E90EA
:10022600094E74FFF0A37408F0A374F7F090093F29
:10023600E0FBA3E0FAA3E0F9120D04EA494B601EC5
:100246007D087F0212127A7BFF7A09792E12150A2F
:10025600800C7BFF7A09793712150A7F00227F010D
:010266002275
:10000E00900942EFF0701090096A74A0F0C374FF6B
:10001E0094A0FDE4FF8015900942E0B4021490090B
:10002E006B74A0F0C374FF94A0FD7F011214CC7FFB
:05003E0001227F0022F9
:1013520090094AEFF0700E90096AF0C374FF94008E
:10136200FDE4FF801490094AE0B40213E490096B93
:10137200F0C374FF9400FD7F011214CC7F01227F21
:02138200002247
:10111D00900942EFF0702890096AE0FFC374FF9FB9
:10112D00C39428500574FFF0800790096AE02428C5
:10113D00F090096AE0FFC374FF9FFDE4FF802E90DD
:10114D000942E06402702C90096BE0FFC374FF9FAD
:10115D00C39428500574FFF0800790096BE0242894
:10116D00F090096BE0FFC374FF9FFD7F011214CC5B
:06117D007F01227F002229
:1011E300900942EFF0702290096AE0C394285004FA
:1011F300E4F0800790096AE024D8F090096AE0FFE0
:10120300C374FF9FFDE4FF8028900942E0640270ED
:101213002690096BE0C394285004E4F080079009FA
:101223006BE024D8F090096BE0FFC374FF9FFD7F50
:0A123300011214CC7F01227F00227B
:10042B0090093FEBF0A3EAF0A3E9F090094E74FFBB
:10043B00F0A37409F0A37450F090093FE0FBA3E024
:10044B00FAA3E0F9120D04EA494B70030205DB90A5
:10045B00000712079F24CE700302051A04600302E3
:10046B0005D390094E74FFF0A37408F0A374ECF05D
:10047B0090093FE0FBA3E0FAA3E0F9120D04EA496F
:10048B004B6005E4FF02053D90094E74FFF0A37429
:10049B0008F0A374F7F090093FE0FBA3E0FAA3E0A8
:1004AB00F9120D04EA494B6005E4FF02056C900953
:1004BB004E74FFF0A37409F0A37471F090093FE040
:1004CB00FBA3E0FAA3E0F9120D04EA494B600EE43A
:1004DB00FF12111D7BFF7A0979750205E190094E18
:1004EB0074FFF0A37409F0A37483F090093FE0FB51
:1004FB00A3E0FAA3E0F9120D04EA494B70030205DD
:10050B00E4E4FF1211E37BFF7A0979870205E1909E
:10051B00094E74FFF0A37408F0A374ECF090093F3C
:10052B00E0FBA3E0FAA3E0F9120D04EA494B600EDD
:10053B007F0212000E7BFF7A0979560205E19009C2
:10054B004E74FFF0A37408F0A374F7F090093FE02A
:10055B00FBA3E0FAA3E0F9120D04EA494B600D7F0F
:10056B00021213527BFF7A097963806A90094E74E9
:10057B00FFF0A37409F0A37471F090093FE0FBA3A3
:10058B00E0FAA3E0F9120D04EA494B600D7F021269
:10059B00111D7BFF7A097995803C90094E74FFF011
:1005AB00A37409F0A37483F090093FE0FBA3E0FA76
:1005BB00A3E0F9120D04EA494B601E7F021211E30E
:1005CB007BFF7A0979A3800E7BFF7A0979B18006CC
:0B05DB007BFF7A0979CC12150A7F0122
:0105E60022F2
:100DC30090093E7403F0A3740FF07B017A09793E16
:100DD3007F02120267E4900940F0A37410F07B01D4
:100DE3007A0979407F0412026790093C7403F0A3E7
:100DF3007460F07B017A09793C7F021202679009E3
:100E0300427420F0E4A3F0A37442F0E4A3F0A3F04F
:100E1300A304F0E4A3F0A3F07B017A0979427F03F2
:100E23001205E77B017A097942E4FF1205E77B01AA
:100E33007A0979427F011205E77D017F0212127A56
:100E43007D027F0212127A7D047F0212127A7D08DC
:100E53007F0212127AE4FF1213527F02121352E43A
:060E630090096AF0A3F003
:010E69002266
:100C120090093CEBF0A3EAF0A3E9F090094E74FFCF
:100C2200F0A37409F0A374E1F090093CE0FBA3E0A7
:100C3200FAA3E0F9120D04EA494B6003020D039096
:100C4200094E74FFF0A37409F0A374E9F090093C13
:100C5200E0FBA3E0FAA3E0F9120D04EA494B60209D
:100C620090093CE0FBA3E0FAA3E0F9120096EF7BC7
:100C7200FF60067A0979F080047A0979F30214F7A1
:100C820090094E74FFF0A37409F0A37450F0900918
:100C92003CE0FBA3E0FAA3E0F9120D04EA494B6041
:100CA2000E90093CE0FBA3E0FAA3E0F902042B90CA
:100CB200094E74FFF0A37408F0A374E2F090093CAB
:100CC200E0FBA3E0FAA3E0F9120D04EA494B60024B
:100CD200802190094E74FFF0A37408F0A374E7F02A
:100CE20090093CE0FBA3E0FAA3E0F9120D04EA4903
:100CF2004B600E90093CE0FBA3E0FAA3E0F9120B73
:020D02001522B8
:101496001200461212B5EF60FA7B017A0079121239
:0D14A600150A7B017A007912120C1280E603
:1010B10041542B43574D4F44453D320D0A004F4B90
:1010C1000041542B43575341503D2241495F4C61EC
:1010D10062222C223132333435363738222C312CEE
:1010E100340D0A0041542B5253540D0A0041542B24
:1010F1004349504D55583D310D0A0041542B434948
:10110100505345525645523D312C383030300D0A3E
:0C1111000041542B43494653520D0A0084
:10123D00470912FF10B1FF10BF2C470919FF10C24B
:10124D00FF10BF2C470920FF10E5FF10BF2C4709E9
:10125D0027FF10EEFF10BF2C47092EFF10FCFF10CB
:0C126D00BF2C470935FF1112FF10BF2CE9
:10138400E490093CF0A37404F07B017A09793CFFF2
:101394001202677D047F0412127A7F6412152F7D76
:0B13A400047F041212EA7F0A0214B357
:1012B5009000077401F0E4900004F0A3F09000089A
:1012C500F0900006740AF0900006E0D3940050F701
:1012D500900008E0600CE4900007F0900004A3E0A3
:0512E500FF227F002242
:080F9600E0FBA3E0FAA3E0F97F
:0B0F9E0090093CEBF0A3EAF0A3E9F09F
:100FA900900942E0FEA3E0FF7C007D0A1207DEA360
:100FB900EEF0A3EFF0D3900945E09400900944E0E6
:100FC9009400405190093CE0FBA3E0FAA3E0F91238
:100FD90014F71212B5EF602D7B017A007912121500
:100FE9000A90093FE0F9A3E0FAA3E090094EC9F09D
:100FF900A3EAF0A3E9F07B017A007912120D04EA61
:10100900494B600122900945E024FFF0900944E032
:0B10190034FFF080A07B007A0079001B
:0110240022A9
:1009F800900915E0F9A3E0FAA3E090093FC9F0A334
:100A0800EAF0A3E9F0900918E0FF900942E4F0A3A6
:100A1800EFF0900912120F96EA494B7002FF2290EC
:100A2800091CE0F9A3E0FAA3E090093FC9F0A3EAA2
:100A3800F0A3E9F090091FE0FF900942E4F0A3EF6A
:100A4800F0900919120F96EA494B7002FF2290099B
:100A580023E0F9A3E0FAA3E090093FC9F0A3EAF084
:100A6800A3E9F0900926E0FF900942E4F0A3EFF033
:100A7800900920120F96EA494B7002FF2290092A2A
:100A8800E0F9A3E0FAA3E090093FC9F0A3EAF0A3D4
:100A9800E9F090092DE0FF900942E4F0A3EFF0900F
:100AA8000927120F96EA494B7002FF22900931E09C
:100AB800F9A3E0FAA3E090093FC9F0A3EAF0A3E99B
:100AC800F0900934E0FF900942E4F0A3EFF09009B8
:100AD8002E120F96EA494B7002FF22900938E0F96E
:100AE800A3E0FAA3E090093FC9F0A3EAF0A3E9F074
:100AF80090093BE0FF900942E4F0A3EFF09009353C
:0D0B0800120F96EA494B7002FF227F012276
:10147400538E7F5389F0E4F58A758CB8C28DD28C73
:10148400D2A99009697464F0E4900966F0A3F0A30A
:02149400F02244
:03000B000211835C
:10118300C0E0C083C082C0D075D000C006C0079045
:101193000969E0D394004003E014F0900007E06095
:1011A30032900006E0D394004029E014F0E070236D
:1011B300A3F0900004E0FEA3E0FFD39400EE9400BC
:1011C300401174122FF58274003EF583E4F0900011
:1011D3000804F0D007D006D0D0D082D083D0E0323C
:10026700EFD3940540037F0122120786FED3940340
:1002770040037F0222EF7041EE700B9000011207DE
:100287009FF452935294120786B4010B9000011207
:10029700079F4293F45294120786FEB4020A900015
:1002A7000112079F42934294EEB4030D900001128E
:1002B700079FFEF45293EE4294EF640170431207D6
:1002C70086FE700B90000112079FF452915292EE36
:1002D700B4010B90000112079F4291F4529212074A
:1002E70086B4020A90000112079F429142921207B8
:1002F70086B4030D90000112079FFEF45291EE425F
:1003070092EF64027043120786FE700B9000011291
:10031700079FF452955296EEB4010B900001120715
:100327009F4295F45296120786B4020A9000011272
:10033700079F42954296120786B4030D900001125B
:10034700079FFEF45295EE4296EF6403704312073F
:1003570086FE700B90000112079FF452B152B2EE65
:10036700B4010B90000112079F42B1F452B2120779
:1003770086B4020A90000112079F42B142B21207E7
:1003870086B4030D90000112079FFEF452B1EE42AE
:10039700B2EF64047043120786FE700B90000112DF
:1003A700079FF452B352B4EEB4010B900001120749
:1003B7009F42B3F452B4120786B4020A90000112A6
:1003C700079F42B342B4120786B4030D900001128F
:1003D700079FFEF452B3EE42B4EF64057043120771
:1003E70086FF700B90000112079FF452C952CAEFA3
:1003F700B4010B90000112079F42C9F452CA1207B9
:1004070086B4020A90000112079F42C942CA120726
:1004170086B4030D90000112079FFFF452C9EF4203
:04042700CA7F002266
:1012EA00EFD3940540037F0122EF7003ED4280EFB4
:1012FA00B40103ED4290EFB40203ED42A0EFB40350
:10130A0003ED42B0EFB40403ED42C0EFB40503EDC0
:05131A0042C87F002223
:10127A00EFD3940540037F0122EF7004EDF452800E
:10128A00EFB40104EDF45290EFB40204EDF452A06D
:10129A00EFB40304EDF452B0EFB40404EDF452C019
:0B12AA00EFB40504EDF452C87F0022F1
:1014CC00EF70038DFA22EFB401038DFB22EFB4020F
:0614DC0004AF058FFC22A5
:1005E70090094AEBF0A3EAF0A3E9F0AD07EDD39445
:1005F700034003020785ED6403704CC2DEF5F9F58D
:10060700E990094AE0FBA3E0FAA3E0F9120786FFA5
:10061700E5A254CF4FF5A290000112079FFFE5D93D
:1006270054F14FF5D990000412079F5401FFE5D903
:1006370054FE4FF5D990000512079FB40104D2BFAD
:100647008002C2BFD2DE2290094AE0FBA3E0FAA3F0
:10065700E02404F9E43AFA12078654311207CC90E1
:10066700094AE0FBA3E0FAA3E0F990000212079F12
:10067700C39448400FE92404F9E43AFA1207865470
:10068700CF1207CCED704F90094AE0FBA3E0FAA325
:10069700E0F990000412079FFF90000212079FFEE7
:1006A7004FF5DA90000312079FFFE5F2543F4FF52D
:1006B700F2900006120849FBAAF090095AEAF0A343
:1006C700EBF0C200900957EEF0900960EAF0A3EB57
:1006D700F0F5EAEAF5FAED6401704F90094AE0FB9C
:1006E700A3E0FAA3E0F990000412079FFF9000022D
:1006F70012079FFE4FF5DB90000312079FFFE5F3FC
:10070700543F4FF5F3900006120849FBAAF09009F1
:100717005CEAF0A3EBF0C201900958EEF090096291
:10072700EAF0A3EBF0F5EBEAF5FBED6402704F900E
:10073700094AE0FBA3E0FAA3E0F990000412079F3F
:10074700FF90000212079FFE4FF5DC90000312078F
:100757009FFFE5F4543F4FF5F4900006120849FD5A
:10076700ACF090095EECF0A3EDF0C202900959EEEF
:0F077700F0900964ECF0A3EDF0F5ECECF5FC224A
:10140300900002E02492F582E43404F583EFF09037
:101413000002E004F0C394804002E4F0900003E093
:08142300700504F0439A022257
:1014F700120786FF600C121403740129F9E43AFA03
:0315070080EE2251
:1013AF0090000BE02412F582E43405F583EFF09002
:1013BF00000BE004F0C3748094844002E4F09000CA
:0A13CF000CE0700504F043840222D4
:10150A00120786FF600C1213AF740129F9E43AFA44
:03151A0080EE223E
:10142B00759A50438E0475D7D075D6FF438E1090A6
:10143B0000007402F0E4A3F0A3F0A3F0A3F0A3F078
:07144B00A3F0A3F0A3F022BF
:1013D90075841043844043D12075D3D075D2FF431F
:1013E900D1809000097404F0E4A3F0A3F0A3F0A362
:0A13F900F0A3F0A3F0A3F0A3F0228C
:03004300020F01A8
:100F0100C0E0C0F0C083C082C0D075D000C000C0B6
:100F110006C007E59A30E036539AFE900007E0B428
:100F2100012CC3900004E094044004E4F0A3F09089
:100F31000004E475F001120833FE741225F0F58205
:100F410074003EF583E59BF0900006740AF0E59A83
:100F510030E131539AFD900002E0FF900001E0FE84
:100F61006F601C74922EF582E43404F583E0F59BE6
:100F7100900001E004F0C394804009E4F080059002
:100F81000003E4F0D007D006D000D0D0D082D083C7
:050F9100D0F0D0E032B9
:03009300020E6AF0
:100E6A00C0E0C0F0C083C082C0D075D000C000C04E
:100E7A0006C007E58430E0365384FE900010E0B4E3
:100E8A00012CC390000DE094044004E4F0A3F09018
:100E9A00000DE475F001120833FE741225F0F58294
:100EAA0074043EF583E585F090000F7405F0E5843F
:100EBA0030E1335384FD90000BE0FF90000AE0FE1E
:100ECA006F601E74122EF582E43405F583E0F58511
:100EDA0090000AE004F0C3748094844009E4F0802E
:100EEA000590000CE4F0D007D006D000D0D0D08214
:070EFA00D083D0F0D0E032FC
:03000000021025C6
:0C102500787FE4F6D8FD75812002106C85
:10078600BB010689828A83E0225002E722BBFE0271
:09079600E32289828A83E49322A4
:10079F00BB010CE58229F582E5833AF583E022500F
:1007AF0006E92582F8E622BBFE06E92582F8E22259
:0D07BF00E58229F582E5833AF583E4932273
:1007CC00BB010689828A83F0225002F722BBFE010C
:0207DC00F32206
:1007DE00BC000BBE0029EF8DF084FFADF022E4CCFF
:1007EE00F875F008EF2FFFEE33FEEC33FCEE9DECC8
:1007FE00984005FCEE9DFE0FD5F0E9E4CEFD22ED0E
:10080E00F8F5F0EE8420D21CFEADF075F008EF2F57
:10081E00FFED33FD4007985006D5F0F222C398FD48
:05082E000FD5F0EA22E5
:10083300A3F8E0C5F025F0F0E58215827002158378
:06084300E0C838F0E822D5
:10084900BB0110E58229F582E5833AF583E0F5F0ED
:10085900A3E0225009E92582F886F008E622BBFECA
:100869000AE92582F8E2F5F008E222E5832AF58310
:08087900E993F5F0A3E99322D5
:100D040090094BEBF0A3EAF0A3E9F0A3E0FBA3E026
:100D1400FAA3E0F91207867003020DB090094BE0C4
:100D2400FBA3E0FAA3E0F91207867003020DBC905E
:100D3400094EE0F9A3E0FAA3E0A3C9F0A3EAF0A303
:100D4400E9F090094BA3E0FAA3E0F9900954EBF021
:100D5400A3EAF0A3E9F0900951E0FBA3E0FAA3E0D1
:100D6400F9120786FF6026900954E0FBA3E0FAA37A
:100D7400E0F91207866F701590095275F001120898
:100D8400AD900955E475F0011208AD80C990095180
:100D9400E0FBA3E0FAA3E0F91207867002800D904D
:100DA400094CE475F0011208AD020D2090094BE0E6
:0F0DB400FBA3E0FAA3E0F9227B007A007900228A
:10088100EF4E6012EF60010EEDBB010B89828A838E
:10089100F0A3DFFCDEFA2289F05007F709DFFCA99B
:0C08A100F022BBFEFCF309DFFCA9F022F2
:10103100021496E493A3F8E493A34003F68001F22B
:1010410008DFF48029E493A3F85407240CC8C333C0
:10105100C4540F4420C8834004F456800146F6DF8F
:10106100E4800B010204081020408090123DE47ED0
:10107100019360BCA3FF543F30E509541FFEE49384
:10108100A360010ECF54C025E060A840B8E493A34B
:10109100FAE493A3F8E493A3C8C582C8CAC583CA76
:1010A100F0A3C8C582C8CAC583CADFE9DEE780BE2E
:011279000074
:1008AD00C5F0F8A3E028F0C5F0F8E58215827002D6
:0608BD001583E038F02273
:00000001FF
