:101AA300AD071FED600B0000007E1A1EEE60F18093
:011AB300FA38
:011AB400220F
:0F1AB5007DA57C06ED1D70011C144C70F7DFF150
:011AC40022FF
:021A1000AB0722
:101A1200AF031BEF60107E04EED3940040F27FFA16
:061A2200121AB51E80F24D
:011A2800229B
:101919007379732073746172740D0A00776966694B
:101929002072657365740D0A0077696669207365AD
:0E19390074206170207375636573730D0A006E
:1017BA00C2AF1219C743AF0112199D43AF10E4F526
:1017CA00B8F5B543B5011219EED2AF7BFF7A197994
:1017DA0019121A901211847E087F007D007B017A0B
:1017EA000079121202877BFF7A197925121A901250
:1017FA001947120C6CEF60EE7BFF7A197932121AD4
:02180A0090222A
:100B37004448543131207472756520200D0A0044F1
:100B4700485431312066616C736520200D0A0054CA
:100B5700454D500048554D49004F4E0031206F6EAE
:100B6700210D0A004F46460031206F6666210D0AA7
:100B77000032206F6E210D0A0032206F6666210D4C
:100B87000A0033206F6E210D0A0033206F6666213D
:100B97000D0A0034206F6E210D0A0034206F66663F
:100BA700210D0A0073776974636820696E76616C3A
:100BB700696420636F6D6D616E640D0A004C49476F
:100BC7004854006C6967687431206F6E210D0A0004
:100BD7006C6967687431206F6666210D0A00494E9B
:100BE70043006C696768743120696E63210D0A00E0
:100BF700444543006C696768743120646563210D5F
:100C07000A006C696768743220696E63210D0A00F7
:100C17006C696768743220646563210D0A006C692A
:100C270067687420696E76616C696420636F6D6DA7
:100C3700616E643232320D0A00696E76616C6964E6
:100C470020636F6D6D616E643131310D0A0053455C
:100C5700545749464900535749544348004F4B009E
:050C67004641494C006C
:101A3F00D2C87F01121AA3C2C87F12121AB5D2C818
:051A4F007F04021AA350
:1018E600E4900EF1F0900EF0F030C8FD7F02121A6F
:1018F600A3900EF1E025E0F030C803E004F020C824
:10190600FD900EF0E004F0E0C3940840DC900EF188
:02191600E0FFF0
:0119180022AC
:0B0EAD00900ECEEBF0A3EAF0A3E9F0FA
:100EB800E4A3F0A3F0A3F0A3F0A3F0121A3F30C804
:100EC80003020F5530C8FDC2AF7F08121AA31218CB
:100ED800E6900ED1EFF01218E6900ED2EFF012184D
:100EE800E6900ED3EFF01218E6900ED4EFF0121839
:100EF800E6900ED5EFF0D2AF900ED2E0FD900ED175
:100F0800E02DFDE433FC900ED3E07A002DFDEA3CA1
:100F1800FCA3E02DFDEA3CFC7E00EDB5070CEEB528
:100F280004087BFF7A0B793780067BFF7A0B7946BA
:100F3800121A90900ED3E0FF900ED6E4F0A3EFF0D3
:100F4800900ED1E0FF900ED8E4F0A3EFF0900EB62B
:100F580074FFF0A3740BF0A37456F0900ECEE0FB70
:100F6800A3E0FAA3E0F9121248EA494B6005900E93
:100F7800D68024900EB674FFF0A3740BF0A3745BB4
:100F8800F0900ECEE0FBA3E0FAA3E0F9121248EAD3
:100F9800494B6009900ED8E0FEA3E0FF227EFF7F58
:010FA800FF49
:010FA9002225
:1002C900900EEAEBF0A3EAF0A3E9F090000712011F
:1002D900A524CE60781470030203BB1470030204D2
:1002E9001F24036003020482900EB674FFF0A37406
:1002F9000BF0A37460F0900EEAE0FBA3E0FAA3E030
:10030900F9121248EA494B60107D047F0512187DE5
:100319007BFF7A0B796302047D900EB674FFF0A31C
:10032900740BF0A3746BF0900EEAE0FBA3E0FAA360
:10033900E0F9121248EA494B700302048E7D047FEA
:100349000512180C7BFF7A0B796F02047D900EB6AB
:1003590074FFF0A3740BF0A37460F0900EEAE0FB55
:10036900A3E0FAA3E0F9121248EA494B60107D10A4
:10037900E4FF12187D7BFF7A0B797802047D900ED9
:10038900B674FFF0A3740BF0A3746BF0900EEAE05F
:10039900FBA3E0FAA3E0F9121248EA494B70030201
:1003A900048E7D10E4FF12180C7BFF7A0B79800212
:1003B900047D900EB674FFF0A3740BF0A37460F083
:1003C900900EEAE0FBA3E0FAA3E0F9121248EA4929
:1003D9004B60107D02E4FF12187D7BFF7A0B79894F
:1003E90002047D900EB674FFF0A3740BF0A3746B36
:1003F900F0900EEAE0FBA3E0FAA3E0F9121248EA52
:10040900494B700302048E7D02E4FF12180C7BFF36
:100419007A0B7991805E900EB674FFF0A3740BF09D
:10042900A37460F0900EEAE0FBA3E0FAA3E0F912EE
:100439001248EA494B600F7D01E4FF12187D7BFFEA
:100449007A0B799A802E900EB674FFF0A3740BF094
:10045900A3746BF0900EEAE0FBA3E0FAA3E0F912B3
:100469001248EA494B601E7D01E4FF12180C7BFF1C
:100479007A0B79A2121A90800C7BFF7A0B79AB1256
:070489001A907F00227F01A1
:010490002249
:10184700900EF4EFF0BF0210900EF274A0F0C37484
:10185700FF94A0FDE4FF8015900EF4E0B407149008
:101867000EF374A0F0C374FF94A0FD7F01121A2930
:061877007F01227F002228
:1018B200900E90EFF0BF020FE4900EF2F0C374FFAF
:1018C2009400FDE4FF8014900E90E0B40713E490BE
:1018D2000EF3F0C374FF9400FD7F01121A297F01F9
:0418E200227F00223F
:10164B00900EF5EFF064027028900EF2E0FFC37479
:10165B00FF9FC39428500574FFF08007900EF2E0B3
:10166B002428F0900EF2E0FFC374FF9FFDE4FF808F
:10167B002E900EF5E06407702C900EF3E0FFC37410
:10168B00FF9FC39428500574FFF08007900EF3E082
:10169B002428F0900EF3E0FFC374FF9FFD7F01122F
:0816AB001A297F01227F0022B1
:1016B300900EF6EFF064027022900EF2E0C39428CD
:1016C3005004E4F08007900EF2E024D8F0900EF27C
:1016D300E0FFC374FF9FFDE4FF8028900EF6E064F3
:1016E300077026900EF3E0C394285004E4F08007BB
:1016F300900EF3E024D8F0900EF3E0FFC374FF9F45
:0C170300FD7F01121A297F01227F0022C5
:10065500900EEDEBF0A3EAF0A3E9F0900EB674FF6F
:10066500F0A3740BF0A374C4F0900EEDE0FBA3E0CF
:10067500FAA3E0F9121248EA494B70030208059003
:1006850000061201A524CE7003020744046003028C
:1006950007FD900EB674FFF0A3740BF0A37460F021
:1006A500900EEDE0FBA3E0FAA3E0F9121248EA4947
:1006B5004B60057F02020767900EB674FFF0A374C6
:1006C5000BF0A3746BF0900EEDE0FBA3E0FAA3E052
:1006D500F9121248EA494B60057F02020796900E0F
:1006E500B674FFF0A3740BF0A374E5F0900EEDE083
:1006F500FBA3E0FAA3E0F9121248EA494B600E7F2A
:100705000212164B7BFF7A0B79E902080B900EB6A5
:1007150074FFF0A3740BF0A374F7F0900EEDE0FBFB
:10072500A3E0FAA3E0F9121248EA494B7003020864
:100735000E7F021216B37BFF7A0B79FB02080B9032
:100745000EB674FFF0A3740BF0A37460F0900EED79
:10075500E0FBA3E0FAA3E0F9121248EA494B600E68
:100765007F071218477BFF7A0B79CA02080B900E98
:10077500B674FFF0A3740BF0A3746BF0900EEDE06C
:10078500FBA3E0FAA3E0F9121248EA494B600D7F9A
:10079500071218B27BFF7A0B79D7806A900EB67470
:1007A500FFF0A3740BF0A374E5F0900EEDE0FBA34E
:1007B500E0FAA3E0F9121248EA494B600D7F0712EF
:1007C500164B7BFF7A0C7909803C900EB674FFF0CE
:1007D500A3740BF0A374F7F0900EEDE0FBA3E0FA21
:1007E500A3E0F9121248EA494B601E7F071216B3BF
:1007F5007BFF7A0C7917800E7BFF7A0C79258006B2
:0B0805007BFF7A0C7940121A907F01F3
:0108100022C5
:10118400900E847403F0A304F07B017A0E79847FBB
:1011940005120491900E857413F07B017A0E798404
:1011A400E4FF120491E4900E86F0A304F0FB7A0E9F
:1011B40079867F05120491900E827403F0A37480E3
:1011C400F07B017A0E79827F03120491900E83746E
:1011D40080F07B017A0E79827F01120491E4900EF3
:1011E40088F0A3F0A37442F0E4A3F0A3F0A304F006
:1011F400E4A3F0A3F07B017A0E79887F031208112F
:101204007B017A0E79887F021208117B017A0E79AC
:10121400887F071208117D047F0512180C7D10E4E5
:10122400FF12180C7D02E4FF12180C7D01E4FF127A
:10123400180C7F021218B27F071218B2E4900EF253
:03124400F0A3F024
:011247002284
:0B0D9400900EDAEBF0A3EAF0A3E9F008
:100D9F00900EB674FFF0A3740CF0A37455F01212FA
:100DAF0048900EDDEBF0A3EAF0A3E9F04A4B6003A5
:100DBF00020EAC900EB674FFF0A3740CF0A3745D2A
:100DCF00F0900EDAE0FBA3E0FAA3E0F912124890DC
:100DDF000EDDEBF0A3EAF0A3E9F04A4B6020900E92
:100DEF00DDE0FBA3E0FAA3E0F91202C9EF7BFF609D
:100DFF00067A0C796480047A0C7967020FAA900E38
:100E0F00B674FFF0A3740BF0A374C4F0900EDAE085
:100E1F00FBA3E0FAA3E0F9121248900EDDEBF0A36A
:100E2F00EAF0A3E9F04A4B600E900EDDE0FBA3E081
:100E3F00FAA3E0F9020655900EB674FFF0A3740BF7
:100E4F00F0A37456F0900EDAE0FBA3E0FAA3E0F9FA
:100E5F00121248900EDDEBF0A3EAF0A3E9F04A4B33
:100E6F006002802B900EB674FFF0A3740BF0A37486
:100E7F005BF0900EDAE0FBA3E0FAA3E0F912124860
:100E8F00900EDDEBF0A3EAF0A3E9F04A4B600E9071
:0D0E9F000EDDE0FBA3E0FAA3E0F9120EADBA
:010EAC002223
:07000300474554202F2000A7
:10004600900EF77401F01217BA900EF7E01470F9DB
:1000560012000EEF60F37B017A007912121A90906B
:100066000EB674FFF0A37400F0A37403F07B017A5C
:10007600007912121248EA494B60CE7B017A0D795B
:0600860012120FAA80C354
:1010A70041542B524553544F52450D0A004F4B00A4
:1010B70041542B43574D4F44453D320D0A0041548F
:1010C7002B43575341503D2241495F4C6162222CCB
:1010D7002231323334353637383930222C342C34F8
:1010E7000D0A0041542B5253540D0A0041542B430F
:1010F70049504D55583D310D0A0041542B43495035
:101107005345525645523D312C353030300D0A008B
:1011170041542B43494653520D0A0041542B43492E
:101127005053454E443D302C3137300D0A000D0ADF
:10113700002D2D2D2D2D2D2D2D2D2D2D2D3E3E3ED2
:101147003E00242424242424242424242424242462
:101157002424242424242424240D0A003E2000418E
:10116700542B43495053454E443D302C000000005A
:0D117700000000000000000000000000006B
:1009B000470E4AFF10A7FF10B42C470E51FF10B787
:1009C000FF10B42C470E58FF10C5FF10B42C470E73
:1009D0005FFF10EAFF10B42C470E66FF10F3FF1004
:1009E000B42C470E6DFF1101FF10B42C470E74FF9D
:1009F0001117FF10B42C470E7BFF1122FF10B42CEF
:0413A800AB07AA06DF
:1013AC007C277D101201E4EF2430900E44F07C2752
:1013BC007D10AF03AE021201E47E037FE8CFCDCFE8
:1013CC00CECCCE1201E4EF2430A3F07C037DE8AF49
:1013DC0003AE021201E47E007F64CFCDCFCECCCE23
:1013EC001201E4EF2430A3F07C007D64AF03AE0265
:1013FC001201E47E007F0ACFCDCFCECCCE1201E419
:10140C00EF2430A3F0AE02AF037C007D0A1201E49E
:10141C00ED2430A3F0E4A3F07B017A0E79441201A1
:10142C008CFFB43009740129F9E43AFA80F0EF70BA
:07143C00060429F9E43AFA65
:011443002286
:10194700E4900E82F0A37408F07B017A0E79827F0F
:10195700051204917D087F0512180C7F64121AB5D1
:0C1967007D087F0512187D7F05021A1014
:0B0FAA00900E82EBF0A3EAF0A3E9F048
:100FB50078857C0E7D017BFF7A1179667E007F1E28
:100FC500120166900E82E0FBA3E0FAA3E0F9121A83
:100FD500541213A8900EA3EBF0A3EAF0A3E9F09046
:100FE5000EA3E0F9A3E0FAA3E0900EA9C9F0A3EAE5
:100FF500F0A3E9F07B017A0E79851215E0900EA930
:1010050074FFF0A37411F0A37435F07B017A0E79A7
:10101500851215E07BFF7A117938121A907B017AD7
:101025000E7985121A907BFF7A117949121A9090E0
:101035000E7B7401F0A3740EF0A37485F0A374FF06
:10104500F0A37411F0A37463F0A3742CF0900E5404
:10105500E0F9A3E0FAA3E0900EA9C9F0A3EAF0A392
:10106500E9F0900E57E0FF900EACE4F0A3EFF0909E
:101075000E7B121307EA494B7002FF22900EA974EA
:10108500FFF0A37410F0A374B4F0A37401F0A3747B
:101095002CF0900E82121307EA494B7002FF227F53
:0110A5000149
:0110A6002227
:10000E009000077401F0E4900004F0A3F090000853
:10001E00F0900006740AF0900006E0D3940050F7BA
:10002E00900008E0600CE4900007F0900004A3E05C
:05003E00FF227F0022FB
:08130700E0FBA3E0FAA3E0F90A
:0B130F00900EA6EBF0A3EAF0A3E9F0BB
:10131A00900EACE0FEA3E0FF7C007D0A1201E4908F
:10132A000EB1EEF0A3EFF0D3900EB2E09400900E5F
:10133A00B1E094004061900EA6E0FBA3E0FAA3E0BE
:10134A00F9121A7D12000EEF603D7B017A007912C4
:10135A00121A90900EA9E0F9A3E0FAA3E0900EB653
:10136A00C9F0A3EAF0A3E9F07B017A00791212121C
:10137A0048900EAEEBF0A3EAF0A3E9F04A4B6007FF
:10138A007B007A00790122900EB2E024FFF0900EE1
:0D139A00B1E034FFF080907B007A00790014
:0113A7002223
:100C6C00900E54E0F9A3E0FAA3E0900EA9C9F0A30A
:100C7C00EAF0A3E9F0900E57E0FF900EACE4F0A37D
:100C8C00EFF0900E51121307EA494B7002FF2290BD
:100C9C000E5BE0F9A3E0FAA3E0900EA9C9F0A3EA79
:100CAC00F0A3E9F0900E5EE0FF900EACE4F0A3EF41
:100CBC00F0900E58121307EA494B70087F02121A73
:100CCC00107F0022900E62E0F9A3E0FAA3E0900EF0
:100CDC00A9C9F0A3EAF0A3E9F0900E65E0FF900E2D
:100CEC00ACE4F0A3EFF0900E5F121307EA494B70DF
:100CFC0002FF227F05121A10900E69E0F9A3E0FAA8
:100D0C00A3E0900EA9C9F0A3EAF0A3E9F0900E6C51
:100D1C00E0FF900EACE4F0A3EFF0900E6612130718
:100D2C00EA494B7002FF22900E70E0F9A3E0FAA39F
:100D3C00E0900EA9C9F0A3EAF0A3E9F0900E73E0DD
:100D4C00FF900EACE4F0A3EFF0900E6D121307EAD7
:100D5C00494B7002FF22900E77E0F9A3E0FAA3E072
:100D6C00900EA9C9F0A3EAF0A3E9F0900E7AE0FF87
:100D7C00900EACE4F0A3EFF0900E74121307EA4956
:080D8C004B7002FF227F0122DF
:1019EE00538E7F5389F0E4F58A758CB8C28DD28CF4
:1019FE00D2A9900EE97464F0E4900EE6F0A3F0A381
:021A0E00F022C4
:03000B0002170FCA
:10170F00C0E0C083C082C0D075D008900EE9E0D38E
:10171F0094004003E014F0900007E0603290000660
:10172F00E0D394004029E014F0E07023A3F0900080
:10173F0004E0FEA3E0FFD39400EE94004011741276
:10174F002FF58274003EF583E4F090000804F0D08A
:08175F00D0D082D083D0E0322B
:100A000061320D12485454502F312E302032303084
:100A1000204F4B0D0A436F6E74656E742D547970C0
:100A2000653A20746578742F68746D6C3B20636838
:100A300061727365743D7574662D380D0A436F6E6F
:100A400074656E742D4C656E6774683A2031343964
:100A50000D0A5365727665723A205765726B7A6536
:100A600075672F312E302E3120507974686F6E2FBC
:100A7000332E382E310D0A446174653A2054756561
:100A80002C203134204A756C2032303230203039FD
:100A90003A31323A333820474D540D0A0D0A3C2181
:100AA000444F43545950452068746D6C3E0D0A3CC8
:100AB00068746D6C206C616E673D22656E223E0D20
:100AC0000A3C686561643E0D0A202020203C6D656B
:100AD000746120636861727365743D225554462DBC
:100AE00038223E0D0A202020203C7469746C653E3B
:100AF00047656E693C2F7469746C653E0D0A3C2F26
:100B0000686561643E0D0A3C626F64793E0D0A209F
:100B10002020206920616D20612047656E69757312
:100B20002121210D0A3C2F626F64793E0D0A3C2F72
:060B300068746D6C3E00CC
:04155B00AB07AA062A
:10155F007C277D101201E4EF2430900EE0F07C2701
:10156F007D10AF03AE021201E47E037FE8CFCDCF33
:10157F00CECCCE1201E4EF2430A3F07C037DE8AF94
:10158F0003AE021201E47E007F64CFCDCFCECCCE6E
:10159F001201E4EF2430A3F07C007D64AF03AE02B0
:1015AF001201E47E007F0ACFCDCFCECCCE1201E464
:1015BF00EF2430A3F0AE02AF037C007D0A1201E4EA
:1015CF00ED2430A3F0E4A3F07B017A0E79E0021A48
:0115DF00907B
:10049100EFD3940540037F012212018CFED3940314
:1004A10040037F0222EF7041EE700B9000011201B8
:1004B100A5F45293529412018CB4010B90000112D5
:1004C10001A54293F4529412018CFEB4020A9000E9
:1004D100011201A542934294EEB4030D9000011262
:1004E10001A5FEF45293EE4294EF640170431201B0
:1004F1008CFE700B9000011201A5F452915292EE04
:10050100B4010B9000011201A54291F45292120123
:100511008CB4020A9000011201A54291429212018B
:100521008CB4030D9000011201A5FEF45291EE422C
:1005310092EF6402704312018CFE700B9000011265
:1005410001A5F452955296EEB4010B9000011201EF
:10055100A54295F4529612018CB4020A9000011240
:1005610001A54295429612018CB4030D900001122F
:1005710001A5FEF45295EE4296EF64037043120119
:100581008CFE700B9000011201A5F452B152B2EE33
:10059100B4010B9000011201A542B1F452B2120153
:1005A1008CB4020A9000011201A542B142B21201BB
:1005B1008CB4030D9000011201A5FEF452B1EE427C
:1005C100B2EF6404704312018CFE700B90000112B3
:1005D10001A5F452B352B4EEB4010B900001120123
:1005E100A542B3F452B412018CB4020A9000011274
:1005F10001A542B342B412018CB4030D9000011263
:1006010001A5FEF452B3EE42B4EF6405704312014A
:100611008CFF700B9000011201A5F452C952CAEF70
:10062100B4010B9000011201A542C9F452CA120192
:100631008CB4020A9000011201A542C942CA1201FA
:100641008CB4030D9000011201A5FFF452C9EF42D1
:04065100CA7F00223A
:10187D00EFD3940540037F0122EF7003ED4280EF1B
:10188D00B40103ED4290EFB40203ED42A0EFB403B7
:10189D0003ED42B0EFB40403ED42C0EFB40503ED28
:0518AD0042C87F00228B
:10180C00EFD3940540037F0122EF7004EDF4528076
:10181C00EFB40104EDF45290EFB40204EDF452A0D5
:10182C00EFB40304EDF452B0EFB40404EDF452C081
:0B183C00EFB40504EDF452C87F002259
:101A2900EF70038DFA22EFB401038DFB22EFB402AC
:061A390004AF058FFC2242
:10081100900E90EBF0A3EAF0A3E9F0AD07EDD394CD
:100821000340030209AFED6403704CC2DEF5F9F534
:10083100E9900E90E0FBA3E0FAA3E0F912018CFF2E
:10084100E5A254CF4FF5A29000011201A5FFE5D911
:1008510054F14FF5D99000041201A55401FFE5D9D7
:1008610054FE4FF5D99000051201A5B40104D2BF81
:100871008002C2BFD2DE22900E90E0FBA3E0FAA379
:10088100E02404F9E43AFA12018C54311201D290B5
:100891000E90E0FBA3E0FAA3E0F99000021201A59B
:1008A100C39448400FE92404F9E43AFA12018C5444
:1008B100CF1201D2ED704F900E90E0FBA3E0FAA3AE
:1008C100E0F99000041201A5FF9000021201A5FEBB
:1008D1004FF5DA9000031201A5FFE5F2543F4FF501
:1008E100F290000612024FFBAAF0900EC2EAF0A3AA
:1008F100EBF0C200900EBFEEF0900EC8EAF0A3EB51
:10090100F0F5EAEAF5FAED6401704F900E90E0FB24
:10091100A3E0FAA3E0F99000041201A5FF90000200
:100921001201A5FE4FF5DB9000031201A5FFE5F3CF
:10093100543F4FF5F390000612024FFBAAF0900EC0
:10094100C4EAF0A3EBF0C201900EC0EEF0900ECA23
:10095100EAF0A3EBF0F5EBEAF5FBED6402704F90E2
:100961000E90E0FBA3E0FAA3E0F99000041201A5C8
:10097100FF9000021201A5FE4FF5DC900003120169
:10098100A5FFE5F4543F4FF5F490000612024FFD28
:10099100ACF0900EC6ECF0A3EDF0C202900EC1EEE9
:0F09A100F0900ECCECF0A3EDF0F5ECECF5FC22B1
:101A69008F9BE59A20E1047F0180027F00EF70F2ED
:041A7900539AFD225D
:101A7D0012018CFF600C121A69740129F9E43AFA0B
:031A8D0080EE22C6
:1019730090000BE02412F582E43409F583EFF09034
:10198300000BE004F0C3748094844002E4F0900000
:0A1993000CE0700504F0438402220A
:101A900012018CFF600C121973740129F9E43AFAEF
:031AA00080EE22B3
:1019C700759A50438E0475D7D075D6FF438E109005
:1019D70000007402F0E4A3F0A3F0A3F0A3F0A3F0D7
:0719E700A3F0A3F0A3F0221E
:10199D0075841043844043D12075D3D075D2FF4355
:1019AD00D1809000097404F0E4A3F0A3F0A3F0A398
:0A19BD00F0A3F0A3F0A3F0A3F022C2
:030043000217673A
:10176700C0E0C0F0C083C082C0D075D010E59A3009
:10177700E036539AFE900007E0B4012CC3900004B2
:10178700E094084004E4F0A3F0900004E475F0014D
:10179700120239FE741225F0F58274003EF583E5D6
:1017A7009BF0900006740AF0D0D0D082D083D0F09E
:0317B700D0E0324D
:030093000214D084
:1014D000C0E0C0F0C083C082C0D075D018E58430B1
:1014E000E0365384FE900010E0B4012CC390000D50
:1014F000E094084004E4F0A3F090000DE475F001DE
:10150000120239FE741225F0F58274083EF583E567
:1015100085F090000F7405F0E58430E1335384FDCD
:1015200090000BE0FF90000AE0FE6F601E74122E28
:10153000F582E43409F583E0F58590000AE004F0D3
:10154000C3748094844009E4F0800590000CE4F0BA
:0B155000D0D0D082D083D0F0D0E032A9
:03000000021444A3
:0C144400787FE4F6D8FD75812002148B3F
:10009600E709F608DFFA8046E709F208DFFA803E4C
:1000A60088828C83E709F0A3DFFA8032E309F60839
:1000B600DFFA8078E309F208DFFA807088828C83A1
:1000C600E309F0A3DFFA806489828A83E0A3F60855
:1000D600DFFA805889828A83E0A3F208DFFA804C2F
:1000E60080D280FA80C680D4806980F28033801006
:1000F60080A680EA809A80A880DA80E280CA80336F
:1001060089828A83ECFAE493A3C8C582C8CCC583E6
:10011600CCF0A3C8C582C8CCC583CCDFE9DEE780B6
:100126000D89828A83E493A3F608DFF9ECFAA9F035
:10013600EDFB2289828A83ECFAE0A3C8C582C8CC8B
:10014600C583CCF0A3C8C582C8CCC583CCDFEADEA4
:10015600E880DB89828A83E493A3F208DFF980CC06
:1001660088F0EF60010E4E60C388F0ED2402B404FF
:100176000050B9F582EB2402B4040050AF232345A6
:0601860082239000E673E5
:10018C00BB010689828A83E0225002E722BBFE0271
:09019C00E32289828A83E49322A4
:1001A500BB010CE58229F582E5833AF583E022500F
:1001B50006E92582F8E622BBFE06E92582F8E22259
:0D01C500E58229F582E5833AF583E4932273
:1001D200BB010689828A83F0225002F722BBFE010C
:0201E200F32206
:1001E400BC000BBE0029EF8DF084FFADF022E4CCFF
:1001F400F875F008EF2FFFEE33FEEC33FCEE9DECC8
:10020400984005FCEE9DFE0FD5F0E9E4CEFD22ED0D
:10021400F8F5F0EE8420D21CFEADF075F008EF2F57
:10022400FFED33FD4007985006D5F0F222C398FD48
:050234000FD5F0EA22E5
:10023900A3F8E0C5F025F0F0E58215827002158378
:06024900E0C838F0E822D5
:10024F00BB0110E58229F582E5833AF583E0F5F0ED
:10025F00A3E0225009E92582F886F008E622BBFECA
:10026F000AE92582F8E2F5F008E222E5832AF58310
:08027F00E993F5F0A3E99322D5
:1015E000900EA6EBF0A3EAF0A3E9F0900EACEBF0BE
:1015F000A3EAF0A3E9F0900EA6E0FBA3E475F001E6
:10160000120239A9F0FA12018C70EB900EA774FF48
:10161000F5F01202B3900EA9E0FBA3E475F00112FD
:101620000239A9F0FA12018CFF900EA6E0FBA3E4A8
:1016300075F001120239A9F0FAEF1201D270D690BA
:0B1640000EACE0FBA3E0FAA3E0F922EF
:101A5400E4FFFE12018C600C0FEF70010E09E970B7
:051A6400F20A80EF22F0
:10124800900EB3EBF0A3EAF0A3E9F0A3E0FBA3E070
:10125800FAA3E0F912018C70030212F4900EB3E0C5
:10126800FBA3E0FAA3E0F912018C700302130090CB
:101278000EB6E0F9A3E0FAA3E0A3C9F0A3EAF0A34D
:10128800E9F0900EB3A3E0FAA3E0F9900EBCEBF0FE
:10129800A3EAF0A3E9F0900EB9E0FBA3E0FAA3E01B
:1012A800F912018CFF6026900EBCE0FBA3E0FAA3C4
:1012B800E0F912018C6F7015900EBA75F0011202E8
:1012C800B3900EBDE475F0011202B380C9900EB957
:1012D800E0FBA3E0FAA3E0F912018C7002800D9004
:1012E8000EB4E475F0011202B3021264900EB3E07A
:0F12F800FBA3E0FAA3E0F9227B007A0079002241
:10028700EF4E6012EF60010EEDBB010B89828A838E
:10029700F0A3DFFCDEFA2289F05007F709DFFCA99B
:0C02A700F022BBFEFCF309DFFCA9F022F2
:10145000020046E493A3F8E493A34003F68001F26C
:1014600008DFF48029E493A3F85407240CC8C3339D
:10147000C4540F4420C8834004F456800146F6DF6C
:10148000E4800B01020408102040809009B0E47E43
:10149000019360BCA3FF543F30E509541FFEE49361
:1014A000A360010ECF54C025E060A840B8E493A328
:1014B000FAE493A3F8E493A3C8C582C8CAC583CA53
:1014C000F0A3C8C582C8CAC583CADFE9DEE780BE0B
:010B360000BE
:1002B300C5F0F8A3E028F0C5F0F8E58215827002D6
:0602C3001583E038F02273
:00000001FF
