:1024F600AD071FED600B0000007E1A1EEE60F18036
:01250600FADA
:0125070022B1
:0F2508007DA57C06ED1D70011C144C70F7DFF1F2
:0125170022A1
:02002600AB0726
:10002800AF031BEF60107E04EED3940040F27FFA1A
:060038001225081E80F2F3
:01003E00229F
:1023C3007379732073746172740D0A007769666997
:1023D3002072657365740D0A0077696669207365F9
:0E23E30074206170207375636573730D0A00BA
:1021CD00C2AF12241D43AF011222F6E4F5B8F5B5E6
:1021DD0043B50112246FD2AF7BFF7A2379C312244A
:1021ED00E31219D57E087F007D007B017A00799678
:1021FD00120C897BFF7A2379CF1224E31223F1127B
:0F220D00139CEF60EE7BFF7A2379DC1224E3222F
:1014D0004448543131207472756520200D0A00444F
:1014E000485431312066616C736520200D0A005428
:1014F000454D500048554D49004F4E0031206F6E0C
:10150000210D0A004F46460031206F6666210D0A04
:101510000032206F6E210D0A0032206F6666210DA9
:101520000A0033206F6E210D0A0033206F6666219A
:101530000D0A0034206F6E210D0A0034206F66669C
:10154000210D0A0073776974636820696E76616C97
:10155000696420636F6D6D616E640D0A004C4947CC
:101560004854006C6967687431206F6E210D0A0061
:101570006C6967687431206F6666210D0A00494EF8
:1015800043006C696768743120696E63210D0A003D
:10159000444543006C696768743120646563210DBC
:1015A0000A006C696768743220696E63210D0A0055
:1015B0006C696768743220646563210D0A006C6988
:1015C00067687420696E76616C696420636F6D6D05
:1015D000616E643232320D0A00696E76616C696444
:1015E00020636F6D6D616E643131310D0A005357A8
:0515F0004954434800CE
:10000E00D2C87F011224F6C2C87F12122508D2C8A8
:05001E007F040224F63E
:10232A00E4900D2CF0900D2BF030C8FD7F021224A2
:10233A00F6900D2CE025E0F030C803E004F020C848
:10234A00FD900D2BE004F0E0C3940840DC900D2CC6
:02235A00E0FFA2
:01235C00225E
:0B170400900D1FEBF0A3EAF0A3E9F04A
:10170F00E4A3F0A3F0A3F0A3F0A3F012000E30C8EF
:10171F00030217AC30C8FDC2AF7F081224F61223A4
:10172F002A900D22EFF012232A900D23EFF01223AF
:10173F002A900D24EFF012232A900D25EFF012239B
:10174F002A900D26EFF0D2AF900D23E0FD900D22E1
:10175F00E02DFDE433FC900D24E07A002DFDEA3CF2
:10176F00FCA3E02DFDEA3CFC7E00EDB5070CEEB5C9
:10177F0004087BFF7A1479D080067BFF7A1479DF17
:10178F001224E3900D24E0FF900D27E4F0A3EFF077
:10179F00900D22E0FF900D29E4F0A3EFF0900D6B78
:1017AF0074FFF0A37414F0A374EFF0900D1FE0FB1F
:1017BF00A3E0FAA3E0F9121A99EA494B6005900DDC
:1017CF00278024900D6B74FFF0A37414F0A374F4AE
:1017DF00F0900D1FE0FBA3E0FAA3E0F9121A99EACB
:1017EF00494B6009900D29E0FEA3E0FF227EFF7FA9
:0117FF00FFEA
:0118000022C5
:100CB500900D1FEBF0A3EAF0A3E9F0900007120BEB
:100CC5006F24CE6078147003020DA7147003020E12
:100CD5000B24036003020E6E900D6B74FFF0A3747A
:100CE50014F0A374F9F0900D1FE0FBA3E0FAA3E064
:100CF500F9121A99EA494B60107D047F0512228D7D
:100D05007BFF7A1479FC020E69900D6B74FFF0A3DA
:100D15007415F0A37404F0900D1FE0FBA3E0FAA393
:100D2500E0F9121A99EA494B7003020E7A7D047FA5
:100D35000512221C7BFF7A157908020E69900D6B4E
:100D450074FFF0A37414F0A374F9F0900D1FE0FB89
:100D5500A3E0FAA3E0F9121A99EA494B60107D1055
:100D6500E4FF12228D7BFF7A157911020E69900D31
:100D75006B74FFF0A37415F0A37404F0900D1FE0DD
:100D8500FBA3E0FAA3E0F9121A99EA494B700302B2
:100D95000E7A7D10E4FF12221C7BFF7A1579190269
:100DA5000E69900D6B74FFF0A37414F0A374F9F041
:100DB500900D1FE0FBA3E0FAA3E0F9121A99EA49A6
:100DC5004B60107D02E4FF12228D7BFF7A1579229C
:100DD500020E69900D6B74FFF0A37415F0A37404F3
:100DE500F0900D1FE0FBA3E0FAA3E0F9121A99EACF
:100DF500494B7003020E7A7D02E4FF12221C7BFF31
:100E05007A15792A805E900D6B74FFF0A37414F047
:100E1500A374F9F0900D1FE0FBA3E0FAA3E0F9122B
:100E25001A99EA494B600F7D01E4FF12228D7BFF81
:100E35007A157933802E900D6B74FFF0A37415F03D
:100E4500A37404F0900D1FE0FBA3E0FAA3E0F912F0
:100E55001A99EA494B601E7D01E4FF12221C7BFFB3
:100E65007A15793B1224E3800C7BFF7A15794412BD
:070E750024E37F00227F014E
:010E7C002253
:10225700900D22EFF0BF0210900DCD74A0F0C37463
:10226700FF94A0FDE4FF8015900D22E0B4071490C1
:102277000DCE74A0F0C374FF94A0FD7F01122491CA
:062287007F01227F00220E
:1022C200900D27EFF0BF020FE4900DCDF0C374FF25
:1022D2009400FDE4FF8014900D27E0B40713E4900E
:1022E2000DCEF0C374FF9400FD7F011224917F0193
:0422F200227F002225
:10200500900D22EFF064027028900DCDE0FFC374AF
:10201500FF9FC39428500574FFF08007900DCDE015
:102025002428F0900DCDE0FFC374FF9FFDE4FF80F1
:102035002E900D22E06407702C900DCEE0FFC37446
:10204500FF9FC39428500574FFF08007900DCEE0E4
:102055002428F0900DCEE0FFC374FF9FFD7F011291
:0820650024917F01227F00227B
:10206D00900D22EFF064027022900DCDE0C3942804
:10207D005004E4F08007900DCDE024D8F0900DCD04
:10208D00E0FFC374FF9FFDE4FF8028900D22E06404
:10209D00077026900DCEE0C394285004E4F080071D
:1020AD00900DCEE024D8F0900DCEE0FFC374FF9FCD
:0C20BD00FD7F011224917F01227F002290
:10104100900D1FEBF0A3EAF0A3E9F0900D6B74FF94
:10105100F0A37415F0A3745DF0900D1FE0FBA3E005
:10106100FAA3E0F9121A99EA494B70030211F190BF
:101071000006120B6F24CE700302113004600302CC
:1010810011E9900D6B74FFF0A37414F0A374F9F0DF
:10109100900D1FE0FBA3E0FAA3E0F9121A99EA49C7
:1010A1004B60057F02021153900D6B74FFF0A37426
:1010B10015F0A37404F0900D1FE0FBA3E0FAA3E088
:1010C100F9121A99EA494B60057F02021182900DCB
:1010D1006B74FFF0A37415F0A3747EF0900D1FE004
:1010E100FBA3E0FAA3E0F9121A99EA494B600E7FDB
:1010F100021220057BFF7A1579820211F7900D6BA0
:1011010074FFF0A37415F0A37490F0900D1FE0FB31
:10111100A3E0FAA3E0F9121A99EA494B700302110C
:10112100FA7F0212206D7BFF7A1579940211F790F4
:101131000D6B74FFF0A37414F0A374F9F0900D1FFC
:10114100E0FBA3E0FAA3E0F9121A99EA494B600E19
:101151007F071222577BFF7A1579630211F7900DF1
:101161006B74FFF0A37415F0A37404F0900D1FE0ED
:10117100FBA3E0FAA3E0F9121A99EA494B600D7F4B
:10118100071222C27BFF7A157970806A900D6B7409
:10119100FFF0A37415F0A3747EF0900D1FE0FBA384
:1011A100E0FAA3E0F9121A99EA494B600D7F0712A0
:1011B10020057BFF7A1579A2803C900D6B74FFF0BE
:1011C100A37415F0A37490F0900D1FE0FBA3E0FA57
:1011D100A3E0F9121A99EA494B601E7F0712206DAC
:1011E1007BFF7A1579B0800E7BFF7A1579BE800678
:0B11F1007BFF7A1579D91224E37F01FF
:0111FC0022D0
:1019D500900D1B7403F0A304F07B017A0D791B7F36
:1019E50005120E7D900D1C7413F07B017A0D791B89
:1019F500E4FF120E7DE4900D1DF0A304F0FB7A0DBB
:101A0500791D7F05120E7D900D197403F0A3748066
:101A1500F07B017A0D79197F03120E7D900D1A74F2
:101A250080F07B017A0D79197F01120E7DE4900D0E
:101A35001FF0A3F0A37442F0E4A3F0A3F0A304F015
:101A4500E4A3F0A3F07B017A0D791F7F031211FD4A
:101A55007B017A0D791F7F021211FD7B017A0D79C9
:101A65001F7F071211FD7D047F0512221C7D10E4E6
:101A7500FF12221C7D02E4FF12221C7D01E4FF12ED
:101A8500221C7F021222C27F071222C2E4900DCDD2
:031A9500F0A3F0CB
:011A9800222B
:0B18F300900D19EBF0A3EAF0A3E9F060
:1018FE00900D6B74FFF0A37415F0A374EEF0121A32
:10190E0099900D1CEBF0A3EAF0A3E9F04A4B601797
:10191E00900D1CE0FBA3E0FAA3E0F9120CB5EF600A
:10192E00037F01227F0022900D6B74FFF0A37415CC
:10193E00F0A3745DF0900D19E0FBA3E0FAA3E0F9BB
:10194E00121A99900D1CEBF0A3EAF0A3E9F04A4BA2
:10195E00600E900D1CE0FBA3E0FAA3E0F90210412B
:10196E00900D6B74FFF0A37414F0A374EFF0900D50
:10197E0019E0FBA3E0FAA3E0F9121A99900D1CEB03
:10198E00F0A3EAF0A3E9F04A4B6002802B900D6BB6
:10199E0074FFF0A37414F0A374F4F0900D19E0FB2F
:1019AE00A3E0FAA3E0F9121A99900D1CEBF0A3EA4A
:1019BE00F0A3E9F04A4B600E900D1CE0FBA3E0FA99
:0619CE00A3E0F91217046A
:0119D40022F0
:10244800474554202F2000474554202F3F0044651E
:10245800766963657320636F6E74726F6C20466172
:07246800696C202121210015
:101DF400900DCF7401F01221CD900DCFE01470F945
:101E040012235DEF60F37B017A0079961224E3904C
:101E14000D6B74FFF0A37424F0A37448F07B017A73
:101E2400007996121A99900D16EBF0A3EAF0A3E943
:101E3400F04A4B60028037900D6B74FFF0A374245A
:101E4400F0A3744FF07B017A007996121A99900DE1
:101E540016EBF0A3EAF0A3E9F04A4B609C900D1650
:101E6400E0FBA3E0FAA3E0F91218F3BF010B7BFF38
:101E74007A007990121C0F80807BFF7A24795612A5
:051E84001C0F021DFD12
:101B580041542B524553544F52450D0A004F4B00E8
:101B680041542B43574D4F44453D320D0A004154D3
:101B78002B43575341503D2241495F4C6162222C0F
:101B88002231323334353637383930222C342C343C
:101B98000D0A0041542B5253540D0A0041542B4353
:101BA80049504D55583D310D0A0041542B43495079
:101BB8005345525645523D312C353030300D0A00D0
:101BC80041542B43494653520D0A0041542B434973
:101BD8005053454E443D302C3137300D0A000D0A24
:101BE800003E20000D0A0D0A0041542B4349505372
:101BF800454E443D302C000000000000000000006D
:071C080000000000000000D5
:1020C900480D74FF1B58FF1B65012C480D7CFF1B35
:1020D90068FF1B65012C480D84FF1B76FF1B6501FA
:1020E9002C480D8CFF1B9BFF1B65012C480D94FF91
:1020F9001BA4FF1B65012C480D9CFF1BB2FF1B6530
:10210900012C480DA4FF1BC8FF1B65012C480DAC11
:08211900FF1BD3FF1B65012C25
:1015F500900D5BEBF0A3EAF0A3E9F0A3ECF0A3ED0B
:01160500F0F4
:10160600900D5EE0FEA3E0FF7C277D10120BD0EF6D
:101616002430FF900D5BE0FBA3E0FAA3E0F9EF12A4
:101626000B9C900D5EE0FEA3E0FF7C277D10120B65
:10163600D07E037FE8CFCDCFCECCCE120BD0EF2419
:1016460030FF900D5BE0FBA3E0FAA3E0F990000108
:10165600EF120BAE900D5EE0FEA3E0FF7C037DE88B
:10166600120BD07E007F64CFCDCFCECCCE120BD066
:10167600EF2430FF900D5BE0FBA3E0FAA3E0F990C6
:101686000002EF120BAE900D5EE0FEA3E0FF7C00C1
:101696007D64120BD07E007F0ACFCDCFCECCCE128A
:1016A6000BD0EF2430FF900D5BE0FBA3E0FAA3E044
:1016B600F9900003EF120BAE900D5EE0FEA3E0FF83
:1016C6007C007D0A120BD0ED2430FF900D5BE0FB11
:1016D600A3E0FAA3E0F9900004EF120BAE90000528
:1016E600E4120BAE120B56FFB43009740129F9E46B
:0D16F6003AFA80F0EF70060429F9E43AFAA0
:0117030022C3
:1023F100E4900D19F0A37408F07B017A0D79197F2F
:1024010005120E7D7D087F0512221C7F64122508AE
:0C2411007D087F0512228D7F020200264C
:0B180100900D31EBF0A3EAF0A3E9F03A
:10180C00783A7C0D7D017BFF7A1B79F17E007F1E7F
:10181C00120B30900D31E0FBA3E0FAA3E0F9122497
:10182C00A77B017A0D7934AD07AC061215F5900D36
:10183C0058EBF0A3EAF0A3E9F0900D58E0F9A3E01F
:10184C00FAA3E0900D5EC9F0A3EAF0A3E9F07B01E6
:10185C007A0D793A121F9A900D5E74FFF0A3741BE7
:10186C00F0A374E6F07B017A0D793A121F9A900D71
:10187C00AC7401F0A3740DF0A3743AF0A374FFF0F0
:10188C00A3741BF0A374E9F0A37401F0A3742CF0FF
:10189C00900D7FE0F9A3E0FAA3E0900D5EC9F0A3F0
:1018AC00EAF0A3E9F0900D82E0FFA3E0900D61CF88
:1018BC00F0A3EFF0900DAC121CB7EA494B7002FF8D
:1018CC0022900D5E74FFF0A3741BF0A37465F0A35B
:1018DC007401F0A3742CF0900D31121CB7EA494B33
:0618EC007002FF227F01E3
:0118F20022D3
:0B1C0F00900D19EBF0A3EAF0A3E9F040
:101C1A001224A7900D2FEEF0A3EFF07E007F0A7D2D
:101C2A00007B017A0D791C120C897BFF7A007946B8
:101C3A00121801EF7002FF227B017A0D7926900DAE
:101C4A002FE0FCA3E0FD1215F5900D2CEBF0A3EAB2
:101C5A00F0A3E9F0900D2CE0F9A3E0FAA3E0900DCF
:101C6A005EC9F0A3EAF0A3E9F07B017A0D791C12B0
:101C7A001F9A900D5E74FFF0A3741BF0A374ECF02E
:101C8A007B017A0D791C121F9A7B017A0D791C123D
:101C9A001801EF7002FF22900D19E0FBA3E0FAA3EE
:0C1CAA00E0F9121801EF7002FF227F0128
:011CB600220B
:10235D009000147401F0E4900011F0A3F0900015BA
:10236D00F0900013740AF0900013E0D3940050F72E
:10237D00E4900014F0A3E06007900011A3E0FF22A9
:03238D007F0022AC
:081CB700E0FBA3E0FAA3E0F951
:0B1CBF00900D5BEBF0A3EAF0A3E9F04E
:101CCA00900D61E0FEA3E0FF7C007D0A120BD0902C
:101CDA000D66EEF0A3EFF0D3900D67E09400900D3F
:101CEA0066E094004061900D5BE0FBA3E0FAA3E09C
:101CFA00F91224D012235DEF603D7B017A007996B8
:101D0A001224E3900D5EE0F9A3E0FAA3E0900D6BD4
:101D1A00C9F0A3EAF0A3E9F07B017A007996121AD6
:101D2A0099900D63EBF0A3EAF0A3E9F04A4B600740
:101D3A007B007A00790122900D67E024FFF0900D74
:0D1D4A0066E034FFF080907B007A007900A5
:011D57002269
:10139C00900D7FE0F9A3E0FAA3E0900D5EC9F0A3F5
:1013AC00EAF0A3E9F0900D82E0FFA3E0900D61CF8D
:1013BC00F0A3EFF0900D7C121CB7EA494B7002FFC2
:1013CC0022900D87E0F9A3E0FAA3E0900D5EC9F03E
:1013DC00A3EAF0A3E9F0900D8AE0FFA3E0900D6181
:1013EC00CFF0A3EFF0900D84121CB7EA494B7008B4
:1013FC007F021200267F0022900D8FE0F9A3E0FA05
:10140C00A3E0900D5EC9F0A3EAF0A3E9F0900D9271
:10141C00E0FFA3E0900D61CFF0A3EFF0900D8C12E4
:10142C001CB7EA494B7002FF227F05120026900D73
:10143C0097E0F9A3E0FAA3E0900D5EC9F0A3EAF0FF
:10144C00A3E9F0900D9AE0FFA3E0900D61CFF0A31B
:10145C00EFF0900D94121CB7EA494B7002FF2290EA
:10146C000D9FE0F9A3E0FAA3E0900D5EC9F0A3EAAA
:10147C00F0A3E9F0900DA2E0FFA3E0900D61CFF096
:10148C00A3EFF0900D9C121CB7EA494B7002FF229F
:10149C00900DA7E0F9A3E0FAA3E0900D5EC9F0A3CC
:1014AC00EAF0A3E9F0900DAAE0FFA3E0900D61CF64
:1014BC00F0A3EFF0900DA4121CB7EA494B7002FF99
:0414CC00227F012258
:10246F00538E7F5389F0E4F58A758CB8C28DD28C68
:10247F00D2A9900DCC7464F0E4900DC9F0A3F0A331
:02248F00F02239
:03000B00022122AD
:10212200C0E0C083C082C0D075D008900DCCE0D38F
:1021320094004003E014F0900014E0603290001329
:10214200E0D394004029E014F0E07023A3F0900063
:1021520011E0FEA3E0FFD39400EE940040117496C8
:102162002FF58274003EF583E4F090001504F0D060
:08217200D0D082D083D0E0320E
:10004600485454502F312E3020323030204F4B0D33
:100056000A436F6E74656E742D547970653A207418
:100066006578742F68746D6C3B2063686172736584
:10007600743D7574662D380D0A436F6E74656E7423
:100086002D4C656E6774683A20003C21444F4354FA
:100096005950452068746D6C3E0D0A3C68746D6C51
:1000A600206C616E673D22656E223E0D0A3C6865D6
:1000B60061643E0D0A202020203C6D65746120633A
:1000C6006861727365743D225554462D38223E0D83
:1000D6000A202020203C7469746C653E47656E6971
:1000E6007573204149204C61623C2F7469746C65BC
:1000F6003E0D0A202020203C7374796C653E0D0A63
:10010600202020202020202068317B666F6E742DF1
:1001160073697A653A363030253B746578742D619B
:100126006C69676E3A63656E7465727D0D0A202090
:100136002020202020207370616E7B666F6E742DE8
:1001460073697A653A333030253B6D617267696E43
:100156002D6C6566743A343070787D0D0A20202047
:100166002020202020627574746F6E7B7479706510
:100176003A627574746F6E3B6D617267696E2D6C51
:100186006566743A343070783B77696474683A31DE
:10019600323070783B6865696768743A313230701E
:1001A600783B626F726465722D7261646975733A29
:1001B600363070783B70616464696E673A323070CD
:1001C600787D0D0A20202020202020202E737331D8
:1001D6007B6261636B67726F756E643A236666391C
:1001E6003935337D0D0A20202020202020202E7333
:1001F60073327B6261636B67726F756E643A6461BA
:10020600726B677261797D0D0A20202020202020E4
:10021600202E7373337B6261636B67726F756E64D6
:100226003A20236666653061307D0D0A2020202045
:10023600202020202E7373347B6261636B67726F9C
:10024600756E643A20236436643664367D0D0A2062
:10025600202020202020202E7373357B626F72644D
:1002660065722D7261646975733A323070783B68D5
:1002760065696768743A363070787D0D0A202020EB
:10028600203C2F7374796C653E0D0A202020203C9B
:100296007363726970743E0D0A202020202020208E
:1002A6002066756E6374696F6E206A702861290D09
:1002B6000A20202020202020207B77696E646F771B
:1002C6002E6C6F636174696F6E2E687265663D226F
:1002D6002F3F222B617D0D0A202020203C2F7363A7
:1002E600726970743E0D0A3C2F686561643E0D0AA2
:1002F6003C626F64793E0D0A202020203C646976BA
:10030600207374796C653D2277696474683A31307C
:1003160030307078223E0D0A202020202020202018
:100326003C646976207374796C653D226261636B07
:1003360067726F756E642D636F6C6F723A736C6162
:10034600746567726179223E0D0A202020202020E4
:100356002020202020203C68313E47656E69757359
:10036600204149204C61623C2F68313E0D0A202015
:100376002020202020203C2F6469763E0D0A202074
:100386002020202020203C62723E0D0A20202020C2
:100396002020202020202020202020203C73706157
:1003A6006E3E535749544348313A3C2F7370616E41
:1003B6003E0D0A2020202020202020202020202042
:1003C6002020203C627574746F6E20636C617373B9
:1003D6003D2273733122206F6E636C69636B3D221D
:1003E6006A702827535749544348313D4F4E2729B1
:1003F600223E4F4E3C2F627574746F6E3E0D0A207E
:100406002020202020202020202020202020203CCA
:10041600627574746F6E20636C6173733D227373BF
:100426003222206F6E636C69636B3D226A702827E7
:10043600535749544348313D4F46462729223E4F9C
:1004460046463C2F627574746F6E3E0D0A2020205E
:10045600202020202020202020202020203C6272E6
:100466003E0D0A2020202020202020202020202091
:100476002020203C7370616E3E53574954434832E6
:100486003A3C2F7370616E3E0D0A202020202020FA
:10049600202020202020202020203C627574746FAC
:1004A6006E20636C6173733D2273733122206F6E0D
:1004B600636C69636B3D226A70282753574954431E
:1004C60048323D4F4E2729223E4F4E3C2F627574CF
:1004D600746F6E3E0D0A2020202020202020202030
:1004E6002020202020203C627574746F6E20636C7F
:1004F6006173733D2273733222206F6E636C69637E
:100506006B3D226A702827535749544348323D4F62
:1005160046462729223E4F46463C2F627574746F25
:100526006E3E3C62723E0D0A2020202020202020B4
:1005360020202020202020203C7370616E3E5357DF
:1005460049544348333A3C2F7370616E3E0D0A207E
:100556002020202020202020202020202020203C79
:10056600627574746F6E20636C6173733D2273736E
:100576003122206F6E636C69636B3D226A70282797
:10058600535749544348333D4F4E2729223E4F4E39
:100596003C2F627574746F6E3E0D0A202020202059
:1005A60020202020202020202020203C62757474EA
:1005B6006F6E20636C6173733D2273733222206FFA
:1005C6006E636C69636B3D226A70282753574954E2
:1005D6004348333D4F46462729223E4F46463C2F49
:1005E600627574746F6E3E3C62723E0D0A20202066
:1005F600202020202020202020202020203C737036
:10060600616E3E535749544348343A3C2F737061E8
:100616006E3E0D0A20202020202020202020202091
:10062600202020203C627574746F6E20636C6173A9
:10063600733D2273733122206F6E636C69636B3D69
:10064600226A702827535749544348343D4F4E2752
:1006560029223E4F4E3C2F627574746F6E3E0D0A12
:100666002020202020202020202020202020202084
:100676003C627574746F6E20636C6173733D227394
:10068600733222206F6E636C69636B3D226A702839
:1006960027535749544348343D4F46462729223E5F
:1006A6004F46463C2F627574746F6E3E0D0A2020CD
:1006B600202020202020202020203C62723E0D0A8F
:1006C60020202020202020203C62723E0D0A20207F
:1006D600202020202020202020203C68723E0D0A69
:1006E60020202020202020203C62723E0D0A20205F
:1006F6002020202020203C7370616E3E4C494748E4
:1007060054313A3C2F7370616E3E0D0A2020202032
:10071600202020203C627574746F6E20636C6173B8
:10072600733D2273733122206F6E636C69636B3D78
:10073600226A7028274C49474854313D4F4E272995
:10074600223E4F4E3C2F627574746F6E3E0D0A202A
:10075600202020202020203C627574746F6E206358
:100766006C6173733D2273733322206F6E636C6901
:10077600636B3D226A7028274C49474854313D49EE
:100786004E432729223E4144443C2F627574746FC0
:100796006E3E0D0A20202020202020203C62757409
:1007A600746F6E20636C6173733D22737334222001
:1007B6006F6E636C69636B3D226A7028274C4947EC
:1007C6004854313D4445432729223E4445433C2F66
:1007D600627574746F6E3E0D0A2020202020202042
:1007E600203C627574746F6E20636C6173733D2276
:1007F60073733222206F6E636C69636B3D226A707D
:1008060028274C49474854313D4F46462729223E22
:100816004F46463C2F627574746F6E3E3C62723E64
:100826000D0A20202020202020203C7370616E3E7F
:100836004C49474854323A3C2F7370616E3E0D0A5C
:1008460020202020202020203C627574746F6E20AA
:10085600636C6173733D2273733122206F6E636C18
:1008660069636B3D226A7028274C49474854323DDC
:100876004F4E2729223E4F4E3C2F627574746F6E81
:100886003E0D0A20202020202020203C6275747412
:100896006F6E20636C6173733D2273733322206F16
:1008A6006E636C69636B3D226A7028274C49474822
:1008B60054323D494E432729223E4144443C2F624F
:1008C6007574746F6E3E0D0A202020202020202093
:1008D6003C627574746F6E20636C6173733D227332
:1008E600733422206F6E636C69636B3D226A7028D5
:1008F600274C49474854323D4F4E2729223E44450E
:10090600433C2F627574746F6E3E0D0A20202020C2
:10091600202020203C627574746F6E20636C6173B6
:10092600733D2273733222206F6E636C69636B3D75
:10093600226A7028274C49474854323D444543278C
:1009460029223E4F46463C2F627574746F6E3E3CBC
:1009560062723E0D0A20202020202020203C627258
:100966003E0D0A2020202020202020202020203C70
:1009760068723E0D0A20202020202020203C627232
:100986003E0D0A20202020202020203C7370616E1E
:100996003E54656D707265747572653A203C73706D
:1009A600616E2069643D227470223E3330202743F5
:1009B6003C2F7370616E3E3C2F7370616E3E3C62DD
:1009C6007574746F6E20636C6173733D2273733537
:1009D60022206F6E636C69636B3D226A7028275212
:1009E6004546524553482729223E5265667265732D
:1009F600683C2F627574746F6E3E3C62723E0D0ADF
:100A060020202020202020203C7370616E3E4875F7
:100A16006D69646974793A203C7370616E2069640B
:100A26003D226875223E3730253C2F7370616E3E3D
:100A36003C2F7370616E3E3C62723E0D0A20202090
:100A4600203C2F6469763E0D0A3C2F626F64793E26
:0A0A56000D0A3C2F68746D6C3E0021
:041F1500AB07AA0666
:101F19007C277D10120BD0EF2430900DC3F07C2765
:101F29007D10AF03AE02120BD07E037FE8CFCDCF79
:101F3900CECCCE120BD0EF2430A3F07C037DE8AFDA
:101F490003AE02120BD07E007F64CFCDCFCECCCEB4
:101F5900120BD0EF2430A3F07C007D64AF03AE02F6
:101F6900120BD07E007F0ACFCDCFCECCCE120BD0B4
:101F7900EF2430A3F0AE02AF037C007D0A120BD030
:101F8900ED2430A3F0E4A3F07B017A0D79C3022498
:011F9900E364
:100E7D00EFD3940540037F0122120B56FED394034A
:100E8D0040037F0222EF7041EE700B900001120BB8
:100E9D006FF452935294120B56B4010B9000011241
:100EAD000B6F4293F45294120B56FEB4020A90004B
:100EBD0001120B6F42934294EEB4030D9000011298
:100ECD000B6FFEF45293EE4294EF64017043120BDC
:100EDD0056FE700B900001120B6FF452915292EE70
:100EED00B4010B900001120B6F4291F45292120B50
:100EFD0056B4020A900001120B6F42914292120BEE
:100F0D0056B4030D900001120B6FFEF45291EE4298
:100F1D0092EF64027043120B56FE700B900001129B
:100F2D000B6FF452955296EEB4010B900001120B1B
:100F3D006F4295F45296120B56B4020A90000112AC
:100F4D000B6F42954296120B56B4030D9000011291
:100F5D000B6FFEF45295EE4296EF64037043120B45
:100F6D0056FE700B900001120B6FF452B152B2EE9F
:100F7D00B4010B900001120B6F42B1F452B2120B7F
:100F8D0056B4020A900001120B6F42B142B2120B1D
:100F9D0056B4030D900001120B6FFEF452B1EE42E8
:100FAD00B2EF64047043120B56FE700B90000112E9
:100FBD000B6FF452B352B4EEB4010B900001120B4F
:100FCD006F42B3F452B4120B56B4020A90000112E0
:100FDD000B6F42B342B4120B56B4030D90000112C5
:100FED000B6FFEF452B3EE42B4EF64057043120B77
:100FFD0056FF700B900001120B6FF452C952CAEFDD
:10100D00B4010B900001120B6F42C9F452CA120BBE
:10101D0056B4020A900001120B6F42C942CA120B5C
:10102D0056B4030D900001120B6FFFF452C9EF423D
:04103D00CA7F002244
:10228D00EFD3940540037F0122EF7003ED4280EF01
:10229D00B40103ED4290EFB40203ED42A0EFB4039D
:1022AD0003ED42B0EFB40403ED42C0EFB40503ED0E
:0522BD0042C87F002271
:10221C00EFD3940540037F0122EF7004EDF452805C
:10222C00EFB40104EDF45290EFB40204EDF452A0BB
:10223C00EFB40304EDF452B0EFB40404EDF452C067
:0B224C00EFB40504EDF452C87F00223F
:10249100EF70038DFA22EFB401038DFB22EFB4023A
:0624A10004AF058FFC22D0
:1011FD00900D27EBF0A3EAF0A3E9F0AD07EDD39442
:10120D0003400302139BED6403704CC2DEF5F9F548
:10121D00E9900D27E0FBA3E0FAA3E0F9120B56FFCE
:10122D00E5A254CF4FF5A2900001120B6FFFE5D947
:10123D0054F14FF5D9900004120B6F5401FFE5D90D
:10124D0054FE4FF5D9900005120B6FB40104D2BFB7
:10125D008002C2BFD2DE22900D27E0FBA3E0FAA3ED
:10126D00E02404F9E43AFA120B565431120B9C9017
:10127D000D27E0FBA3E0FAA3E0F9900002120B6F3B
:10128D00C39448400FE92404F9E43AFA120B56547A
:10129D00CF120B9CED704F900D27E0FBA3E0FAA34E
:1012AD00E0F9900004120B6FFF900002120B6FFE1D
:1012BD004FF5DA900003120B6FFFE5F2543F4FF537
:1012CD00F2900006120C51FBAAF0900DB7EAF0A3B4
:1012DD00EBF0C200900DB4EEF0900DBDEAF0A3EB73
:1012ED00F0F5EAEAF5FAED6401704F900D27E0FB99
:1012FD00A3E0FAA3E0F9900004120B6FFF90000237
:10130D00120B6FFE4FF5DB900003120B6FFFE5F331
:10131D00543F4FF5F3900006120C51FBAAF0900DBF
:10132D00B9EAF0A3EBF0C201900DB5EEF0900DBF50
:10133D00EAF0A3EBF0F5EBEAF5FBED6402704F90EC
:10134D000D27E0FBA3E0FAA3E0F9900004120B6F68
:10135D00FF900002120B6FFE4FF5DC900003120B95
:10136D006FFFE5F4543F4FF5F4900006120C51FD5C
:10137D00ACF0900DBBECF0A3EDF0C202900DB6EE0B
:0F138D00F0900DC1ECF0A3EDF0F5ECECF5FC22C7
:10241D00759A50438E0475D7D075D6FF438E1090A4
:10242D00000B7402F0E4A3F0A3F0A3F0A3F0A3F06B
:0B243D00A3F0A3F0A3F0A3F0A3F02293
:1024BC008F9BE59A20E1047F0180027F00EF70F290
:0424CC00539AFD2200
:1024D000120B56FF600C1224BC740129F9E43AFA7D
:0324E00080EE2269
:0300430002217A1D
:10217A00C0E0C0F0C083C082C0D075D010E59A30EC
:10218A00E036539AFE900014E0B4012CC39000117B
:10219A00E094084004E4F0A3F0900011E475F00123
:1021AA00120C3BFE749625F0F58274003EF583E529
:1021BA009BF0900013740AF0D0D0D082D083D0F074
:0321CA00D0E03230
:1022F600759850438E40538EFE53890F758BD0755B
:102306008DFFC2ABD28E9000007401F0E4A3F0A35F
:10231600F0A3F0A3F0A3F0A3F0A3F0A3F0A3F0A31F
:04232600F0D2AC2223
:10239000900003E0FCA3E02496F58274083CF583EA
:1023A000EFF0900003E475F001120C25C394044093
:1023B00007E4900003F0A3F0900005E0700404F03F
:0323C000D299228D
:1024E300120B56FF600C122390740129F9E43AFA97
:0324F30080EE2256
:03002300021D5863
:101D5800C0E0C0F0C083C082C0D075D01830983BB6
:101D6800C298900009E0B40132C3900007E0948063
:101D7800900006E094004004E4F0A3F0900006E42C
:101D880075F001120C3BFE741625F0F58274003EC6
:101D9800F583E599F09000087405F0309943C299ED
:101DA800900003E0FEA3E0FF900001E0FCA3E0FD4B
:101DB8006F7002EC6E602574962DF58274083CF500
:101DC80083E0F599900001E475F001120C25C394A5
:101DD80004400E900001E4F0A3F08005900005E4B3
:0C1DE800F0D0D0D082D083D0F0D0E03218
:03000000021E8954
:0C1E8900787FE4F6D8FD758120021ED0A1
:100A6000E709F608DFFA8046E709F208DFFA803E78
:100A700088828C83E709F0A3DFFA8032E309F60865
:100A8000DFFA8078E309F208DFFA807088828C83CD
:100A9000E309F0A3DFFA806489828A83E0A3F60881
:100AA000DFFA805889828A83E0A3F208DFFA804C5B
:100AB00080D280FA80C680D4806980F28033801032
:100AC00080A680EA809A80A880DA80E280CA80339B
:100AD00089828A83ECFAE493A3C8C582C8CCC58313
:100AE000CCF0A3C8C582C8CCC583CCDFE9DEE780E3
:100AF0000D89828A83E493A3F608DFF9ECFAA9F062
:100B0000EDFB2289828A83ECFAE0A3C8C582C8CCB7
:100B1000C583CCF0A3C8C582C8CCC583CCDFEADED0
:100B2000E880DB89828A83E493A3F208DFF980CC32
:100B300088F0EF60010E4E60C388F0ED2402B4042B
:100B40000050B9F582EB2402B4040050AF232345D2
:060B50008223900AB0733D
:100B5600BB010689828A83E0225002E722BBFE029D
:090B6600E32289828A83E49322D0
:100B6F00BB010CE58229F582E5833AF583E022503B
:100B7F0006E92582F8E622BBFE06E92582F8E22285
:0D0B8F00E58229F582E5833AF583E493229F
:100B9C00BB010689828A83F0225002F722BBFE0138
:020BAC00F32232
:100BAE00F8BB010DE58229F582E5833AF583E8F07D
:100BBE00225006E92582C8F622BBFE05E92582C829
:020BCE00F22211
:100BD000BC000BBE0029EF8DF084FFADF022E4CC09
:100BE000F875F008EF2FFFEE33FEEC33FCEE9DECD2
:100BF000984005FCEE9DFE0FD5F0E9E4CEFD22ED18
:100C0000F8F5F0EE8420D21CFEADF075F008EF2F61
:100C1000FFED33FD4007985006D5F0F222C398FD52
:050C20000FD5F0EA22EF
:100C2500C5F0F8A3E028F0C5F0F8E582158270025A
:060C35001583E038F022F7
:100C3B00A3F8E0C5F025F0F0E5821582700215836C
:060C4B00E0C838F0E822C9
:100C5100BB0110E58229F582E5833AF583E0F5F0E1
:100C6100A3E0225009E92582F886F008E622BBFEBE
:100C71000AE92582F8E2F5F008E222E5832AF58304
:080C8100E993F5F0A3E99322C9
:101F9A00900D5BEBF0A3EAF0A3E9F0900D61EBF092
:101FAA00A3EAF0A3E9F0900D5BE0FBA3E475F0016E
:101FBA00120C3BA9F0FA120B5670EB900D5C74FFF1
:101FCA00F5F0120C25900D5EE0FBA3E475F001120A
:101FDA000C3BA9F0FA120B56FF900D5BE0FBA3E451
:101FEA0075F001120C3BA9F0FAEF120B9C70D69017
:0B1FFA000D61E0FBA3E0FAA3E0F92278
:1024A700E4FFFE120B56600C0FEF70010E09E97086
:0524B700F20A80EF2293
:101A9900900D68EBF0A3EAF0A3E9F0A3E0FBA3E063
:101AA900FAA3E0F9120B567003021B45900D68E08A
:101AB900FBA3E0FAA3E0F9120B567003021B519045
:101AC9000D6BE0F9A3E0FAA3E0A3C9F0A3EAF0A340
:101AD900E9F0900D68A3E0FAA3E0F9900D71EBF03D
:101AE900A3EAF0A3E9F0900D6EE0FBA3E0FAA3E00E
:101AF900F9120B56FF6026900D71E0FBA3E0FAA3E3
:101B0900E0F9120B566F7015900D6F75F001120CFC
:101B190025900D72E475F001120C2580C9900D6EA7
:101B2900E0FBA3E0FAA3E0F9120B567002800D90D6
:101B39000D69E475F001120C25021AB5900D68E0E3
:0F1B4900FBA3E0FAA3E0F9227B007A00790022E7
:100C8900EF4E6012EF60010EEDBB010B89828A8382
:100C9900F0A3DFFCDEFA2289F05007F709DFFCA98F
:0C0CA900F022BBFEFCF309DFFCA9F022E6
:101E9500021DF4E493A3F8E493A34003F68001F252
:101EA50008DFF48029E493A3F85407240CC8C3334E
:101EB500C4540F4420C8834004F456800146F6DF1D
:101EC500E4800B01020408102040809020C9E47EC4
:101ED500019360BCA3FF543F30E509541FFEE49312
:101EE500A360010ECF54C025E060A840B8E493A3D9
:101EF500FAE493A3F8E493A3C8C582C8CAC583CA04
:101F0500F0A3C8C582C8CAC583CADFE9DEE780BEBB
:0121210000BD
:00000001FF
