:10325700AD071FED600B0000007E1A1EEE60F180C7
:01326700FA6C
:013268002243
:0F3269007DA57C06ED1D70011C144C70F7DFF184
:013278002233
:02002600AB0726
:10002800AF031BEF60107E04EED3940040F27FFA1A
:060038001232691E80F285
:01003E00229F
:1030ED007379732073746172740D0A007769666960
:1030FD002072657365740D0A0077696669207365C2
:10310D007420436C69656E74207375636573730DFC
:02311D000A00A6
:102F2800C2AF12314C43AF01122FE8E4F5B8F5B542
:102F380043B5011231D0D2AF7BFF7A3079ED12322E
:102F4800441223127E087F007D007B017A00799865
:102F58001214C17BFF7A3079F91232441231791296
:0F2F680024E6EF60EE7BFF7A31790612324422C5
:101B98004448543131207472756520200D0A004480
:101BA800485431312066616C736520200D0A005459
:101BB800454D500048554D49005357495443483105
:101BC8003D4F4E00535749544348313D4F46460018
:101BD800535749544348323D4F4E00535749544395
:101BE80048323D4F464600535749544348333D4FCA
:101BF8004E00535749544348333D4F4646005357C8
:101C080049544348343D4F4E005357495443483490
:101C18003D4F4646004C49474854004F4E006C69BA
:101C280067687431206F6E210D0A004F4646006CBC
:101C38006967687431206F6666210D0A00494E4352
:101C4800006C696768743120696E63210D0A00446D
:101C58004543006C696768743120646563210D0A27
:101C6800006C696768743220696E63210D0A006C24
:101C7800696768743220646563210D0A006C6967BE
:101C8800687420696E76616C696420636F6D6D613C
:101C98006E643232320D0A00696E76616C696420B6
:101CA800636F6D6D616E643131310D0A00535749B0
:101CB8005443480026535749544348323D4F4E0039
:101CC80026535749544348323D4F464600265357FA
:101CD80049544348333D4F4E0026535749544348CF
:101CE800333D4F46460026535749544348343D4FE9
:0F1CF8004E0026535749544348343D4F4646004B
:10000E00D2C87F01123257C2C87F12123269D2C8CB
:05001E007F04023257CF
:10308700E4900D8FF0900D8EF030C8FD7F02123264
:1030970057900D8FE025E0F030C803E004F020C81A
:1030A700FD900D8EE004F0E0C3940840DC900D8F96
:0230B700E0FF38
:0130B90022F4
:0B221500900D82EBF0A3EAF0A3E9F0CB
:10222000E4A3F0A3F0A3F0A3F0A3F012000E30C8D3
:10223000030222BD30C8FDC2AF7F081232571230F0
:1022400087900D85EFF0123087900D86EFF01230F9
:1022500087900D87EFF0123087900D88EFF01230E5
:1022600087900D89EFF0D2AF900D86E0FD900D853F
:10227000E02DFDE433FC900D87E07A002DFDEA3C73
:10228000FCA3E02DFDEA3CFC7E00EDB5070CEEB5AD
:1022900004087BFF7A1B799880067BFF7A1B79A75D
:1022A000123244900D87E0FF900D8AE4F0A3EFF026
:1022B000900D85E0FF900D8CE4F0A3EFF0900DC43D
:1022C00074FFF0A3741BF0A374B7F0900D82E0FBD1
:1022D000A3E0FAA3E0F9122694EA494B6005900DB9
:1022E0008A8024900DC474FFF0A3741BF0A374BC07
:1022F000F0900D82E0FBA3E0FAA3E0F9122694EA45
:10230000494B6009900D8CE0FEA3E0FF227EFF7F29
:01231000FFCD
:0123110022A9
:0B1D0700900D82EBF0A3EAF0A3E9F0DE
:101D1200A3EBF0A3EAF0A3E9F0900D82E0FBA3E0CD
:101D2200FAA3E0F91231A5900DC474FFF0A3741B5D
:101D3200F0A374C1F0900D82E0FBA3E0FAA3E0F9F6
:101D4200122694EA494B60097D047F0512301E80F9
:101D520028900DC474FFF0A3741BF0A374CCF09010
:101D62000D82E0FBA3E0FAA3E0F9122694EA494BC4
:101D720060077D047F05122F77900DC474FFF0A3D6
:101D8200741BF0A374D8F0900D82E0FBA3E0FAA3D9
:101D9200E0F9122694EA494B60097D10E4FF123003
:101DA2001E8028900DC474FFF0A3741BF0A374E38B
:101DB200F0900D82E0FBA3E0FAA3E0F9122694EA88
:101DC200494B60077D10E4FF122F77900DC474FF1A
:101DD200F0A3741BF0A374EFF0900D82E0FBA3E07C
:101DE200FAA3E0F9122694EA494B60097D02E4FF66
:101DF20012301E8028900DC474FFF0A3741BF0A350
:101E020074FAF0900D82E0FBA3E0FAA3E0F9122647
:101E120094EA494B60077D02E4FF122F77900DC4CC
:101E220074FFF0A3741CF0A37406F0900D82E0FB23
:101E3200A3E0FAA3E0F9122694EA494B60097D0176
:101E4200E4FF12301E8028900DC474FFF0A3741CAE
:101E5200F0A37411F0900D82E0FBA3E0FAA3E0F985
:101E6200122694EA494B60077D01E4FF122F777F27
:011E7200016E
:011E7300224C
:102FB200900D85EFF0BF0210900E2E74A0F0C37436
:102FC200FF94A0FDE4FF8015900D85E0B4071490F6
:102FD2000E2F74A0F0C374FF94A0FD7F011231F292
:062FE2007F01227F0022A6
:10305300900D85EFF0BF020FE4900E2EF0C374FFC6
:103063009400FDE4FF8014900D85E0B40713E49011
:103073000E2FF0C374FF9400FD7F011231F27F0124
:04308300227F002286
:102D4E00900D85EFF064027028900E2EE0FFC37494
:102D5E00FF9FC39428500574FFF08007900E2EE05D
:102D6E002428F0900E2EE0FFC374FF9FFDE4FF8039
:102D7E002E900D85E06407702C900E2FE0FFC3742B
:102D8E00FF9FC39428500574FFF08007900E2FE02C
:102D9E002428F0900E2FE0FFC374FF9FFD7F0112D9
:082DAE0031F27F01227F0022B7
:102E1B00900D85EFF064027022900E2EE0C3942883
:102E2B005004E4F08007900E2EE024D8F0900E2E84
:102E3B00E0FFC374FF9FFDE4FF8028900D85E064E5
:102E4B00077026900E2FE0C394285004E4F08007FF
:102E5B00900E2FE024D8F0900E2FE0FFC374FF9F4D
:0C2E6B00FD7F011231F27F01227F002266
:1016B100900D82EBF0A3EAF0A3E9F0900DC474FF62
:1016C100F0A3741CF0A3741DF0900D82E0FBA3E065
:1016D100FAA3E0F9122694EA494B700302186190CB
:1016E10000061213A724CE70030217A004600302A0
:1016F1001859900DC474FFF0A3741CF0A37423F067
:10170100900D82E0FBA3E0FAA3E0F9122694EA49E6
:101711004B60057F020217C3900DC474FFF0A374E0
:101721001CF0A37433F0900D82E0FBA3E0FAA3E078
:10173100F9122694EA494B60057F020217F2900DD7
:10174100C474FFF0A3741CF0A37445F0900D82E003
:10175100FBA3E0FAA3E0F9122694EA494B600E7F5D
:1017610002122D4E7BFF7A1C7949021867900DC435
:1017710074FFF0A3741CF0A37457F0900D82E0FB8A
:10178100A3E0FAA3E0F9122694EA494B7003021888
:101791006A7F02122E1B7BFF7A1C795B021867900D
:1017A1000DC474FFF0A3741CF0A37423F0900D8298
:1017B100E0FBA3E0FAA3E0F9122694EA494B600E9C
:1017C1007F07122FB27BFF7A1C7926021867900DD2
:1017D100C474FFF0A3741CF0A37433F0900D82E085
:1017E100FBA3E0FAA3E0F9122694EA494B600D7FCE
:1017F100071230537BFF7A1C7937806A900DC474CD
:10180100FFF0A3741CF0A37445F0900D82E0FBA3DC
:10181100E0FAA3E0F9122694EA494B600D7F071222
:101821002D4E7BFF7A1C7969803C900DC474FFF0CA
:10183100A3741CF0A37457F0900D82E0FBA3E0FAAF
:10184100A3E0F9122694EA494B601E7F07122E1B72
:101851007BFF7A1C7977800E7BFF7A1C7985800665
:0B1861007BFF7A1C79A01232447F014B
:01186C002259
:10231200900D1A7403F0A304F07B017A0D791A7FF1
:10232200051214ED900D1B7413F07B017A0D791ACE
:10233200E4FF1214ED900D1E7403F0A37420F07BE1
:10234200017A0D791A7F051214EDE4900D1CF0A3A9
:1023520004F0FB7A0D791C7F051214ED900D1874B0
:1023620003F0A37480F07B017A0D79187F031214B5
:10237200ED900D197480F07B017A0D79187F0112AE
:1023820014EDE4900D20F0A3F0A37442F0E4A3F066
:10239200A3F0A304F0E4A3F0A3F07B017A0D79206B
:1023A2007F0312186D7B017A0D79207F0212186D5E
:1023B2007B017A0D79207F0712186D7D047F05124B
:1023C2002F777D10E4FF122F777D02E4FF122F7723
:1023D2007D01E4FF122F777D207F05122F777F0288
:1023E2001230537F071230537D807F03122F777D87
:0D23F200807F01122F77E4900E2EF0A3F0F3
:0123FF0022BB
:0B240000900D7CEBF0A3EAF0A3E9F0E4
:10240B00900DC474FFF0A3741CF0A374B5F01226E6
:10241B0094900D7FEBF0A3EAF0A3E9F04A4B601721
:10242B00900D7FE0FBA3E0FAA3E0F9121D07EF602C
:10243B00037F01227F0022900DC474FFF0A3741C54
:10244B00F0A3741DF0900D7CE0FBA3E0FAA3E0F980
:10245B00122694900D7FEBF0A3EAF0A3E9F04A4B20
:10246B006010900D7FE0FBA3E0FAA3E0F91216B128
:10247B008066900DC474FFF0A3741BF0A374B7F0C7
:10248B00900D7CE0FBA3E0FAA3E0F9122694900DEB
:10249B007FEBF0A3EAF0A3E9F04A4B6002802B90AC
:1024AB000DC474FFF0A3741BF0A374BCF0900D7CEF
:1024BB00E0FBA3E0FAA3E0F9122694900D7FEBF07A
:1024CB00A3EAF0A3E9F04A4B600E900D7FE0FBA36B
:0A24DB00E0FAA3E0F91222157F01D8
:0124E50022D4
:1025BE00900D7CEBF0A3EAF0A3E9F07D047F051209
:1025CE002DB6EF900DB7600C74FFF0A3741BF0A343
:1025DE0074C1800A74FFF0A3741BF0A374CCF09046
:1025EE000D7CE0FBA3E0FAA3E0F9122CE37D10E4EE
:1025FE00FF122DB6EF900DB7600C74FFF0A3741C94
:10260E00F0A374BC800A74FFF0A3741CF0A374C80A
:10261E00F0900D7CE0FBA3E0FAA3E0F9122CE37D31
:10262E0002E4FF122DB6EF900DB7600C74FFF0A30D
:10263E00741CF0A374D5800A74FFF0A3741CF0A36D
:10264E0074E1F0900D7CE0FBA3E0FAA3E0F9122C0C
:10265E00E37D01E4FF122DB6EF900DB7600C74FF11
:10266E00F0A3741CF0A374EE800A74FFF0A3741C24
:10267E00F0A374FAF0900D7CE0FBA3E0FAA3E0F96E
:06268E00122CE37F012283
:10311F00900E307401F0122F28900E30E024FE60D4
:10312F00120470F57F327E00122E77EF60EB121EC5
:0D313F007480E61229587F0112002680DC02
:101A0C0041542B524553544F52450D0A004F4B0035
:101A1C0041542B43574D4F44453D320D0A00415420
:101A2C002B43575341503D2241495F4C6162222C5C
:101A3C002231323334353637383930222C342C3489
:101A4C000D0A0041542B5253540D0A0041542B43A0
:101A5C0049504D55583D310D0A0041542B434950C6
:101A6C005345525645523D312C353030300D0A001D
:101A7C0041542B43494653520D0A0041542B4357B2
:101A8C004D4F44453D310D0A0041542B43574A41BB
:101A9C00503D22486954565F776F6F5F706C757359
:101AAC00222C2231323334353637383930220D0A74
:101ABC000041542B4349504D55583D300D0A0041BF
:101ACC00542B43495053544152543D2254435022B9
:101ADC002C223139322E3136382E312E31303622FD
:101AEC002C353030300D0A0041542B434950434CB7
:101AFC004F53453D300D0A006D61746368000D0A4B
:101B0C000D0A002C000D0A003E200053454E4420C7
:101B1C004F4B00222C00434F4E4E45435400415432
:101B2C002B43495053454E443D000000000000003B
:101B3C0000000000000000000000000041542B4396
:101B4C00495053454E443D00000000000000000089
:101B5C000000000000000000000041542B434950DD
:101B6C0053544152543D22544350222C2200000025
:101B7C000000000000000000000000000000000059
:0C1B8C000000000000000000000000004D
:102C0900460DD9FF1A0CFF1A19460DFDFF1A1CFFB4
:102C19001A19460E0FFF1A2AFF1A19460DF1FF1A43
:102C29004FFF1A19460E03FF1A58FF1A19460DEBE2
:102C3900FF1A66FF1A19460DF7FF1A7CFF1A194683
:102C49000DE5FF1A87FF1A19460DCDFF1A95FF1AD0
:102C590019460DD3FF1ABDFF1A19460E09FF1ACBE3
:0C2C6900FF1A19460DDFFF1AF4FF1A19BC
:0720FF003EFE7B01AD07FC72
:10210600900DACEBF0A3EAF0A3E9F0A3ECF0A3ED9D
:01211600F0D8
:10211700900DAFE0FEA3E0FF7C277D10121408EFBF
:102127002430FF900DACE0FBA3E0FAA3E0F9EF1237
:1021370013D4900DAFE0FEA3E0FF7C277D101214AF
:10214700087E037FE8CFCDCFCECCCE121408EF2484
:1021570030FF900DACE0FBA3E0FAA3E0F99000019B
:10216700EF1213E6900DAFE0FEA3E0FF7C037DE8DE
:102177001214087E007F64CFCDCFCECCCE121408C8
:10218700EF2430FF900DACE0FBA3E0FAA3E0F99059
:102197000002EF1213E6900DAFE0FEA3E0FF7C0014
:1021A7007D641214087E007F0ACFCDCFCECCCE122D
:1021B7001408EF2430FF900DACE0FBA3E0FAA3E096
:1021C700F9900003EF1213E6900DAFE0FEA3E0FFD6
:1021D7007C007D0A121408ED2430FF900DACE0FB63
:1021E700A3E0FAA3E0F9900004EF1213E6900005CC
:1021F700E41213E612138EFFB43009740129F9E4CF
:0D2207003AFA80F0EF70060429F9E43AFA83
:0122140022A7
:10317900E4900D18F0A37408F07B017A0D79187F9B
:10318900051214ED7D087F05122F777F64123269CD
:0C3199007D087F0512301E7F0202002618
:102E7700D3EF9400EE9400404F7C007D321214088B
:102E8700D3EF9400EE9400403F9000167401F0E4F5
:102E9700900012F0A3F0900017F0900014F0A374C4
:102EA70005F0D3900015E09400900014E0940050D2
:102EB700F1E4900016F0A3E06007900012A3E0FF92
:0A2EC70022EF1F70BB1E80B87F00D1
:012ED10022DE
:10275300900DF4E0F9A3E0FAA3E0900DB7C9F0A35C
:10276300EAF0A3E9F0A3740BF0A374B8F0900DF1B1
:08277300E0FBA3E0FAA3E0F98A
:10277B00123231900DBAE0FEA3E0FF7C007D051212
:10278B0014087C007D0A121408900DBFEEF0A3EF25
:10279B00F0D3900DC0E09400900DBFE09400405C2E
:1027AB007F327E00122E77EF60427B017A007998A0
:1027BB00123244900DB7E0F9A3E0FAA3E0900DC4F8
:1027CB00C9F0A3EAF0A3E9F07B017A00799812260D
:1027DB0094900DBCEBF0A3EAF0A3E9F04A4B600C2C
:1027EB007BFF7A1B79041231A57F0122900DC0E08B
:0E27FB0024FFF0900DBFE034FFF080957F00CA
:0128090022AC
:0B102600900D1DEBF0A3EAF0A3E9F031
:1010310078377C0D7D017BFF7A1B792A7E007F1E2C
:10104100121368900D20E0FBA3E0FAA3E0F912323D
:1010510008900D58EEF0FCA3EFF0FD7B017A0D79BD
:101061002B122106900DB774FFF0A3741BF0A3742B
:101071000AF07B017A0D792B122CE37B017A0D7931
:101081002B123208C006C0077BFF7A00798C12321E
:1010910008D0E02FFFD0E07A0D79251220FF900DC6
:1010A10055EBF0A3EAF0A3E9F0900D1DE0F9A3E000
:1010B100FAA3E0900DB7C9F0A3EAF0A3E9F07B0130
:1010C1007A0D7937122CE3900DB774FFF0A3741BDE
:1010D100F0A3740FF07B017A0D7937122CE3900D98
:1010E10055E0F9A3E0FAA3E0900DB7C9F0A3EAF047
:1010F100A3E9F07B017A0D7937122CE3900DB774D7
:10110100FFF0A3741BF0A37411F07B017A0D793702
:10111100122CE3900DB774FFF0A3741BF0A37414A9
:10112100F0A3740BF0A374B8F07B017A0D79371238
:10113100277BEF7002FF227BFF7A00798C1232311C
:101141007B017A0D792B123231900D58E0FEA3E02C
:10115100FF7C077D08121408900D23EEF0A3EFF039
:10116100D3900D24E09400900D23E09400500302ED
:10117100126A7B017A0D79257D087C071221069080
:101181000D55EBF0A3EAF0A3E9F0900D1DE0F9A3F2
:10119100E0FAA3E0900DB7C9F0A3EAF0A3E9F07B70
:1011A100017A0D7937122CE3900DB774FFF0A37417
:1011B1001BF0A3740FF07B017A0D7937122CE390A9
:1011C1000D55E0F9A3E0FAA3E0900DB7C9F0A3EA49
:1011D100F0A3E9F07B017A0D7937122CE3900DB77A
:1011E10074FFF0A3741BF0A37411F07B017A0D79E5
:1011F10037122CE3900DB774FFF0A3741BF0A374A6
:1012010014F0A3740BF0A374B8F07B017A0D793755
:1012110012277BEF7002FF22900D5AE0FBA3E0FA48
:10122100A3E0F912138EFF12321D900D5BE475F0ED
:101231000112145D900DB774FFF0A3741BF0A37439
:1012410017F0A3740BF0A374B8F07B007A00790057
:1012510012277BEF7002FF22900D24E024FFF09013
:101261000D23E034FFF0021161900D5BE475F00194
:1012710012145D900DB774FFF0A3741BF0A37417E3
:10128100F0A3740BF0A374B8F0900D5A122773EF0A
:061291007002FF227F0144
:011297002234
:0B1FD800900D7CEBF0A3EAF0A3E9F011
:101FE300788B7C0D7D017BFF7A1B79487E007F1EF9
:101FF300121368900D7FE0FBA3E0FAA3E0F912321D
:1020030008EF25E0FDEE33FCC004C005900D7CE035
:10201300FBA3E0FAA3E0F9123208D0E02FFDD0E0F1
:102023003EFCC004C005900D82E0FBA3E0FAA3E0F0
:10203300F9123208D0E02FFFD0E07A0D7985122013
:10204300FF900DA9EBF0A3EAF0A3E9F0900DA9E04E
:10205300F9A3E0FAA3E0900DB7C9F0A3EAF0A3E96E
:10206300F07B017A0D798B122CE3900DB774FFF09E
:10207300A3741BF0A37411F07B017A0D798B122CDE
:10208300E3900DB774FFF0A3741BF0A37414F0A3D3
:10209300740BF0A374B8F07B017A0D798B12277B54
:1020A300EF7002FF22900D7CE0FBA3E0FAA3E0F9BE
:1020B300123231900D7FE0FBA3E0FAA3E0F9123274
:1020C30031900D82E0FBA3E0FAA3E0F912323190E4
:1020D3000DB774FFF0A3741BF0A37417F0A3740B74
:1020E300F0A374B8F0900D7F122773EF7002FF22F4
:0B20F3007BFF7A1B79171231A57F01DB
:0120FE0022BF
:1024E600900E00E0F9A3E0FAA3E0900DB7C9F0A3BF
:1024F600EAF0A3E9F0A3740BF0A374B8F0900DFD15
:10250600122773EF7002FF22900E12E0F9A3E0FA91
:10251600A3E0900DB7C9F0A3EAF0A3E9F0A3740B0A
:10252600F0A374B8F0900E0F122773EF7002FF221B
:10253600122753EF7002FF227F02120026900E062A
:10254600E0F9A3E0FAA3E0900DB7C9F0A3EAF0A37F
:10255600E9F0A3740BF0A374B8F0900E031227737E
:10256600EF7002FF22900DEEE0F9A3E0FAA3E090EF
:102576000DB7C9F0A3EAF0A3E9F0A3740BF0A374B6
:10258600B8F0900DEB122773EF7002FF22900DFA50
:10259600E0F9A3E0FAA3E0900DB7C9F0A3EAF0A32F
:1025A600E9F0A3740BF0A374B8F0900DF71227733B
:0825B600EF7002FF227F0122F9
:102A7F00900DE8E0F9A3E0FAA3E0900DB7C9F0A339
:102A8F00EAF0A3E9F0A3740BF0A374B8F0900DE58E
:102A9F00122773EF7002FF22122753EF7002FF22EB
:102AAF007F02120026900DD0E0F9A3E0FAA3E09088
:102ABF000DB7C9F0A3EAF0A3E9F0A3744EF0A37425
:102ACF0020F0900DCD122773EF7002FF22900DD6DC
:102ADF00E0F9A3E0FAA3E0900DB7C9F0A3EAF0A3E1
:102AEF00E9F0A3740BF0A374B8F0900DD312277311
:082AFF00EF7002FF227F0122AB
:0B280A00900D7CEBF0A3EAF0A3E9F0D6
:1028150078827C0D7D017BFF7A1B79667E007F3295
:10282500121368900D7CE0F9A3E0FAA3E0900DB7D0
:10283500C9F0A3EAF0A3E9F07B017A0D7982122CA5
:10284500E3900DB774FFF0A3741BF0A3741FF07B26
:10285500017A0D7982122CE3900D7FE0F9A3E0FA5D
:10286500A3E0900DB7C9F0A3EAF0A3E9F07B017AE4
:102875000D7982122CE3900DB774FFF0A3741BF051
:10288500A37411F07B017A0D7982122CE3900DB7B8
:1028950074FFF0A3741BF0A37422F0A37427F0A3B4
:1028A5007410F07B017A0D798212277BEF7002FF9D
:0328B500227F017E
:0128B80022FD
:1031D000538E7F5389F0E4F58A758CB8C28DD28CFA
:1031E000D2A9900E2D7464F0E4900E2AF0A3F0A3FF
:0231F000F022CB
:03000B00022C764E
:102C7600C0E0C083C082C0D075D008900E2DE0D3CE
:102C860094004003E014F0900016E06047D39000F3
:102C960015E09400900014E094004038A3E024FF6F
:102CA600F0900014E034FFF0E07002A3E07025908D
:102CB6000016F0900012E0FEA3E0FFD39400EE941D
:102CC60000401174982FF58274003EF583E4F0906D
:0D2CD600001704F0D0D0D082D083D0E032BF
:070003002A2A2A000D0A0061
:042B0700AB07AA0668
:102B0B007C277D10121408EF2430900E24F07C27C4
:102B1B007D10AF03AE021214087E037FE8CFCDCF3A
:102B2B00CECCCE121408EF2430A3F07C037DE8AF9B
:102B3B0003AE021214087E007F64CFCDCFCECCCE75
:102B4B00121408EF2430A3F07C007D64AF03AE02B7
:102B5B001214087E007F0ACFCDCFCECCCE12140834
:102B6B00EF2430A3F0AE02AF037C007D0A121408F1
:102B7B00ED2430A3F0E4A3F07B017A0E792402322A
:012B8B004405
:1031A500900DC1EBF0A3EAF0A3E9F07BFF7A00797B
:1031B50003123244900DC1E0FBA3E0FAA3E0F9123B
:0B31C50032447BFF7A0079070232449D
:102B8C0048545450002B4950442C00474554202F96
:102B9C002000474554202F3F0044657669636573D8
:102BAC0020636F6E74726F6C204661696C202121FA
:102BBC002100474554202F636F6E666967004745B7
:102BCC0054202F726573003131392E332E3233334A
:102BDC002E3536003530303000636F6E74726F6C8A
:102BEC003F0053657276657220726573706F6E73F9
:0D2BFC00652074696D656F7574210D0A0008
:101E7400900DC474FFF0A3742BF0A3748CF07B0159
:101E84007A007998122694EA494B7003021FD7E42A
:101E94001213D4900DC474FFF0A3742BF0A37491A7
:101EA400F07B017A007998122694900D18EBF0A338
:101EB400EAF0A3E9F04A4B7003021FD7900D19E42E
:101EC40075F00512145D900D18E0FBA3E0FAA3E091
:101ED400F912138E900D1BF0E4A3F0900DC474FF5F
:101EE400F0A3742BF0A37497F07B017A0079981215
:101EF4002694900D18EBF0A3EAF0A3E9F04A4B60A6
:101F040010900D2074FFF0A37400F0A374D6021F88
:101F1400CD900DC474FFF0A3742BF0A3749EF07BDA
:101F2400017A007998122694900D18EBF0A3EAF048
:101F3400A3E9F04A4B602A900D18E0FBA3E0FAA352
:101F4400E0F9122400900D2074FFBF010AF0A3747D
:101F540000F0A374D68008F0A3742BF0A374A580BA
:101F640068900DC474FFF0A3742BF0A374BEF07BCF
:101F7400017A007998122694900D18EBF0A3EAF0F8
:101F8400A3E9F04A4B600F900D2074FFF0A374078F
:101F9400F0A3745C8033900DC474FFF0A3742BF031
:101FA400A374CAF07B017A007998122694900D18D4
:101FB400EBF0A3EAF0A3E9F04A4B6017900D20740C
:101FC400FFF0A37410F0A3741DF07B017A0D791B4C
:031FD400121026C2
:011FD70022E7
:10295800900D7F74FFF0A3742BF0A374E0F07BFF5D
:102968007A2B79D312280AEF70030229F27D207F8F
:102978000512301EE4900D18F07B017A0D791812BB
:1029880025BE900D7F7401F0A3740DF0A37418F0A8
:10299800A374FFF0A37400F0A37450F07BFF7A00D7
:1029A8007946121FD8EF60427FE87E03122E77EF38
:1029B80060287D207F05122F77900DC474FFF0A347
:1029C800742BF0A374E5F07B017A007998122694B1
:1029D800EA494B600E12240080097BFF7A2B79EEBE
:0A29E8001232447D207F05122F7784
:0129F20022C2
:10004600474554202F6131313F0020485454502FEA
:10005600312E310D0A486F73743A206C6F63616CF0
:10006600686F73743A353030300D0A436F6E6E65C3
:100076006374696F6E3A206B6565702D616C697685
:10008600650D0A0D0A00485454502F312E30203287
:100096003030204F4B0D0A436F6E74656E742D54CD
:1000A6007970653A20746578742F68746D6C3B209E
:1000B600636861727365743D7574662D380D0A4305
:1000C6006F6E74656E742D4C656E6774683A2000A9
:1000D6003C21444F43545950452068746D6C3E0D85
:1000E6000A3C68746D6C206C616E673D22656E22F9
:1000F6003E0D0A3C686561643E0D0A202020203CC6
:100106006D65746120636861727365743D22555430
:10011600462D38223E0D0A202020203C7469746C3E
:10012600653E47656E697573204149204C61623CA6
:100136002F7469746C653E0D0A202020203C737470
:10014600796C653E0D0A2020202020202020683171
:100156007B666F6E742D73697A653A363030253B4F
:10016600746578742D616C69676E3A63656E746543
:10017600727D0D0A202020202020202020617B6611
:100186006F6E742D73697A653A20333030253B6D76
:10019600617267696E3A203132307078203070783B
:1001A6002030707820343070787D0D0A2020202091
:1001B6002020207370616E7B666F6E742D73697A72
:1001C600653A333030253B6D617267696E2D6C651B
:1001D60066743A343070787D0D0A20202020202065
:1001E6002020627574746F6E7B747970653A6275DF
:1001F60074746F6E3B6D617267696E2D6C656674A3
:100206003A343070783B77696474683A31323070CA
:10021600783B6865696768743A31323070783B625A
:100226006F726465722D7261646975733A363070E7
:10023600783B70616464696E673A323070787D0D20
:100246000A20202020202020202E7373317B62611B
:10025600636B67726F756E643A2366663939353338
:100266007D0D0A20202020202020202E7373327B33
:100276006261636B67726F756E643A6461726B6715
:100286007261797D0D0A20202020202020202E73E7
:1002960073337B6261636B67726F756E643A20239A
:1002A6006666653061307D0D0A20202020202020E2
:1002B600202E7373347B6261636B67726F756E6435
:1002C6003A20236436643664367D0D0A20202020C9
:1002D600202020202E7373357B626F726465722D29
:1002E6007261646975733A323070783B6865696724
:1002F60068743A363070787D0D0A202020203C2F15
:100306007374796C653E0D0A202020203C7363725D
:100316006970743E0D0A202020202020202066755A
:100326006E6374696F6E206A702861290D0A202039
:100336002020202020207B77696E646F772E6C6FDB
:10034600636174696F6E2E687265663D222F3F2267
:100356002B617D0D0A202020203C2F73637269706B
:10036600743E0D0A3C2F686561643E0D0A3C626F5F
:1003760064793E0D0A202020203C6469762073743F
:10038600796C653D2277696474683A313030307033
:1003960078223E0D0A20202020202020203C64695F
:1003A60076207374796C653D226261636B67726F48
:1003B600756E642D636F6C6F723A736C61746567EA
:1003C600726179223E0D0A20202020202020202044
:1003D6002020203C68313E47656E6975732041498F
:1003E600204C61623C2F68313E0D0A2020202020DF
:1003F6002020203C2F6469763E0D0A2020202020F4
:100406002020203C62723E0D0A2020202020202041
:100416002020202020202020203C7370616E3E5337
:100426005749544348313A3C2F7370616E3E0D0A6A
:1004360020202020202020202020202020202020B6
:100446003C627574746F6E20636C6173733D2273C6
:10045600733122206F6E636C69636B3D226A70286C
:1004660027535749544348313D4F4E2729223E4F83
:100476004E3C2F627574746F6E3E0D0A202020204C
:100486002020202020202020202020203C6275745F
:10049600746F6E20636C6173733D22737332222016
:1004A6006F6E636C69636B3D226A702827535749E8
:1004B600544348313D4F46462729223E4F46463C47
:1004C6002F627574746F6E3E0D0A20202020202046
:1004D600202020202020202020203C62723E0D0A71
:1004E6002020202020202020202020202020202006
:1004F6003C7370616E3E535749544348323A3C2F21
:100506007370616E3E0D0A202020202020202020BE
:10051600202020202020203C627574746F6E20639A
:100526006C6173733D2273733122206F6E636C6945
:10053600636B3D226A702827535749544348323D1E
:100546004F4E2729223E4F4E3C2F627574746F6EB4
:100556003E0D0A20202020202020202020202020A0
:100566002020203C627574746F6E20636C61737317
:100576003D2273733222206F6E636C69636B3D227A
:100586006A702827535749544348323D4F464627F9
:1005960029223E4F46463C2F627574746F6E3E3C70
:1005A60062723E0D0A2020202020202020202020BC
:1005B60020202020203C7370616E3E5357495443DF
:1005C60048333A3C2F7370616E3E0D0A202020207E
:1005D6002020202020202020202020203C6275740E
:1005E600746F6E20636C6173733D227373312220C6
:1005F6006F6E636C69636B3D226A70282753574997
:10060600544348333D4F4E2729223E4F4E3C2F62DE
:100616007574746F6E3E0D0A202020202020202045
:1006260020202020202020203C627574746F6E20CC
:10063600636C6173733D2273733222206F6E636C39
:1006460069636B3D226A70282753574954434833E0
:100656003D4F46462729223E4F46463C2F6275743B
:10066600746F6E3E3C62723E0D0A202020202020D0
:10067600202020202020202020203C7370616E3E08
:10068600535749544348343A3C2F7370616E3E0DBC
:100696000A2020202020202020202020202020206A
:1006A600203C627574746F6E20636C6173733D22B7
:1006B60073733122206F6E636C69636B3D226A70BF
:1006C6002827535749544348343D4F4E2729223E45
:1006D6004F4E3C2F627574746F6E3E0D0A202020BB
:1006E600202020202020202020202020203C627551
:1006F60074746F6E20636C6173733D227373322260
:10070600206F6E636C69636B3D226A7028275357AE
:1007160049544348343D4F46462729223E4F4646D4
:100726003C2F627574746F6E3E0D0A2020202020C7
:100736002020203C62723E0D0A202020203C2F649F
:1007460069763E0D0A3C2F626F64793E0D0A3C2F96
:1007560068746D6C3E003C21444F4354595045200B
:1007660068746D6C3E0D0A3C68746D6C206C616E2D
:10077600673D22656E223E0D0A3C686561643E0D4A
:100786000A202020203C6D657461206368617273C5
:1007960065743D225554462D38223E0D0A202020F0
:1007A600203C7469746C653ECCECB2C54149CAB54F
:1007B600D1E9CAD23C2F7469746C653E0D0A2020BB
:1007C60020203C7374796C653E0D0A202020202081
:1007D60020202068317B6261636B67726F756E647F
:1007E6002D636F6C6F723A206461726B6772617908
:1007F6003B6D617267696E3A20323070783B666F86
:100806006E742D73697A653A20363470783B746558
:1008160078742D616C69676E3A2063656E746572D3
:100826003B7D0D0A20202020202020206832207BBE
:100836006D617267696E3A2031307078203430709D
:10084600783B666F6E742D73697A653A203534701D
:10085600783B7D0D0A2020202020202020626F6416
:10086600797B77696474683A38303070783B7D0DEF
:100876000A20202020202020202E6D61696E2D6602
:1008860072616D657B666C6F61743A206C65667427
:100896003B6261636B67726F756E642D636F6C6F1D
:1008A600723A20236436643664363B666C6F617434
:1008B6003A206C6566743B626F726465723A2073A7
:1008C6006F6C69642032707820626C61636B3B7D6B
:1008D6000D0A20202020202020202E7375622D66F0
:1008E60072616D657B666C6F61743A206C656674C7
:1008F6003B626F726465723A20736F6C6964203173
:10090600707820677261793B7D0D0A2020202020B7
:100916002020202E7468642D6672616D657B6D6182
:100926007267696E3A20313070783B666C6F61741D
:100936003A206C6566743B626F726465723A206435
:1009460061736865642031707820677261793B7DD8
:100956000D0A20202020202020202E666F726D2D6B
:100966006C696E657B6D617267696E3A20313070B5
:10097600783B666C6F61743A206C6566743B68659B
:10098600696768743A20383070783B7D0D0A2020FC
:100996002020202020202E666F726D2D6C696E65DA
:1009A6003E707B6D617267696E3A203070782034D4
:1009B6003070783B666C6F61743A206C6566743B88
:1009C600666F6E742D73697A653A20343870783B99
:1009D60077696474683A2032303070783B6C696E9F
:1009E600652D6865696768743A20383070783B749D
:1009F6006578742D616C69676E3A207269676874F0
:100A06003B7D0D0A20202020202020202E666F729C
:100A16006D2D6C696E653E6469762C2E666F726DFF
:100A26002D6C696E653E696E7075747B666C6F6160
:100A3600743A2072696768743B77696474683A200F
:100A460034303070783B6865696768743A203736A9
:100A560070783B626F726465723A20736F6C69647A
:100A66003B666F6E742D73697A653A2034387078F8
:100A76003B7D0D0A202020203C2F7374796C653E47
:100A86000D0A3C2F686561643E0D0A3C626F64790D
:100A96003E0D0A202020203C64697620636C617339
:100AA600733D226D61696E2D6672616D65223E0D24
:100AB6000A20202020202020203C68313ECCECB2A9
:100AC600C54149CAB5D1E9CAD23C2F68313E0D0AA3
:100AD60020202020202020203C64697620636C6141
:100AE60073733D227375622D6672616D65223E0DCC
:100AF6000A2020202020202020202020203C666F55
:100B0600726D20616374696F6E3D2223223E0D0A69
:100B160020202020202020202020202020202020CF
:100B26003C64697620636C6173733D227468642D3E
:100B36006672616D65223E0D0A202020202020204D
:100B4600202020202020202020202020203C683229
:100B56003E576946693C2F68323E0D0A2020202008
:100B6600202020202020202020202020202020207F
:100B76003C64697620636C6173733D22666F726DA7
:100B86002D6C696E65223E3C703EC3FBB3C63C2F9E
:100B9600703E3C696E70757420706C616365686F39
:100BA6006C6465723D22CAE4C8EBC1ACBDD3B5C462
:100BB600576946692220747970653D227465787498
:100BC60022206E616D653D2273736964223E3C2F5F
:100BD6006469763E0D0A2020202020202020202037
:100BE600202020202020202020203C6469762063BD
:100BF6006C6173733D22666F726D2D6C696E652232
:100C06003E3C703EC3DCC2EB3C2F703E3C696E70CE
:100C1600757420706C616365686F6C6465723D22E3
:100C2600CAE4C8EB57694669C3DCC2EB2220747973
:100C360070653D227465787422206E616D653D2273
:100C4600707764223E3C2F6469763E0D0A20202090
:100C5600202020202020202020202020203C2F641F
:100C660069763E0D0A2020202020202020202020EA
:100C760020202020203C64697620636C6173733DDC
:100C8600227468642D6672616D65223E0D0A20200D
:100C9600202020202020202020202020202020204E
:100CA60020203C68323EB7FECEF1C6F73C2F6832B4
:100CB6003E0D0A2020202020202020202020202039
:100CC600202020202020203C64697620636C6173FC
:100CD600733D22666F726D2D6C696E65223E3C70A7
:100CE6003E4950B5D8D6B73C2F703E3C696E7075FC
:100CF6007420706C616365686F6C6465723D223147
:100D060031392E332E3233332E3536222074797014
:100D1600653D227465787422206E616D653D226999
:100D260070223E3C2F6469763E0D0A20202020204A
:100D36002020202020202020202020202020203C91
:100D460064697620636C6173733D22666F726D2DE4
:100D56006C696E65223E3C703EB6CBBFDA3C2F70A6
:100D66003E3C696E70757420706C616365686F6C6B
:100D76006465723D22353030302220747970653DCD
:100D8600227465787422206E616D653D22706F72E3
:100D960074223E3C2F6469763E0D0A2020202020D6
:100DA60020202020202020202020203C2F6469762F
:100DB6003E0D0A2020202020202020202020202038
:100DC6002020203C64697620636C6173733D227435
:100DD60068642D6672616D65223E0D0A2020202012
:100DE60020202020202020202020202020202020FD
:100DF6003C68323ED3C3BBA73C2F68323E0D0A2067
:100E060020202020202020202020202020202020DC
:100E16002020203C64697620636C6173733D2266F2
:100E26006F726D2D6C696E65223E3C703ED3C3BBFE
:100E3600A7C3FB3C2F703E3C696E70757420706CC6
:100E4600616365686F6C6465723D22CAE4C8EBD75E
:100E5600D4B6A8D2E5D3C3BBA7C3FB22207479704E
:100E6600653D227465787422206E616D653D22753C
:100E7600736572223E3C2F6469763E0D0A2020205F
:100E8600202020202020202020202020202020205C
:100E9600203C64697620636C6173733D22666F72D1
:100EA6006D2D6C696E65223E3C703EC3DCC2EB3C28
:100EB6002F703E3C696E70757420706C6163656856
:100EC6006F6C6465723D22CAE4C8EBD7D4B6A8D26B
:100ED600E5C3DCC2EB2220747970653D2274657827
:100EE6007422206E616D653D2275707764223E3CEA
:100EF6002F6469763E0D0A20202020202020202005
:100F0600202020202020203C2F6469763E0D0A20D8
:100F16002020202020202020202020202020203CAF
:100F2600696E707574207374796C653D22666C6F9A
:100F360061743A72696768743B6D617267696E3A8B
:100F4600203130707820343070783B77696474686B
:100F56003A2033303070783B6865696768743A20A8
:100F6600363670783B666F6E742D73697A653A20F3
:100F7600343870783B626F726465722D7261646991
:100F860075733A20313670782220747970653D2267
:100F96007375626D6974222076616C75653D22C930
:100FA600E8B6A8223E0D0A2020202020202020205E
:100FB6002020203C2F666F726D3E0D0A20202020D7
:100FC600202020203C6120687265663D222F636FD9
:100FD6006E666967223E4149D4B6B3CCBFD8D6C641
:100FE600C9E8D6C33C2F613E0D0A202020202020D0
:100FF60020203C2F6469763E0D0A202020203C2FBD
:101006006469763E0D0A3C2F626F64793E0D0A3C98
:101016002F68746D6C3E00C9E8B6A8B3C9B9A600BE
:1014ED00EFD3940540037F012212138EFED3940394
:1014FD0040037F0222EF7041EE700B90000112133A
:10150D00A7F45293529412138EB4010B9000011252
:10151D0013A74293F4529412138EFEB4020A900054
:10152D00011213A742934294EEB4030D90000112E1
:10153D0013A7FEF45293EE4294EF6401704312131D
:10154D008EFE700B9000011213A7F452915292EE81
:10155D00B4010B9000011213A74291F45292121391
:10156D008EB4020A9000011213A7429142921213F7
:10157D008EB4030D9000011213A7FEF45291EE42AA
:10158D0092EF6402704312138EFE700B90000112E5
:10159D0013A7F452955296EEB4010B90000112135D
:1015AD00A74295F4529612138EB4020A90000112BE
:1015BD0013A74295429612138EB4030D900001129B
:1015CD0013A7FEF45295EE4296EF64037043121387
:1015DD008EFE700B9000011213A7F452B152B2EEB1
:1015ED00B4010B9000011213A742B1F452B21213C1
:1015FD008EB4020A9000011213A742B142B2121327
:10160D008EB4030D9000011213A7FEF452B1EE42F9
:10161D00B2EF6404704312138EFE700B9000011232
:10162D0013A7F452B352B4EEB4010B900001121390
:10163D00A742B3F452B412138EB4020A90000112F1
:10164D0013A742B342B412138EB4030D90000112CE
:10165D0013A7FEF452B3EE42B4EF640570431213B8
:10166D008EFF700B9000011213A7F452C952CAEFEE
:10167D00B4010B9000011213A742C9F452CA121300
:10168D008EB4020A9000011213A742C942CA121366
:10169D008EB4030D9000011213A7FFF452C9EF424F
:0416AD00CA7F0022CE
:10301E00EFD3940540037F0122EF7003ED4280EF62
:10302E00B40103ED4290EFB40203ED42A0EFB403FE
:10303E0003ED42B0EFB40403ED42C0EFB40503ED6F
:05304E0042C87F0022D2
:102F7700EFD3940540037F0122EF7004EDF45280F4
:102F8700EFB40104EDF45290EFB40204EDF452A053
:102F9700EFB40304EDF452B0EFB40404EDF452C0FF
:0B2FA700EFB40504EDF452C87F0022D7
:102DB600EFD3940540037F0122EF700BE5805D6041
:102DC600037F01227F0022EFB4010BE5905D6003D3
:102DD6007F01227F0022EFB4020BE5A05D60037F36
:102DE60001227F0022EFB4030BE5B05D60037F0193
:102DF600227F0022EFB4040BE5C05D60037F012251
:102E06007F0022EFB4050BE5C85D60037F01227FDA
:052E160000227F0022F4
:1031F200EF70038DFA22EFB401038DFB22EFB402CC
:0632020004AF058FFC2261
:10186D00900D28EBF0A3EAF0A3E9F0AD07EDD394CA
:10187D00034003021A0BED6403704CC2DEF5F9F55B
:10188D00E9900D28E0FBA3E0FAA3E0F912138EFF17
:10189D00E5A254CF4FF5A29000011213A7FFE5D991
:1018AD0054F14FF5D99000041213A75401FFE5D957
:1018BD0054FE4FF5D99000051213A7B40104D2BF01
:1018CD008002C2BFD2DE22900D28E0FBA3E0FAA376
:1018DD00E02404F9E43AFA12138E54311213D49021
:1018ED000D28E0FBA3E0FAA3E0F99000021213A784
:1018FD00C39448400FE92404F9E43AFA12138E54C4
:10190D00CF1213D4ED704F900D28E0FBA3E0FAA396
:10191D00E0F99000041213A7FF9000021213A7FE26
:10192D004FF5DA9000031213A7FFE5F2543F4FF580
:10193D00F2900006121489FBAAF0900E18EAF0A39B
:10194D00EBF0C200900E15EEF0900E1EEAF0A3EB38
:10195D00F0F5EAEAF5FAED6401704F900D28E0FB21
:10196D00A3E0FAA3E0F99000041213A7FF90000280
:10197D001213A7FE4FF5DB9000031213A7FFE5F33B
:10198D00543F4FF5F3900006121489FBAAF0900E08
:10199D001AEAF0A3EBF0C201900E16EEF0900E20B5
:1019AD00EAF0A3EBF0F5EBEAF5FBED6402704F9076
:1019BD000D28E0FBA3E0FAA3E0F99000041213A7B1
:1019CD00FF9000021213A7FE4FF5DC9000031213D7
:1019DD00A7FFE5F4543F4FF5F4900006121489FD6E
:1019ED00ACF0900E1CECF0A3EDF0C202900E17EED1
:0F19FD00F0900E22ECF0A3EDF0F5ECECF5FC22EF
:10314C00759A50438E0475D7D075D6FF438E109068
:10315C00000C7402F0E4A3F0A3F0A3F0A3F0A3F02E
:0D316C00A3F0A3F0A3F0A3F0A3F0A3F022C2
:10321D008F9BE59A20E1047F0180027F00EF70F221
:04322D00539AFD2291
:1032310012138EFF600C12321D740129F9E43AFA5F
:0332410080EE22FA
:03004300022ED2B8
:102ED200C0E0C0F0C083C082C0D075D010E59A3087
:102EE200E039539AFE900016E0B4012FC39000120D
:102EF200E094084004E4F0A3F0900012E475F001BD
:102F0200121473FE749825F0F58274003EF583E581
:102F12009BF0900014E4F0A37405F0D0D0D082D0DE
:062F220083D0F0D0E03284
:102FE800759850438E40538EFE53890F758BD0755C
:102FF8008DFFC2ABD28E9000007401F0E4A3F0A361
:10300800F0A3F0A3F0A3F0A3F0A3F0A3F0A3F0A320
:06301800F0A3F0D2AC228F
:1030BA00900003E0FCA3E02498F58274083CF583B1
:1030CA00EFF0900003E475F00112145DC39404401C
:1030DA0007E4900003F0A3F0900005E0700404F008
:0330EA00D2992256
:1032440012138EFF600C1230BA740129F9E43AFAB1
:0332540080EE22E7
:030023000228B9F7
:1028B900C0E0C0F0C083C082C0D075D01830983E47
:1028C900C29890000AE0B40135C3900007E09480F3
:1028D900900006E094004004E4F0A3F0900006E4C0
:1028E90075F001121473FE741825F0F58274003E18
:1028F900F583E599F0900008E4F0A37405F03099A8
:1029090043C299900003E0FEA3E0FF900001E0FCC0
:10291900A3E0FD6F7002EC6E602574982DF582744A
:10292900083CF583E0F599900001E475F001121473
:102939005DC39404400E900001E4F0A3F08005907B
:0F2949000005E4F0D0D0D082D083D0F0D0E032BF
:030000000229F3DF
:0C29F300787FE4F6D8FD758120022A3AB6
:10129800E709F608DFFA8046E709F208DFFA803E38
:1012A80088828C83E709F0A3DFFA8032E309F60825
:1012B800DFFA8078E309F208DFFA807088828C838D
:1012C800E309F0A3DFFA806489828A83E0A3F60841
:1012D800DFFA805889828A83E0A3F208DFFA804C1B
:1012E80080D280FA80C680D4806980F280338010F2
:1012F80080A680EA809A80A880DA80E280CA80335B
:1013080089828A83ECFAE493A3C8C582C8CCC583D2
:10131800CCF0A3C8C582C8CCC583CCDFE9DEE780A2
:101328000D89828A83E493A3F608DFF9ECFAA9F021
:10133800EDFB2289828A83ECFAE0A3C8C582C8CC77
:10134800C583CCF0A3C8C582C8CCC583CCDFEADE90
:10135800E880DB89828A83E493A3F208DFF980CCF2
:1013680088F0EF60010E4E60C388F0ED2402B404EB
:101378000050B9F582EB2402B4040050AF23234592
:0613880082239012E873BD
:10138E00BB010689828A83E0225002E722BBFE025D
:09139E00E32289828A83E4932290
:1013A700BB010CE58229F582E5833AF583E02250FB
:1013B70006E92582F8E622BBFE06E92582F8E22245
:0D13C700E58229F582E5833AF583E493225F
:1013D400BB010689828A83F0225002F722BBFE01F8
:0213E400F322F2
:1013E600F8BB010DE58229F582E5833AF583E8F03D
:1013F600225006E92582C8F622BBFE05E92582C8E9
:02140600F222D0
:10140800BC000BBE0029EF8DF084FFADF022E4CCC8
:10141800F875F008EF2FFFEE33FEEC33FCEE9DEC91
:10142800984005FCEE9DFE0FD5F0E9E4CEFD22EDD7
:10143800F8F5F0EE8420D21CFEADF075F008EF2F21
:10144800FFED33FD4007985006D5F0F222C398FD12
:051458000FD5F0EA22AF
:10145D00C5F0F8A3E028F0C5F0F8E582158270021A
:06146D001583E038F022B7
:10147300A3F8E0C5F025F0F0E5821582700215832C
:06148300E0C838F0E82289
:10148900BB0110E58229F582E5833AF583E0F5F0A1
:10149900A3E0225009E92582F886F008E622BBFE7E
:1014A9000AE92582F8E2F5F008E222E5832AF583C4
:0814B900E993F5F0A3E9932289
:102CE300900DB4EBF0A3EAF0A3E9F0900DBAEBF08A
:102CF300A3EAF0A3E9F0900DB4E0FBA3E475F001BF
:102D0300121473A9F0FA12138E70EB900DB574FFC1
:102D1300F5F012145D900DB7E0FBA3E475F001121A
:102D23001473A9F0FA12138EFF900DB4E0FBA3E421
:102D330075F001121473A9F0FAEF1213D470D69040
:0B2D43000DBAE0FBA3E0FAA3E0F922C8
:10320800E4FFFE12138E600C0FEF70010E09E970D7
:05321800F20A80EF2224
:10269400900DC1EBF0A3EAF0A3E9F0A3E0FBA3E003
:1026A400FAA3E0F912138E7003022740900DC1E0E3
:1026B400FBA3E0FAA3E0F912138E700302274C90F7
:1026C4000DC4E0F9A3E0FAA3E0A3C9F0A3EAF0A3E0
:1026D400E9F0900DC1A3E0FAA3E0F9900DCAEBF084
:1026E400A3EAF0A3E9F0900DC7E0FBA3E0FAA3E0AE
:1026F400F912138EFF6026900DCAE0FBA3E0FAA343
:10270400E0F912138E6F7015900DC875F001121454
:102714005D900DCBE475F00112145D80C9900DC776
:10272400E0FBA3E0FAA3E0F912138E7002800D908F
:102734000DC2E475F00112145D0226B0900DC1E0E3
:0F274400FBA3E0FAA3E0F9227B007A00790022E0
:1014C100EF4E6012EF60010EEDBB010B89828A8342
:1014D100F0A3DFFCDEFA2289F05007F709DFFCA94F
:0C14E100F022BBFEFCF309DFFCA9F022A6
:1029FF0002311FE493A3F8E493A34003F68001F29E
:102A0F0008DFF48029E493A3F85407240CC8C333D8
:102A1F00C4540F4420C8834004F456800146F6DFA7
:102A2F00E4800B0102040810204080902C09E47E02
:102A3F00019360BCA3FF543F30E509541FFEE4939C
:102A4F00A360010ECF54C025E060A840B8E493A363
:102A5F00FAE493A3F8E493A3C8C582C8CAC583CA8E
:102A6F00F0A3C8C582C8CAC583CADFE9DEE780BE46
:012C7500005E
:00000001FF
