:1033FF00AD071FED600B0000007E1A1EEE60F1801E
:01340F00FAC2
:013410002299
:0F3411007DA57C06ED1D70011C144C70F7DFF1DA
:013420002289
:02002600AB0726
:10002800AF031BEF60107E04EED3940040F27FFA1A
:060038001234111E80F2DB
:01003E00229F
:1032C2007379732073746172740D0A007769666989
:1032D2002072657365740D0A0077696669207365EB
:1032E2007420536572766572207375636573730D0E
:0232F2000A00D0
:1030C700C2AF1232F443AF011231BDE4F5B8F5B522
:1030D70043B501123378D2AF7BFF7A3279C212330C
:1030E700EC1224B17E087F007D007B017A0079987D
:1030F7001216507BFF7A3279CE1233EC123321123B
:0F3107002685EF60EE7BFF7A3279DB1233EC2204
:101D37004448543131207472756520200D0A0044DF
:101D4700485431312066616C736520200D0A0054B8
:101D5700454D500048554D49005357495443483164
:101D67003D4F4E00535749544348313D4F46460077
:101D7700535749544348323D4F4E005357495443F4
:101D870048323D4F464600535749544348333D4F29
:101D97004E00535749544348333D4F464600535727
:101DA70049544348343D4F4E0053574954434834F0
:101DB7003D4F4646004C49474854004F4E006C691A
:101DC70067687431206F6E210D0A004F4646006C1C
:101DD7006967687431206F6666210D0A00494E43B2
:101DE700006C696768743120696E63210D0A0044CD
:101DF7004543006C696768743120646563210D0A87
:101E0700006C696768743220696E63210D0A006C83
:101E1700696768743220646563210D0A006C69671D
:101E2700687420696E76616C696420636F6D6D619B
:101E37006E643232320D0A00696E76616C69642015
:101E4700636F6D6D616E643131310D0A005357490F
:101E57005443480026535749544348323D4F4E0098
:101E670026535749544348323D4F46460026535759
:101E770049544348333D4F4E00265357495443482E
:101E8700333D4F46460026535749544348343D4F48
:0F1E97004E0026535749544348343D4F464600AA
:10000E00D2C87F011233FFC2C87F12123411D2C878
:05001E007F040233FF26
:10325C00E4900D8FF0900D8EF030C8FD7F0212338C
:10326C00FF900D8FE025E0F030C803E004F020C89B
:10327C00FD900D8EE004F0E0C3940840DC900D8FBF
:02328C00E0FF61
:01328E00221D
:0B23B400900D82EBF0A3EAF0A3E9F02B
:1023BF00E4A3F0A3F0A3F0A3F0A3F012000E30C833
:1023CF000302245C30C8FDC2AF7F081233FF123204
:1023DF005C900D85EFF012325C900D86EFF01232AB
:1023EF005C900D87EFF012325C900D88EFF0123297
:1023FF005C900D89EFF0D2AF900D86E0FD900D85CA
:10240F00E02DFDE433FC900D87E07A002DFDEA3CD2
:10241F00FCA3E02DFDEA3CFC7E00EDB5070CEEB50C
:10242F0004087BFF7A1D793780067BFF7A1D79467A
:10243F001233EC900D87E0FF900D8AE4F0A3EFF0DC
:10244F00900D85E0FF900D8CE4F0A3EFF0900DC49C
:10245F0074FFF0A3741DF0A37456F0900D82E0FB8F
:10246F00A3E0FAA3E0F9122833EA494B6005900D77
:10247F008A8024900DC474FFF0A3741DF0A3745BC5
:10248F00F0900D82E0FBA3E0FAA3E0F9122833EA03
:10249F00494B6009900D8CE0FEA3E0FF227EFF7F89
:0124AF00FF2D
:0124B0002209
:0B1EA600900D82EBF0A3EAF0A3E9F03E
:101EB100A3EBF0A3EAF0A3E9F0900D82E0FBA3E02D
:101EC100FAA3E0F912334D900DC474FFF0A3741D11
:101ED100F0A37460F0900D82E0FBA3E0FAA3E0F9B7
:101EE100122833EA494B60097D047F051231F380E2
:101EF10028900DC474FFF0A3741DF0A3746BF090CF
:101F01000D82E0FBA3E0FAA3E0F9122833EA494B82
:101F110060077D047F05123116900DC474FFF0A394
:101F2100741DF0A37477F0900D82E0FBA3E0FAA397
:101F3100E0F9122833EA494B60097D10E4FF1231C0
:101F4100F38028900DC474FFF0A3741DF0A3748274
:101F5100F0900D82E0FBA3E0FAA3E0F9122833EA46
:101F6100494B60077D10E4FF123116900DC474FFD8
:101F7100F0A3741DF0A3748EF0900D82E0FBA3E03A
:101F8100FAA3E0F9122833EA494B60097D02E4FF24
:101F91001231F38028900DC474FFF0A3741DF0A3D7
:101FA1007499F0900D82E0FBA3E0FAA3E0F9122806
:101FB10033EA494B60077D02E4FF123116900DC4EC
:101FC10074FFF0A3741DF0A374A5F0900D82E0FBE3
:101FD100A3E0FAA3E0F9122833EA494B60097D0135
:101FE100E4FF1231F38028900DC474FFF0A3741D37
:101FF100F0A374B0F0900D82E0FBA3E0FAA3E0F946
:10200100122833EA494B60077D01E4FF1231167F44
:0120110001CD
:0120120022AB
:10315100900D85EFF0BF0210900E2874A0F0C3749B
:10316100FF94A0FDE4FF8015900D85E0B407149055
:103171000E2974A0F0C374FF94A0FD7F0112339A4D
:063181007F01227F002205
:10322800900D85EFF0BF020FE4900E28F0C374FFF5
:103238009400FDE4FF8014900D85E0B40713E4903A
:103248000E29F0C374FF9400FD7F0112339A7F01A9
:04325800227F0022AF
:102EED00900D85EFF064027028900E28E0FFC374FA
:102EFD00FF9FC39428500574FFF08007900E28E0C3
:102F0D002428F0900E28E0FFC374FF9FFDE4FF809E
:102F1D002E900D85E06407702C900E29E0FFC37490
:102F2D00FF9FC39428500574FFF08007900E29E091
:102F3D002428F0900E29E0FFC374FF9FFD7F01123E
:082F4D00339A7F01227F00226C
:102FBA00900D85EFF064027022900E28E0C39428E9
:102FCA005004E4F08007900E28E024D8F0900E28F0
:102FDA00E0FFC374FF9FFDE4FF8028900D85E06445
:102FEA00077026900E29E0C394285004E4F0800765
:102FFA00900E29E024D8F0900E29E0FFC374FF9FB9
:0C300A00FD7F0112339A7F01227F00221B
:10184000900D82EBF0A3EAF0A3E9F0900DC474FFD1
:10185000F0A3741DF0A374BCF0900D82E0FBA3E034
:10186000FAA3E0F9122833EA494B70030219F09009
:10187000000612153624CE700302192F04600302ED
:1018800019E8900DC474FFF0A3741DF0A374C2F0A6
:10189000900D82E0FBA3E0FAA3E0F9122833EA49B5
:1018A0004B60057F02021952900DC474FFF0A374BF
:1018B0001DF0A374D2F0900D82E0FBA3E0FAA3E048
:1018C000F9122833EA494B60057F02021981900D15
:1018D000C474FFF0A3741DF0A374E4F0900D82E0D3
:1018E000FBA3E0FAA3E0F9122833EA494B600E7F2C
:1018F00002122EED7BFF7A1D79E80219F6900DC4D5
:1019000074FFF0A3741DF0A374F6F0900D82E0FB59
:10191000A3E0FAA3E0F9122833EA494B7003021955
:10192000F97F02122FBA7BFF7A1D79FA0219F6901D
:101930000DC474FFF0A3741DF0A374C2F0900D8267
:10194000E0FBA3E0FAA3E0F9122833EA494B600E6A
:101950007F071231517BFF7A1D79C50219F6900D70
:10196000C474FFF0A3741DF0A374D2F0900D82E054
:10197000FBA3E0FAA3E0F9122833EA494B600D7F9C
:10198000071232287BFF7A1D79D6806A900DC474C5
:10199000FFF0A3741DF0A374E4F0900D82E0FBA3AC
:1019A000E0FAA3E0F9122833EA494B600D7F0712F1
:1019B0002EED7BFF7A1E7908803C900DC474FFF0F9
:1019C000A3741DF0A374F6F0900D82E0FBA3E0FA7F
:1019D000A3E0F9122833EA494B601E7F07122FBAA1
:1019E0007BFF7A1E7916800E7BFF7A1E7924800693
:0B19F0007BFF7A1E793F1233EC7F0171
:0119FB0022C9
:1024B100900D1A7403F0A304F07B017A0D791A7F51
:1024C1000512167C900D1B7413F07B017A0D791A9D
:1024D100E4FF12167C900D1E7403F0A37420F07BB0
:1024E100017A0D791A7F0512167CE4900D1CF0A378
:1024F10004F0FB7A0D791C7F0512167C900D18747F
:1025010003F0A37480F07B017A0D79187F03121612
:102511007C900D197480F07B017A0D79187F01127E
:10252100167CE4900D20F0A3F0A37442F0E4A3F034
:10253100A3F0A304F0E4A3F0A3F07B017A0D7920CA
:102541007F031219FC7B017A0D79207F021219FC9D
:102551007B017A0D79207F071219FC7D047F05121A
:1025610031167D10E4FF1231167D02E4FF1231169F
:102571007D01E4FF1231167D207F051231167F02A5
:102581001232287F071232287D807F031231167D97
:0D259100807F01123116E4900E28F0A3F0B7
:01259E00221A
:0B259F00900D7CEBF0A3EAF0A3E9F044
:1025AA00900DC474FFF0A3741EF0A37454F01228A3
:1025BA0033900D7FEBF0A3EAF0A3E9F04A4B6017E2
:1025CA00900D7FE0FBA3E0FAA3E0F9121EA6EF60EC
:1025DA00037F01227F0022900DC474FFF0A3741DB3
:1025EA00F0A374BCF0900D7CE0FBA3E0FAA3E0F941
:1025FA00122833900D7FEBF0A3EAF0A3E9F04A4BDF
:10260A006010900D7FE0FBA3E0FAA3E0F9121840F6
:10261A008066900DC474FFF0A3741DF0A37456F085
:10262A00900D7CE0FBA3E0FAA3E0F9122833900DA9
:10263A007FEBF0A3EAF0A3E9F04A4B6002802B900B
:10264A000DC474FFF0A3741DF0A3745BF0900D7CAD
:10265A00E0FBA3E0FAA3E0F9122833900D7FEBF038
:10266A00A3EAF0A3E9F04A4B600E900D7FE0FBA3CA
:0A267A00E0FAA3E0F91223B47F0197
:012684002233
:10275D00900D7CEBF0A3EAF0A3E9F07D047F051268
:10276D002F55EF900DB7600C74FFF0A3741DF0A3FF
:10277D007460800A74FFF0A3741DF0A3746BF09065
:10278D000D7CE0FBA3E0FAA3E0F9122E827D10E4AC
:10279D00FF122F55EF900DB7600C74FFF0A3741E50
:1027AD00F0A3745B800A74FFF0A3741EF0A374672A
:1027BD00F0900D7CE0FBA3E0FAA3E0F9122E827DF0
:1027CD0002E4FF122F55EF900DB7600C74FFF0A3CC
:1027DD00741EF0A37474800A74FFF0A3741EF0A32A
:1027ED007480F0900D7CE0FBA3E0FAA3E0F9122ECB
:1027FD00827D01E4FF122F55EF900DB7600C74FF31
:10280D00F0A3741EF0A3748D800A74FFF0A3741EE0
:10281D00F0A37499F0900D7CE0FBA3E0FAA3E0F92E
:06282D00122E827F012241
:10318700900E2A7401F01230C7900E2AE024FE60D8
:103197001B0470F57F327E00123016EF60EB7B0167
:1031A7007A0079981233EC12201380DD122AF77F08
:0631B7000112002680D386
:101B9B0041542B524553544F52450D0A004F4B00A5
:101BAB0041542B43574D4F44453D320D0A00415490
:101BBB002B43575341503D2241495F4C6162222CCC
:101BCB002231323334353637383930222C342C34F9
:101BDB000D0A0041542B5253540D0A0041542B4310
:101BEB0049504D55583D310D0A0041542B43495036
:101BFB005345525645523D312C353030300D0A008D
:101C0B0041542B43494653520D0A0041542B435721
:101C1B004D4F44453D310D0A0041542B43574A412A
:101C2B00503D22486954565F776F6F5F706C7573C8
:101C3B00222C2231323334353637383930220D0AE3
:101C4B000041542B4349504D55583D300D0A00412E
:101C5B00542B43495053544152543D225443502228
:101C6B002C223139322E3136382E312E313036226C
:101C7B002C353030300D0A0041542B434950434C26
:101C8B004F53453D300D0A006D61746368000D0ABA
:101C9B000D0A002C000D0A003E200053454E442037
:101CAB004F4B003E3E3E0041542B43495053454E53
:101CBB00443D00222C00434F4E4E454354004154AB
:101CCB002B43495053454E443D000000000000009B
:101CDB0000000000000000000000000041542B43F6
:101CEB00495053454E443D000000000000000000E9
:101CFB000000000000000000000041542B4349503D
:101D0B0053544152543D22544350222C2200000084
:101D1B0000000000000000000000000000000000B8
:0C1D2B00000000000000000000000000AC
:102DA800460DD9FF1B9BFF1BA8460DFDFF1BABFF64
:102DB8001BA8460E0FFF1BB9FF1BA8460DF1FF1BF2
:102DC800DEFF1BA8460E03FF1BE7FF1BA8460DEB03
:102DD800FF1BF5FF1BA8460DF7FF1C0BFF1BA846A2
:102DE8000DE5FF1C16FF1BA8460DCDFF1C24FF1B7D
:102DF800A8460DD3FF1C4CFF1BA8460E09FF1C5A02
:0C2E0800FF1BA8460DDFFF1C83FF1BA86A
:07229E003EFE7B01AD07FCD1
:1022A500900DACEBF0A3EAF0A3E9F0A3ECF0A3EDFD
:0122B500F038
:1022B600900DAFE0FEA3E0FF7C277D10121597EF8F
:1022C6002430FF900DACE0FBA3E0FAA3E0F9EF1297
:1022D6001563900DAFE0FEA3E0FF7C277D1012157D
:1022E600977E037FE8CFCDCFCECCCE121597EF24C5
:1022F60030FF900DACE0FBA3E0FAA3E0F9900001FB
:10230600EF121575900DAFE0FEA3E0FF7C037DE8AC
:102316001215977E007F64CFCDCFCECCCE12159707
:10232600EF2430FF900DACE0FBA3E0FAA3E0F990B8
:102336000002EF121575900DAFE0FEA3E0FF7C00E2
:102346007D641215977E007F0ACFCDCFCECCCE12FC
:102356001597EF2430FF900DACE0FBA3E0FAA3E065
:10236600F9900003EF121575900DAFE0FEA3E0FFA4
:102376007C007D0A121597ED2430FF900DACE0FB32
:10238600A3E0FAA3E0F9900004EF1215759000059A
:10239600E412157512151DFFB43009740129F9E40C
:0D23A6003AFA80F0EF70060429F9E43AFAE3
:0123B3002207
:10332100E4900D18F0A37408F07B017A0D79187FF1
:103331000512167C7D087F051231167F6412341147
:0C3341007D087F051231F37F0202002698
:10301600D3EF9400EE9400404F7C007D321215975A
:10302600D3EF9400EE9400403F9000167401F0E454
:10303600900012F0A3F0900017F0900014F0A37423
:1030460005F0D3900015E09400900014E094005031
:10305600F1E4900016F0A3E06007900012A3E0FFF1
:0A30660022EF1F70BB1E80B87F0030
:01307000223D
:1028F200900DF4E0F9A3E0FAA3E0900DB7C9F0A3BC
:10290200EAF0A3E9F0A3740BF0A374B8F0900DF110
:08291200E0FBA3E0FAA3E0F9E9
:10291A001233D9900DBAE0FEA3E0FF7C007D0512C8
:10292A0015977C007D0A121597900DBFEEF0A3EF64
:10293A00F0D3900DC0E09400900DBFE09400405C8D
:10294A007F327E00123016EF60427B017A0079985E
:10295A001233EC900DB7E0F9A3E0FAA3E0900DC4AE
:10296A00C9F0A3EAF0A3E9F07B017A00799812286A
:10297A0033900DBCEBF0A3EAF0A3E9F04A4B600CEC
:10298A007BFF7A1C799312334D7F0122900DC0E0B0
:0E299A0024FFF0900DBFE034FFF080957F0029
:0129A800220C
:0B102B00900D1DEBF0A3EAF0A3E9F02C
:1010360078397C0D7D017BFF7A1C79C97E007F1E85
:101046001214F7900D20E0FBA3E0FAA3E0F91233A7
:10105600B0900D5AEEF0FCA3EFF0FD7B017A0D790E
:10106600271222A5900D57EBF0A3EAF0A3E9F0E4CE
:10107600900D2DF0900D57E0F9A3E0FAA3E0900D46
:10108600B7C9F0A3EAF0A3E9F07B017A0D792D1236
:101096002E82900DB774FFF0A3741CF0A37499F020
:1010A6007B017A0D792D122E827B017A0D792D1214
:1010B60033B0C006C0077BFF7A00798C1233B0D0FC
:1010C600E02FFFD0E07A0D792712229E900D57EB84
:1010D600F0A3EAF0A3E9F0900D1DE0F9A3E0FAA36E
:1010E600E0900DB7C9F0A3EAF0A3E9F07B017A0D11
:1010F6007939122E82900DB774FFF0A3741CF0A3F9
:10110600749EF07B017A0D7939122E82900D57E08C
:10111600F9A3E0FAA3E0900DB7C9F0A3EAF0A3E9BA
:10112600F07B017A0D7939122E82900DB774FFF09B
:10113600A3741CF0A374A0F07B017A0D7939122EEA
:1011460082900DB774FFF0A3741CF0A374A3F0A3F0
:10115600740BF0A374B8F07B017A0D793912291A51
:10116600EF7002FF227BFF7A00798C1233D97B0164
:101176007A0D792D1233D9900DB774FFF0A3741C34
:10118600F0A374A6F0A3740BF0A374B8F07B007AF6
:1011960000790012291AEF7002FF227B017A0D797D
:1011A600277D087C071222A5900D57EBF0A3EAF0E5
:1011B600A3E9F0900D20E0F9A3E0FAA3E0900D5C1E
:1011C600C9F0A3EAF0A3E9F0900D5AE0FEA3E0FF10
:1011D6007C077D08121597900D23EEF0A3EFF0D350
:1011E600900D24E09400900D23E094005003021328
:1011F600337BFF7A1C79AE1233EC900D23E0FEA30D
:10120600E0FF122CA67BFF7A1C79A01233ECE49047
:101216000D39F0900DB774FFF0A3741CF0A374B2EF
:10122600F07B017A0D7939122E82900D1DE0F9A31B
:10123600E0FAA3E0900DB7C9F0A3EAF0A3E9F07BCA
:10124600017A0D7939122E82900DB774FFF0A374CE
:101256001CF0A3749EF07B017A0D7939122E8290D0
:101266000D57E0F9A3E0FAA3E0900DB7C9F0A3EAA1
:10127600F0A3E9F07B017A0D7939122E82900DB731
:1012860074FFF0A3741CF0A374A0F07B017A0D79AF
:1012960039122E82900DB774FFF0A3741CF0A3745C
:1012A600A3F0A3740BF0A374B8F07B017A0D79391F
:1012B60012291AEF7002FF22900D257407F0A3047D
:1012C600F0900D5CE0FBA3E0FAA3E0F912151DFF18
:1012D6001233C5900D5DE475F0011215EC900D26E4
:1012E600E024FFF0900D25E034FFF0D3A3E0940056
:1012F600900D25E0940050C9900DB774FFF0A374CB
:101306001CF0A374A6F0A3740BF0A374B8F07B00D2
:101316007A00790012291AEF7002FF22900D24E05C
:1013260024FFF0900D23E034FFF00211E5900D5CF0
:10133600E0FBA3E0FAA3E0F91233B0AC06AD077BFD
:10134600017A0D79271222A5900D57EBF0A3EAF04A
:10135600A3E9F0E4900D39F0900DB774FFF0A37493
:101366001CF0A374B2F07B017A0D7939122E8290AB
:101376000D1DE0F9A3E0FAA3E0900DB7C9F0A3EACA
:10138600F0A3E9F07B017A0D7939122E82900DB720
:1013960074FFF0A3741CF0A3749EF07B017A0D79A0
:1013A60039122E82900D57E0F9A3E0FAA3E0900DD2
:1013B600B7C9F0A3EAF0A3E9F07B017A0D793912F7
:1013C6002E82900DB774FFF0A3741CF0A374A0F0E6
:1013D6007B017A0D7939122E82900DB774FFF0A336
:1013E600741CF0A374A3F0A3740BF0A374B8F07B81
:1013F600017A0D793912291AEF7002FF22900DB782
:1014060074FFF0A3741CF0A374A6F0A3740BF0A3EE
:1014160074B8F0900D5C122912EF7002FF227F0162
:0114260022A3
:0B217700900D7CEBF0A3EAF0A3E9F070
:10218200788B7C0D7D017BFF7A1C79E77E007F1EB8
:102192001214F7900D7FE0FBA3E0FAA3E0F91233EB
:1021A200B0EF25E0FDEE33FCC004C005900D7CE0ED
:1021B200FBA3E0FAA3E0F91233B0D0E02FFDD0E0A8
:1021C2003EFCC004C005900D82E0FBA3E0FAA3E050
:1021D200F91233B0D0E02FFFD0E07A0D79851222C8
:1021E2009E900DA9EBF0A3EAF0A3E9F0900DA9E00F
:1021F200F9A3E0FAA3E0900DB7C9F0A3EAF0A3E9CE
:10220200F07B017A0D798B122E82900DB774FFF05C
:10221200A3741CF0A374A0F07B017A0D798B122EAB
:1022220082900DB774FFF0A3741CF0A374A3F0A303
:10223200740BF0A374B8F07B017A0D798B12291A12
:10224200EF7002FF22900D7CE0FBA3E0FAA3E0F91D
:102252001233D9900D7FE0FBA3E0FAA3E0F9123329
:10226200D9900D82E0FBA3E0FAA3E0F91233D990F2
:102272000DB774FFF0A3741CF0A374A6F0A3740B43
:10228200F0A374B8F0900D7F122912EF7002FF22B2
:0B2292007BFF7A1C79A612334D7F0100
:01229D00221E
:10268500900E00E0F9A3E0FAA3E0900DB7C9F0A31E
:10269500EAF0A3E9F0A3740BF0A374B8F0900DFD74
:1026A500122912EF7002FF22900E12E0F9A3E0FA50
:1026B500A3E0900DB7C9F0A3EAF0A3E9F0A3740B6A
:1026C500F0A374B8F0900E0F122912EF7002FF22DA
:1026D5001228F2EF7002FF227F02120026900E06EA
:1026E500E0F9A3E0FAA3E0900DB7C9F0A3EAF0A3DF
:1026F500E9F0A3740BF0A374B8F0900E031229123D
:10270500EF7002FF22900DEEE0F9A3E0FAA3E0904E
:102715000DB7C9F0A3EAF0A3E9F0A3740BF0A37415
:10272500B8F0900DEB122912EF7002FF22900DFA0E
:10273500E0F9A3E0FAA3E0900DB7C9F0A3EAF0A38E
:10274500E9F0A3740BF0A374B8F0900DF7122912F9
:08275500EF7002FF227F012258
:102C1E00900DE8E0F9A3E0FAA3E0900DB7C9F0A398
:102C2E00EAF0A3E9F0A3740BF0A374B8F0900DE5ED
:102C3E00122912EF7002FF221228F2EF7002FF2209
:102C4E007F02120026900DD0E0F9A3E0FAA3E090E7
:102C5E000DB7C9F0A3EAF0A3E9F0A3744EF0A37484
:102C6E0020F0900DCD122912EF7002FF22900DD69A
:102C7E00E0F9A3E0FAA3E0900DB7C9F0A3EAF0A340
:102C8E00E9F0A3740BF0A374B8F0900DD3122912CF
:082C9E00EF7002FF227F01220A
:0B29A900900D7CEBF0A3EAF0A3E9F036
:1029B40078827C0D7D017BFF7A1D79057E007F3254
:1029C4001214F7900D7CE0F9A3E0FAA3E0900DB7A0
:1029D400C9F0A3EAF0A3E9F07B017A0D7982122E03
:1029E40082900DB774FFF0A3741CF0A374BEF07B47
:1029F400017A0D7982122E82900D7FE0F9A3E0FA1C
:102A0400A3E0900DB7C9F0A3EAF0A3E9F07B017A43
:102A14000D7982122E82900DB774FFF0A3741CF00E
:102A2400A374A0F07B017A0D7982122E82900DB7E7
:102A340074FFF0A3741CF0A374C1F0A37427F0A373
:102A44007410F07B017A0D798212291AEF7002FF5B
:032A5400227F01DD
:012A5700225C
:10337800538E7F5389F0E4F58A758CB8C28DD28C50
:10338800D2A9900E277464F0E4900E24F0A3F0A361
:02339800F02221
:03000B00022E15AD
:102E1500C0E0C083C082C0D075D008900E27E0D333
:102E250094004003E014F0900016E06047D3900052
:102E350015E09400900014E094004038A3E024FFCE
:102E4500F0900014E034FFF0E07002A3E0702590EC
:102E55000016F0900012E0FEA3E0FFD39400EE947C
:102E650000401174982FF58274003EF583E4F090CC
:0D2E7500001704F0D0D0D082D083D0E0321E
:070003002A2A2A000D0A0061
:042CA600AB07AA06C8
:102CAA007C277D10121597EF2430900D5FF07C275A
:102CBA007D10AF03AE021215977E037FE8CFCDCF0A
:102CCA00CECCCE121597EF2430A3F07C037DE8AF6B
:102CDA0003AE021215977E007F64CFCDCFCECCCE45
:102CEA00121597EF2430A3F07C007D64AF03AE0287
:102CFA001215977E007F0ACFCDCFCECCCE12159774
:102D0A00EF2430A3F0AE02AF037C007D0A121597C0
:102D1A00ED2430A3F0E4A3F07B017A0D795F02334E
:012D2A00ECBC
:10334D00900DC1EBF0A3EAF0A3E9F07BFF7A0079D1
:10335D00031233EC900DC1E0FBA3E0FAA3E0F912E8
:0B336D0033EC7BFF7A0079070233ECA1
:102D2B0048545450002B4950442C00474554202FF5
:102D3B002000474554202F3F004465766963657337
:102D4B0020636F6E74726F6C204661696C20212159
:102D5B002100474554202F636F6E66696700474516
:102D6B0054202F726573003131392E332E323333A9
:102D7B002E3536003530303000636F6E74726F6CE9
:102D8B003F0053657276657220726573706F6E7358
:0D2D9B00652074696D656F7574210D0A0067
:10201300900DC474FFF0A3742DF0A3742BF07B0117
:102023007A007998122833EA494B7003022176E447
:10203300121563900DC474FFF0A3742DF0A37430D4
:10204300F07B017A007998122833900D18EBF0A3F6
:10205300EAF0A3E9F04A4B7003022176900D19E4EC
:1020630075F0051215EC900D18E0FBA3E0FAA3E060
:10207300F912151D900D1BF0E4A3F0900DC474FF2D
:10208300F0A3742DF0A37436F07B017A00799812D3
:102093002833900D18EBF0A3EAF0A3E9F04A4B6064
:1020A30010900D2074FFF0A37400F0A374D60221E6
:1020B3006C900DC474FFF0A3742DF0A3743DF07BFA
:1020C300017A007998122833900D18EBF0A3EAF007
:1020D300A3E9F04A4B602A900D18E0FBA3E0FAA3B2
:1020E300E0F912259F900D2074FFBF010AF0A3743D
:1020F30000F0A374D68008F0A3742DF0A374448079
:1021030068900DC474FFF0A3742DF0A3745DF07B8D
:10211300017A007998122833900D18EBF0A3EAF0B6
:10212300A3E9F04A4B600F900D2074FFF0A37407EE
:10213300F0A3748F8033900DC474FFF0A3742DF05B
:10214300A37469F07B017A007998122833900D18F3
:10215300EBF0A3EAF0A3E9F04A4B6017900D20746B
:10216300FFF0A37410F0A37422F07B017A0D791BA6
:0321730012102B1C
:012176002246
:102AF700900D7F74FFF0A3742DF0A3747FF07BFF1C
:102B07007A2D79721229A9EF7003022B917D207F0C
:102B1700051231F3E4900D18F07B017A0D79181244
:102B2700275D900D7F7401F0A3740DF0A37418F066
:102B3700A374FFF0A37400F0A37450F07BFF7A0036
:102B47007946122177EF60427FE87E03123016EF55
:102B570060287D207F05123116900DC474FFF0A305
:102B6700742DF0A37484F07B017A007998122833CE
:102B7700EA494B600E12259F80097BFF7A2D798DDC
:0A2B87001233EC7D207F0512311699
:012B91002221
:10004600474554202F6131313F0020485454502FEA
:10005600312E310D0A486F73743A206C6F63616CF0
:10006600686F73743A353030300D0A436F6E6E65C3
:100076006374696F6E3A206B6565702D616C697685
:10008600650D0A0D0A00485454502F312E30203287
:100096003030204F4B0D0A436F6E74656E742D54CD
:1000A6007970653A20746578742F68746D6C3B209E
:1000B600636861727365743D7574662D380D0A4305
:1000C6006F6E74656E742D4C656E6774683A2000A9
:1000D6003C21444F43545950452068746D6C3E0D85
:1000E6000A3C68746D6C206C616E673D22656E22F9
:1000F6003E0D0A3C686561643E0D0A202020203CC6
:100106006D65746120636861727365743D22676210
:1001160032333132223E0D0A202020203C7469748D
:100126006C653E47656E697573204149204C616276
:100136003C2F7469746C653E0D0A202020203C73A8
:1001460074796C653E0D0A2020202020202020682E
:10015600317B666F6E742D73697A653A3630302559
:100166003B746578742D616C69676E3A63656E746D
:1001760065727D0D0A202020202020202020617B12
:10018600666F6E742D73697A653A20333030253B7D
:100196006D617267696E3A20313230707820307046
:1001A600782030707820343070787D0D0A20202039
:1001B600202020207370616E7B666F6E742D7369CC
:1001C6007A653A333030253B6D617267696E2D6C06
:1001D6006566743A343070787D0D0A202020202020
:1001E600202020627574746F6E7B747970653A6234
:1001F6007574746F6E3B6D617267696E2D6C6566A2
:10020600743A343070783B77696474683A313230C6
:1002160070783B6865696768743A31323070783B4C
:10022600626F726465722D7261646975733A3630F5
:1002360070783B70616464696E673A323070787DBD
:100246000D0A20202020202020202E7373317B626F
:1002560061636B67726F756E643A2366663939350A
:10026600337D0D0A20202020202020202E7373327B
:100276007B6261636B67726F756E643A6461726B01
:10028600677261797D0D0A20202020202020202EF3
:100296007373337B6261636B67726F756E643A204A
:1002A600236666653061307D0D0A202020202020DF
:1002B60020202E7373347B6261636B67726F756E79
:1002C600643A20236436643664367D0D0A20202085
:1002D60020202020202E7373357B626F7264657236
:1002E6002D7261646975733A323070783B6865695E
:1002F6006768743A363070787D0D0A202020203CDD
:100306002F7374796C653E0D0A202020203C7363A0
:10031600726970743E0D0A2020202020202020665D
:10032600756E6374696F6E206A702861290D0A20E4
:10033600202020202020207B77696E646F772E6C2A
:100346006F636174696F6E2E687265663D222F3F1A
:10035600222B617D0D0A202020203C2F73637269B9
:1003660070743E0D0A3C2F686561643E0D0A3C625E
:100376006F64793E0D0A202020203C646976207344
:1003860074796C653D2277696474683A313030302F
:100396007078223E0D0A20202020202020203C6458
:1003A6006976207374796C653D226261636B67724E
:1003B6006F756E642D636F6C6F723A736C617465E2
:1003C60067726179223E0D0A2020202020202020FD
:1003D600202020203C68313E47656E6975732041B8
:1003E60049204C61623C2F68313E0D0A20202020B6
:1003F600202020203C2F6469763E0D0A20202020F4
:10040600202020203C62723E0D0A20202020202041
:10041600202020202020202020203C7370616E3E6A
:10042600535749544348313A3C2F7370616E3E0D21
:100436000A202020202020202020202020202020CC
:10044600203C627574746F6E20636C6173733D2219
:1004560073733122206F6E636C69636B3D226A7021
:100466002827535749544348313D4F4E2729223EAA
:100476004F4E3C2F627574746F6E3E0D0A2020201D
:10048600202020202020202020202020203C6275B3
:1004960074746F6E20636C6173733D2273733222C2
:1004A600206F6E636C69636B3D226A702827535711
:1004B60049544348313D4F46462729223E4F46463A
:1004C6003C2F627574746F6E3E0D0A20202020202A
:1004D60020202020202020202020203C62723E0D5B
:1004E6000A2020202020202020202020202020201C
:1004F600203C7370616E3E535749544348323A3C30
:100506002F7370616E3E0D0A2020202020202020AF
:1005160020202020202020203C627574746F6E20DD
:10052600636C6173733D2273733122206F6E636C4B
:1005360069636B3D226A70282753574954434832F2
:100546003D4F4E2729223E4F4E3C2F627574746FE5
:100556006E3E0D0A20202020202020202020202052
:10056600202020203C627574746F6E20636C61736A
:10057600733D2273733222206F6E636C69636B3D29
:10058600226A702827535749544348323D4F4646FE
:100596002729223E4F46463C2F627574746F6E3E85
:1005A6003C62723E0D0A20202020202020202020A0
:1005B6002020202020203C7370616E3E5357495402
:1005C6004348333A3C2F7370616E3E0D0A2020205B
:1005D600202020202020202020202020203C627562
:1005E60074746F6E20636C6173733D227373312272
:1005F600206F6E636C69636B3D226A7028275357C0
:1006060049544348333D4F4E2729223E4F4E3C2FF7
:10061600627574746F6E3E0D0A2020202020202003
:100626002020202020202020203C627574746F6ECC
:1006360020636C6173733D2273733222206F6E6385
:100646006C69636B3D226A702827535749544348A7
:10065600333D4F46462729223E4F46463C2F62757C
:1006660074746F6E3E3C62723E0D0A20202020207C
:1006760020202020202020202020203C7370616E26
:100686003E535749544348343A3C2F7370616E3E8B
:100696000D0A20202020202020202020202020207D
:1006A60020203C627574746F6E20636C6173733DB9
:1006B6002273733122206F6E636C69636B3D226A0D
:1006C600702827535749544348343D4F4E27292213
:1006D6003E4F4E3C2F627574746F6E3E0D0A20209D
:1006E60020202020202020202020202020203C62A6
:1006F6007574746F6E20636C6173733D227373320D
:1007060022206F6E636C69636B3D226A70282753E3
:100716005749544348343D4F46462729223E4F46C3
:10072600463C2F627574746F6E3E0D0A20202020A1
:10073600202020203C62723E3C68723E0D0A20203A
:100746002020202020203C6120687265663D222FF3
:10075600636F6E666967223E4149D4B6B3CCBFD893
:10076600D6C6C9E8D6C33C2F613E0D0A20202020FC
:100776003C2F6469763E0D0A3C2F626F64793E0D0C
:100786000A3C2F68746D6C3E003C21444F4354591B
:1007960050452068746D6C3E0D0A3C68746D6C2083
:1007A6006C616E673D22656E223E0D0A3C6865618E
:1007B600643E0D0A202020203C6D6574612063682C
:1007C60061727365743D225554462D38223E0D0ADA
:1007D600202020203C7469746C653ECCECB2C54187
:1007E60049CAB5D1E9CAD23C2F7469746C653E0D0D
:1007F6000A202020203C7374796C653E0D0A202067
:1008060020202020202068317B6261636B67726F35
:10081600756E642D636F6C6F723A206461726B67DC
:100826007261793B6D617267696E3A203230707819
:100836003B666F6E742D73697A653A20363470782C
:100846003B746578742D616C69676E3A2063656EDA
:100856007465723B7D0D0A20202020202020206810
:1008660032207B6D617267696E3A20313070782074
:10087600343070783B666F6E742D73697A653A20F2
:10088600353470783B7D0D0A202020202020202042
:10089600626F64797B77696474683A38303070784F
:1008A6003B7D0D0A20202020202020202E6D61690E
:1008B6006E2D6672616D657B666C6F61743A206C35
:1008C6006566743B6261636B67726F756E642D63F8
:1008D6006F6C6F723A20236436643664363B666CFE
:1008E6006F61743A206C6566743B626F7264657200
:1008F6003A20736F6C69642032707820626C616391
:100906006B3B7D0D0A20202020202020202E737591
:10091600622D6672616D657B666C6F61743A206CE0
:100926006566743B626F726465723A20736F6C69B8
:10093600642031707820677261793B7D0D0A202032
:100946002020202020202E7468642D6672616D653B
:100956007B6D617267696E3A20313070783B666CE8
:100966006F61743A206C6566743B626F726465727F
:100976003A2064617368656420317078206772611B
:10098600793B7D0D0A20202020202020202E666F16
:10099600726D2D6C696E657B6D617267696E3A204A
:1009A600313070783B666C6F61743A206C656674A2
:1009B6003B6865696768743A20383070783B7D0D0E
:1009C6000A20202020202020202E666F726D2D6C9C
:1009D600696E653E707B6D617267696E3A20307034
:1009E6007820343070783B666C6F61743A206C65A1
:1009F60066743B666F6E742D73697A653A20343877
:100A060070783B77696474683A2032303070783B8E
:100A16006C696E652D6865696768743A2038307050
:100A2600783B746578742D616C69676E3A207269DB
:100A36006768743B7D0D0A20202020202020202E70
:100A4600666F726D2D6C696E653E6469762C2E66D6
:100A56006F726D2D6C696E653E696E7075747B661E
:100A66006C6F61743A2072696768743B7769647465
:100A7600683A2034303070783B6865696768743A44
:100A860020373670783B626F726465723A20736FF6
:100A96006C69643B666F6E742D73697A653A2034AF
:100AA6003870783B7D0D0A202020203C2F73747906
:100AB6006C653E0D0A3C2F686561643E0D0A3C621A
:100AC6006F64793E0D0A202020203C6469762063FD
:100AD6006C6173733D226D61696E2D6672616D6521
:100AE600223E0D0A20202020202020203C68313E76
:100AF600CCECB2C54149CAB5D1E9CAD23C2F68315E
:100B06003E0D0A20202020202020203C64697620EB
:100B1600636C6173733D227375622D6672616D65D8
:100B2600223E0D0A202020202020202020202020C8
:100B36003C666F726D20616374696F6E3D2223227D
:100B46003E0D0A20202020202020202020202020AA
:100B56002020203C64697620636C6173733D2274A7
:100B660068642D6672616D65223E0D0A2020202084
:100B7600202020202020202020202020202020206F
:100B86003C68323E576946693C2F68323E0D0A2062
:100B9600202020202020202020202020202020204F
:100BA6002020203C64697620636C6173733D226665
:100BB6006F726D2D6C696E65223E3C703EC3FBB351
:100BC600C63C2F703E3C696E70757420706C616314
:100BD60065686F6C6465723D22CAE4C8EBC1ACBD42
:100BE600D3B5C4576946692220747970653D22746D
:100BF60065787422206E616D653D22737369642287
:100C06003E3C2F6469763E0D0A20202020202020BD
:100C1600202020202020202020202020203C646925
:100C26007620636C6173733D22666F726D2D6C69FD
:100C36006E65223E3C703EC3DCC2EB3C2F703E3CF0
:100C4600696E70757420706C616365686F6C64653D
:100C5600723D22CAE4C8EB57694669C3DCC2EB227F
:100C660020747970653D227465787422206E616DFA
:100C7600653D22707764223E3C2F6469763E0D0AFC
:100C8600202020202020202020202020202020205E
:100C96003C2F6469763E0D0A20202020202020204B
:100CA60020202020202020203C64697620636C616F
:100CB60073733D227468642D6672616D65223E0D04
:100CC6000A20202020202020202020202020202034
:100CD60020202020203C68323EB7FECEF1C6F73CED
:100CE6002F68323E0D0A20202020202020202020A0
:100CF600202020202020202020203C6469762063AC
:100D06006C6173733D22666F726D2D6C696E652220
:100D16003E3C703E4950B5D8D6B73C2F703E3C6934
:100D26006E70757420706C616365686F6C64657253
:100D36003D223131392E332E3233332E35362220B1
:100D4600747970653D227465787422206E616D65D4
:100D56003D226970223E3C2F6469763E0D0A2020B2
:100D6600202020202020202020202020202020207D
:100D760020203C64697620636C6173733D22666F44
:100D8600726D2D6C696E65223E3C703EB6CBBFDA45
:100D96003C2F703E3C696E70757420706C616365A3
:100DA600686F6C6465723D2235303030222074796C
:100DB60070653D227465787422206E616D653D22F2
:100DC600706F7274223E3C2F6469763E0D0A2020B5
:100DD60020202020202020202020202020203C2FE2
:100DE6006469763E0D0A2020202020202020202025
:100DF6002020202020203C64697620636C61737378
:100E06003D227468642D6672616D65223E0D0A206E
:100E160020202020202020202020202020202020CC
:100E26002020203C68323ED3C3BBA73C2F68323E0D
:100E36000D0A2020202020202020202020202020D5
:100E46002020202020203C64697620636C61737327
:100E56003D22666F726D2D6C696E65223E3C703E5A
:100E6600D3C3BBA7C3FB3C2F703E3C696E70757441
:100E760020706C616365686F6C6465723D22CAE4BC
:100E8600C8EBD7D4B6A8D2E5D3C3BBA7C3FB2220F1
:100E9600747970653D227465787422206E616D6583
:100EA6003D2275736572223E3C2F6469763E0D0ABB
:100EB600202020202020202020202020202020202C
:100EC600202020203C64697620636C6173733D2288
:100ED600666F726D2D6C696E65223E3C703EC3DC9A
:100EE600C2EB3C2F703E3C696E70757420706C616D
:100EF6006365686F6C6465723D22CAE4C8EBD7D43B
:100F0600B6A8D2E5C3DCC2EB2220747970653D2217
:100F16007465787422206E616D653D227570776404
:100F2600223E3C2F6469763E0D0A20202020202098
:100F3600202020202020202020203C2F6469763E7F
:100F46000D0A2020202020202020202020202020C4
:100F560020203C696E707574207374796C653D222F
:100F6600666C6F61743A72696768743B6D6172672B
:100F7600696E3A203130707820343070783B77696A
:100F86006474683A2033303070783B686569676806
:100F9600743A20363670783B666F6E742D73697AB4
:100FA600653A20343870783B626F726465722D72D0
:100FB60061646975733A20313670782220747970CD
:100FC600653D227375626D6974222076616C756564
:100FD6003D22C9E8B6A8223E0D0A20202020202066
:100FE6002020202020203C2F666F726D3E0D0A20A7
:100FF600202020202020203C2F6469763E0D0A20E8
:101006002020203C2F6469763E0D0A3C2F626F64D7
:10101600793E0D0A3C2F68746D6C3E00C9E8B6A88F
:05102600B3C9B9A600EA
:10167C00EFD3940540037F012212151DFED3940372
:10168C0040037F0222EF7041EE700B9000011215A7
:10169C0036F45293529412151DB4010B90000112A2
:1016AC0015364293F4529412151DFEB4020A9000A2
:1016BC000112153642934294EEB4030D90000112C0
:1016CC001536FEF45293EE4294EF640170431215FA
:1016DC001DFE700B900001121536F452915292EED1
:1016EC00B4010B9000011215364291F4529212156E
:1016FC001DB4020A90000112153642914292121545
:10170C001DB4030D900001121536FEF45291EE42F9
:10171C0092EF6402704312151DFE700B90000112C3
:10172C001536F452955296EEB4010B900001121539
:10173C00364295F4529612151DB4020A900001120D
:10174C0015364295429612151DB4030D90000112E8
:10175C001536FEF45295EE4296EF64037043121563
:10176C001DFE700B900001121536F452B152B2EE00
:10177C00B4010B90000112153642B1F452B212159D
:10178C001DB4020A90000112153642B142B2121574
:10179C001DB4030D900001121536FEF452B1EE4249
:1017AC00B2EF6404704312151DFE700B9000011211
:1017BC001536F452B352B4EEB4010B90000112156D
:1017CC003642B3F452B412151DB4020A9000011241
:1017DC00153642B342B412151DB4030D900001121C
:1017EC001536FEF452B3EE42B4EF64057043121595
:1017FC001DFF700B900001121536F452C952CAEF3E
:10180C00B4010B90000112153642C9F452CA1215DC
:10181C001DB4020A90000112153642C942CA1215B3
:10182C001DB4030D900001121536FFF452C9EF429E
:04183C00CA7F00223D
:1031F300EFD3940540037F0122EF7003ED4280EF8C
:10320300B40103ED4290EFB40203ED42A0EFB40327
:1032130003ED42B0EFB40403ED42C0EFB40503ED98
:0532230042C87F0022FB
:10311600EFD3940540037F0122EF7004EDF4528053
:10312600EFB40104EDF45290EFB40204EDF452A0B2
:10313600EFB40304EDF452B0EFB40404EDF452C05E
:0B314600EFB40504EDF452C87F002236
:102F5500EFD3940540037F0122EF700BE5805D60A0
:102F6500037F01227F0022EFB4010BE5905D600332
:102F75007F01227F0022EFB4020BE5A05D60037F95
:102F850001227F0022EFB4030BE5B05D60037F01F2
:102F9500227F0022EFB4040BE5C05D60037F0122B0
:102FA5007F0022EFB4050BE5C85D60037F01227F3A
:052FB50000227F002254
:10339A00EF70038DFA22EFB401038DFB22EFB40222
:0633AA0004AF058FFC22B8
:1019FC00900D28EBF0A3EAF0A3E9F0AD07EDD3943A
:101A0C00034003021B9AED6403704CC2DEF5F9F53A
:101A1C00E9900D28E0FBA3E0FAA3E0F912151DFFF5
:101A2C00E5A254CF4FF5A2900001121536FFE5D96F
:101A3C0054F14FF5D99000041215365401FFE5D935
:101A4C0054FE4FF5D9900005121536B40104D2BFDF
:101A5C008002C2BFD2DE22900D28E0FBA3E0FAA3E5
:101A6C00E02404F9E43AFA12151D5431121563906E
:101A7C000D28E0FBA3E0FAA3E0F990000212153662
:101A8C00C39448400FE92404F9E43AFA12151D54A2
:101A9C00CF121563ED704F900D28E0FBA3E0FAA375
:101AAC00E0F9900004121536FF900002121536FE74
:101ABC004FF5DA900003121536FFE5F2543F4FF55F
:101ACC00F2900006121618FBAAF0900E18EAF0A37A
:101ADC00EBF0C200900E15EEF0900E1EEAF0A3EBA8
:101AEC00F0F5EAEAF5FAED6401704F900D28E0FB91
:101AFC00A3E0FAA3E0F9900004121536FF9000025F
:101B0C00121536FE4FF5DB900003121536FFE5F388
:101B1C00543F4FF5F3900006121618FBAAF0900EE6
:101B2C001AEAF0A3EBF0C201900E16EEF0900E2024
:101B3C00EAF0A3EBF0F5EBEAF5FBED6402704F90E5
:101B4C000D28E0FBA3E0FAA3E0F99000041215368F
:101B5C00FF900002121536FE4FF5DC9000031215B3
:101B6C0036FFE5F4543F4FF5F4900006121618FDBD
:101B7C00ACF0900E1CECF0A3EDF0C202900E17EE40
:0F1B8C00F0900E22ECF0A3EDF0F5ECECF5FC225E
:1032F400759A50438E0475D7D075D6FF438E1090BF
:10330400000C7402F0E4A3F0A3F0A3F0A3F0A3F084
:0D331400A3F0A3F0A3F0A3F0A3F0A3F02218
:1033C5008F9BE59A20E1047F0180027F00EF70F278
:0433D500539AFD22E8
:1033D90012151DFF600C1233C5740129F9E43AFA7C
:0333E90080EE2251
:0300430002307117
:10307100C0E0C0F0C083C082C0D075D010E59A30E6
:10308100E039539AFE900016E0B4012FC39000126C
:10309100E094084004E4F0A3F0900012E475F0011C
:1030A100121602FE749825F0F58274003EF583E550
:1030B1009BF0900014E4F0A37405F0D0D0D082D03E
:0630C10083D0F0D0E032E4
:1031BD00759850438E40538EFE53890F758BD07585
:1031CD008DFFC2ABD28E9000007401F0E4A3F0A38A
:1031DD00F0A3F0A3F0A3F0A3F0A3F0A3F0A3F0A34A
:0631ED00F0A3F0D2AC22B9
:10328F00900003E0FCA3E02498F58274083CF583DA
:10329F00EFF0900003E475F0011215ECC3940440B5
:1032AF0007E4900003F0A3F0900005E0700404F031
:0332BF00D299227F
:1033EC0012151DFF600C12328F740129F9E43AFAA0
:0333FC0080EE223E
:03002300022A5856
:102A5800C0E0C0F0C083C082C0D075D01830983EA6
:102A6800C29890000AE0B40135C3900007E0948052
:102A7800900006E094004004E4F0A3F0900006E41F
:102A880075F001121602FE741825F0F58274003EE6
:102A9800F583E599F0900008E4F0A37405F0309907
:102AA80043C299900003E0FEA3E0FF900001E0FC20
:102AB800A3E0FD6F7002EC6E602574982DF58274AA
:102AC800083CF583E0F599900001E475F0011215D2
:102AD800ECC39404400E900001E4F0A3F08005904C
:0F2AE8000005E4F0D0D0D082D083D0F0D0E0321F
:03000000022B923E
:0C2B9200787FE4F6D8FD758120022BD975
:10142700E709F608DFFA8046E709F208DFFA803EA7
:1014370088828C83E709F0A3DFFA8032E309F60894
:10144700DFFA8078E309F208DFFA807088828C83FC
:10145700E309F0A3DFFA806489828A83E0A3F608B0
:10146700DFFA805889828A83E0A3F208DFFA804C8A
:1014770080D280FA80C680D4806980F28033801061
:1014870080A680EA809A80A880DA80E280CA8033CA
:1014970089828A83ECFAE493A3C8C582C8CCC58342
:1014A700CCF0A3C8C582C8CCC583CCDFE9DEE78012
:1014B7000D89828A83E493A3F608DFF9ECFAA9F091
:1014C700EDFB2289828A83ECFAE0A3C8C582C8CCE7
:1014D700C583CCF0A3C8C582C8CCC583CCDFEADE00
:1014E700E880DB89828A83E493A3F208DFF980CC62
:1014F70088F0EF60010E4E60C388F0ED2402B4045B
:101507000050B9F582EB2402B4040050AF23234501
:061517008223901477739B
:10151D00BB010689828A83E0225002E722BBFE02CC
:09152D00E32289828A83E49322FF
:10153600BB010CE58229F582E5833AF583E022506A
:1015460006E92582F8E622BBFE06E92582F8E222B4
:0D155600E58229F582E5833AF583E49322CE
:10156300BB010689828A83F0225002F722BBFE0167
:02157300F32261
:10157500F8BB010DE58229F582E5833AF583E8F0AC
:10158500225006E92582C8F622BBFE05E92582C858
:02159500F22240
:10159700BC000BBE0029EF8DF084FFADF022E4CC38
:1015A700F875F008EF2FFFEE33FEEC33FCEE9DEC01
:1015B700984005FCEE9DFE0FD5F0E9E4CEFD22ED47
:1015C700F8F5F0EE8420D21CFEADF075F008EF2F91
:1015D700FFED33FD4007985006D5F0F222C398FD82
:0515E7000FD5F0EA221F
:1015EC00C5F0F8A3E028F0C5F0F8E582158270028A
:0615FC001583E038F02227
:10160200A3F8E0C5F025F0F0E5821582700215839B
:06161200E0C838F0E822F8
:10161800BB0110E58229F582E5833AF583E0F5F010
:10162800A3E0225009E92582F886F008E622BBFEED
:101638000AE92582F8E2F5F008E222E5832AF58333
:08164800E993F5F0A3E99322F8
:102E8200900DB4EBF0A3EAF0A3E9F0900DBAEBF0E9
:102E9200A3EAF0A3E9F0900DB4E0FBA3E475F0011E
:102EA200121602A9F0FA12151D70EB900DB574FFFF
:102EB200F5F01215EC900DB7E0FBA3E475F00112EA
:102EC2001602A9F0FA12151DFF900DB4E0FBA3E45F
:102ED20075F001121602A9F0FAEF12156370D6907E
:0B2EE2000DBAE0FBA3E0FAA3E0F92228
:1033B000E4FFFE12151D600C0FEF70010E09E9709D
:0533C000F20A80EF227B
:10283300900DC1EBF0A3EAF0A3E9F0A3E0FBA3E062
:10284300FAA3E0F912151D70030228DF900DC1E011
:10285300FBA3E0FAA3E0F912151D70030228EB9025
:102863000DC4E0F9A3E0FAA3E0A3C9F0A3EAF0A33F
:10287300E9F0900DC1A3E0FAA3E0F9900DCAEBF0E3
:10288300A3EAF0A3E9F0900DC7E0FBA3E0FAA3E00D
:10289300F912151DFF6026900DCAE0FBA3E0FAA311
:1028A300E0F912151D6F7015900DC875F001121522
:1028B300EC900DCBE475F0011215EC80C9900DC7B7
:1028C300E0FBA3E0FAA3E0F912151D7002800D905E
:1028D3000DC2E475F0011215EC02284F900DC1E012
:0F28E300FBA3E0FAA3E0F9227B007A0079002240
:10165000EF4E6012EF60010EEDBB010B89828A83B1
:10166000F0A3DFFCDEFA2289F05007F709DFFCA9BE
:0C167000F022BBFEFCF309DFFCA9F02215
:102B9E00023187E493A3F8E493A34003F68001F295
:102BAE0008DFF48029E493A3F85407240CC8C33338
:102BBE00C4540F4420C8834004F456800146F6DF07
:102BCE00E4800B0102040810204080902DA8E47EC2
:102BDE00019360BCA3FF543F30E509541FFEE493FC
:102BEE00A360010ECF54C025E060A840B8E493A3C3
:102BFE00FAE493A3F8E493A3C8C582C8CAC583CAEE
:102C0E00F0A3C8C582C8CAC583CADFE9DEE780BEA5
:012E140000BD
:00000001FF
