:1015A500AD071FED600B0000007E1A1EEE60F18096
:0115B500FA3B
:0115B6002212
:0F15B7007DA57C06ED1D70011C144C70F7DFF153
:0115C6002202
:02153B00AB07FC
:10153D00AF031BEF60107E04EED3940040F27FFAF0
:06154D001215B71E80F22A
:011553002275
:101400007379732073746172740D0A007769666969
:101410002072657365740D0A0077696669207365CB
:0E14200074206170207375636573730D0A008C
:1012A400C2AF1214D543AF0112148343AF10E4F557
:1012B400B8F5B543B5011214FCD2AF7BFF7A1479AB
:1012C40000121592120EA57E047F007D007B017A28
:1012D4000079121208787BFF7A14790C1215921295
:1012E400142E1209EFEF60EE7BFF7A1479191215B0
:0212F400922244
:1008BA004448543131207472756520200D0A004471
:1008CA00485431312066616C736520200D0A00544A
:1008DA00454D500048554D49004F4E0031206F6E2E
:1008EA00210D0A004F46460031206F6666210D0A27
:1008FA000032206F6E210D0A0032206F6666210DCC
:10090A000A0033206F6E210D0A0033206F666621BC
:10091A000D0A0034206F6E210D0A0034206F6666BE
:10092A00210D0A0073776974636820696E76616CB9
:10093A00696420636F6D6D616E640D0A004C4947EE
:10094A004854006C6967687431206F6E210D0A0083
:10095A006C6967687431206F6666210D0A00494E1A
:10096A0043006C696768743120696E63210D0A005F
:10097A00444543006C696768743120646563210DDE
:10098A000A006C696768743220696E63210D0A0077
:10099A006C696768743220646563210D0A006C69AA
:1009AA0067687420696E76616C696420636F6D6D27
:1009BA00616E643232320D0A00696E76616C696466
:1009CA0020636F6D6D616E643131310D0A005345DC
:1009DA00545749464900535749544348004F4B001E
:0509EA004641494C00EC
:10156A00D2C47F011215A5C2C47F121215B7D2C404
:05157A007F040215A52D
:10139B00E4900956F0900955F030C4FD7F02121508
:1013AB00A5900956E025E0F030C403E004F020C41A
:1013BB00FD900955E004F0E0C3940840DC90095619
:0213CB00E0FF41
:0113CD0022FD
:0B0C3000900949EBF0A3EAF0A3E9F003
:100C3B00E4A3F0A3F0A3F0A3F0A3F012156A30C461
:100C4B0003020CD830C4FDC2AF7F081215A51213D6
:100C5B009B90094CEFF012139B90094DEFF0121380
:100C6B009B90094EEFF012139B90094FEFF012136C
:100C7B009B900950EFF0D2AF90094DE0FD90094CDD
:100C8B00E02DFDE433FC90094EE07A002DFDEA3CAB
:100C9B00FCA3E02DFDEA3CFC7E00EDB5070CEEB5A8
:100CAB0004087BFF7A0879BA80067BFF7A0879C93A
:100CBB0012159290094EE0FF900951E4F0A3EFF06A
:100CCB0090094CE0FF900953E4F0A3EFF090095822
:100CDB0074FFF0A37408F0A374D9F0900949E0FBFA
:100CEB00A3E0FAA3E0F9120D2DEA494B6005900938
:100CFB0051802490095874FFF0A37408F0A374DE9C
:100D0B00F0900949E0FBA3E0FAA3E0F9120D2DEAFC
:100D1B00494B6009900953E0FEA3E0FF227EFF7F61
:010D2B00FFC8
:010D2C0022A4
:10009600900949EBF0A3EAF0A3E9F09000071207F4
:1000A6009624CE607814700302018814700302014E
:1000B600EC2403600302024F90095874FFF0A37406
:1000C60008F0A374E3F0900949E0FBA3E0FAA3E08B
:1000D600F9120D2DEA494B60107D017F021213665D
:1000E6007BFF7A0879E602024A90095874FFF0A36A
:1000F6007408F0A374EEF0900949E0FBA3E0FAA3BC
:10010600E0F9120D2DEA494B700302025B7D017F77
:10011600021212F67BFF7A0879F202024A90095817
:1001260074FFF0A37408F0A374E3F0900949E0FBB0
:10013600A3E0FAA3E0F9120D2DEA494B60107D0207
:100146007F021213667BFF7A0879FB02024A900946
:100156005874FFF0A37408F0A374EEF0900949E018
:10016600FBA3E0FAA3E0F9120D2DEA494B70030256
:10017600025B7D027F021212F67BFF7A0979030287
:10018600024A90095874FFF0A37408F0A374E3F0D0
:10019600900949E0FBA3E0FAA3E0F9120D2DEA4924
:1001A6004B60107D047F021213667BFF7A09790C7F
:1001B60002024A90095874FFF0A37408F0A374EE83
:1001C600F0900949E0FBA3E0FAA3E0F9120D2DEA4D
:1001D600494B700302025B7D047F021212F67BFF1D
:1001E6007A097914805E90095874FFF0A37408F0B8
:1001F600A374E3F0900949E0FBA3E0FAA3E0F91247
:100206000D2DEA494B600F7D087F021213667BFFB6
:100216007A09791D802E90095874FFF0A37408F0AE
:10022600A374EEF0900949E0FBA3E0FAA3E0F9120B
:100236000D2DEA494B601E7D087F021212F67BFFE8
:100246007A097925121592800C7BFF7A09792E128C
:0702560015927F00227F01D9
:01025D00227E
:10000E0090094CEFF0701090097474A0F0C374FF57
:10001E0094A0FDE4FF801590094CE0B40214900901
:10002E007574A0F0C374FF94A0FD7F011215547F68
:05003E0001227F0022F9
:1013CE00900951EFF0700E900974F0C374FF940001
:1013DE00FDE4FF8014900951E0B40213E490097506
:1013EE00F0C374FF9400FD7F011215547F01227F1C
:0213FE000022CB
:1011840090094CEFF07028900974E0FFC374FF9F3E
:10119400C39428500574FFF08007900974E0242854
:1011A400F0900974E0FFC374FF9FFDE4FF802E906C
:1011B400094CE06402702C900975E0FFC374FF9F32
:1011C400C39428500574FFF08007900975E0242823
:1011D400F0900975E0FFC374FF9FFD7F0112155461
:0611E4007F01227F0022C2
:10124A0090094CEFF07022900974E0C3942850047E
:10125A00E4F08007900974E024D8F0900974E0FF64
:10126A00C374FF9FFDE4FF802890094CE06402707C
:10127A0026900975E0C394285004E4F08007900989
:10128A0075E024D8F0900975E0FFC374FF9FFD7FD5
:0A129A00011215547F01227F00228B
:10042200900949EBF0A3EAF0A3E9F090095874FFB0
:10043200F0A37409F0A37447F0900949E0FBA3E02C
:10044200FAA3E0F9120D2DEA494B70030205D2908E
:10045200000612079624CE700302051104600302FF
:1004620005CA90095874FFF0A37408F0A374E3F06E
:10047200900949E0FBA3E0FAA3E0F9120D2DEA4945
:100482004B6005E4FF02053490095874FFF0A37431
:1004920008F0A374EEF0900949E0FBA3E0FAA3E0B0
:1004A200F9120D2DEA494B6005E4FF02056390093C
:1004B2005874FFF0A37409F0A37468F0900949E03E
:1004C200FBA3E0FAA3E0F9120D2DEA494B600EE41A
:1004D200FF1211847BFF7A09796C0205D8900958C2
:1004E20074FFF0A37409F0A3747AF0900949E0FB59
:1004F200A3E0FAA3E0F9120D2DEA494B70030205BD
:10050200DBE4FF12124A7BFF7A09797E0205D8905A
:10051200095874FFF0A37408F0A374E3F09009493A
:10052200E0FBA3E0FAA3E0F9120D2DEA494B600EBD
:100532007F0212000E7BFF7A09794D0205D89009DD
:100542005874FFF0A37408F0A374EEF0900949E028
:10055200FBA3E0FAA3E0F9120D2DEA494B600D7FEF
:10056200021213CE7BFF7A09795A806A9009587475
:10057200FFF0A37409F0A37468F0900949E0FBA3AB
:10058200E0FAA3E0F9120D2DEA494B600D7F021249
:1005920011847BFF7A09798C803C90095874FFF0B2
:1005A200A37409F0A3747AF0900949E0FBA3E0FA7E
:1005B200A3E0F9120D2DEA494B601E7F0212124A86
:1005C2007BFF7A09799A800E7BFF7A0979A88006E7
:0B05D2007BFF7A0979C31215927F01AC
:0105DD0022FB
:100EA5009009457403F0A3740FF07B017A09794525
:100EB5007F0212025EE4900947F0A37410F07B01F3
:100EC5007A0979477F0412025E9009437403F0A3FF
:100ED5007460F07B017A0979437F0212025E900902
:100EE500497420F0E4A3F0A37442F0E4A3F0A3F066
:100EF500A304F0E4A3F0A3F07B017A0979497F0309
:100F05001205DE7B017A097949E4FF1205DE7B01D2
:100F15007A0979497F011205DE7D017F021212F6F9
:100F25007D027F021212F67D047F021212F67D0801
:100F35007F021212F6E4FF1213CE7F021213CEE4E3
:060F4500900974F0A3F016
:010F4B002283
:0B0B1700900943EBF0A3EAF0A3E9F023
:100B220090095874FFF0A37409F0A374D8F0120D61
:100B32002D900946EBF0A3EAF0A3E9F04A4B6003DB
:100B4200020C2F90095874FFF0A37409F0A374E00B
:100B5200F0900943E0FBA3E0FAA3E0F9120D2D9017
:100B62000946EBF0A3EAF0A3E9F04A4B60209009B2
:100B720046E0FBA3E0FAA3E0F9120096EF7BFF60E8
:100B8200067A0979E780047A0979EA02157F9009E1
:100B92005874FFF0A37409F0A37447F0900943E07E
:100BA200FBA3E0FAA3E0F9120D2D900946EBF0A3A6
:100BB200EAF0A3E9F04A4B600E900946E0FBA3E09D
:100BC200FAA3E0F902042290095874FFF0A3740812
:100BD200F0A374D9F0900943E0FBA3E0FAA3E0F993
:100BE200120D2D900946EBF0A3EAF0A3E9F04A4B6F
:100BF2006002802B90095874FFF0A37408F0A3746C
:100C0200DEF0900943E0FBA3E0FAA3E0F9120D2D18
:100C1200900946EBF0A3EAF0A3E9F04A4B600E908C
:0D0C22000946E0FBA3E0FAA3E0F9120C3054
:010C2F0022A2
:10151E001212A4121331EF60FA7B017A00791212C3
:0D152E0015927B017A007912120B1780E6EE
:1011040041542B524553544F52450D0A004F4B0046
:1011140041542B43574D4F44453D320D0A00415431
:101124002B43575341503D2241495F4C6162222C6D
:101134002231323334353637383930222C342C349A
:101144000D0A0041542B5253540D0A0041542B43B1
:1011540049504D55583D310D0A0041542B434950D7
:101164005345525645523D312C383030300D0A002B
:1011740041542B43494653520D0A003E3E3E3E0025
:10004600470912FF1104FF11112C470919FF11145A
:10005600FF11112C470920FF1122FF11112C47090E
:1000660027FF1147FF11112C47092EFF1150FF11D1
:10007600112C470935FF115EFF11112C47093CFF72
:060086001174FF11112CA2
:10142E00E4900943F0A37404F07B017A097943FF39
:10143E0012025E7D047F041212F67F641215B77DD0
:0B144E00047F041213667F0502153BAB
:101331009000077401F0E4900004F0A3F09000081D
:10134100F0900006740AF0900006E0D3940050F784
:10135100900008E0600CE4900007F0900004A3E026
:05136100FF227F0022C5
:080DEC00E0FBA3E0FAA3E0F92B
:0B0DF400900943EBF0A3EAF0A3E9F044
:100DFF00900949E0FEA3E0FF7C007D0A1207D59021
:100E0F00094EEEF0A3EFF0D390094FE09400900954
:100E1F004EE094004079900943E0FBA3E0FAA3E091
:100E2F00F912157F7BFF7A11797F12159290094382
:100E3F00E0FBA3E0FAA3E0F9121592121331EF6071
:100E4F003D7B017A007912121592900946E0F9A3C1
:100E5F00E0FAA3E0900958C9F0A3EAF0A3E9F07B08
:100E6F00017A007912120D2D90094BEBF0A3EAF0E5
:100E7F00A3E9F04A4B60077B007A007901229009C1
:100E8F004FE024FFF090094EE034FFF0020E167B86
:050E9F00007A0079005B
:010EA400222B
:1009EF0090091CE0F9A3E0FAA3E0900946C9F0A32F
:1009FF00EAF0A3E9F090091FE0FF900949E4F0A3A2
:100A0F00EFF0900919120DECEA494B7002FF22909A
:100A1F000923E0F9A3E0FAA3E0900946C9F0A3EA9D
:100A2F00F0A3E9F0900926E0FF900949E4F0A3EF65
:100A3F00F0900920120DECEA494B70087F02121555
:100A4F003B7F002290092AE0F9A3E0FAA3E0900986
:100A5F0046C9F0A3EAF0A3E9F090092DE0FF900951
:100A6F0049E4F0A3EFF0900927120DECEA494B701F
:100A7F0002FF227F0512153B900931E0F9A3E0FA3E
:100A8F00A3E0900946C9F0A3EAF0A3E9F090093476
:100A9F00E0FF900949E4F0A3EFF090092E120DEC5E
:100AAF00EA494B7002FF22900938E0F9A3E0FAA35C
:100ABF00E0900946C9F0A3EAF0A3E9F090093BE002
:100ACF00FF900949E4F0A3EFF0900935120DECEA1D
:100ADF00494B7002FF2290093FE0F9A3E0FAA3E02F
:100AEF00900946C9F0A3EAF0A3E9F0900942E0FFAC
:100AFF00900949E4F0A3EFF090093C120DECEA499C
:080B0F004B7002FF227F01225E
:1014FC00538E7F5389F0E4F58A758CB8C28DD28CEB
:10150C00D2A99009737464F0E4900970F0A3F0A36D
:02151C00F022BB
:03000B000211EAF5
:1011EA00C0E0C083C082C0D075D000C006C00790DE
:1011FA000973E0D394004003E014F0900007E06024
:10120A0032900006E0D394004029E014F0E0702305
:10121A00A3F0900004E0FEA3E0FFD39400EE940054
:10122A00401174122FF58274003EF583E4F09000A9
:10123A000804F0D007D006D0D0D082D083D0E032D4
:10025E00EFD3940540037F012212077DFED3940352
:10026E0040037F0222EF7041EE700B9000011207E7
:10027E0096F45293529412077DB4010B9000011222
:10028E0007964293F4529412077DFEB4020A900030
:10029E000112079642934294EEB4030D90000112A0
:1002AE000796FEF45293EE4294EF640170431207E8
:1002BE007DFE700B900001120796F452915292EE51
:1002CE00B4010B9000011207964291F4529212075C
:1002DE007DB4020A900001120796429142921207D3
:1002EE007DB4030D900001120796FEF45291EE427A
:1002FE0092EF6402704312077DFE700B90000112A4
:10030E000796F452955296EEB4010B900001120727
:10031E00964295F4529612077DB4020A900001128D
:10032E0007964295429612077DB4030D9000011276
:10033E000796FEF45295EE4296EF64037043120751
:10034E007DFE700B900001120796F452B152B2EE80
:10035E00B4010B90000112079642B1F452B212078B
:10036E007DB4020A90000112079642B142B2120702
:10037E007DB4030D900001120796FEF452B1EE42C9
:10038E00B2EF6404704312077DFE700B90000112F1
:10039E000796F452B352B4EEB4010B90000112075B
:1003AE009642B3F452B412077DB4020A90000112C1
:1003BE00079642B342B412077DB4030D90000112AA
:1003CE000796FEF452B3EE42B4EF64057043120783
:1003DE007DFF700B900001120796F452C952CAEFBE
:1003EE00B4010B90000112079642C9F452CA1207CB
:1003FE007DB4020A90000112079642C942CA120742
:10040E007DB4030D900001120796FFF452C9EF421E
:04041E00CA7F00226F
:10136600EFD3940540037F0122EF7003ED4280EF37
:10137600B40103ED4290EFB40203ED42A0EFB403D3
:1013860003ED42B0EFB40403ED42C0EFB40503ED44
:0513960042C87F0022A7
:1012F600EFD3940540037F0122EF7004EDF4528092
:10130600EFB40104EDF45290EFB40204EDF452A0F0
:10131600EFB40304EDF452B0EFB40404EDF452C09C
:0B132600EFB40504EDF452C87F002274
:10155400EF70038DFA22EFB401038DFB22EFB40286
:0615640004AF058FFC221C
:1005DE00900951EBF0A3EAF0A3E9F0AD07EDD39447
:1005EE0003400302077CED6403704CC2DEF5F9F59F
:1005FE00E9900951E0FBA3E0FAA3E0F912077DFFB1
:10060E00E5A254CF4FF5A2900001120796FFE5D94F
:10061E0054F14FF5D99000041207965401FFE5D915
:10062E0054FE4FF5D9900005120796B40104D2BFBF
:10063E008002C2BFD2DE22900951E0FBA3E0FAA3F2
:10064E00E02404F9E43AFA12077D54311207C390FC
:10065E000951E0FBA3E0FAA3E0F99000021207961D
:10066E00C39448400FE92404F9E43AFA12077D5482
:10067E00CF1207C3ED704F900951E0FBA3E0FAA330
:10068E00E0F9900004120796FF900002120796FE02
:10069E004FF5DA900003120796FFE5F2543F4FF53F
:1006AE00F2900006120840FBAAF0900964EAF0A34B
:1006BE00EBF0C200900961EEF090096AEAF0A3EB4C
:1006CE00F0F5EAEAF5FAED6401704F900951E0FB9E
:1006DE00A3E0FAA3E0F9900004120796FF9000023F
:1006EE00120796FE4FF5DB900003120796FFE5F317
:1006FE00543F4FF5F3900006120840FBAAF0900904
:10070E0066EAF0A3EBF0C201900962EEF090096C7C
:10071E00EAF0A3EBF0F5EBEAF5FBED6402704F9017
:10072E000951E0FBA3E0FAA3E0F99000041207964A
:10073E00FF900002120796FE4FF5DC9000031207A1
:10074E0096FFE5F4543F4FF5F4900006120840FD75
:10075E00ACF0900968ECF0A3EDF0C202900963EEE4
:0F076E00F090096EECF0A3EDF0F5ECECF5FC2249
:1014AD00900002E02492F582E43404F583EFF0908D
:1014BD000002E004F0C394804002E4F0900003E0E9
:0814CD00700504F0439A0222AD
:10157F0012077DFF600C1214AD740129F9E43AFAD9
:03158F0080EE22C9
:1014590090000BE02412F582E43405F583EFF09057
:10146900000BE004F0C3748094844002E4F090001F
:0A1479000CE0700504F04384022229
:1015920012077DFF600C121459740129F9E43AFA1A
:0315A20080EE22B6
:1014D500759A50438E0475D7D075D6FF438E1090FC
:1014E50000007402F0E4A3F0A3F0A3F0A3F0A3F0CE
:0714F500A3F0A3F0A3F02215
:1014830075841043844043D12075D3D075D2FF4374
:10149300D1809000097404F0E4A3F0A3F0A3F0A3B7
:0A14A300F0A3F0A3F0A3F0A3F022E1
:03004300020FE3C6
:100FE300C0E0C0F0C083C082C0D075D000C000C0D4
:100FF30006C007E59A30E036539AFE900007E0B446
:10100300012CC3900004E094044004E4F0A3F090A6
:101013000004E475F00112082AFE741225F0F5822B
:1010230074003EF583E59BF0900006740AF0E59AA0
:1010330030E131539AFD900002E0FF900001E0FEA1
:101043006F601C74922EF582E43404F583E0F59B03
:10105300900001E004F0C394804009E4F08005901F
:101063000003E4F0D007D006D000D0D0D082D083E4
:05107300D0F0D0E032D6
:03009300020F4C0D
:100F4C00C0E0C0F0C083C082C0D075D000C000C06B
:100F5C0006C007E58430E0365384FE900010E0B400
:100F6C00012CC390000DE094044004E4F0A3F09035
:100F7C00000DE475F00112082AFE741225F0F582BA
:100F8C0074043EF583E585F090000F7405F0E5845C
:100F9C0030E1335384FD90000BE0FF90000AE0FE3B
:100FAC006F601E74122EF582E43405F583E0F5852E
:100FBC0090000AE004F0C3748094844009E4F0804B
:100FCC000590000CE4F0D007D006D000D0D0D08231
:070FDC00D083D0F0D0E03219
:0300000002107873
:0C107800787FE4F6D8FD7581200210BFDF
:10077D00BB010689828A83E0225002E722BBFE027A
:09078D00E32289828A83E49322AD
:10079600BB010CE58229F582E5833AF583E0225018
:1007A60006E92582F8E622BBFE06E92582F8E22262
:0D07B600E58229F582E5833AF583E493227C
:1007C300BB010689828A83F0225002F722BBFE0115
:0207D300F3220F
:1007D500BC000BBE0029EF8DF084FFADF022E4CC08
:1007E500F875F008EF2FFFEE33FEEC33FCEE9DECD1
:1007F500984005FCEE9DFE0FD5F0E9E4CEFD22ED17
:10080500F8F5F0EE8420D21CFEADF075F008EF2F60
:10081500FFED33FD4007985006D5F0F222C398FD51
:050825000FD5F0EA22EE
:10082A00A3F8E0C5F025F0F0E58215827002158381
:06083A00E0C838F0E822DE
:10084000BB0110E58229F582E5833AF583E0F5F0F6
:10085000A3E0225009E92582F886F008E622BBFED3
:100860000AE92582F8E2F5F008E222E5832AF58319
:08087000E993F5F0A3E99322DE
:100D2D00900955EBF0A3EAF0A3E9F0A3E0FBA3E0F3
:100D3D00FAA3E0F912077D7003020DD9900955E071
:100D4D00FBA3E0FAA3E0F912077D7003020DE59015
:100D5D000958E0F9A3E0FAA3E0A3C9F0A3EAF0A3D0
:100D6D00E9F0900955A3E0FAA3E0F990095EEBF0E4
:100D7D00A3EAF0A3E9F090095BE0FBA3E0FAA3E09E
:100D8D00F912077DFF602690095EE0FBA3E0FAA350
:100D9D00E0F912077D6F701590095C75F00112086E
:100DAD00A490095FE475F0011208A480C990095B55
:100DBD00E0FBA3E0FAA3E0F912077D7002800D902D
:100DCD000956E475F0011208A4020D49900955E089
:0F0DDD00FBA3E0FAA3E0F9227B007A0079002261
:10087800EF4E6012EF60010EEDBB010B89828A8397
:10088800F0A3DFFCDEFA2289F05007F709DFFCA9A4
:0C089800F022BBFEFCF309DFFCA9F022FB
:1010840002151EE493A3F8E493A34003F68001F24F
:1010940008DFF48029E493A3F85407240CC8C3336D
:1010A400C4540F4420C8834004F456800146F6DF3C
:1010B400E4800B0102040810204080900046E47E86
:1010C400019360BCA3FF543F30E509541FFEE49331
:1010D400A360010ECF54C025E060A840B8E493A3F8
:1010E400FAE493A3F8E493A3C8C582C8CAC583CA23
:1010F400F0A3C8C582C8CAC583CADFE9DEE780BEDB
:01008C000073
:1008A400C5F0F8A3E028F0C5F0F8E58215827002DF
:0608B4001583E038F0227C
:00000001FF
