:1027C500AD071FED600B0000007E1A1EEE60F18064
:0127D500FA09
:0127D60022E0
:0F27D7007DA57C06ED1D70011C144C70F7DFF121
:0127E60022D0
:02274700AB07DE
:10274900AF031BEF60107E04EED3940040F27FFAD2
:062759001227D71E80F2DA
:01275F002257
:1025C4007379732073746172740D0A007769666994
:1025D4002072657365740D0A0077696669207365F6
:1025E4007420436C69656E74207375636573730D31
:0225F4000A00DB
:1023FF00C2AF12262343AF011224BFE4F5B8F5B5DF
:10240F0043B501122725D2AF7BFF7A2579C4122756
:10241F00B2121AC47E087F007D007B017A00799882
:10242F0012094E7BFF7A2579D01227B2122650124D
:0F243F001EE8EF60EE7BFF7A2579DD1227B222CF
:100E99004448543131207472756520200D0A00448C
:100EA900485431312066616C736520200D0A005465
:100EB900454D500048554D49005357495443483111
:100EC9003D4F4E00535749544348313D4F46460024
:100ED900535749544348323D4F4E005357495443A1
:100EE90048323D4F464600535749544348333D4FD6
:100EF9004E00535749544348333D4F4646005357D4
:100F090049544348343D4F4E00535749544348349C
:100F19003D4F4646004C49474854004F4E006C69C6
:100F290067687431206F6E210D0A004F4646006CC8
:100F39006967687431206F6666210D0A00494E435E
:100F4900006C696768743120696E63210D0A004479
:100F59004543006C696768743120646563210D0A33
:100F6900006C696768743220696E63210D0A006C30
:100F7900696768743220646563210D0A006C6967CA
:100F8900687420696E76616C696420636F6D6D6148
:100F99006E643232320D0A00696E76616C696420C2
:100FA900636F6D6D616E643131310D0A00535749BC
:100FB9005443480026535749544348323D4F4E0045
:100FC90026535749544348323D4F46460026535706
:100FD90049544348333D4F4E0026535749544348DB
:100FE900333D4F46460026535749544348343D4FF5
:0F0FF9004E0026535749544348343D4F46460057
:10000E00D2C87F011227C5C2C87F121227D7D2C805
:05001E007F040227C56C
:10255E00E4900D8FF0900D8EF030C8FD7F021227A3
:10256E00C5900D8FE025E0F030C803E004F020C8E0
:10257E00FD900D8EE004F0E0C3940840DC900D8FCA
:02258E00E0FF6C
:012590002228
:0B173300900D82EBF0A3EAF0A3E9F0B8
:10173E00E4A3F0A3F0A3F0A3F0A3F012000E30C8C0
:10174E00030217DB30C8FDC2AF7F081227C5122572
:10175E005E900D85EFF012255E900D86EFF012254E
:10176E005E900D87EFF012255E900D88EFF012253A
:10177E005E900D89EFF0D2AF900D86E0FD900D8555
:10178E00E02DFDE433FC900D87E07A002DFDEA3C60
:10179E00FCA3E02DFDEA3CFC7E00EDB5070CEEB59A
:1017AE0004087BFF7A0E799980067BFF7A0E79A862
:1017BE001227B2900D87E0FF900D8AE4F0A3EFF0B0
:1017CE00900D85E0FF900D8CE4F0A3EFF0900DBC32
:1017DE0074FFF0A3740EF0A374B8F0900D82E0FBCA
:1017EE00A3E0FAA3E0F9121C47EA494B6005900DFD
:1017FE008A8024900DBC74FFF0A3740EF0A374BD08
:10180E00F0900D82E0FBA3E0FAA3E0F9121C47EA88
:10181E00494B6009900D8CE0FEA3E0FF227EFF7F16
:01182E00FFBA
:01182F002296
:0B100800900D82EBF0A3EAF0A3E9F0EA
:10101300A3EBF0A3EAF0A3E9F0900D82E0FBA3E0D9
:10102300FAA3E0F91226D2900DBC74FFF0A3740E5C
:10103300F0A374C2F0900D82E0FBA3E0FAA3E0F901
:10104300121C47EA494B60097D047F051224F58091
:1010530028900DBC74FFF0A3740EF0A374CDF09030
:101063000D82E0FBA3E0FAA3E0F9121C47EA494B27
:1010730060077D047F0512244E900DBC74FFF0A31E
:10108300740EF0A374D9F0900D82E0FBA3E0FAA3F1
:10109300E0F9121C47EA494B60097D10E4FF122472
:1010A300F58028900DBC74FFF0A3740EF0A374E4D4
:1010B300F0900D82E0FBA3E0FAA3E0F9121C47EAEB
:1010C300494B60077D10E4FF12244E900DBC74FF62
:1010D300F0A3740EF0A374F0F0900D82E0FBA3E094
:1010E300FAA3E0F9121C47EA494B60097D02E4FFC9
:1010F3001224F58028900DBC74FFF0A3740EF0A3A6
:1011030074FBF0900D82E0FBA3E0FAA3E0F9121C5C
:1011130047EA494B60077D02E4FF12244E900DBC61
:1011230074FFF0A3740FF0A37407F0900D82E0FB3B
:10113300A3E0FAA3E0F9121C47EA494B60097D01D9
:10114300E4FF1224F58028900DBC74FFF0A3740F04
:10115300F0A37412F0900D82E0FBA3E0FAA3E0F990
:10116300121C47EA494B60077D01E4FF12244E7FBE
:01117300017A
:011174002258
:10248900900D85EFF0BF0210900E2C74A0F0C3746C
:10249900FF94A0FDE4FF8015900D85E0B40714902A
:1024A9000E2D74A0F0C374FF94A0FD7F0112276064
:0624B9007F01227F0022DA
:10252A00900D85EFF0BF020FE4900E2CF0C374FFFC
:10253A009400FDE4FF8014900D85E0B40713E49045
:10254A000E2DF0C374FF9400FD7F011227607F01F6
:04255A00227F0022BA
:10222500900D85EFF064027028900E2CE0FFC374CA
:10223500FF9FC39428500574FFF08007900E2CE093
:102245002428F0900E2CE0FFC374FF9FFDE4FF806F
:102255002E900D85E06407702C900E2DE0FFC37461
:10226500FF9FC39428500574FFF08007900E2DE062
:102275002428F0900E2DE0FFC374FF9FFD7F01120F
:0822850027607F01227F002287
:1022F200900D85EFF064027022900E2CE0C39428BA
:102302005004E4F08007900E2CE024D8F0900E2CBC
:10231200E0FFC374FF9FFDE4FF8028900D85E06419
:10232200077026900E2DE0C394285004E4F0800735
:10233200900E2DE024D8F0900E2DE0FFC374FF9F85
:0C234200FD7F011227607F01227F002236
:100B3E00900D82EBF0A3EAF0A3E9F0900DBC74FFE8
:100B4E00F0A3740FF0A3741EF0900D82E0FBA3E0EF
:100B5E00FAA3E0F9121C47EA494B7003020CEE901F
:100B6E00000612083424CE7003020C2D046003021A
:100B7E000CE6900DBC74FFF0A3740FF0A37424F078
:100B8E00900D82E0FBA3E0FAA3E0F9121C47EA49BC
:100B9E004B60057F02020C50900DBC74FFF0A374E5
:100BAE000FF0A37434F0900D82E0FBA3E0FAA3E003
:100BBE00F9121C47EA494B60057F02020C7F900D2B
:100BCE00BC74FFF0A3740FF0A37446F0900D82E096
:100BDE00FBA3E0FAA3E0F9121C47EA494B600E7F33
:100BEE00021222257BFF7A0F794A020CF4900DBC7B
:100BFE0074FFF0A3740FF0A37458F0900D82E0FB15
:100C0E00A3E0FAA3E0F9121C47EA494B7003020C69
:100C1E00F77F021222F27BFF7A0F795C020CF490BE
:100C2E000DBC74FFF0A3740FF0A37424F0900D822A
:100C3E00E0FBA3E0FAA3E0F9121C47EA494B600E71
:100C4E007F071224897BFF7A0F7927020CF4900D0F
:100C5E00BC74FFF0A3740FF0A37434F0900D82E017
:100C6E00FBA3E0FAA3E0F9121C47EA494B600D7FA3
:100C7E000712252A7BFF7A0F7938806A900DBC7493
:100C8E00FFF0A3740FF0A37446F0900D82E0FBA367
:100C9E00E0FAA3E0F9121C47EA494B600D7F0712F8
:100CAE0022257BFF7A0F796A803C900DBC74FFF091
:100CBE00A3740FF0A37458F0900D82E0FBA3E0FA3A
:100CCE00A3E0F9121C47EA494B601E7F071222F27D
:100CDE007BFF7A0F7978800E7BFF7A0F79868006FC
:0B0CEE007BFF7A0F79A11227B27F0173
:010CF90022D8
:101AC400900D1A7403F0A304F07B017A0D791A7F48
:101AD4000512097A900D1B7413F07B017A0D791AA3
:101AE400E4FF12097AE4900D1CF0A304F0FB7A0DD4
:101AF400791C7F0512097A900D187403F0A3748081
:101B0400F07B017A0D79187F0312097A900D19740C
:101B140080F07B017A0D79187F0112097AE4900D27
:101B24001EF0A3F0A37442F0E4A3F0A3F0A304F026
:101B3400E4A3F0A3F07B017A0D791E7F03120CFA63
:101B44007B017A0D791E7F02120CFA7B017A0D79E2
:101B54001E7F07120CFA7D047F0512244E7D10E4CB
:101B6400FF12244E7D02E4FF12244E7D01E4FF1295
:101B7400244E7F0212252A7F0712252AE4900E2C78
:031B8400F0A3F0DB
:011B8700223B
:0B183000900D7CEBF0A3EAF0A3E9F0C0
:10183B00900DBC74FFF0A3740FF0A374B6F0121CE0
:10184B0047900D7FEBF0A3EAF0A3E9F04A4B60174A
:10185B00900D7FE0FBA3E0FAA3E0F9121008EF6014
:10186B00037F01227F0022900DBC74FFF0A3740F45
:10187B00F0A3741EF0900D7CE0FBA3E0FAA3E0F95B
:10188B00121C47900D7FEBF0A3EAF0A3E9F04A4B53
:10189B006010900D7FE0FBA3E0FAA3E0F9120B3E82
:1018AB008066900DBC74FFF0A3740EF0A374B8F0B7
:1018BB00900D7CE0FBA3E0FAA3E0F9121C47900D1E
:1018CB007FEBF0A3EAF0A3E9F04A4B6002802B9088
:1018DB000DBC74FFF0A3740EF0A374BDF0900D7CDF
:1018EB00E0FBA3E0FAA3E0F9121C47900D7FEBF0AD
:1018FB00A3EAF0A3E9F04A4B600E900D7FE0FBA347
:0A190B00E0FAA3E0F91217337F01A0
:0119150022AF
:1019EE00900D7CEBF0A3EAF0A3E9F07D047F0512E5
:1019FE00228DEF900DAF600C74FFF0A3740EF0A368
:101A0E0074C2800A74FFF0A3740EF0A374CDF0902C
:101A1E000D7CE0FBA3E0FAA3E0F91221507D10E467
:101A2E00FF12228DEF900DAF600C74FFF0A3740FB8
:101A3E00F0A374BD800A74FFF0A3740FF0A374C9F1
:101A4E00F0900D7CE0FBA3E0FAA3E0F91221507DAB
:101A5E0002E4FF12228DEF900DAF600C74FFF0A325
:101A6E00740FF0A374D6800A74FFF0A3740FF0A362
:101A7E0074E2F0900D7CE0FBA3E0FAA3E0F91221F2
:101A8E00507D01E4FF12228DEF900DAF600C74FFBC
:101A9E00F0A3740FF0A374EF800A74FFF0A3740F19
:101AAE00F0A374FBF0900D7CE0FBA3E0FAA3E0F949
:061ABE001221507F0122FD
:1025F600900E2E7402F01223FF900E2EE024FE6041
:10260600120470F57F327E0012234EEF60EB121536
:0D2616001B80E61221BB7F0112274780DCEC
:1011750041542B524553544F52450D0A004F4B00D5
:1011850041542B43574D4F44453D320D0A004154C0
:101195002B43575341503D2241495F4C6162222CFC
:1011A5002231323334353637383930222C342C3429
:1011B5000D0A0041542B5253540D0A0041542B4340
:1011C50049504D55583D310D0A0041542B43495066
:1011D5005345525645523D312C353030300D0A00BD
:1011E50041542B43494653520D0A0041542B434960
:1011F5005053454E443D302C3137300D0A00415493
:101205002B43574D4F44453D310D0A0041542B4367
:10121500574A41503D22486954565F776F6F5F705A
:101225006C7573222C2231323334353637383930E8
:10123500220D0A0041542B4349504D55583D300D60
:101245000A0041542B43495053544152543D2254B2
:101255004350222C223139322E3136382E312E315F
:101265003036222C353030300D0A0041542B43499D
:1012750050434C4F53453D300D0A006D6174636812
:10128500002C000D0A003E200053454E44204F4BD4
:10129500000D0A0D0A0041542B43495053454E4455
:1012A5003D000000000000000000000000000000FC
:1012B5000000000041542B43495053454E443D0026
:1012C5000000000000000000000000000000000019
:0212D500000017
:10206D00460DD1FF1175FF1182460DFBFF1185FF46
:10207D001182460E0DFF1193FF1182460DE9FF11DE
:10208D00B8FF1182460E01FF11C1FF1182460DE30B
:10209D00FF11CFFF1182460DF5FF11E5FF118246AD
:1020AD000DEFFF11F0FF1182460DDDFF1203FF1141
:1020BD0082460DC5FF1211FF1182460DCBFF12395D
:1020CD00FF1182460E07FF1247FF1182460DD7FF03
:0520DD001270FF1182EA
:071405007B01E0FCA3E0FD08
:10140C00900DACEBF0A3EAF0A3E9F0A3ECF0A3EDA4
:01141C00F0DF
:10141D00900DAFE0FEA3E0FF7C277D10120895EF45
:10142D002430FF900DACE0FBA3E0FAA3E0F9EF123E
:10143D000861900DAFE0FEA3E0FF7C277D10120840
:10144D00957E037FE8CFCDCFCECCCE120895EF247D
:10145D0030FF900DACE0FBA3E0FAA3E0F9900001A2
:10146D00EF120873900DAFE0FEA3E0FF7C037DE863
:10147D001208957E007F64CFCDCFCECCCE120895CD
:10148D00EF2430FF900DACE0FBA3E0FAA3E0F99060
:10149D000002EF120873900DAFE0FEA3E0FF7C0099
:1014AD007D641208957E007F0ACFCDCFCECCCE12B3
:1014BD000895EF2430FF900DACE0FBA3E0FAA3E01C
:1014CD00F9900003EF120873900DAFE0FEA3E0FF5B
:1014DD007C007D0A120895ED2430FF900DACE0FBE9
:1014ED00A3E0FAA3E0F9900004EF12087390000551
:1014FD00E412087312081BFFB43009740129F9E4D2
:0D150D003AFA80F0EF70060429F9E43AFA8A
:01151A0022AE
:10265000E4900D18F0A37408F07B017A0D79187FCF
:102660000512097A7D087F0512244E7F641227D750
:0C2670007D087F051224F57F0202274739
:10234E00D3EF9400EE9400404F7C007D321208953E
:10235E00D3EF9400EE9400403F9000167401F0E429
:10236E00900012F0A3F0900017F0900014F0A374F8
:10237E0005F0D3900015E09400900014E094005006
:10238E00F1E4900016F0A3E06007900012A3E0FFC6
:0A239E0022EF1F70BB1E80B87F0005
:0123A8002212
:101D0600900DECE0F9A3E0FAA3E0900DAFC9F0A3C3
:101D1600EAF0A3E9F0A3740BF0A374B8F0900DE910
:081D2600E0FBA3E0FAA3E0F9E1
:101D2E0012279F900DB2E0FEA3E0FF7C007D05120E
:101D3E0008957C007D0A120895900DB7EEF0A3EF82
:101D4E00F0D3900DB8E09400900DB7E09400405C95
:101D5E007F327E0012234EEF60427B017A0079982B
:101D6E001227B2900DAFE0F9A3E0FAA3E0900DBCFC
:101D7E00C9F0A3EAF0A3E9F07B017A007998121C6E
:101D8E0047900DB4EBF0A3EAF0A3E9F04A4B600CD8
:101D9E007BFF7A1279801226D27F0122900DB8E055
:0E1DAE0024FFF0900DB7E034FFF080957F0029
:011DBC002204
:0D162B00A3F0900D1DE0FBA3E0FAA3E0F991
:0B163800900D38EBF0A3EAF0A3E9F0FE
:1016430078447C0D7D017BFF7A12799B7E007F1E9F
:101653001207F5900D3BE0FBA3E0FAA3E0F9122794
:1016630076900D65EEF0A3EFF0900D38E0F9A3E06E
:10167300FAA3E0900DAFC9F0A3EAF0A3E9F07B0170
:101683007A0D7944122150900DAF74FFF0A37412B8
:10169300F0A37486F07B017A0D79441221507A0D00
:1016A300793E900D65121405900D62EBF0A3EAF0FC
:1016B300A3E9F0900D62E0F9A3E0FAA3E0900DAF87
:1016C300C9F0A3EAF0A3E9F07B017A0D7944122172
:1016D30050900DAF74FFF0A37412F0A37488F07BE5
:1016E300017A0D7944122150900DAF74FFF0A37469
:1016F30012F0A3748BF0A3740BF0A374B8F07B0106
:101703007A0D7944121D2EEF7002FF22900DAF74F3
:10171300FFF0A37412F0A3748EF0A3740BF0A37400
:0F172300B8F0900D3B121D26EF7002FF227F01E0
:011732002294
:0B1B8800900D1DEBF0A3EAF0A3E9F0C4
:101B9300A3E0FBA3E0FAA3E0F9122776900D36EE5B
:101BA300F0A3EFF07E007F0A7D007B017A0D79239D
:101BB30012094E900D3B74FFF0A37400F0748C1265
:101BC300162BEF7002FF227A0D792D900D36121429
:101BD30005900D33EBF0A3EAF0A3E9F0900D33E0A9
:101BE300F9A3E0FAA3E0900DAFC9F0A3EAF0A3E9EB
:101BF300F07B017A0D7923122150900DAF74FFF021
:101C0300A37412F0A37496F07B017A0D7923122149
:101C130050900D3B7401F0A3740DF0742312162B36
:101C2300EF7002FF22900D20E0F9A3E0FAA3E09009
:101C33000D3BC9F0A3EAF0A3E912162CEF7002FFE3
:031C4300227F01FC
:011C4600227B
:0B12D700900D7CEBF0A3EAF0A3E9F01F
:1012E200788B7C0D7D017BFF7A1279B97E007F1E9F
:1012F2001207F5900D7FE0FBA3E0FAA3E0F91227B5
:1013020076EF25E0FDEE33FCC004C005900D7CE0D5
:10131200FBA3E0FAA3E0F9122776D0E02FFDD0E09C
:101322003EFCC004C005900D82E0FBA3E0FAA3E0FE
:10133200F9122776D0E02FFFD0E03EFE7B017A0D36
:101342007985AD07FC12140C900DA9EBF0A3EAF01D
:10135200A3E9F0900DA9E0F9A3E0FAA3E0900DAFA4
:10136200C9F0A3EAF0A3E9F07B017A0D798B12218F
:1013720050900DAF74FFF0A37412F0A37488F07B49
:10138200017A0D798B122150900DAF74FFF0A37486
:1013920012F0A3748BF0A3740BF0A374B8F07B016A
:1013A2007A0D798B121D2EEF7002FF22900D7CE0D8
:1013B200FBA3E0FAA3E0F912279F900D7FE0FBA3C5
:1013C200E0FAA3E0F912279F900D82E0FBA3E0FA76
:1013D200A3E0F912279F900DAF74FFF0A37412F0EF
:1013E200A3748EF0A3740BF0A374B8F0900D7F1267
:1013F2001D26EF7002FF227BFF7A12798E1226D20F
:021402007F0168
:0114040022C5
:10191600900DFEE0F9A3E0FAA3E0900DAFC9F0A3A5
:10192600EAF0A3E9F0A3740BF0A374B8F0900DFBF2
:10193600121D26EF7002FF22900E10E0F9A3E0FAC6
:10194600A3E0900DAFC9F0A3EAF0A3E9F0A3740BEE
:10195600F0A374B8F0900E0D121D26EF7002FF2250
:10196600121D06EF7002FF227F02122747900E0417
:10197600E0F9A3E0FAA3E0900DAFC9F0A3EAF0A363
:10198600E9F0A3740BF0A374B8F0900E01121D26B3
:10199600EF7002FF22900DE6E0F9A3E0FAA3E090D3
:1019A6000DAFC9F0A3EAF0A3E9F0A3740BF0A3749A
:1019B600B8F0900DE3121D26EF7002FF22900DF88D
:1019C600E0F9A3E0FAA3E0900DAFC9F0A3EAF0A313
:1019D600E9F0A3740BF0A374B8F0900DF5121D2670
:0819E600EF7002FF227F0122D5
:101EE800900DE0E0F9A3E0FAA3E0900DAFC9F0A3EC
:101EF800EAF0A3E9F0A3740BF0A374B8F0900DDD39
:101F0800121D26EF7002FF22121D06EF7002FF223B
:101F18007F03122747900DC8E0F9A3E0FAA3E090E9
:101F28000DAFC9F0A3EAF0A3E9F0A3744EF0A374CF
:101F380020F0900DC5121D26EF7002FF22900DCEE5
:101F4800E0F9A3E0FAA3E0900DAFC9F0A3EAF0A38B
:101F5800E9F0A3740BF0A374B8F0900DCB121D2612
:081F6800EF7002FF227F01224D
:10267C00900E0AE0F9A3E0FAA3E0900DAFC9F0A325
:10268C00EAF0A3E9F0A37427F0A37410F0900E07FE
:0B269C00121D26EF7002FF227F0122BA
:1026A700900DDAE0F9A3E0FAA3E0900DAFC9F0A32B
:1026B700EAF0A3E9F0A37413F0A37488F0900DD7A0
:0B26C700121D26EF7002FF227F01228F
:1026FD00900DCEE0F9A3E0FAA3E0900DAFC9F0A3E1
:10270D00EAF0A3E9F0A3740BF0A374B8F0900DCB2D
:08271D00121D26EF7001FF22DE
:10272500538E7F5389F0E4F58A758CB8C28DD28CAF
:10273500D2A9900E2B7464F0E4900E28F0A3F0A3B8
:02274500F02280
:03000B000220E3ED
:1020E300C0E0C083C082C0D075D008900E2BE0D36F
:1020F30094004003E014F0900016E06047D3900092
:1021030015E09400900014E094004038A3E024FF0D
:10211300F0900014E034FFF0E07002A3E07025902B
:102123000016F0900012E0FEA3E0FFD39400EE94BB
:1021330000401174982FF58274003EF583E4F0900B
:0D214300001704F0D0D0D082D083D0E0325D
:100026002A2A2A2A2A2A2A2A2A2A2A2A2A2A2A2A2A
:0D0036002A2A2A2A2A2A2A2A2A000D0A002C
:041F7000AB07AA060B
:101F74007C277D10120895EF2430900E22F07C27E8
:101F84007D10AF03AE021208957E037FE8CFCDCF5C
:101F9400CECCCE120895EF2430A3F07C037DE8AFBD
:101FA40003AE021208957E007F64CFCDCFCECCCE97
:101FB400120895EF2430A3F07C007D64AF03AE02D9
:101FC4001208957E007F0ACFCDCFCECCCE120895D5
:101FD400EF2430A3F0AE02AF037C007D0A12089513
:101FE400ED2430A3F0E4A3F07B017A0E79220227DA
:011FF400B23A
:1026D200900DB9EBF0A3EAF0A3E9F07BFF7A007961
:1026E200261227B2900DB9E0FBA3E0FAA3E0F9129B
:0B26F20027B27BFF7A0079400227B27C
:101FF5003E3E3E3E3E3E3E3E3E3E3E3E3E3E3E3EFC
:102005003E3E3E3E7461736B5F5365727665720D3D
:102015000A0048545450002B4950442C004745545D
:10202500202F2000474554202F3F004465766963E3
:10203500657320636F6E74726F6C204661696C20E6
:1020450021212100636F6E74726F6C3F00536572BE
:1020550076657220726573706F6E73652074696D35
:08206500656F7574210D0A007E
:10151B007BFF7A1F79F51227B2900DBC74FFF0A3F5
:10152B007420F0A37417F07B017A007998121C4792
:10153B00EA494B700302162AE4120861900DBC7441
:10154B00FFF0A37420F0A3741CF07B017A00799850
:10155B00121C47900D18EBF0A3EAF0A3E9F04A4BED
:10156B00700302162A900D19E475F0051208EA9023
:10157B000D18E0FBA3E0FAA3E0F91226D2900D18A8
:10158B00E0FBA3E0FAA3E0F912081B900D1BF0E4BB
:10159B00A3F0900DBC74FFF0A37420F0A37422F0A1
:1015AB007B017A007998121C47900D18EBF0A3EA97
:1015BB00F0A3E9F04A4B600F900D2074FFF0A37479
:1015CB0000F0A374D6804E900DBC74FFF0A3742072
:1015DB00F0A37429F07B017A007998121C47900DC7
:1015EB0018EBF0A3EAF0A3E9F04A4B6032900D1828
:1015FB00E0FBA3E0FAA3E0F9121830900D2074FF82
:10160B00BF010AF0A37400F0A374D68008F0A37492
:0F161B0020F0A37430F07B017A0D791B121B882D
:01162A00229D
:1021BB0012267CEF6063E4900D18F07B017A0D79A9
:1021CB00181219EE900D7F7401F0A3740DF0A37427
:1021DB0018F0A374FFF0A37400F0A37450F07BFF0E
:1021EB007A0079461212D77FE87E0312234EEF60F6
:1021FB001F900DBC74FFF0A37420F0A37449F07B07
:10220B00017A007998121C47EA494B600C0218308E
:09221B007BFF7A2079521227B2F0
:012224002297
:10004600474554202F6131313F0020485454502FEA
:10005600312E310D0A486F73743A206C6F63616CF0
:10006600686F73743A353030300D0A436F6E6E65C3
:100076006374696F6E3A206B6565702D616C697685
:10008600650D0A0D0A00485454502F312E30203287
:100096003030204F4B0D0A436F6E74656E742D54CD
:1000A6007970653A20746578742F68746D6C3B209E
:1000B600636861727365743D7574662D380D0A4305
:1000C6006F6E74656E742D4C656E6774683A2000A9
:1000D6003C21444F43545950452068746D6C3E0D85
:1000E6000A3C68746D6C206C616E673D22656E22F9
:1000F6003E0D0A3C686561643E0D0A202020203CC6
:100106006D65746120636861727365743D22555430
:10011600462D38223E0D0A202020203C7469746C3E
:10012600653E47656E697573204149204C61623CA6
:100136002F7469746C653E0D0A202020203C737470
:10014600796C653E0D0A2020202020202020683171
:100156007B666F6E742D73697A653A363030253B4F
:10016600746578742D616C69676E3A63656E746543
:10017600727D0D0A20202020202020207370616EC1
:100186007B666F6E742D73697A653A333030253B22
:100196006D617267696E2D6C6566743A343070787D
:1001A6007D0D0A2020202020202020627574746F87
:1001B6006E7B747970653A627574746F6E3B6D61AF
:1001C6007267696E2D6C6566743A343070783B7769
:1001D600696474683A31323070783B68656967687B
:1001E600743A31323070783B626F726465722D7288
:1001F60061646975733A363070783B70616464691E
:100206006E673A323070787D0D0A2020202020203B
:1002160020202E7373317B6261636B67726F756E1C
:10022600643A236666393935337D0D0A202020204D
:10023600202020202E7373327B6261636B67726F9E
:10024600756E643A6461726B677261797D0D0A201E
:10025600202020202020202E7373337B6261636B65
:1002660067726F756E643A20236666653061307D0D
:100276000D0A20202020202020202E7373347B623C
:1002860061636B67726F756E643A202364366436F9
:1002960064367D0D0A20202020202020202E737316
:1002A600357B626F726465722D7261646975733A2B
:1002B600323070783B6865696768743A36307078B2
:1002C6007D0D0A202020203C2F7374796C653E0D2D
:1002D6000A202020203C7363726970743E0D0A2048
:1002E6002020202020202066756E6374696F6E20A2
:1002F6006A702861290D0A20202020202020207BDA
:1003060077696E646F772E6C6F636174696F6E2E9A
:10031600687265663D222F3F222B617D0D0A2020E3
:1003260020203C2F7363726970743E0D0A3C2F685F
:100336006561643E0D0A3C626F64793E0D0A2020B9
:1003460020203C646976207374796C653D22776958
:100356006474683A313030307078223E0D0A2020BD
:100366002020202020203C646976207374796C65F7
:100376003D226261636B67726F756E642D636F6C8D
:100386006F723A736C61746567726179223E0D0A09
:100396002020202020202020202020203C68313EC4
:1003A60047656E697573204149204C61623C2F6830
:1003B600313E0D0A20202020202020203C2F646979
:1003C600763E0D0A20202020202020203C62723E0E
:1003D6000D0A202020202020202020202020202040
:1003E60020203C7370616E3E535749544348313A5E
:1003F6003C2F7370616E3E0D0A20202020202020A5
:100406002020202020202020203C627574746F6EEE
:1004160020636C6173733D2273733122206F6E63A8
:100426006C69636B3D226A702827535749544348C9
:10043600313D4F4E2729223E4F4E3C2F6275747434
:100446006F6E3E0D0A202020202020202020202014
:1004560020202020203C627574746F6E20636C61CE
:1004660073733D2273733222206F6E636C69636B04
:100476003D226A702827535749544348313D4F4619
:10048600462729223E4F46463C2F627574746F6E8E
:100496003E0D0A2020202020202020202020202061
:1004A6002020203C62723E0D0A20202020202020A1
:1004B6002020202020202020203C7370616E3E5397
:1004C6005749544348323A3C2F7370616E3E0D0AC9
:1004D6002020202020202020202020202020202016
:1004E6003C627574746F6E20636C6173733D227326
:1004F600733122206F6E636C69636B3D226A7028CC
:1005060027535749544348323D4F4E2729223E4FE1
:100516004E3C2F627574746F6E3E0D0A20202020AB
:100526002020202020202020202020203C627574BE
:10053600746F6E20636C6173733D22737332222075
:100546006F6E636C69636B3D226A70282753574947
:10055600544348323D4F46462729223E4F46463CA5
:100566002F627574746F6E3E3C62723E0D0A2020D7
:1005760020202020202020202020202020203C7306
:1005860070616E3E535749544348333A3C2F73705B
:10059600616E3E0D0A2020202020202020202020D1
:1005A60020202020203C627574746F6E20636C617D
:1005B60073733D2273733122206F6E636C69636BB4
:1005C6003D226A702827535749544348333D4F4EBE
:1005D6002729223E4F4E3C2F627574746F6E3E0D76
:1005E6000A2020202020202020202020202020201B
:1005F600203C627574746F6E20636C6173733D2268
:1006060073733222206F6E636C69636B3D226A706E
:100616002827535749544348333D4F4646272922F6
:100626003E4F46463C2F627574746F6E3E3C627256
:100636003E0D0A20202020202020202020202020BF
:100646002020203C7370616E3E5357495443483412
:100656003A3C2F7370616E3E0D0A20202020202028
:10066600202020202020202020203C627574746FDA
:100676006E20636C6173733D2273733122206F6E3B
:10068600636C69636B3D226A70282753574954434C
:1006960048343D4F4E2729223E4F4E3C2F627574FB
:1006A600746F6E3E0D0A202020202020202020205E
:1006B6002020202020203C627574746F6E20636CAD
:1006C6006173733D2273733222206F6E636C6963AC
:1006D6006B3D226A702827535749544348343D4F8F
:1006E60046462729223E4F46463C2F627574746F54
:1006F6006E3E0D0A20202020202020203C62723EE3
:100706000D0A202020203C2F6469763E0D0A3C2FDE
:0F071600626F64793E0D0A3C2F68746D6C3E0073
:10097A00EFD3940540037F012212081BFED3940390
:10098A0040037F0222EF7041EE700B9000011208C3
:10099A0034F45293529412081BB4010B90000112C2
:1009AA0008344293F4529412081BFEB4020A9000CF
:1009BA000112083442934294EEB4030D90000112DE
:1009CA000834FEF45293EE4294EF64017043120825
:1009DA001BFE700B900001120834F452915292EEF1
:1009EA00B4010B9000011208344291F45292120899
:1009FA001BB4020A90000112083442914292120872
:100A0A001BB4030D900001120834FEF45291EE4219
:100A1A0092EF6402704312081BFE700B90000112E1
:100A2A000834F452955296EEB4010B900001120864
:100A3A00344295F4529612081BB4020A900001122D
:100A4A0008344295429612081BB4030D9000011215
:100A5A000834FEF45295EE4296EF6403704312088E
:100A6A001BFE700B900001120834F452B152B2EE20
:100A7A00B4010B90000112083442B1F452B21208C8
:100A8A001BB4020A90000112083442B142B21208A1
:100A9A001BB4030D900001120834FEF452B1EE4269
:100AAA00B2EF6404704312081BFE700B900001122F
:100ABA000834F452B352B4EEB4010B900001120898
:100ACA003442B3F452B412081BB4020A9000011261
:100ADA00083442B342B412081BB4030D9000011249
:100AEA000834FEF452B3EE42B4EF640570431208C0
:100AFA001BFF700B900001120834F452C952CAEF5E
:100B0A00B4010B90000112083442C9F452CA120807
:100B1A001BB4020A90000112083442C942CA1208E0
:100B2A001BB4030D900001120834FFF452C9EF42BE
:040B3A00CA7F00224C
:1024F500EFD3940540037F0122EF7003ED4280EF97
:10250500B40103ED4290EFB40203ED42A0EFB40332
:1025150003ED42B0EFB40403ED42C0EFB40503EDA3
:0525250042C87F002206
:10244E00EFD3940540037F0122EF7004EDF4528028
:10245E00EFB40104EDF45290EFB40204EDF452A087
:10246E00EFB40304EDF452B0EFB40404EDF452C033
:0B247E00EFB40504EDF452C87F00220B
:10228D00EFD3940540037F0122EF700BE5805D6075
:10229D00037F01227F0022EFB4010BE5905D600307
:1022AD007F01227F0022EFB4020BE5A05D60037F6A
:1022BD0001227F0022EFB4030BE5B05D60037F01C7
:1022CD00227F0022EFB4040BE5C05D60037F012285
:1022DD007F0022EFB4050BE5C85D60037F01227F0F
:0522ED0000227F002229
:10276000EF70038DFA22EFB401038DFB22EFB40268
:0627700004AF058FFC22FE
:100CFA00900D26EBF0A3EAF0A3E9F0AD07EDD3944B
:100D0A00034003020E98ED6403704CC2DEF5F9F558
:100D1A00E9900D26E0FBA3E0FAA3E0F912081BFF15
:100D2A00E5A254CF4FF5A2900001120834FFE5D98D
:100D3A0054F14FF5D99000041208345401FFE5D953
:100D4A0054FE4FF5D9900005120834B40104D2BFFD
:100D5A008002C2BFD2DE22900D26E0FBA3E0FAA3F6
:100D6A00E02404F9E43AFA12081B5431120861909B
:100D7A000D26E0FBA3E0FAA3E0F990000212083482
:100D8A00C39448400FE92404F9E43AFA12081B54C0
:100D9A00CF120861ED704F900D26E0FBA3E0FAA395
:100DAA00E0F9900004120834FF900002120834FEA1
:100DBA004FF5DA900003120834FFE5F2543F4FF57D
:100DCA00F2900006120916FBAAF0900E16EAF0A39A
:100DDA00EBF0C200900E13EEF0900E1CEAF0A3EBBB
:100DEA00F0F5EAEAF5FAED6401704F900D26E0FBA2
:100DFA00A3E0FAA3E0F9900004120834FF9000027D
:100E0A00120834FE4FF5DB900003120834FFE5F3B5
:100E1A00543F4FF5F3900006120916FBAAF0900E04
:100E2A0018EAF0A3EBF0C201900E14EEF0900E1E39
:100E3A00EAF0A3EBF0F5EBEAF5FBED6402704F90F4
:100E4A000D26E0FBA3E0FAA3E0F9900004120834AF
:100E5A00FF900002120834FE4FF5DC9000031208DE
:100E6A0034FFE5F4543F4FF5F4900006120916FDDD
:100E7A00ACF0900E1AECF0A3EDF0C202900E15EE53
:0F0E8A00F0900E20ECF0A3EDF0F5ECECF5FC226F
:10262300759A50438E0475D7D075D6FF438E10909C
:10263300000C7402F0E4A3F0A3F0A3F0A3F0A3F062
:0D264300A3F0A3F0A3F0A3F0A3F0A3F022F6
:10278B008F9BE59A20E1047F0180027F00EF70F2BE
:04279B00539AFD222E
:10279F0012081BFF600C12278B740129F9E43AFA17
:0327AF0080EE2297
:030043000223A9EC
:1023A900C0E0C0F0C083C082C0D075D010E59A30BB
:1023B900E039539AFE900016E0B4012FC390001241
:1023C900E094084004E4F0A3F0900012E475F001F1
:1023D900120900FE749825F0F58274003EF583E534
:1023E9009BF0900014E4F0A37405F0D0D0D082D013
:0623F90083D0F0D0E032B9
:1024BF00759850438E40538EFE53890F758BD07590
:1024CF008DFFC2ABD28E9000007401F0E4A3F0A395
:1024DF00F0A3F0A3F0A3F0A3F0A3F0A3F0A3F0A355
:0624EF00F0A3F0D2AC22C4
:10259100900003E0FCA3E02498F58274083CF583E5
:1025A100EFF0900003E475F0011208EAC3940440CF
:1025B10007E4900003F0A3F0900005E0700404F03C
:0325C100D299228A
:1027B20012081BFF600C122591740129F9E43AFA00
:0327C20080EE2284
:03002300021DBDFE
:101DBD00C0E0C0F0C083C082C0D075D01830983E4E
:101DCD00C29890000AE0B40135C3900007E09480FA
:101DDD00900006E094004004E4F0A3F0900006E4C7
:101DED0075F001120900FE741825F0F58274003E9D
:101DFD00F583E599F0900008E4F0A37405F03099AF
:101E0D0043C299900003E0FEA3E0FF900001E0FCC7
:101E1D00A3E0FD6F7002EC6E602574982DF5827451
:101E2D00083CF583E0F599900001E475F001120886
:101E3D00EAC39404400E900001E4F0A3F0800590F5
:0F1E4D000005E4F0D0D0D082D083D0F0D0E032C6
:03000000021E5C81
:0C1E5C00787FE4F6D8FD758120021EA3FB
:10072500E709F608DFFA8046E709F208DFFA803EB6
:1007350088828C83E709F0A3DFFA8032E309F608A3
:10074500DFFA8078E309F208DFFA807088828C830B
:10075500E309F0A3DFFA806489828A83E0A3F608BF
:10076500DFFA805889828A83E0A3F208DFFA804C99
:1007750080D280FA80C680D4806980F28033801070
:1007850080A680EA809A80A880DA80E280CA8033D9
:1007950089828A83ECFAE493A3C8C582C8CCC58351
:1007A500CCF0A3C8C582C8CCC583CCDFE9DEE78021
:1007B5000D89828A83E493A3F608DFF9ECFAA9F0A0
:1007C500EDFB2289828A83ECFAE0A3C8C582C8CCF6
:1007D500C583CCF0A3C8C582C8CCC583CCDFEADE0F
:1007E500E880DB89828A83E493A3F208DFF980CC71
:1007F50088F0EF60010E4E60C388F0ED2402B4046A
:100805000050B9F582EB2402B4040050AF23234510
:06081500822390077573B9
:10081B00BB010689828A83E0225002E722BBFE02DB
:09082B00E32289828A83E493220E
:10083400BB010CE58229F582E5833AF583E0225079
:1008440006E92582F8E622BBFE06E92582F8E222C3
:0D085400E58229F582E5833AF583E49322DD
:10086100BB010689828A83F0225002F722BBFE0176
:02087100F32270
:10087300F8BB010DE58229F582E5833AF583E8F0BB
:10088300225006E92582C8F622BBFE05E92582C867
:02089300F2224F
:10089500BC000BBE0029EF8DF084FFADF022E4CC47
:1008A500F875F008EF2FFFEE33FEEC33FCEE9DEC10
:1008B500984005FCEE9DFE0FD5F0E9E4CEFD22ED56
:1008C500F8F5F0EE8420D21CFEADF075F008EF2FA0
:1008D500FFED33FD4007985006D5F0F222C398FD91
:0508E5000FD5F0EA222E
:1008EA00C5F0F8A3E028F0C5F0F8E5821582700299
:0608FA001583E038F02236
:10090000A3F8E0C5F025F0F0E582158270021583AA
:06091000E0C838F0E82207
:10091600BB0110E58229F582E5833AF583E0F5F01F
:10092600A3E0225009E92582F886F008E622BBFEFC
:100936000AE92582F8E2F5F008E222E5832AF58342
:08094600E993F5F0A3E9932207
:10215000900DACEBF0A3EAF0A3E9F0900DB2EBF038
:10216000A3EAF0A3E9F0900DACE0FBA3E475F00165
:10217000120900A9F0FA12081B70EB900DAD74FF64
:10218000F5F01208EA900DAFE0FBA3E475F0011240
:102190000900A9F0FA12081BFF900DACE0FBA3E4C4
:1021A00075F001120900A9F0FAEF12086170D690DB
:0B21B0000DB2E0FBA3E0FAA3E0F9226F
:10277600E4FFFE12081B600C0FEF70010E09E970F2
:05278600F20A80EF22C1
:101C4700900DB9EBF0A3EAF0A3E9F0A3E0FBA3E062
:101C5700FAA3E0F912081B7003021CF3900DB9E018
:101C6700FBA3E0FAA3E0F912081B7003021CFF9024
:101C77000DBCE0F9A3E0FAA3E0A3C9F0A3EAF0A33F
:101C8700E9F0900DB9A3E0FAA3E0F9900DC2EBF0EB
:101C9700A3EAF0A3E9F0900DBFE0FBA3E0FAA3E00D
:101CA700F912081BFF6026900DC2E0FBA3E0FAA320
:101CB700E0F912081B6F7015900DC075F00112083E
:101CC700EA900DC3E475F0011208EA80C9900DBFD0
:101CD700E0FBA3E0FAA3E0F912081B7002800D9065
:101CE7000DBAE475F0011208EA021C63900DB9E021
:0F1CF700FBA3E0FAA3E0F9227B007A0079002238
:10094E00EF4E6012EF60010EEDBB010B89828A83C0
:10095E00F0A3DFFCDEFA2289F05007F709DFFCA9CD
:0C096E00F022BBFEFCF309DFFCA9F02224
:101E68000225F6E493A3F8E493A34003F68001F275
:101E780008DFF48029E493A3F85407240CC8C3337B
:101E8800C4540F4420C8834004F456800146F6DF4A
:101E9800E4800B010204081020408090206DE47E4D
:101EA800019360BCA3FF543F30E509541FFEE4933F
:101EB800A360010ECF54C025E060A840B8E493A306
:101EC800FAE493A3F8E493A3C8C582C8CAC583CA31
:101ED800F0A3C8C582C8CAC583CADFE9DEE780BEE9
:0120E20000FD
:00000001FF
