:1022BA00AD071FED600B0000007E1A1EEE60F18074
:0122CA00FA19
:0122CB0022F0
:0F22CC007DA57C06ED1D70011C144C70F7DFF131
:0122DB0022E0
:02223C00AB07EE
:10223E00AF031BEF60107E04EED3940040F27FFAE2
:06224E001222CC1E80F2FA
:012254002267
:102168007379732073746172740D0A0077696669F4
:102178002072657365740D0A007769666920736556
:0E21880074206170207375636573730D0A0017
:101EDF00C2AF12219643AF01122063E4F5B8F5B5F6
:101EEF0043B50112221AD2AF7BFF7A2179681222F1
:101EFF00A71218807E087F007D007B017A007998F9
:101F0F0012094A7BFF7A2179741222A71221C31278
:0F1F1F0015DBEF60EE7BFF7A2179811222A7227A
:10107D004448543131207472756520200D0A0044A6
:10108D00485431312066616C736520200D0A00547F
:10109D00454D500048554D49003E3E3E3E3E3E3E7C
:1010AD003E3E3E3E3E3E3E000D0A004F4E0031207C
:1010BD006F6E210D0A004F46460031206F66662186
:1010CD000D0A0032206F6E210D0A0032206F666608
:1010DD00210D0A0033206F6E210D0A0033206F663B
:1010ED0066210D0A0034206F6E210D0A0034206F29
:1010FD006666210D0A0073776974636820696E76E0
:10110D00616C696420636F6D6D616E640D0A004CD6
:10111D0049474854006C6967687431206F6E210D22
:10112D000A006C6967687431206F6666210D0A00CC
:10113D00494E43006C696768743120696E63210DF7
:10114D000A00444543006C69676874312064656327
:10115D00210D0A006C696768743220696E63210D78
:10116D000A006C696768743220646563210D0A009A
:10117D006C6967687420696E76616C696420636F51
:10118D006D6D616E643232320D0A00696E76616C7E
:10119D00696420636F6D6D616E643131310D0A00CC
:0711AD005357495443480069
:10000E00D2C87F011222BAC2C87F121222CCD2C825
:05001E007F040222BA7C
:10210200E4900D30F0900D2FF030C8FD7F021222C6
:10211200BA900D30E025E0F030C803E004F020C8AA
:10212200FD900D2FE004F0E0C3940840DC900D30E8
:02213200E0FFCC
:012134002288
:0B14DE00900D23EBF0A3EAF0A3E9F06F
:1014E900E4A3F0A3F0A3F0A3F0A3F012000E30C818
:1014F9000302158630C8FDC2AF7F081222BA122135
:1015090002900D26EFF0122102900D27EFF0122123
:1015190002900D28EFF0122102900D29EFF012210F
:1015290002900D2AEFF0D2AF900D27E0FD900D2625
:10153900E02DFDE433FC900D28E07A002DFDEA3C16
:10154900FCA3E02DFDEA3CFC7E00EDB5070CEEB5F1
:1015590004087BFF7A10797D80067BFF7A10798CED
:101569001222A7900D28E0FF900D2BE4F0A3EFF0D5
:10157900900D26E0FF900D2DE4F0A3EFF0900D768D
:1015890074FFF0A37410F0A3749CF0900D23E0FB9A
:10159900A3E0FAA3E0F9121A03EA494B6005900D9A
:1015A9002B8024900D7674FFF0A37410F0A374A11E
:1015B900F0900D23E0FBA3E0FAA3E0F9121A03EA85
:1015C900494B6009900D2DE0FEA3E0FF227EFF7FCD
:0115D900FF12
:0115DA0022EE
:10097600900D23EBF0A3EAF0A3E9F07BFF7A107960
:10098600A61222A7900D23E0FBA3E0FAA3E0F9123A
:1009960022A77BFF7A1079B51222A7900D23E0FBE0
:1009A600A3E0FAA3E0F990000612083024CE606DA9
:1009B600147003020A88147003020AEC240360030D
:1009C600020B4F900D7674FFF0A37410F0A374B869
:1009D600F0121A03EA494B60107D047F0512209934
:1009E6007BFF7A1079BB020B4A900D7674FFF0A359
:1009F6007410F0A374C3F0900D23E0FBA3E0FAA3F8
:100A0600E0F9121A03EA494B7003020B5B7D047F7F
:100A160005121FF27BFF7A1079C7020B4A900D76FA
:100A260074FFF0A37410F0A374B8F0900D23E0FBEC
:100A3600A3E0FAA3E0F9121A03EA494B60107D100D
:100A4600E4FF1220997BFF7A1079D0020B4A900DB1
:100A56007674FFF0A37410F0A374C3F0900D23E036
:100A6600FBA3E0FAA3E0F9121A03EA494B7003026A
:100A76000B5B7D10E4FF121FF27BFF7A1079D80220
:100A86000B4A900D7674FFF0A37410F0A374B8F0BF
:100A9600900D23E0FBA3E0FAA3E0F9121A03EA495A
:100AA6004B60107D02E4FF1220997BFF7A1079E1FA
:100AB600020B4A900D7674FFF0A37410F0A374C372
:100AC600F0900D23E0FBA3E0FAA3E0F9121A03EA83
:100AD600494B7003020B5B7D02E4FF121FF27BFFA2
:100AE6007A1079E9805E900D7674FFF0A37410F0A9
:100AF600A374B8F0900D23E0FBA3E0FAA3E0F9128B
:100B06001A03EA494B600F7D01E4FF1220997BFF2F
:100B16007A1079F2802E900D7674FFF0A37410F09F
:100B2600A374C3F0900D23E0FBA3E0FAA3E0F9124F
:100B36001A03EA494B601E7D01E4FF121FF27BFF98
:100B46007A1079FA1222A7800C7BFF7A11790312A8
:070B560022A77F00227F01AE
:010B5D002275
:10202D00900D26EFF0BF0210900DC874A0F0C37490
:10203D00FF94A0FDE4FF8015900D26E0B4071490E9
:10204D000DC974A0F0C374FF94A0FD7F0112225539
:06205D007F01227F00223A
:1020CE00900D26EFF0BF020FE4900DC8F0C374FF21
:1020DE009400FDE4FF8014900D26E0B40713E49005
:1020EE000DC9F0C374FF9400FD7F011222557F01CC
:0420FE00227F00221B
:101DC500900D26EFF064027028900DC8E0FFC374F3
:101DD500FF9FC39428500574FFF08007900DC8E05D
:101DE5002428F0900DC8E0FFC374FF9FFDE4FF8039
:101DF5002E900D26E06407702C900DC9E0FFC3748A
:101E0500FF9FC39428500574FFF08007900DC9E02B
:101E15002428F0900DC9E0FFC374FF9FFD7F0112D8
:081E250022557F01227F0022FB
:101E2D00900D26EFF064027022900DC8E0C3942847
:101E3D005004E4F08007900DC8E024D8F0900DC850
:101E4D00E0FFC374FF9FFDE4FF8028900D26E06442
:101E5D00077026900DC9E0C394285004E4F0800764
:101E6D00900DC9E024D8F0900DC9E0FFC374FF9F19
:0C1E7D00FD7F011222557F01227F002210
:100D2200900D23EBF0A3EAF0A3E9F0900D7674FFA7
:100D3200F0A37411F0A3741CF0900D23E0FBA3E068
:100D4200FAA3E0F9121A03EA494B7003020ED29099
:100D5200000612083024CE7003020E110460030252
:100D62000ECA900D7674FFF0A37410F0A374B8F05D
:100D7200900D23E0FBA3E0FAA3E0F9121A03EA497B
:100D82004B60057F02020E34900D7674FFF0A3745F
:100D920010F0A374C3F0900D23E0FBA3E0FAA3E0EC
:100DA200F9121A03EA494B60057F02020E63900DA5
:100DB2007674FFF0A37411F0A3743DF0900D23E05C
:100DC200FBA3E0FAA3E0F9121A03EA494B600E7F93
:100DD20002121DC57BFF7A117941020ED8900D7661
:100DE20074FFF0A37411F0A3744FF0900D23E0FB95
:100DF200A3E0FAA3E0F9121A03EA494B7003020EC8
:100E0200DB7F02121E2D7BFF7A117953020ED890DE
:100E12000D7674FFF0A37410F0A374B8F0900D2354
:100E2200E0FBA3E0FAA3E0F9121A03EA494B600ED1
:100E32007F0712202D7BFF7A117922020ED8900DA6
:100E42007674FFF0A37410F0A374C3F0900D23E046
:100E5200FBA3E0FAA3E0F9121A03EA494B600D7F03
:100E6200071220CE7BFF7A11792F806A900D76745B
:100E7200FFF0A37411F0A3743DF0900D23E0FBA3E7
:100E8200E0FAA3E0F9121A03EA494B600D7F071258
:100E92001DC57BFF7A117961803C900D7674FFF05D
:100EA200A37411F0A3744FF0900D23E0FBA3E0FABA
:100EB200A3E0F9121A03EA494B601E7F07121E2DA6
:100EC2007BFF7A11796F800E7BFF7A11797D800624
:0B0ED2007BFF7A1179981222A77F01A4
:010EDD0022F2
:10188000900D1A7403F0A304F07B017A0D791A7F8E
:1018900005120B5E900D1B7413F07B017A0D791A03
:1018A000E4FF120B5EE4900D1CF0A304F0FB7A0D34
:1018B000791C7F05120B5E900D187403F0A37480E1
:1018C000F07B017A0D79187F03120B5E900D19746D
:1018D00080F07B017A0D79187F01120B5EE4900D88
:1018E0001EF0A3F0A37442F0E4A3F0A3F0A304F06D
:1018F000E4A3F0A3F07B017A0D791E7F03120EDEC4
:101900007B017A0D791E7F02120EDE7B017A0D7942
:101910001E7F07120EDE7D047F05121FF27D10E48C
:10192000FF121FF27D02E4FF121FF27D01E4FF129D
:101930001FF27F021220CE7F071220CEE4900DC846
:03194000F0A3F021
:011943002281
:0B16D300900D1DEBF0A3EAF0A3E9F07E
:1016DE00900D7674FFF0A37411F0A374ADF0121A8E
:1016EE0003900D20EBF0A3EAF0A3E9F04A4B60174C
:1016FE00900D20E0FBA3E0FAA3E0F9120976EF606B
:10170E00037F01227F0022900D7674FFF0A37411E7
:10171E00F0A3741CF0900D1DE0FBA3E0FAA3E0F91A
:10172E00121A03900D20EBF0A3EAF0A3E9F04A4B56
:10173E006010900D20E0FBA3E0FAA3E0F9120D2259
:10174E008066900D7674FFF0A37410F0A3749CF075
:10175E00900D1DE0FBA3E0FAA3E0F9121A03900D21
:10176E0020EBF0A3EAF0A3E9F04A4B6002802B9045
:10177E000D7674FFF0A37410F0A374A1F0900D1DFC
:10178E00E0FBA3E0FAA3E0F9121A03900D20EBF0B0
:10179E00A3EAF0A3E9F04A4B600E900D20E0FBA304
:0A17AE00E0FAA3E0F91214DE7F0157
:0117B800220E
:040003004745540019
:101F7700900DCA7401F0121EDF900DCAE01470F9BB
:101F8700121FB7EF60F37B017A0079981221EF9067
:101F97000D7674FFF0A37400F0A37403F07B017A4D
:101FA700007998121A03EA494B60CE1212CA80C907
:1017B90041542B524553544F52450D0A004F4B008B
:1017C90041542B43574D4F44453D320D0A00415476
:1017D9002B43575341503D2241495F4C6162222CB2
:1017E9002231323334353637383930222C342C34DF
:1017F9000D0A0041542B5253540D0A0041542B43F6
:1018090049504D55583D310D0A0041542B4349501B
:101819005345525645523D312C353030300D0A0072
:1018290041542B43494653520D0A0041542B434915
:101839005053454E443D302C3137300D0A006D610F
:10184900746368002C000D0A003E200053454E4485
:10185900204F4B000D0A0D0A0041542B43495053A8
:10186900454E443D0000000000000000000000005B
:071879000000000000000068
:101F2E00460D7FFF17B9FF17C6460D9DFF17C9FF58
:101F3E0017C6460DA9FF17D7FF17C6460D8BFF17FD
:101F4E00FCFF17C6460DA3FF1805FF17C6460D85E5
:101F5E00FF1813FF17C6460D97FF1829FF17C64621
:081F6E000D91FF1834FF17C6A6
:0711B4007B01E0FCA3E0FD5C
:1011BB00900D67EBF0A3EAF0A3E9F0A3ECF0A3ED3D
:0111CB00F033
:1011CC00900D6AE0FEA3E0FF7C277D10120891EFE2
:1011DC002430FF900D67E0FBA3E0FAA3E0F9EF12D7
:1011EC00085D900D6AE0FEA3E0FF7C277D101208DD
:1011FC00917E037FE8CFCDCFCECCCE120891EF24D9
:10120C0030FF900D67E0FBA3E0FAA3E0F99000013A
:10121C00EF12086F900D6AE0FEA3E0FF7C037DE8FF
:10122C001208917E007F64CFCDCFCECCCE12089128
:10123C00EF2430FF900D67E0FBA3E0FAA3E0F990F8
:10124C000002EF12086F900D6AE0FEA3E0FF7C0035
:10125C007D641208917E007F0ACFCDCFCECCCE120A
:10126C000891EF2430FF900D67E0FBA3E0FAA3E0B8
:10127C00F9900003EF12086F900D6AE0FEA3E0FFF7
:10128C007C007D0A120891ED2430FF900D67E0FB85
:10129C00A3E0FAA3E0F9900004EF12086F900005A8
:1012AC00E412086F120817FFB43009740129F9E42D
:0D12BC003AFA80F0EF70060429F9E43AFADE
:0112C9002202
:1021C300E4900D18F0A37408F07B017A0D79187F61
:1021D30005120B5E7D087F05121FF27F641222CC6D
:0C21E3007D087F051220997F0202223C3B
:101FB7009000167401F0E4900012F0A3F09000175F
:101FC700F0900014F0A37405F0D3900015E094008E
:101FD700900014E0940050F1E4900016F0A3E06044
:0B1FE70007900012A3E0FF227F002201
:081C7200E0FBA3E0FAA3E0F996
:101C7A00122294900D6DE0FEA3E0FF7C007D3212EB
:101C8A000891900D72EFF0900D72E0D394004050DD
:101C9A00121FB7EF60427B017A0079981222A7904F
:101CAA000D6AE0F9A3E0FAA3E0900D76C9F0A3EA81
:101CBA00F0A3E9F07B017A007998121A03900D6F6C
:101CCA00EBF0A3EAF0A3E9F04A4B600C7BFF7A1829
:101CDA0079471221EF7F0122900D72E014F080A75C
:021CEA007F0079
:011CEC0022D5
:0D13D700A3F0900D1DE0FBA3E0FAA3E0F9E8
:0B13E400900D38EBF0A3EAF0A3E9F055
:1013EF0078447C0D7D017BFF7A1879627E007F1E29
:1013FF001207F1900D3BE0FBA3E0FAA3E0F91222F4
:10140F006B900D65EEF0A3EFF0900D38E0F9A3E0CF
:10141F00FAA3E0900D6AC9F0A3EAF0A3E9F07B010B
:10142F007A0D7944121D5A900D6A74FFF0A3741847
:10143F00F0A3744DF07B017A0D7944121D5A7A0D89
:10144F00793E900D651211B4900D62EBF0A3EAF0A6
:10145F00A3E9F0900D62E0F9A3E0FAA3E0900D6A22
:10146F00C9F0A3EAF0A3E9F07B017A0D7944121DCC
:10147F005A900D6A74FFF0A37418F0A3744FF07BA9
:10148F00017A0D7944121D5A900D6A74FFF0A374FE
:10149F0018F0A37452F0A3E4F0A374C8F07B017AA0
:1014AF000D7944121C7AEF7002FF22900D6A74FFBF
:1014BF00F0A37418F0A37455F0A37401F0A374F49F
:0E14CF00F0900D3B121C72EF7002FF227F01A5
:0114DD0022EC
:0B194400900D1DEBF0A3EAF0A3E9F00A
:10194F00A3E0FBA3E0FAA3E0F912226B900D36EEB1
:10195F00F0A3EFF07E007F0A7D007B017A0D7923E3
:10196F0012094A900D3B74FFF0A37400F0748812B3
:10197F0013D7EF7002FF227A0D792D900D361211C9
:10198F00B4900D33EBF0A3EAF0A3E9F0900D33E040
:10199F00F9A3E0FAA3E0900D6AC9F0A3EAF0A3E976
:1019AF00F07B017A0D7923121D5A900D6A74FFF0A6
:1019BF00A37418F0A3745DF07B017A0D7923121DC7
:1019CF005A900D3B7401F0A3740DF074231213D7CA
:1019DF00EF7002FF22900D20E0F9A3E0FAA3E09050
:1019EF000D3BC9F0A3EAF0A3E91213D8EF7002FF81
:0319FF00227F0143
:011A020022C1
:1015DB00900DA0E0F9A3E0FAA3E0900D6AC9F0A387
:1015EB00EAF0A3E9F0A3E4F0A374C8F0900D9D1208
:1015FB001C72EF7002FF22900DACE0F9A3E0FAA38E
:10160B00E0900D6AC9F0A3EAF0A3E9F0A3E4F0A31C
:10161B0074C8F0900DA9121C72EF70087F02122291
:10162B003C7F0022900D8EE0F9A3E0FAA3E0900D31
:10163B006AC9F0A3EAF0A3E9F0A3E4F0A374C8F03D
:10164B00900D8B121C72EF7002FF227F0212223C54
:10165B00900DA6E0F9A3E0FAA3E0900D6AC9F0A300
:10166B00EAF0A3E9F0A3E4F0A374C8F0900DA31281
:10167B001C72EF7002FF22900D88E0F9A3E0FAA331
:10168B00E0900D6AC9F0A3EAF0A3E9F0A3E4F0A39C
:10169B0074C8F0900D85121C72EF7002FF22900D32
:1016AB009AE0F9A3E0FAA3E0900D6AC9F0A3EAF07F
:1016BB00A3E9F0A3E4F0A374C8F0900D97121C7289
:0816CB00EF7002FF227F0122F3
:10221A00538E7F5389F0E4F58A758CB8C28DD28CBF
:10222A00D2A9900DC77464F0E4900DC4F0A3F0A392
:02223A00F02290
:03000B00021CEDE7
:101CED00C0E0C083C082C0D075D008900DC7E0D3CE
:101CFD0094004003E014F0900016E06047D390008C
:101D0D0015E09400900014E094004038A3E024FF07
:101D1D00F0900014E034FFF0E07002A3E070259025
:101D2D000016F0900012E0FEA3E0FFD39400EE94B5
:101D3D0000401174982FF58274003EF583E4F09005
:0D1D4D00001704F0D0D0D082D083D0E03257
:1000460041505F4D53475F48616E646C650D0A0011
:1000560048545450002B4950442C00474554202FF7
:100066002000474554202F3F004465766963657339
:1000760020636F6E74726F6C204661696C2021215B
:100086002100485454502F312E3020323030204F2A
:100096004B0D0A436F6E74656E742D547970653A14
:1000A60020746578742F68746D6C3B206368617288
:1000B6007365743D7574662D380D0A436F6E7465ED
:1000C6006E742D4C656E6774683A20003C21444F6F
:1000D60043545950452068746D6C3E0D0A3C687453
:1000E6006D6C206C616E673D22656E223E0D0A3C8A
:1000F600686561643E0D0A202020203C6D657461B0
:1001060020636861727365743D225554462D38220A
:100116003E0D0A202020203C7469746C653E4765BC
:100126006E697573204149204C61623C2F74697475
:100136006C653E0D0A202020203C7374796C653E68
:100146000D0A202020202020202068317B666F6E3B
:10015600742D73697A653A363030253B7465787448
:100166002D616C69676E3A63656E7465727D0D0A02
:1001760020202020202020207370616E7B666F6E09
:10018600742D73697A653A333030253B6D61726739
:10019600696E2D6C6566743A343070787D0D0A2070
:1001A60020202020202020627574746F6E7B747965
:1001B60070653A627574746F6E3B6D617267696ED5
:1001C6002D6C6566743A343070783B776964746870
:1001D6003A31323070783B6865696768743A313213
:1001E6003070783B626F726465722D7261646975F6
:1001F600733A363070783B70616464696E673A3280
:100206003070787D0D0A20202020202020202E739B
:1002160073317B6261636B67726F756E643A2366D6
:1002260066393935337D0D0A2020202020202020F4
:100236002E7373327B6261636B67726F756E643A9D
:100246006461726B677261797D0D0A20202020201F
:100256002020202E7373337B6261636B67726F7528
:100266006E643A20236666653061307D0D0A202073
:100276002020202020202E7373347B6261636B67FD
:10028600726F756E643A20236436643664367D0D6B
:100296000A20202020202020202E7373357B626FB9
:1002A600726465722D7261646975733A3230707862
:1002B6003B6865696768743A363070787D0D0A2048
:1002C6002020203C2F7374796C653E0D0A20202077
:1002D600203C7363726970743E0D0A202020202032
:1002E60020202066756E6374696F6E206A702861BF
:1002F600290D0A20202020202020207B77696E648B
:100306006F772E6C6F636174696F6E2E68726566A7
:100316003D222F3F222B617D0D0A202020203C2FDD
:100326007363726970743E0D0A3C2F686561643EA2
:100336000D0A3C626F64793E0D0A202020203C6441
:100346006976207374796C653D2277696474683ABE
:10035600313030307078223E0D0A202020202020B7
:1003660020203C646976207374796C653D22626155
:10037600636B67726F756E642D636F6C6F723A7321
:100386006C61746567726179223E0D0A2020202017
:1003960020202020202020203C68313E47656E69C1
:1003A6007573204149204C61623C2F68313E0D0A2D
:1003B60020202020202020203C2F6469763E0D0A34
:1003C60020202020202020203C62723E0D0A202082
:1003D60020202020202020202020202020203C73A8
:1003E60070616E3E535749544348313A3C2F7370FF
:1003F600616E3E0D0A202020202020202020202073
:1004060020202020203C627574746F6E20636C611E
:1004160073733D2273733122206F6E636C69636B55
:100426003D226A702827535749544348313D4F4E61
:100436002729223E4F4E3C2F627574746F6E3E0D17
:100446000A202020202020202020202020202020BC
:10045600203C627574746F6E20636C6173733D2209
:1004660073733222206F6E636C69636B3D226A7010
:100476002827535749544348313D4F46462729229A
:100486003E4F46463C2F627574746F6E3E0D0A20D1
:100496002020202020202020202020202020203C3A
:1004A60062723E0D0A2020202020202020202020BD
:1004B60020202020203C7370616E3E5357495443E0
:1004C60048323A3C2F7370616E3E0D0A2020202080
:1004D6002020202020202020202020203C6275740F
:1004E600746F6E20636C6173733D227373312220C7
:1004F6006F6E636C69636B3D226A70282753574998
:10050600544348323D4F4E2729223E4F4E3C2F62E0
:100516007574746F6E3E0D0A202020202020202046
:1005260020202020202020203C627574746F6E20CD
:10053600636C6173733D2273733222206F6E636C3A
:1005460069636B3D226A70282753574954434832E2
:100556003D4F46462729223E4F46463C2F6275743C
:10056600746F6E3E3C62723E0D0A202020202020D1
:10057600202020202020202020203C7370616E3E09
:10058600535749544348333A3C2F7370616E3E0DBE
:100596000A2020202020202020202020202020206B
:1005A600203C627574746F6E20636C6173733D22B8
:1005B60073733122206F6E636C69636B3D226A70C0
:1005C6002827535749544348333D4F4E2729223E47
:1005D6004F4E3C2F627574746F6E3E0D0A202020BC
:1005E600202020202020202020202020203C627552
:1005F60074746F6E20636C6173733D227373322261
:10060600206F6E636C69636B3D226A7028275357AF
:1006160049544348333D4F46462729223E4F4646D6
:100626003C2F627574746F6E3E3C62723E0D0A20FA
:100636002020202020202020202020202020203C98
:100646007370616E3E535749544348343A3C2F7396
:1006560070616E3E0D0A20202020202020202020C0
:100666002020202020203C627574746F6E20636CFD
:100676006173733D2273733122206F6E636C6963FD
:100686006B3D226A702827535749544348343D4FDF
:100696004E2729223E4F4E3C2F627574746F6E3E74
:1006A6000D0A20202020202020202020202020206D
:1006B60020203C627574746F6E20636C6173733DA9
:1006C6002273733222206F6E636C69636B3D226AFC
:1006D600702827535749544348343D4F46462729E7
:1006E600223E4F46463C2F627574746F6E3E0D0A6D
:1006F60020202020202020203C62723E0D0A20204F
:1007060020203C2F6469763E0D0A3C2F626F647987
:0B0716003E0D0A3C2F68746D6C3E0025
:1012CA007BFF7A0079461222A7900D7674FFF0A36D
:1012DA007400F0A37456F07B017A007998121A030D
:1012EA00EA494B6004E412085D900D7674FFF0A39E
:1012FA007400F0A3745BF07B017A007998121A03E8
:10130A00900D18EBF0A3EAF0A3E9F04A4B70030240
:10131A0013D6900D19E475F0051208E6900D18E041
:10132A00FBA3E0FAA3E0F91221EF900D18E0FBA36A
:10133A00E0FAA3E0F9120817900D1BF0E4A3F0906D
:10134A000D7674FFF0A37400F0A37461F07B017A48
:10135A00007998121A03900D18EBF0A3EAF0A3E9AA
:10136A00F04A4B600F900D2074FFF0A37400F0A3B5
:10137A0074D2804E900D7674FFF0A37400F0A374BB
:10138A0068F07B017A007998121A03900D18EBF035
:10139A00A3EAF0A3E9F04A4B6032900D18E0FBA3F0
:1013AA00E0FAA3E0F91216D3900D2074FFBF010AE8
:1013BA00F0A37400F0A374D28008F0A37400F0A321
:0C13CA00746FF07B017A0D791B1219443E
:0113D60022F4
:100026002A2A2A2A2A2A2A2A2A2A2A2A2A2A2A2A2A
:0D0036002A2A2A2A2A2A2A2A2A000D0A002C
:041BED00AB07AA0692
:101BF1007C277D10120891EF2430900DBEF07C27D8
:101C01007D10AF03AE021208917E037FE8CFCDCFE6
:101C1100CECCCE120891EF2430A3F07C037DE8AF47
:101C210003AE021208917E007F64CFCDCFCECCCE21
:101C3100120891EF2430A3F07C007D64AF03AE0263
:101C41001208917E007F0ACFCDCFCECCCE12089163
:101C5100EF2430A3F0AE02AF037C007D0A1208919D
:101C6100ED2430A3F0E4A3F07B017A0D79BE0222CA
:011C7100A7CB
:1021EF00900D73EBF0A3EAF0A3E9F07BFF7A00798F
:1021FF00261222A7900D73E0FBA3E0FAA3E0F912D9
:0B220F0022A77BFF7A0079400222A783
:100B5E00EFD3940540037F0122120817FED39403AE
:100B6E0040037F0222EF7041EE700B9000011208DD
:100B7E0030F452935294120817B4010B90000112E4
:100B8E0008304293F45294120817FEB4020A9000F1
:100B9E000112083042934294EEB4030D90000112FC
:100BAE000830FEF45293EE4294EF64017043120843
:100BBE0017FE700B900001120830F452915292EE13
:100BCE00B4010B9000011208304291F452921208B7
:100BDE0017B4020A90000112083042914292120894
:100BEE0017B4030D900001120830FEF45291EE423C
:100BFE0092EF64027043120817FE700B9000011200
:100C0E000830F452955296EEB4010B900001120882
:100C1E00304295F45296120817B4020A900001124F
:100C2E00083042954296120817B4030D9000011237
:100C3E000830FEF45295EE4296EF640370431208AC
:100C4E0017FE700B900001120830F452B152B2EE42
:100C5E00B4010B90000112083042B1F452B21208E6
:100C6E0017B4020A90000112083042B142B21208C3
:100C7E0017B4030D900001120830FEF452B1EE428B
:100C8E00B2EF64047043120817FE700B900001124D
:100C9E000830F452B352B4EEB4010B9000011208B6
:100CAE003042B3F452B4120817B4020A9000011283
:100CBE00083042B342B4120817B4030D900001126B
:100CCE000830FEF452B3EE42B4EF640570431208DE
:100CDE0017FF700B900001120830F452C952CAEF80
:100CEE00B4010B90000112083042C9F452CA120826
:100CFE0017B4020A90000112083042C942CA120803
:100D0E0017B4030D900001120830FFF452C9EF42E0
:040D1E00CA7F002266
:10209900EFD3940540037F0122EF7003ED4280EFF7
:1020A900B40103ED4290EFB40203ED42A0EFB40393
:1020B90003ED42B0EFB40403ED42C0EFB40503ED04
:0520C90042C87F002267
:101FF200EFD3940540037F0122EF7004EDF4528089
:10200200EFB40104EDF45290EFB40204EDF452A0E7
:10201200EFB40304EDF452B0EFB40404EDF452C093
:0B202200EFB40504EDF452C87F00226B
:10225500EF70038DFA22EFB401038DFB22EFB40278
:0622650004AF058FFC220E
:100EDE00900D26EBF0A3EAF0A3E9F0AD07EDD39465
:100EEE0003400302107CED6403704CC2DEF5F9F58D
:100EFE00E9900D26E0FBA3E0FAA3E0F9120817FF34
:100F0E00E5A254CF4FF5A2900001120830FFE5D9AB
:100F1E0054F14FF5D99000041208305401FFE5D971
:100F2E0054FE4FF5D9900005120830B40104D2BF1B
:100F3E008002C2BFD2DE22900D26E0FBA3E0FAA310
:100F4E00E02404F9E43AFA120817543112085D90BD
:100F5E000D26E0FBA3E0FAA3E0F9900002120830A0
:100F6E00C39448400FE92404F9E43AFA12081754DE
:100F7E00CF12085DED704F900D26E0FBA3E0FAA3B3
:100F8E00E0F9900004120830FF900002120830FEC3
:100F9E004FF5DA900003120830FFE5F2543F4FF59B
:100FAE00F2900006120912FBAAF0900DB2EAF0A31D
:100FBE00EBF0C200900DAFEEF0900DB8EAF0A3EB9F
:100FCE00F0F5EAEAF5FAED6401704F900D26E0FBBC
:100FDE00A3E0FAA3E0F9900004120830FF9000029B
:100FEE00120830FE4FF5DB900003120830FFE5F3D8
:100FFE00543F4FF5F3900006120912FBAAF0900D24
:10100E00B4EAF0A3EBF0C201900DB0EEF0900DBA81
:10101E00EAF0A3EBF0F5EBEAF5FBED6402704F900E
:10102E000D26E0FBA3E0FAA3E0F9900004120830CD
:10103E00FF900002120830FE4FF5DC9000031208FC
:10104E0030FFE5F4543F4FF5F4900006120912FDFF
:10105E00ACF0900DB6ECF0A3EDF0C202900DB1EE37
:0F106E00F0900DBCECF0A3EDF0F5ECECF5FC22EE
:10219600759A50438E0475D7D075D6FF438E10902E
:1021A600000C7402F0E4A3F0A3F0A3F0A3F0A3F0F4
:0D21B600A3F0A3F0A3F0A3F0A3F0A3F02288
:102280008F9BE59A20E1047F0180027F00EF70F2CE
:04229000539AFD223E
:10229400120817FF600C122280740129F9E43AFA3B
:0322A40080EE22A7
:03004300021E8911
:101E8900C0E0C0F0C083C082C0D075D010E59A30E0
:101E9900E039539AFE900016E0B4012FC390001266
:101EA900E094084004E4F0A3F0900012E475F00116
:101EB9001208FCFE749825F0F58274003EF583E55E
:101EC9009BF0900014E4F0A37405F0D0D0D082D038
:061ED90083D0F0D0E032DE
:10206300759850438E40538EFE53890F758BD075F0
:102073008DFFC2ABD28E9000007401F0E4A3F0A3F5
:10208300F0A3F0A3F0A3F0A3F0A3F0A3F0A3F0A3B5
:06209300F0A3F0D2AC2224
:10213500900003E0FCA3E02498F58274083CF58345
:10214500EFF0900003E475F0011208E6C394044033
:1021550007E4900003F0A3F0900005E0700404F09C
:03216500D29922EA
:1022A700120817FF600C122135740129F9E43AFA74
:0322B70080EE2294
:03002300021AC2FC
:101AC200C0E0C0F0C083C082C0D075D01830983E4C
:101AD200C29890000AE0B40135C3900007E09480F8
:101AE200900006E094004004E4F0A3F0900006E4C5
:101AF20075F0011208FCFE741825F0F58274003EA0
:101B0200F583E599F0900008E4F0A37405F03099AC
:101B120043C299900003E0FEA3E0FF900001E0FCC5
:101B2200A3E0FD6F7002EC6E602574982DF582744F
:101B3200083CF583E0F599900001E475F001120884
:101B4200E6C39404400E900001E4F0A3F0800590F7
:0F1B52000005E4F0D0D0D082D083D0F0D0E032C4
:03000000021B617F
:0C1B6100787FE4F6D8FD758120021BA8F7
:10072100E709F608DFFA8046E709F208DFFA803EBA
:1007310088828C83E709F0A3DFFA8032E309F608A7
:10074100DFFA8078E309F208DFFA807088828C830F
:10075100E309F0A3DFFA806489828A83E0A3F608C3
:10076100DFFA805889828A83E0A3F208DFFA804C9D
:1007710080D280FA80C680D4806980F28033801074
:1007810080A680EA809A80A880DA80E280CA8033DD
:1007910089828A83ECFAE493A3C8C582C8CCC58355
:1007A100CCF0A3C8C582C8CCC583CCDFE9DEE78025
:1007B1000D89828A83E493A3F608DFF9ECFAA9F0A4
:1007C100EDFB2289828A83ECFAE0A3C8C582C8CCFA
:1007D100C583CCF0A3C8C582C8CCC583CCDFEADE13
:1007E100E880DB89828A83E493A3F208DFF980CC75
:1007F10088F0EF60010E4E60C388F0ED2402B4046E
:100801000050B9F582EB2402B4040050AF23234514
:06081100822390077173C1
:10081700BB010689828A83E0225002E722BBFE02DF
:09082700E32289828A83E4932212
:10083000BB010CE58229F582E5833AF583E022507D
:1008400006E92582F8E622BBFE06E92582F8E222C7
:0D085000E58229F582E5833AF583E49322E1
:10085D00BB010689828A83F0225002F722BBFE017A
:02086D00F32274
:10086F00F8BB010DE58229F582E5833AF583E8F0BF
:10087F00225006E92582C8F622BBFE05E92582C86B
:02088F00F22253
:10089100BC000BBE0029EF8DF084FFADF022E4CC4B
:1008A100F875F008EF2FFFEE33FEEC33FCEE9DEC14
:1008B100984005FCEE9DFE0FD5F0E9E4CEFD22ED5A
:1008C100F8F5F0EE8420D21CFEADF075F008EF2FA4
:1008D100FFED33FD4007985006D5F0F222C398FD95
:0508E1000FD5F0EA2232
:1008E600C5F0F8A3E028F0C5F0F8E582158270029D
:0608F6001583E038F0223A
:1008FC00A3F8E0C5F025F0F0E582158270021583AF
:06090C00E0C838F0E8220B
:10091200BB0110E58229F582E5833AF583E0F5F023
:10092200A3E0225009E92582F886F008E622BBFE00
:100932000AE92582F8E2F5F008E222E5832AF58346
:08094200E993F5F0A3E993220B
:101D5A00900D67EBF0A3EAF0A3E9F0900D6DEBF0BC
:101D6A00A3EAF0A3E9F0900D67E0FBA3E475F001A4
:101D7A001208FCA9F0FA12081770EB900D6874FFAC
:101D8A00F5F01208E6900D6AE0FBA3E475F0011283
:101D9A0008FCA9F0FA120817FF900D67E0FBA3E40C
:101DAA0075F0011208FCA9F0FAEF12085D70D690DE
:0B1DBA000D6DE0FBA3E0FAA3E0F922AE
:10226B00E4FFFE120817600C0FEF70010E09E97006
:05227B00F20A80EF22D1
:101A0300900D73EBF0A3EAF0A3E9F0A3E0FBA3E0EE
:101A1300FAA3E0F91208177003021AAF900D73E0EE
:101A2300FBA3E0FAA3E0F91208177003021ABB90B4
:101A33000D76E0F9A3E0FAA3E0A3C9F0A3EAF0A3CB
:101A4300E9F0900D73A3E0FAA3E0F9900D7CEBF0BD
:101A5300A3EAF0A3E9F0900D79E0FBA3E0FAA3E099
:101A6300F9120817FF6026900D7CE0FBA3E0FAA3B0
:101A7300E0F91208176F7015900D7A75F0011208CE
:101A8300E6900D7DE475F0011208E680C9900D79AA
:101A9300E0FBA3E0FAA3E0F91208177002800D90AF
:101AA3000D74E475F0011208E6021A1F900D73E03D
:0F1AB300FBA3E0FAA3E0F9227B007A007900227E
:10094A00EF4E6012EF60010EEDBB010B89828A83C4
:10095A00F0A3DFFCDEFA2289F05007F709DFFCA9D1
:0C096A00F022BBFEFCF309DFFCA9F02228
:101B6D00021F77E493A3F8E493A34003F68001F2F8
:101B7D0008DFF48029E493A3F85407240CC8C33379
:101B8D00C4540F4420C8834004F456800146F6DF48
:101B9D00E4800B0102040810204080901F2EE47E8B
:101BAD00019360BCA3FF543F30E509541FFEE4933D
:101BBD00A360010ECF54C025E060A840B8E493A304
:101BCD00FAE493A3F8E493A3C8C582C8CAC583CA2F
:101BDD00F0A3C8C582C8CAC583CADFE9DEE780BEE7
:011F7600006A
:00000001FF
