:10002600C2AF12488C43AF01124755E4F5B8F5B597
:0B00360043B501124910D2AF0238EFB1
:1049D800AD071FED600B0000007E1A1EEE60F1802F
:0149E800FAD4
:0149E90022AB
:0F49EA007DA57C06ED1D70011C144C70F7DFF1EC
:0149F900229B
:02495A00AB07A9
:10495C00AF031BEF60107E04EED3940040F27FFA9D
:06496C001249EA1E80F270
:014972002222
:070003002A2A2A000D0A0061
:0442A500AB07AA06B3
:1042A9007C277D101213A8EF2430900E2CF07C2768
:1042B9007D10AF03AE021213A87E037FE8CFCDCFE6
:1042C900CECCCE1213A8EF2430A3F07C037DE8AF47
:1042D90003AE021213A87E007F64CFCDCFCECCCE21
:1042E9001213A8EF2430A3F07C007D64AF03AE0263
:1042F9001213A87E007F0ACFCDCFCECCCE1213A841
:10430900EF2430A3F0AE02AF037C007D0A1213A89C
:10431900ED2430A3F0E4A3F07B017A0E792C024955
:01432900C5CE
:1048E500900E2AEBF0A3EAF0A3E9F07BFF7A0079BA
:1048F500031249C5900E2AE0FBA3E0FAA3E0F912E2
:0B49050049C57BFF7A0079070249C515
:102CB0004448543131207472756520200D0A004457
:102CC000485431312066616C736520200D0A005430
:102CD000454D500048554D490053574954434831DC
:102CE0003D4F4E00535749544348313D4F464600EF
:102CF000535749544348323D4F4E0053574954436C
:102D000048323D4F464600535749544348333D4FA0
:102D10004E00535749544348333D4F46460053579E
:102D200049544348343D4F4E005357495443483467
:102D30003D4F4646004C49474854004F4E006C6991
:102D400067687431206F6E210D0A004F4646006C93
:102D50006967687431206F6666210D0A00494E4329
:102D6000006C696768743120696E63210D0A004444
:102D70004543006C696768743120646563210D0AFE
:102D8000006C696768743220696E63210D0A006CFB
:102D9000696768743220646563210D0A006C696795
:102DA000687420696E76616C696420636F6D6D6113
:102DB0006E643232320D0A00696E76616C6964208D
:102DC000636F6D6D616E643131310D0A0053574987
:102DD00054434800535749544348313D4F4E2C000B
:102DE000535749544348313D4F46462C00535749A9
:102DF000544348323D4F4E2C0053574954434832B8
:102E00003D4F46462C00535749544348333D4F4E9F
:102E10002C00535749544348333D4F46462C0053EA
:102E20005749544348343D4F4E2C0053574954435F
:082E300048343D4F46462C00DA
:10000E00D2C87F011249D8C2C87F121249EAD2C89B
:05001E007F040249D837
:1047F400E4900DECF0900DEBF030C8FD7F0212490F
:10480400D8900DECE025E0F030C803E004F020C8B7
:10481400FD900DEBE004F0E0C3940840DC900DEC57
:02482400E0FFB3
:01482600226F
:0B37F200900DDFEBF0A3EAF0A3E9F07C
:1037FD00E4A3F0A3F0A3F0A3F0A3F012000E30C8E1
:10380D000302389A30C8FDC2AF7F081249D812475B
:10381D00F4900DE2EFF01247F4900DE3EFF0124744
:10382D00F4900DE4EFF01247F4900DE5EFF0124730
:10383D00F4900DE6EFF0D2AF900DE3E0FD900DE2C8
:10384D00E02DFDE433FC900DE4E07A002DFDEA3C23
:10385D00FCA3E02DFDEA3CFC7E00EDB5070CEEB5BA
:10386D0004087BFF7A2C79B080067BFF7A2C79BF18
:10387D001249C5900DE4E0FF900DE7E4F0A3EFF0E1
:10388D00900DE2E0FF900DE9E4F0A3EFF0900E2D26
:10389D0074FFF0A3742CF0A374CFF0900DDFE0FB58
:1038AD00A3E0FAA3E0F9123E1CEA494B6005900D26
:1038BD00E78024900E2D74FFF0A3742CF0A374D424
:1038CD00F0900DDFE0FBA3E0FAA3E0F9123E1CEA55
:1038DD00494B6009900DE9E0FEA3E0FF227EFF7FDA
:0138ED00FFDB
:0138EE0022B7
:0B310C00900DDFEBF0A3EAF0A3E9F068
:10311700A3EBF0A3EAF0A3E9F0900E2D74FFF0A360
:10312700742CF0A374D9F0900DDFE0FBA3E0FAA3B1
:10313700E0F9123E1CEA494B60097D047F051247FE
:103147008B8028900E2D74FFF0A3742CF0A374E4E9
:10315700F0900DDFE0FBA3E0FAA3E0F9123E1CEAD2
:10316700494B60077D047F051246AB900E2D74FF17
:10317700F0A3742CF0A374F0F0900DDFE0FBA3E054
:10318700FAA3E0F9123E1CEA494B60097D10E4FFFF
:1031970012478B8028900E2D74FFF0A3742CF0A398
:1031A70074FBF0900DDFE0FBA3E0FAA3E0F9123E19
:1031B7001CEA494B60077D10E4FF1246AB900E2DC9
:1031C70074FFF0A3742DF0A37407F0900DDFE0FBFC
:1031D700A3E0FAA3E0F9123E1CEA494B60097D021D
:1031E700E4FF12478B8028900E2D74FFF0A3742DF7
:1031F700F0A37412F0900DDFE0FBA3E0FAA3E0F96F
:10320700123E1CEA494B60077D02E4FF1246AB9071
:103217000E2D74FFF0A3742DF0A3741EF0900DDF34
:10322700E0FBA3E0FAA3E0F9123E1CEA494B600970
:103237007D01E4FF12478B8028900E2D74FFF0A3C9
:10324700742DF0A37429F0900DDFE0FBA3E0FAA33F
:10325700E0F9123E1CEA494B60077D01E4FF124684
:03326700AB7F0139
:01326A002241
:10471F00900DE2EFF0BF0210900E9A74A0F0C374E8
:10472F00FF94A0FDE4FF8015900DE2E0B407149014
:10473F000E9B74A0F0C374FF94A0FD7F0112497308
:06474F007F01227F002221
:1047C000900DE2EFF0BF020FE4900E9AF0C374FF79
:1047D0009400FDE4FF8014900DE2E0B40713E49030
:1047E0000E9BF0C374FF9400FD7F011249737F019B
:0447F000227F002202
:10439500900DE2EFF064027028900E9AE0FFC3746E
:1043A500FF9FC39428500574FFF08007900E9AE094
:1043B5002428F0900E9AE0FFC374FF9FFDE4FF8070
:1043C5002E900DE2E06407702C900E9BE0FFC37405
:1043D500FF9FC39428500574FFF08007900E9BE063
:1043E5002428F0900E9BE0FFC374FF9FFD7F011210
:0843F50049737F01227F0022C1
:10458E00900DE2EFF064027022900E9AE0C3942830
:10459E005004E4F08007900E9AE024D8F0900E9A22
:1045AE00E0FFC374FF9FFDE4FF8028900DE2E064FE
:1045BE00077026900E9BE0C394285004E4F0800709
:1045CE00900E9BE024D8F0900E9BE0FFC374FF9FEB
:0C45DE00FD7F011249737F01227F002243
:10295500900DDFEBF0A3EAF0A3E9F0900E2D74FFE4
:10296500F0A3742DF0A37435F0900DDFE0FBA3E028
:10297500FAA3E0F9123E1CEA494B7003022B0590BD
:10298500000612134724CE7003022A440460030292
:102995002AFD900E2D74FFF0A3742DF0A3743BF067
:1029A500900DDFE0FBA3E0FAA3E0F9123E1CEA4933
:1029B5004B60057F02022A67900E2D74FFF0A37409
:1029C5002DF0A3744BF0900DDFE0FBA3E0FAA3E03C
:1029D500F9123E1CEA494B60057F02022A96900EC9
:1029E5002D74FFF0A3742DF0A3745DF0900DDFE05E
:1029F500FBA3E0FAA3E0F9123E1CEA494B600E7F07
:102A0500021243957BFF7A2D7961022B0B900E2DD7
:102A150074FFF0A3742DF0A3746FF0900DDFE0FB4D
:102A2500A3E0FAA3E0F9123E1CEA494B7003022B1E
:102A35000E7F0212458E7BFF7A2D7973022B0B9048
:102A45000E2D74FFF0A3742DF0A3743BF0900DDFF1
:102A5500E0FBA3E0FAA3E0F9123E1CEA494B600E45
:102A65007F0712471F7BFF7A2D793E022B0B900EB5
:102A75002D74FFF0A3742DF0A3744BF0900DDFE0DF
:102A8500FBA3E0FAA3E0F9123E1CEA494B600D7F77
:102A9500071247C07BFF7A2D794F806A900E2D74FF
:102AA500FFF0A3742DF0A3745DF0900DDFE0FBA3A0
:102AB500E0FAA3E0F9123E1CEA494B600D7F0712CC
:102AC50043957BFF7A2D7981803C900E2D74FFF024
:102AD500A3742DF0A3746FF0900DDFE0FBA3E0FA73
:102AE500A3E0F9123E1CEA494B601E7F0712458E92
:102AF5007BFF7A2D798F800E7BFF7A2D799D80065D
:0B2B05007BFF7A2D79B81249C57F01D3
:012B100022A2
:1038EF00900C8D7403F0A304F07B017A0C798D7F1B
:1038FF0005122791900C8E7413F07B017A0C798D41
:10390F00E4FF122791900C917403F0A37420F07BC5
:10391F00017A0C798D7F05122791E4900C8FF0A31B
:10392F0004F0FB7A0C798F7F05122791900C8B7422
:10393F0003F0A37480F07B017A0C798B7F0312273D
:10394F0091900C8C7480F07B017A0C798B7F011233
:10395F002791E4900C93F0A3F0A37442F0E4A3F04A
:10396F00A3F0A304F0E4A3F0A3F07B017A0C799306
:10397F007F03122B117B017A0C79937F02122B118B
:10398F007B017A0C79937F07122B117D047F05122F
:10399F0046AB7D10E4FF1246AB7D02E4FF1246AB4F
:1039AF007D01E4FF1246AB7D207F051246AB7F02FF
:1039BF001247C07F071247C07D807F031246AB7D41
:0D39CF00807F011246ABE4900E9AF0A3F049
:0139DC0022C8
:0B39DD00900DD9EBF0A3EAF0A3E9F095
:1039E800900E2D74FFF0A3742DF0A374CDF0123E49
:1039F8001C900DDCEBF0A3EAF0A3E9F04A4B60174A
:103A0800900DDCE0FBA3E0FAA3E0F912310CEF60C3
:103A1800037F01227F0022900E2D74FFF0A3742DE6
:103A2800F0A37435F0900DD9E0FBA3E0FAA3E0F918
:103A3800123E1C900DDCEBF0A3EAF0A3E9F04A4B30
:103A48006010900DDCE0FBA3E0FAA3E0F912295521
:103A58008066900E2D74FFF0A3742CF0A374CFF041
:103A6800900DD9E0FBA3E0FAA3E0F9123E1C900DFB
:103A7800DCEBF0A3EAF0A3E9F04A4B6002802B905C
:103A88000E2D74FFF0A3742CF0A374D4F0900DD90C
:103A9800E0FBA3E0FAA3E0F9123E1C900DDCEBF08A
:103AA800A3EAF0A3E9F04A4B600E900DDCE0FBA31B
:0A3AB800E0FAA3E0F91237F27F01F3
:013AC20022E1
:103C8000900DD4EBF0A3EAF0A3E9F07D047F0512D8
:103C90004465EF900E1E600C74FFF0A3742DF0A32A
:103CA00074D4800A74FFF0A3742DF0A374E0F09034
:103CB0000DD4E0FBA3E0FAA3E0F912432A7D10E45F
:103CC000FF124465EF900E1E600C74FFF0A3742D7C
:103CD000F0A374ED800A74FFF0A3742DF0A374F9BF
:103CE000F0900DD4E0FBA3E0FAA3E0F912432A7DA3
:103CF00002E4FF124465EF900E1E600C74FFF0A307
:103D0000742EF0A37406800A74FFF0A3742EF0A33F
:103D10007412F0900DD4E0FBA3E0FAA3E0F9124393
:103D20002A7D01E4FF124465EF900E1E600C74FFC3
:103D3000F0A3742EF0A3741F800A74FFF0A3742EF6
:103D4000F0A3742BF0900DD4E0FBA3E0FAA3E0F90C
:063D500012432A7F01224C
:10004600474554202F6131312F0020485454502FFA
:10005600312E310D0A486F73743A206C6F63616CF0
:10006600686F73743A353030300D0A436F6E6E65C3
:100076006374696F6E3A206B6565702D616C697685
:10008600650D0A0D0A00485454502F312E30203287
:100096003030204F4B0D0A436F6E74656E742D54CD
:1000A6007970653A20746578742F68746D6C3B209E
:1000B600636861727365743D7574662D380D0A4305
:1000C6006F6E74656E742D4C656E6774683A2000A9
:1000D6003C21444F43545950452068746D6C3E0D85
:1000E6000A3C68746D6C206C616E673D22656E22F9
:1000F6003E0D0A3C686561643E0D0A202020203CC6
:100106006D65746120636861727365743D22676210
:1001160032333132223E0D0A202020203C7469748D
:100126006C653E47656E697573204149204C616276
:100136003C2F7469746C653E0D0A202020203C73A8
:1001460074796C653E0D0A2020202020202020682E
:10015600317B666F6E742D73697A653A3630302559
:100166003B746578742D616C69676E3A63656E746D
:1001760065727D0D0A202020202020202020617B12
:10018600666F6E742D73697A653A20333030253B7D
:100196006D617267696E3A20313230707820307046
:1001A600782030707820343070787D0D0A20202039
:1001B600202020207370616E7B666F6E742D7369CC
:1001C6007A653A333030253B6D617267696E2D6C06
:1001D6006566743A343070787D0D0A202020202020
:1001E600202020627574746F6E7B747970653A6234
:1001F6007574746F6E3B6D617267696E2D6C6566A2
:10020600743A343070783B77696474683A313230C6
:1002160070783B6865696768743A31323070783B4C
:10022600626F726465722D7261646975733A3630F5
:1002360070783B70616464696E673A323070787DBD
:100246000D0A20202020202020202E7373317B626F
:1002560061636B67726F756E643A2366663939350A
:10026600337D0D0A20202020202020202E7373327B
:100276007B6261636B67726F756E643A6461726B01
:10028600677261797D0D0A20202020202020202EF3
:100296007373337B6261636B67726F756E643A204A
:1002A600236666653061307D0D0A202020202020DF
:1002B60020202E7373347B6261636B67726F756E79
:1002C600643A20236436643664367D0D0A20202085
:1002D60020202020202E7373357B626F7264657236
:1002E6002D7261646975733A323070783B6865695E
:1002F6006768743A363070787D0D0A202020203CDD
:100306002F7374796C653E0D0A202020203C7363A0
:10031600726970743E0D0A2020202020202020665D
:10032600756E6374696F6E206A702861290D0A20E4
:10033600202020202020207B77696E646F772E6C2A
:100346006F636174696F6E2E687265663D222F3F1A
:10035600222B617D0D0A202020203C2F73637269B9
:1003660070743E0D0A3C2F686561643E0D0A3C625E
:100376006F64793E0D0A202020203C646976207344
:1003860074796C653D2277696474683A313030302F
:100396007078223E0D0A20202020202020203C6458
:1003A6006976207374796C653D226261636B67724E
:1003B6006F756E642D636F6C6F723A736C617465E2
:1003C60067726179223E0D0A2020202020202020FD
:1003D600202020203C68313E57694669204C6F63D7
:1003E600616C20436F6E74726F6C3C2F68313E0DEA
:1003F6000A20202020202020203C2F6469763E0DF4
:100406000A20202020202020203C62723E0D0A2057
:100416002020202020202020202020202020203CBA
:100426007370616E3E535749544348313A3C2F73BB
:1004360070616E3E0D0A20202020202020202020E2
:100446002020202020203C627574746F6E20636C1F
:100456006173733D2273733122206F6E636C69631F
:100466006B3D226A702827535749544348313D4F04
:100476004E2729223E4F4E3C2F627574746F6E3E96
:100486000D0A20202020202020202020202020208F
:1004960020203C627574746F6E20636C6173733DCB
:1004A6002273733222206F6E636C69636B3D226A1E
:1004B600702827535749544348313D4F464627290C
:1004C600223E4F46463C2F627574746F6E3E0D0A8F
:1004D6002020202020202020202020202020202016
:1004E6003C62723E0D0A2020202020202020202061
:1004F6002020202020203C7370616E3E53574954C3
:100506004348323A3C2F7370616E3E0D0A2020201C
:10051600202020202020202020202020203C627522
:1005260074746F6E20636C6173733D227373312232
:10053600206F6E636C69636B3D226A702827535780
:1005460049544348323D4F4E2729223E4F4E3C2FB9
:10055600627574746F6E3E0D0A20202020202020C4
:100566002020202020202020203C627574746F6E8D
:1005760020636C6173733D2273733222206F6E6346
:100586006C69636B3D226A70282753574954434868
:10059600323D4F46462729223E4F46463C2F62753E
:1005A60074746F6E3E3C62723E0D0A20202020203D
:1005B60020202020202020202020203C7370616EE7
:1005C6003E535749544348333A3C2F7370616E3E4D
:1005D6000D0A20202020202020202020202020203E
:1005E60020203C627574746F6E20636C6173733D7A
:1005F6002273733122206F6E636C69636B3D226ACE
:10060600702827535749544348333D4F4E272922D4
:100616003E4F4E3C2F627574746F6E3E0D0A20205D
:1006260020202020202020202020202020203C6266
:100636007574746F6E20636C6173733D22737332CD
:1006460022206F6E636C69636B3D226A70282753A4
:100656005749544348333D4F46462729223E4F4685
:10066600463C2F627574746F6E3E3C62723E0D0A94
:100676002020202020202020202020202020202074
:100686003C7370616E3E535749544348343A3C2F8D
:100696007370616E3E0D0A2020202020202020202D
:1006A600202020202020203C627574746F6E206309
:1006B6006C6173733D2273733122206F6E636C69B4
:1006C600636B3D226A702827535749544348343D8B
:1006D6004F4E2729223E4F4E3C2F627574746F6E23
:1006E6003E0D0A202020202020202020202020200F
:1006F6002020203C627574746F6E20636C61737386
:100706003D2273733222206F6E636C69636B3D22E8
:100716006A702827535749544348343D4F46462765
:1007260029223E4F46463C2F627574746F6E3E0D0D
:100736000A20202020202020203C62723E3C687245
:100746003E0D0A20202020202020203C61206872B7
:1007560065663D222F636F6E666967223E414920BA
:1007660052656D6F746520436F6E74726F6C3C2FAB
:10077600613E0D0A202020203C2F6469763E0D0A3A
:100786003C2F626F64793E0D0A3C2F68746D6C3E97
:10079600003C21444F43545950452068746D6C3ECB
:1007A6000D0A3C68746D6C206C616E673D22656E47
:1007B600223E0D0A3C686561643E0D0A2020202019
:1007C6003C6D65746120636861727365743D225582
:1007D60054462D38223E0D0A202020203C74697490
:1007E6006C653E47656E697573204149204C6162B0
:1007F6003C2F7469746C653E0D0A202020203C73E2
:1008060074796C653E0D0A20202020202020206867
:10081600317B6261636B67726F756E642D636F6C9B
:100826006F723A2064656570736B79626C75653BAF
:100836006D617267696E3A20323070783B666F6E12
:10084600742D73697A653A20363470783B7465780E
:10085600742D616C69676E3A2063656E7465723BD0
:100866007D0D0A20202020202020206832207B6D4C
:10087600617267696E3A2031307078203430707852
:100886003B666F6E742D73697A653A2035347078DD
:100896003B7D0D0A2020202020202020626F6479D5
:1008A6007B77696474683A38303070783B7D0D0A1E
:1008B60020202020202020202E6D61696E2D66725A
:1008C600616D657B666C6F61743A206C6566743B1E
:1008D6006261636B67726F756E642D636F6C6F72A6
:1008E6003A206C69676874626C75653B666C6F610B
:1008F600743A206C6566743B626F726465723A2066
:10090600736F6C69642032707820626C61636B3B34
:100916007D0D0A20202020202020202E7375622D98
:100926006672616D657B666C6F61743A206C656694
:10093600743B626F726465723A20736F6C696420EF
:1009460031707820677261793B7D0D0A2020202066
:10095600202020202E7468642D6672616D657B6D83
:10096600617267696E3A20313070783B666C6F61F0
:10097600743A206C6566743B626F726465723A20E5
:100986006461736865642031707820677261793BB1
:100996007D0D0A20202020202020202E666F726DDB
:1009A6002D6C696E657B6D617267696E3A203130B8
:1009B60070783B666C6F61743A206C6566743B6850
:1009C60065696768743A20383070783B7D0D0A2077
:1009D600202020202020202E666F726D2D6C696EDF
:1009E600653E707B6D617267696E3A203070782063
:1009F600343070783B666C6F61743A206C6566744F
:100A06003B666F6E742D73697A653A203438707858
:100A16003B77696474683A2032303070783B6C6991
:100A26006E652D6865696768743A20383070783B62
:100A3600746578742D616C69676E3A2072696768AF
:100A4600743B7D0D0A20202020202020202E666F5A
:100A5600726D2D6C696E653E6469762C2E666F72BA
:100A66006D2D6C696E653E696E7075747B666C6F14
:100A760061743A2072696768743B77696474683A8E
:100A86002034303070783B6865696768743A20377F
:100A96003670783B626F726465723A20736F6C6968
:100AA600643B666F6E742D73697A653A20343870CC
:100AB600783B7D0D0A202020203C2F7374796C65CD
:100AC6003E0D0A3C2F686561643E0D0A3C626F6408
:100AD600793E0D0A202020203C64697620636C61F3
:100AE60073733D226D61696E2D6672616D65223E7E
:100AF6000D0A20202020202020203C68313E413154
:100B06003120426F61726420436F6E6669673C2FC5
:100B160068313E0D0A20202020202020203C6469D8
:100B26007620636C6173733D227375622D66726104
:100B36006D65223E0D0A2020202020202020202026
:100B460020203C666F726D20616374696F6E3D2272
:100B56002F726573223E0D0A20202020202020209F
:100B660020202020202020203C64697620636C61B0
:100B760073733D227468642D6672616D65223E0D45
:100B86000A20202020202020202020202020202075
:100B960020202020203C68323E576946693C2F6859
:100BA600323E0D0A20202020202020202020202038
:100BB60020202020202020203C64697620636C6160
:100BC60073733D22666F726D2D6C696E65223E3CB5
:100BD600703E535349443C2F703E3C696E707574A9
:100BE60020747970653D227465787422206E616D7B
:100BF600653D2273736964223E3C2F6469763E0D1F
:100C06000A202020202020202020202020202020F4
:100C160020202020203C64697620636C6173733D3C
:100C260022666F726D2D6C696E65223E3C703E5079
:100C3600617373776F72643C2F703E3C696E70759A
:100C46007420747970653D227465787422206E6113
:100C56006D653D22707764223E3C2F6469763E0DB9
:100C66000A20202020202020202020202020202094
:100C7600203C2F6469763E0D0A202020202020206B
:100C86002020202020202020203C64697620636CD0
:100C96006173733D227468642D6672616D65223ED0
:100CA6000D0A202020202020202020202020202067
:100CB6002020202020203C68323E536572766572E3
:100CC6003C2F68323E0D0A202020202020202020A4
:100CD60020202020202020202020203C646976200F
:100CE600636C6173733D22666F726D2D6C696E6500
:100CF600223E3C703E49503C2F703E3C696E7075FA
:100D06007420706C616365686F6C6465723D223136
:100D160031392E332E3233332E3536222074797004
:100D2600653D227465787422206E616D653D226989
:100D360070223E3C2F6469763E0D0A20202020203A
:100D46002020202020202020202020202020203C81
:100D560064697620636C6173733D22666F726D2DD4
:100D66006C696E65223E3C703E506F72743C2F700B
:100D76003E3C696E70757420706C616365686F6C5B
:100D86006465723D22353030302220747970653DBD
:100D9600227465787422206E616D653D22706F72D3
:100DA60074223E3C2F6469763E0D0A2020202020C6
:100DB60020202020202020202020203C2F6469761F
:100DC6003E0D0A2020202020202020202020202028
:100DD6002020203C64697620636C6173733D227425
:100DE60068642D6672616D65223E0D0A2020202002
:100DF60020202020202020202020202020202020ED
:100E06003C68323E557365723C2F68323E0D0A20AF
:100E160020202020202020202020202020202020CC
:100E26002020203C64697620636C6173733D2266E2
:100E36006F726D2D6C696E65223E3C703E55736512
:100E4600723C2F703E3C696E7075742074797065C3
:100E56003D227465787422206E616D653D2275733E
:100E66006572223E3C2F6469763E0D0A20202020C2
:100E7600202020202020202020202020202020206C
:100E86003C64697620636C6173733D22666F726D94
:100E96002D6C696E65223E3C703E50617373776FB0
:100EA60072643C2F703E3C696E7075742074797064
:100EB600653D227465787422206E616D653D2275EC
:100EC600707764223E3C2F6469763E0D0A2020200E
:100ED600202020202020202020202020203C2F649D
:100EE60069763E0D0A202020202020202020202068
:100EF60020202020203C696E707574207374796CF4
:100F0600653D22666C6F61743A72696768743B6D01
:100F1600617267696E3A20313070782034307078AB
:100F26003B77696474683A2033303070783B686583
:100F3600696768743A20363670783B666F6E742D32
:100F460073697A653A20343870783B626F726465EB
:100F5600722D7261646975733A2031367078222079
:100F6600747970653D227375626D697422207661AD
:100F76006C75653D2253657420426F617264223E32
:100F86000D0A2020202020202020202020203C2F59
:100F9600666F726D3E0D0A20202020202020203C06
:100FA6002F6469763E0D0A202020203C2F64697646
:100FB6003E0D0A3C2F626F64793E0D0A3C2F687421
:0D0FC6006D6C3E00C9E8B6A8B3C9B9A6001D
:103D56003139322E3136382E312E31303800232388
:103D6600232323232323232323232323232323231D
:103D76002323232323230D0A0073736964007077BA
:103D86006400706F72740075736572007570776485
:103D9600004040404040404040404040404040009D
:103DA6004F4B00776966692073657276657220727B
:103DB600657365740D0A00776966692073657420FA
:103DC600736572766572207375636573730D0A0089
:103DD6007769666920636C69656E742072657365C0
:103DE600740D0A00776966692073657420436C69EF
:103DF600656E74207375636573730D0A0054696D7F
:103E0600653A007469636B7320696E7465727661D6
:063E16006C3A000D0A00E9
:10485A00900C8BEBF0A3EAF0A3E9F0900C8BE0FB51
:10486A00A3E0FAA3E0F9E4121374900C8BE0FBA323
:10487A00E0FAA3E0F8AC02AD037BFF7A3D79560279
:02488A00153BDC
:10203C00120026900E9C7401F0A3F0900E95E0FF18
:10204C00A3E0900B40CFF0A3EFF0900E9CE024FEA9
:10205C00700302227414700302228C2402600302A7
:10206C0022BB7B017A0B79C3900D64E4F0A374C896
:10207C00F0E4FFFE12462DE4900C8AF07BFF7A3DD3
:10208C0079641249C57B017A0B79C31248E5E49057
:10209C000B42F0900B62F0900B82F0900B92F09050
:1020AC000B98F0900BACF0900DDC74FFF0A3743D2A
:1020BC00F0A3747FF0A37401F0A3740BF0A374422B
:1020CC00F07B017A0B79C31236F4900DDC74FFF0BF
:1020DC00A3743DF0A37484F0A37401F0A3740BF00B
:1020EC00A37462F07B017A0B79C31236F47B017A0C
:1020FC000B798212485A900DDC74FFF0A3743DF0FA
:10210C00A37488F0A37401F0A3740BF0A37492F081
:10211C007B017A0B79C31236F4900DDC74FFF0A3BB
:10212C00743DF0A3748DF0A37401F0A3740BF0A3B1
:10213C007498F07B017A0B79C31236F4900DDC7431
:10214C00FFF0A3743DF0A37492F0A37401F0A37498
:10215C000BF0A374ACF07B017A0B79C31236F490BC
:10216C000DDC7401F0A3740BF0A37462F0A3740182
:10217C00F0A3740BF0A37482F0A37401F0A3740B9E
:10218C00F0A37492F0A37401F0A3740BF0A37498F1
:10219C00F0A37401F0A3740BF0A374ACF07B017A80
:1021AC000B7942124184900BC0EBF0A3EAF0A3E947
:1021BC00F07BFF7A3D79971249C5900BC0E0FBA3E9
:1021CC00E0FAA3E0F91248E5900E2D74FFF0A37429
:1021DC003DF0A374A6F0900BC0E0FBA3E0FAA3E0E3
:1021EC00F9123E1CEA494B70327E077F08FD7B01D9
:1021FC007A0079281215587BFF7A3D79A91249C5C6
:10220C001248B9123BA8EF60EE7BFF7A3D79BD1204
:10221C0049C5900E9C7402F00222BB7E077F087D9C
:10222C00007B017A0079281215587BFF7A3D79D60C
:10223C001249C51248B9900C8E7401F0A3740BF0BE
:10224C00A37462F07B017A0B7942123392EF60DA5D
:10225C007BFF7A3D79EA1249C5900E9C7403F0E439
:10226C00900E8DF0A3F080477F327E00123EDBEFA4
:10227C00603D7B017A0079281249C5121D37802FE9
:10228C00900C8E7401F0A3740BF0A37492F0A374F1
:10229C0001F0A3740BF0A37498F0A37401F0A37471
:1022AC000BF0A374ACF07B017A0B7982122FAB7B11
:1022BC00FF7A3E79031249C51246E67BFF7A3E79D6
:1022CC00091249C5900B40E0FEA3E0FFC3900E96A7
:1022DC00E09FFF900E95E09EFE1242A57BFF7A3E9A
:1022EC0079191249C57FFA1249EA7FFA1249EA02B2
:0222FC00204779
:054A08003A000D0A0058
:1046E600900E98E0FF7E001242A57BFF7A4A790879
:1046F6001249C5900E97E0FF7E001242A57BFF7A15
:104706004A79081249C5900E94E0FF7E001242A530
:094716007BFF7A4A790A0249C5C9
:10491000538E7F5389F0E4F58A758CB8C28DD28CA2
:10492000D2A9900E997464F0E4900E94F0900E97D2
:0A493000F0A3F0900E95F0A3F02222
:03000B0002403F71
:10403F00C0E0C083C082C0D075D008C2AF900E96CA
:10404F00E004F07006900E95E004F0900E99E0D326
:10405F0094004005E014F08025900E997464F09060
:10406F000E94E004F0E0C3943C4013E4F0900E97FC
:10407F00E004F0E0943C4006E4F0A3E004F090008C
:10408F0016E06047D3900015E09400900014E09480
:10409F00004038A3E024FFF0900014E034FFF0E07C
:1040AF007002A3E07025900016F0900012E0FEA3BE
:1040BF00E0FFD39400EE9400401174282FF5827422
:1040CF00003EF583E4F090001704F0D2AFD0D0D0CB
:0640DF0082D083D0E03224
:1022FE002600576946692073736964206973204507
:10230E006D70747921005769466920706173737717
:10231E006F7264206973206C657373207468616ECC
:10232E002038206279746573210053657276657268
:10233E0020697020697320656D7074792100536572
:10234E007276657220706F727420697320656D707D
:10235E00747921005573657220697320656D7074F0
:10236E00792100557365722070617373776F726493
:10237E0020697320656D7074792100436F6E6669F4
:10238E0067204F4B0048545450002B4950442C00AA
:10239E00474554202F2000474554202F3F004465C9
:1023AE00766963657320636F6E74726F6C2046611D
:1023BE00696C2021212100474554202F636F6E66E2
:1023CE00696700474554202F726573007373696403
:1023DE000070776400697000706F727400757365B9
:1023EE00720075707764004F4B002424242424243B
:1023FE00242424242424242424242424242424248F
:10240E00242400627265676973743F007573657288
:10241E003D00267077643D00627265676973743D96
:10242E006F6B00626C6F67696E3F00267374617428
:10243E0075733D00626C6F67696E3D6F6B0053651F
:10244E007276657220726573706F6E736520746933
:10245E006D656F7574210D0A002A2A2A2A2A2A2AE6
:10246E002A2A2A2A2A2A2A0D0A00636F6E6E6563AB
:10247E0074206661696C0D0A007374617475733F24
:10248E0000646576206765740D0A00726571756566
:10249E007374206661696C0D0A007761697420722D
:1024AE00656376007374617475733D6F6B0072654E
:1024BE0063762063746C0D0A007265637620776113
:1024CE007374650D0A00726563762074696D656FAD
:1024DE0075742D2D2D2D2D2D2D2D2D2D2D2D2D3E7E
:1024EE003E3E3E3E3E3E3E0D0A0023232323232343
:1024FE002323232352656C6F67696E436F756E7469
:10250E0065723A000D0A004F4B094572724D7367A2
:10251E000954696D656F75740925092509250D0A1C
:10252E00000900250900250D0A00486561727442F4
:10253E006561745F436F6E6E6563744661696C436B
:10254E006F756E7465723A00094865617274426502
:10255E0061745F53656E644661696C436F756E742A
:10256E0065723A004040404040404040404040404C
:04257E004040400099
:1043FD00900DD9EEF0A3EFF0A3EBF0A3EAF0A3E953
:10440D00F0900DDBE0FBA3E0FAA3E0F9124989D3AC
:10441D00EF94FFEE940140037F0022900DD9E0FE52
:10442D00A3E0FF12493A900DDBE0FBA3E0FAA3E015
:10443D00F9124989EF2401FFE43E900DE3F0A3EF5B
:10444D00F0900DD9E0FEA3E0FFA3E0FBA3E0FAA3FB
:08445D00E0F912466C7F012218
:0836EC00A3F07B017A0D7909BE
:1036F400C002C001900DDCE0F9A3E0FAA3E0900E53
:103704002DC9F0A3EAF0A3E9F0D001D002123E1CC7
:10371400900DE2EBF0A3EAF0A3E9F04A4B7002FF4C
:1037240022900DDCE0FBA3E0FAA3E0F912498990B2
:103734000DE2E0FBA3E0FAA3E02FF9EA3EFAE92464
:1037440001F9E43AFAA3EBF0A3EAF0A3E9F0900E4E
:103754002D74FFF0A37422F0A374FEF0123E1C90AB
:103764000DE8EBF0A3EAF0A3E9F04A4B7002FF2264
:10377400900DDFE0F9A3E0FAA3E0900DEBC9F0A30C
:10378400EAF0A3E9F0900DE8E0FBA3E0FAA3E0F986
:10379400C003C002C001900DE5A3E0FAA3E0F9C3A1
:1037A400D082D083D0E0E99582EA9583502E900DA3
:1037B400E5E0FB12132EFF900DEBE0FBA3E0FAA370
:1037C400E0F9EF121374900DE6E475F0011213FDA5
:1037D400900DECE475F0011213FD80A9900DEBE05F
:0D37E400FBA3E0FAA3E0F9E41213747F01E7
:0137F10022B5
:10418400124989EF4E70077BFF7A23790022900D44
:10419400DCE0FBA3E0FAA3E0F9124989C3EF940839
:1041A400EE940050077BFF7A23791422900DDFE010
:1041B400FBA3E0FAA3E0F9124989EF4E70077BFFF5
:1041C4007A23793822900DE2E0FBA3E0FAA3E0F928
:1041D400124989EF4E70077BFF7A23794C22900DA8
:1041E400E5E0FBA3E0FAA3E0F9124989EF4E70077A
:1041F4007BFF7A23796222900DE8E0FBA3E0FAA327
:10420400E0F9124989EF4E7BFF70057A2379712218
:054214007A23798922E4
:101D3700900E2D74FFF0A37423F0A37493F07B012E
:101D47007A007928123E1CEA494B700302203BE4D3
:101D5700121374900D09F078097C0D7D017B017ACF
:101D670000792812153B900E2D74FFF0A37423F011
:101D7700A37498F07B017A0D7909123E1C900DD45B
:101D8700EBF0A3EAF0A3E9F04A4B700302203B9083
:101D97000DD5E475F0051213FD900DD4E0FBA3E01B
:101DA700FAA3E0F912132E900DD7F0E4A3F0900EEA
:101DB7002D74FFF0A37423F0A3749EF07B017A0DBA
:101DC7007909123E1C900DD4EBF0A3EAF0A3E9F0D9
:101DD7004A4B6010900DDC74FFF0A37400F0A374FD
:101DE700D6021E6E900E2D74FFF0A37423F0A37419
:101DF700A5F07B017A0D7909123E1C900DD4EBF00A
:101E0700A3EAF0A3E9F04A4B602A900DD4E0FBA3C4
:101E1700E0FAA3E0F91239DD900DDC74FFBF010A87
:101E2700F0A37400F0A374D68008F0A37423F0A382
:101E370074AC8033900E2D74FFF0A37423F0A37459
:101E4700C5F07B017A0D7909123E1C900DD4EBF099
:101E5700A3EAF0A3E9F04A4B6017900DDC74FFF09A
:101E6700A37407F0A37497F07B017A0D79D7021555
:101E770084900E2D74FFF0A37423F0A374D1F07B2C
:101E8700017A0D7909123E1C900DD4EBF0A3EAF00C
:101E9700A3E9F04A4B700302203B7B017A0D7909D5
:101EA70012498974082FF582E4340DF5837426F0FE
:101EB70074092FF582E4340DF583E4F0900C8BF070
:101EC700900CABF0900CCBF0900CDBF0900CE1F0A9
:101ED700900CF5F0900DDC74FFF0A37423F0A3745D
:101EE700DAF0A37401F0A3740CF0748B1236EC9043
:101EF7000DDC74FFF0A37423F0A374DFF0A3740167
:101F0700F0A3740CF074AB1236EC900DDC74FFF098
:101F1700A37423F0A374E3F0A37401F0A3740CF08B
:101F2700A374CB1236ED900DDC74FFF0A37423F08D
:101F3700A374E6F0A37401F0A3740CF0A374DB128E
:101F470036ED900DDC74FFF0A37423F0A374EBF06F
:101F5700A37401F0A3740CF0A374E11236ED900D95
:101F6700DC74FFF0A37423F0A374F0F0A37401F002
:101F7700A3740CF0A374F51236ED900DDC7401F028
:101F8700A3740CF0A374ABF0A37401F0A3740CF06A
:101F9700A374CBF0A37401F0A3740CF0A374DBF06B
:101FA700A37401F0A3740CF0A374E1F0A37401F01F
:101FB700A3740CF0A374F5F07B017A0C798B1241B2
:101FC70084900DD1EBF0A3EAF0A3E9F0900DD1E0F6
:101FD700F9A3E0FAA3E0900DDCC9F0A3EAF0A3E9C6
:101FE700F07B017A0D79D7121584900E2D74FFF0CE
:101FF700A37423F0A374F5F0900DD1E0FBA3E0FAEE
:10200700A3E0F9123E1CEA494B60297B017A0D795E
:1020170009E4FFFE1243FD7F0112495A7BFF7A2331
:1020270079F81249C57B017A0D79091248E5900EB6
:042037009C7401F0A4
:01203B002282
:1034B500C002C001900D62E0F9A3E0FAA3E0900D0F
:1034C500D7C9F0A3EAF0A3E9F0D001D002123F90EA
:1034D500EF70030235D57D207F0512478BE4900DF3
:1034E5006BF0900E1E74FFF0A37424F0A37411F01A
:1034F5007B017A0D796B12432A900E1E74FFF0A39F
:103505007424F0A3741AF07B017A0D796B12432AA7
:10351500900D65E0F9A3E0FAA3E0900E1EC9F0A3B3
:10352500EAF0A3E9F07B017A0D796B12432A900E3C
:103535001E74FFF0A37424F0A37420F07B017A0DB0
:10354500796B12432A900D68E0F9A3E0FAA3E090A5
:103555000E1EC9F0A3EAF0A3E9F07B017A0D796BA1
:1035650012432A900DD77401F0A3740DF0A3746B68
:10357500F0A374FFF0A37400F0A37450F07BFF7AFE
:1035850000794612326BEF60477FE87E03123EDB1F
:10359500EF6036900E2D74FFF0A37424F0A374260B
:1035A500F07B017A007928123E1CEA494B60157BB5
:1035B500017A0079287F007E021243FD900E9D74EA
:1035C50002F080057F0A12495A7D207F051246AB1D
:0135D50022D3
:102E3800C002C001900D62E0F9A3E0FAA3E0900D92
:102E4800D7C9F0A3EAF0A3E9F0D001D002123F906D
:102E5800EF7003022FAA7D207F0512478BE4900DA7
:102E68006BF0900E1E74FFF0A37424F0A37431F07D
:102E78007B017A0D796B12432A900E1E74FFF0A322
:102E88007424F0A3741AF07B017A0D796B12432A2B
:102E9800900D65E0F9A3E0FAA3E0900E1EC9F0A337
:102EA800EAF0A3E9F07B017A0D796B12432A900EC0
:102EB8001E74FFF0A37424F0A37420F07B017A0D34
:102EC800796B12432A900D68E0F9A3E0FAA3E09029
:102ED8000E1EC9F0A3EAF0A3E9F07B017A0D796B25
:102EE80012432A900E1E74FFF0A37424F0A37439C1
:102EF800F07B017A0D796B12432A7B017A0D796B8D
:102F0800123C80900DD77401F0A3740DF0A3746B7C
:102F1800F0A374FFF0A37400F0A37450F07BFF7A61
:102F280000794612326BEF60797FE87E03123EDB50
:102F3800EF605F900E2D74FFF0A37424F0A3744229
:102F4800F07B017A007928123E1CEA494B603C125A
:102F580039DD900E9D7403F0E4900E93F0900E8B83
:102F6800F0A3F0900E89F0A3F0900E91F0A3F090EA
:102F78000E87F0A3F0900E8FF0A3F0900E8EE00471
:102F8800F07006900E8DE004F080107F0A12495A06
:102F980080097BFF7A24794C1249C57D207F051270
:022FA80046AB36
:012FAA002204
:0B198000900D5FEBF0A3EAF0A3E9F08C
:10198B007BFF7A2479671249C5900D62E0F9A3E0D9
:10199B00FAA3E0900DD7C9F0A3EAF0A3E9F0900DFC
:1019AB005FE0FBA3E0FAA3E0F9123F90EF70461261
:1019BB0045EA7F641249EA900D62E0F9A3E0FAA3CD
:1019CB00E0900DD7C9F0A3EAF0A3E9F0900D5FE02A
:1019DB00FBA3E0FAA3E0F9123F90EF70187BFF7ABC
:1019EB002479781249C5900E88E004F07006900EA9
:1019FB0087E004F0227D207F0512478BE4900D6B6E
:101A0B00F0900E1E74FFF0A37424F0A37487F07B88
:101A1B00017A0D796B12432A900E1E74FFF0A3749A
:101A2B0024F0A3741AF07B017A0D796B12432A9080
:101A3B000D65E0F9A3E0FAA3E0900E1EC9F0A3EA4E
:101A4B00F0A3E9F07B017A0D796B12432A900E1EFD
:101A5B0074FFF0A37424F0A37420F07B017A0D794A
:101A6B006B12432A900D68E0F9A3E0FAA3E0900E05
:101A7B001EC9F0A3EAF0A3E9F07B017A0D796B1292
:101A8B00432A900E1E74FFF0A37424F0A37439F054
:101A9B007B017A0D796B12432A7B017A0D796B12DC
:101AAB003C807BFF7A24798F1249C5900DD7740146
:101ABB00F0A3740DF0A3746BF0A374FFF0A3740088
:101ACB00F0A37450F07BFF7A00794612326BEF7003
:101ADB00187BFF7A2479991249C5900E90E004F097
:101AEB007006900E8FE004F0227BFF7A2479A81207
:101AFB0049C57FB87E0B123EDBEF607A900E2D74DA
:101B0B00FFF0A37424F0A374B2F07B017A00792860
:101B1B00123E1C900DCFEBF0A3EAF0A3E9F04A4B79
:101B2B00602C7BFF7A2479BC1249C5900DCFE0FB6A
:101B3B00A3E0FAA3E0F91239DDE4900E93F0900ED6
:101B4B0092E004F07059900E91E004F080517BFF0D
:101B5B007A2479C71249C5900E93E004F0900E8A4F
:101B6B00E004F07006900E89E004F0900E93E0D341
:101B7B00940A402B80237BFF7A2479D41249C59099
:101B8B000E8CE004F07006900E8BE004F0900E9338
:101B9B00E004F0E0D3940A4006900E9D7402F07DB1
:101BAB00207F051246AB900E89E0FEA3E0FF900E5E
:101BBB0092E02FFF900E91E03EFE900E8CE02FFFF7
:101BCB00900E8BE03E900DD2F0A3EFF07BFF7A24CA
:101BDB0079F81249C5900E8DE0FEA3E0FF1242A5E5
:101BEB007BFF7A2579121249C57BFF7A257915126D
:101BFB0049C5900E91E0FEA3E0FF1242A57BFF7A50
:101C0B0025792F1249C5900E89E0FEA3E0FF124201
:101C1B00A57BFF7A25792F1249C5900E8BE0FEA389
:101C2B00E0FF1242A57BFF7A25792F1249C5900D53
:101C3B00D2E0FCA3E0FDE412117EC004C005C00697
:101C4B00C007900E91E0FCA3E0FDE412117ED003DF
:101C5B00D002D001D0001210DCE4FBFA79C8784234
:101C6B00120FD31211B71242A57BFF7A25793112CD
:101C7B0049C5900DD2E0FCA3E0FDE412117EC00437
:101C8B00C005C006C007900E89E0FCA3E0FDE4127E
:101C9B00117ED003D002D001D0001210DCE4FBFA8D
:101CAB0079C87842120FD31211B71242A57BFF7A73
:101CBB002579311249C5900DD2E0FCA3E0FDE41269
:101CCB00117EC004C005C006C007900E8BE0FCA3BC
:101CDB00E0FDE412117ED003D002D001D00012102F
:101CEB00DCE4FBFA79C87842120FD31211B7124217
:101CFB00A57BFF7A2579341249C57BFF7A25793884
:101D0B001249C5900E87E0FEA3E0FF1242A57BFFB0
:101D1B007A2579561249C5900E8FE0FEA3E0FF128B
:0B1D2B0042A57BFF7A2579121249C502
:011D3600228A
:0B2FAB00900C8BEBF0A3EAF0A3E9F020
:102FB600900E9DE024FE700302306B147003023005
:102FC600B8240260030231057B017A0C7997900DD3
:102FD60064E4F0A374C8F07F007E0212462DE490EC
:102FE6000D5EF07BFF7A2579721249C57B017A0C5A
:102FF60079971249C5900E2D74FFF0A37424F0A39F
:103006007426F07B017A0C7997123E1CEA494B70C4
:103016004D900C8EE0F9A3E0FAA3E0900D62C9F0A2
:10302600A3EAF0A3E9F0900C91E0F9A3E0FAA3E09B
:10303600900D65C9F0A3EAF0A3E9F0900C94E0F9CD
:10304600A3E0FAA3E0900D68C9F0A3EAF0A3E9F0C3
:10305600900C8BE0FBA3E0FAA3E0F90234B5900EE6
:103066009D7402F022900C8EE0F9A3E0FAA3E090A2
:103076000D62C9F0A3EAF0A3E9F0900C91E0F9A380
:10308600E0FAA3E0900D65C9F0A3EAF0A3E9F09099
:103096000C94E0F9A3E0FAA3E0900D68C9F0A3EA66
:1030A600F0A3E9F0900C8BE0FBA3E0FAA3E0F902B1
:1030B6002E38900C8EE0F9A3E0FAA3E0900D62C9D9
:1030C600F0A3EAF0A3E9F0900C91E0F9A3E0FAA3EB
:1030D600E0900D65C9F0A3EAF0A3E9F0900C94E046
:1030E600F9A3E0FAA3E0900D68C9F0A3EAF0A3E91A
:1030F600F0900C8BE0FBA3E0FAA3E0F902198090B4
:053106000E9D7401F0B4
:01310B0022A1
:1025820041542B524553544F52450D0A004F4B00B4
:1025920041542B43574D4F44453D320D0A0041549F
:1025A2002B43575341503D2241495F4C6162222CDB
:1025B2002231323334353637383930222C342C3408
:1025C2000D0A0041542B5253540D0A0041542B431F
:1025D20049504D55583D310D0A0041542B43495045
:1025E2005345525645523D312C353030300D0A009C
:1025F20041542B43494653520D0A0041542B435731
:102602004D4F44453D310D0A0041542B4349504D35
:1026120055583D300D0A0041542B43495053544103
:1026220052543D22544350222C223139322E31361B
:10263200382E312E313036222C353030300D0A0012
:1026420041542B434950434C4F53453D300D0A00F2
:1026520031002424000D0A0032006D6174636800A9
:1026620073656E642074696D656F75742121212113
:10267200212121212121212121210D0A000D0A0DD3
:102682000A002C003E200053454E44204F4B003E92
:102692003E3E0041542B43495053454E443D002297
:1026A20000222C2200220D0A00222C005E5E5E5EB9
:1026B2005E5E5E5E5E636C6F73650D0A0041542B55
:1026C20043495053454E443D0000000000000000C5
:1026D200000000000000000000000041542B4349AC
:1026E2005053454E443D0000000000000000000031
:1026F20000000000000000000041542B43574A41F3
:10270200503D00000000000000000000000000003A
:1027120000000000000000000000000000000000B7
:10272200000000000000000000000041542B43495B
:102732005053544152543D22544350222C22000003
:102742000000000000000000000000000000000087
:102752000000000000000000000000000041542BB7
:10276200434950434C4F53450D0A000000000000FE
:102772000000000000000000000000000000000057
:0F27820000000000000000000000000000000048
:1044CA00460E3CFF2582FF258F460E60FF2592FF90
:1044DA00258F460E72FF25A0FF258F460E54FF2515
:1044EA00C5FF258F460E66FF25CEFF258F460E4E49
:1044FA00FF25DCFF258F460E5AFF25F2FF258F4642
:10450A000E48FF25FDFF258F460E36FF260BFF2599
:10451A008F460E6CFF2619FF258F460E42FF264254
:03452A00FF258FDB
:0735D6003EFE7B01AD07FC86
:1035DD00900E1BEBF0A3EAF0A3E9F0A3ECF0A3ED42
:0135ED00F0ED
:1035EE00900E1EE0FEA3E0FF7C277D101213A8EFC5
:1035FE002430FF900E1BE0FBA3E0FAA3E0F9EF12DC
:10360E001374900E1EE0FEA3E0FF7C277D101213B4
:10361E00A87E037FE8CFCDCFCECCCE1213A8EF2459
:10362E0030FF900E1BE0FBA3E0FAA3E0F99000013F
:10363E00EF121386900E1EE0FEA3E0FF7C037DE8E2
:10364E001213A87E007F64CFCDCFCECCCE1213A89E
:10365E00EF2430FF900E1BE0FBA3E0FAA3E0F990FD
:10366E000002EF121386900E1EE0FEA3E0FF7C0018
:10367E007D641213A87E007F0ACFCDCFCECCCE12A2
:10368E0013A8EF2430FF900E1BE0FBA3E0FAA3E09B
:10369E00F9900003EF121386900E1EE0FEA3E0FFDA
:1036AE007C007D0A1213A8ED2430FF900E1BE0FB68
:1036BE00A3E0FAA3E0F9900004EF12138690000540
:1036CE00E412138612132EFFB43009740129F9E4A3
:0D36DE003AFA80F0EF70060429F9E43AFA98
:0136EB0022BC
:1048B900E4900C8BF0A37408F07B017A0C798B7F60
:1048C900051227917D087F051246AB7F641249EADC
:0C48D9007D087F0512478B7F0202495AC0
:103EDB00D3EF9400EE94005003023F8D7C007D32B3
:103EEB001213A8900E2AEEF0A3EFF0D3900E2BE056
:103EFB009400900E2AE094005003023F8D90001620
:103F0B007401F0E4900012F0A3F0900017F0900011
:103F1B0014F0A37405F07BFF7A2679528030D3908E
:103F2B000015E09400900014E09400402B900E9448
:103F3B00E06F60EA7BFF7A2679541249C590001432
:103F4B00E0FEA3E0FF1242A57BFF7A2679571249C8
:103F5B00C5900E94E0FF80C67BFF7A26795A1249F2
:103F6B00C5E4900016F0A3E06007900012A3E0FFF9
:103F7B0022900E2BE024FFF0900E2AE034FFF0028B
:043F8B003EF67F007F
:013F8F00220F
:103AC300900E57E0F9A3E0FAA3E0900E1EC9F0A30D
:103AD300EAF0A3E9F0A3740BF0A374B8F0900E54CA
:083AE300E0FBA3E0FAA3E0F907
:0B3AEB00900E1BEBF0A3EAF0A3E9F043
:103AF600900E21E0FEA3E0FF7C007D051213A87C5A
:103B0600007D0A1213A8900E28EEF0A3EFF0900E97
:103B16001BE0FBA3E0FAA3E0F91249B2900E28E0FD
:103B2600FFA3E0900E26CFF0A3EFF0D3900E27E090
:103B36009400900E26E09400405C7F327E00123E98
:103B4600DBEF60427B017A0079281249C5900E1E90
:103B5600E0F9A3E0FAA3E0900E2DC9F0A3EAF0A3E2
:103B6600E9F07B017A007928123E1C900E23EBF0D7
:103B7600A3EAF0A3E9F04A4B600C7BFF7A26795C56
:103B86001248E57F0122900E27E024FFF0900E26D2
:103B9600E034FFF080957BFF7A2679621249C57F73
:013BA600001E
:013BA70022FB
:0B158400900DD9EBF0A3EAF0A3E9F012
:10158F0078F57C0D7D017BFF7A2679BF7E007F1E6B
:10159F00121308900DDCE0FBA3E0FAA3E0F9124967
:1015AF0089900E16EEF0FCA3EFF0FD7B017A0D791A
:1015BF00E31235DD900E13EBF0A3EAF0A3E9F0E4AC
:1015CF00900DE9F0900E13E0F9A3E0FAA3E0900E6E
:1015DF001EC9F0A3EAF0A3E9F07B017A0D79E912B5
:1015EF00432A900E1E74FFF0A37426F0A3747FF0AD
:1015FF007B017A0D79E912432A7B017A0D79E91281
:10160F004989C006C0077BFF7A00798C124989D0BF
:10161F00E02FFFD0E07A0D79E31235D6900E13EB61
:10162F00F0A3EAF0A3E9F0900DD9E0F9A3E0FAA353
:10163F00E0900E1EC9F0A3EAF0A3E9F07B017A0D4A
:10164F0079F512432A900E1E74FFF0A37426F0A3AF
:10165F007484F07B017A0D79F512432A900E13E012
:10166F00F9A3E0FAA3E0900E1EC9F0A3EAF0A3E9F4
:10167F00F07B017A0D79F512432A900E1E74FFF05C
:10168F00A37426F0A37457F07B017A0D79F51243FA
:10169F002A900E1E74FFF0A37426F0A37486F0A395
:1016AF00740BF0A374B8F07B017A0D79F5123AEB55
:1016BF00EF7002FF227BFF7A00798C1249B27B0117
:1016CF007A0D79E91249B2900E1E74FFF0A37426B9
:1016DF00F0A37489F0A3740BF0A374B8F07B007AB5
:1016EF00007900123AEBEF7002FF227B017A0D793D
:1016FF00E37D087C071235DD900E13EBF0A3EAF0C3
:10170F00A3E9F0900DDCE0F9A3E0FAA3E0900E1846
:10171F00C9F0A3EAF0A3E9F0900E16E0FEA3E0FFF4
:10172F007C077D081213A8900DDFEEF0A3EFF0D326
:10173F00900DE0E09400900DDFE09400500302184C
:10174F008C7BFF7A2679911249C5900DDFE0FEA3BD
:10175F00E0FF1242A57BFF7A2679571249C5E49024
:10176F000DF5F0900E1E74FFF0A37426F0A3749580
:10177F00F07B017A0D79F512432A900DD9E0F9A388
:10178F00E0FAA3E0900E1EC9F0A3EAF0A3E9F07B04
:10179F00017A0D79F512432A900E1E74FFF0A3748F
:1017AF0026F0A37484F07B017A0D79F512432A9009
:1017BF000E13E0F9A3E0FAA3E0900E1EC9F0A3EA1E
:1017CF00F0A3E9F07B017A0D79F512432A900E1EF2
:1017DF0074FFF0A37426F0A37457F07B017A0D7990
:1017EF00F512432A900E1E74FFF0A37426F0A37413
:1017FF0086F0A3740BF0A374B8F07B017A0D79F522
:10180F00123AEBEF7002FF22900DE17407F0A30480
:10181F00F0900E18E0FBA3E0FAA3E0F912132EFFED
:10182F0012499E900E19E475F0011213FD900DE20E
:10183F00E024FFF0900DE1E034FFF0D3A3E094003B
:10184F00900DE1E0940050C9900E1E74FFF0A37448
:10185F0026F0A37489F0A3740BF0A374B8F07B0087
:10186F007A007900123AEBEF7002FF22900DE0E060
:10187F0024FFF0900DDFE034FFF002173E900E18BA
:10188F00E0FBA3E0FAA3E0F9124989AC06AD077BB0
:10189F00017A0D79E31235DD900E13EBF0A3EAF028
:1018AF00A3E9F0E4900DF5F0900E1E74FFF0A37411
:1018BF0026F0A37495F07B017A0D79F512432A90E7
:1018CF000DD9E0F9A3E0FAA3E0900E1EC9F0A3EA48
:1018DF00F0A3E9F07B017A0D79F512432A900E1EE1
:1018EF0074FFF0A37426F0A37484F07B017A0D7952
:1018FF00F512432A900E13E0F9A3E0FAA3E0900E3D
:10190F001EC9F0A3EAF0A3E9F07B017A0D79F51275
:10191F00432A900E1E74FFF0A37426F0A37457F0A1
:10192F007B017A0D79F512432A900E1E74FFF0A3F6
:10193F007426F0A37486F0A3740BF0A374B8F07B35
:10194F00017A0D79F5123AEBEF7002FF22900E1E1D
:10195F0074FFF0A37426F0A37489F0A3740BF0A3A3
:10196F0074B8F0900E18123AE3EF7002FF227F0165
:01197F002245
:0B326B00900DD4EBF0A3EAF0A3E9F013
:1032760078E37C0D7D017BFF7A2679DD7E007F1E5B
:10328600121308900DD7E0FBA3E0FAA3E0F9124968
:1032960089EF25E0FDEE33FCC004C005900DD4E0B7
:1032A600FBA3E0FAA3E0F9124989D0E02FFDD0E0B4
:1032B6003EFCC004C005900DDAE0FBA3E0FAA3E0F3
:1032C600F9124989D0E02FFFD0E07A0D79DD123569
:1032D600D6900E01EBF0A3EAF0A3E9F0900E01E020
:1032E600F9A3E0FAA3E0900E1EC9F0A3EAF0A3E961
:1032F600F07B017A0D79E312432A900E1E74FFF0DB
:10330600A37426F0A37457F07B017A0D79E3124378
:103316002A900E1E74FFF0A37426F0A37486F0A301
:10332600740BF0A374B8F07B017A0D79E3123AEBD3
:10333600EF7002FF22900DD4E0FBA3E0FAA3E0F9C0
:103346001249B2900DD7E0FBA3E0FAA3E0F91249C7
:10335600B2900DDAE0FBA3E0FAA3E0F91249B290CD
:103366000E1E74FFF0A37425F0A3748FF0A37427C8
:10337600F0A37410F0900DD7123AE3EF7002FF221B
:0B3386007BFF7A2679891248E57F0161
:013391002219
:103BA800900E63E0F9A3E0FAA3E0900E1EC9F0A31B
:103BB800EAF0A3E9F0A3740BF0A374B8F0900E60D8
:103BC800123AE3EF7002FF22900E75E0F9A3E0FAD3
:103BD800A3E0900E1EC9F0A3EAF0A3E9F0A3740BCA
:103BE800F0A374B8F0900E72123AE3EF7002FF225D
:103BF800123AC3EF7002FF227F0212495A900E69EF
:103C0800E0F9A3E0FAA3E0900E1EC9F0A3EAF0A33E
:103C1800E9F0A3740BF0A374B8F0900E66123AE3BF
:103C2800EF7002FF22900E51E0F9A3E0FAA3E090B2
:103C38000E1EC9F0A3EAF0A3E9F0A3740BF0A37475
:103C4800B8F0900E4E123AE3EF7002FF22900E5D2C
:103C5800E0F9A3E0FAA3E0900E1EC9F0A3EAF0A3EE
:103C6800E9F0A3740BF0A374B8F0900E5A123AE37B
:083C7800EF7002FF227F012220
:0B339200900C8BEBF0A3EAF0A3E9F035
:10339D0078917C0C7D017BFF7A2679FB7E007F3254
:1033AD00121308900E1E74FFF0A37426F0A374A1DF
:1033BD00F07B017A0C799112432A900C8BE0F9A3E2
:1033CD00E0FAA3E0900E1EC9F0A3EAF0A3E9F07BAA
:1033DD00017A0C799112432A900E1E74FFF0A3749A
:1033ED0026F0A374A3F07B017A0C799112432A90F5
:1033FD000C8EE0F9A3E0FAA3E0900E1EC9F0A3EA4B
:10340D00F0A3E9F07B017A0C799112432A900E1EFC
:10341D0074FFF0A37426F0A374A7F07B017A0C79E6
:10342D009112432A900E4BE0F9A3E0FAA3E0900E1F
:10343D001EC9F0A3EAF0A3E9F0A3740BF0A374B8CE
:10344D00F0900E48123AE3EF7002FF22123AC3EFEA
:10345D007002FF227F0212495A900E1E74FFF0A3D4
:10346D007425F0A3748FF0A3744EF0A37420F07B39
:10347D00017A0C7991123AEBEF7002FF22900E391E
:10348D00E0F9A3E0FAA3E0900E1EC9F0A3EAF0A3C1
:10349D00E9F0A3740BF0A374B8F0900E36123AE372
:0734AD00EF7002FF227F0116
:0134B40022F5
:0B3F9000900DD4EBF0A3EAF0A3E9F0E1
:103F9B0078DA7C0D7D017BFF7A27792D7E007F32CD
:103FAB00121308900DD4E0F9A3E0FAA3E0900E1ED3
:103FBB00C9F0A3EAF0A3E9F07B017A0D79DA124399
:103FCB002A900E1E74FFF0A37426F0A374ABF07B43
:103FDB00017A0D79DA12432A900DD7E0F9A3E0FAB2
:103FEB00A3E0900E1EC9F0A3EAF0A3E9F07B017ADF
:103FFB000D79DA12432A900E1E74FFF0A37426F08B
:10400B00A37457F07B017A0D79DA12432A900E1EB6
:10401B0074FFF0A37425F0A3748FF0A37427F0A39F
:10402B007410F07B017A0D79DA123AEBEF7002FF24
:03403B00227F01E0
:01403E00225F
:1045EA0078D47C0D7D017BFF7A27795F7E007F324C
:1045FA00121308900E1E74FFF0A37425F0A3748F93
:10460A00F0A37427F0A37410F07B017A0D79D41209
:10461A003AEBEF7002FF227BFF7A2679AE1249C588
:02462A007F010E
:01462C00226B
:0E49FA00E4F5C7F5C5F5C675C3FF75C4FF2209
:10462D00AD07AC06C2AF75C78175C501ECF5C3AF5B
:10463D00058FC475C65A75C6A500E5C21213740D53
:10464D00BD00010C740129F9E43AFA900D6474FF70
:0F465D00F5F01213FD45F070D31249FAD2AF22D7
:10493A00AD07AC06C2AFECF5C3AF058FC475C7812E
:10494A0075C50375C65A75C6A5001249FAD2AF22B3
:10466C00AD07AC06C2AF75C78175C502ECF5C3AF1B
:10467C00058FC412132EF5C275C65A75C6A5000D4A
:10468C00BD00010C740129F9E43AFA900DE374FFB2
:0F469C00F5F01213FD45F070D31249FAD2AF2298
:10279100EFD3940540037F012212132EFED394033D
:1027A10040037F0222EF7041EE700B900001121383
:1027B10047F45293529412132EB4010B900001125C
:1027C10013474293F4529412132EFEB4020A90005E
:1027D1000112134742934294EEB4030D900001128B
:1027E1001347FEF45293EE4294EF640170431213C7
:1027F1002EFE700B900001121347F452915292EE8B
:10280100B4010B9000011213474291F4529212133A
:102811002EB4020A90000112134742914292121300
:102821002EB4030D900001121347FEF45291EE42B3
:1028310092EF6402704312132EFE700B900001128E
:102841001347F452955296EEB4010B900001121306
:10285100474295F4529612132EB4020A90000112C7
:1028610013474295429612132EB4030D90000112A4
:102871001347FEF45295EE4296EF64037043121330
:102881002EFE700B900001121347F452B152B2EEBA
:10289100B4010B90000112134742B1F452B212136A
:1028A1002EB4020A90000112134742B142B2121330
:1028B1002EB4030D900001121347FEF452B1EE4203
:1028C100B2EF6404704312132EFE700B90000112DC
:1028D1001347F452B352B4EEB4010B90000112133A
:1028E1004742B3F452B412132EB4020A90000112FB
:1028F100134742B342B412132EB4030D90000112D8
:102901001347FEF452B3EE42B4EF64057043121361
:102911002EFF700B900001121347F452C952CAEFF7
:10292100B4010B90000112134742C9F452CA1213A9
:102931002EB4020A90000112134742C942CA12136F
:102941002EB4030D900001121347FFF452C9EF4258
:04295100CA7F002217
:10478B00EFD3940540037F0122EF7003ED4280EFDE
:10479B00B40103ED4290EFB40203ED42A0EFB4037A
:1047AB0003ED42B0EFB40403ED42C0EFB40503EDEB
:0547BB0042C87F00224E
:1046AB00EFD3940540037F0122EF7004EDF45280A9
:1046BB00EFB40104EDF45290EFB40204EDF452A008
:1046CB00EFB40304EDF452B0EFB40404EDF452C0B4
:0B46DB00EFB40504EDF452C87F00228C
:10446500EFD3940540037F0122EF700BE5805D607B
:10447500037F01227F0022EFB4010BE5905D60030D
:104485007F01227F0022EFB4020BE5A05D60037F70
:1044950001227F0022EFB4030BE5B05D60037F01CD
:1044A500227F0022EFB4040BE5C05D60037F01228B
:1044B5007F0022EFB4050BE5C85D60037F01227F15
:0544C50000227F00222F
:10497300EF70038DFA22EFB401038DFB22EFB40233
:0649830004AF058FFC22C9
:102B1100900C9BEBF0A3EAF0A3E9F0AD07EDD394A1
:102B2100034003022CAFED6403704CC2DEF5F9F5EE
:102B3100E9900C9BE0FBA3E0FAA3E0F912132EFF4E
:102B4100E5A254CF4FF5A2900001121347FFE5D93A
:102B510054F14FF5D99000041213475401FFE5D900
:102B610054FE4FF5D9900005121347B40104D2BFAA
:102B71008002C2BFD2DE22900C9BE0FBA3E0FAA34D
:102B8100E02404F9E43AFA12132E5431121374902A
:102B91000C9BE0FBA3E0FAA3E0F9900002121347BB
:102BA100C39448400FE92404F9E43AFA12132E546D
:102BB100CF121374ED704F900C9BE0FBA3E0FAA3CE
:102BC100E0F9900004121347FF900002121347FE30
:102BD1004FF5DA900003121347FFE5F2543F4FF52A
:102BE100F2900006121429FBAAF0900E7BEAF0A3E2
:102BF100EBF0C200900E78EEF0900E81EAF0A3EBBC
:102C0100F0F5EAEAF5FAED6401704F900C9BE0FBF8
:102C1100A3E0FAA3E0F9900004121347FF90000229
:102C2100121347FE4FF5DB900003121347FFE5F344
:102C3100543F4FF5F3900006121429FBAAF0900EB1
:102C41007DEAF0A3EBF0C201900E79EEF0900E83D5
:102C5100EAF0A3EBF0F5EBEAF5FBED6402704F90BF
:102C61000C9BE0FBA3E0FAA3E0F9900004121347E8
:102C7100FF900002121347FE4FF5DC900003121380
:102C810047FFE5F4543F4FF5F4900006121429FD77
:102C9100ACF0900E7FECF0A3EDF0C202900E7AEE54
:0F2CA100F0900E85ECF0A3EDF0F5ECECF5FC22D5
:10488C00759A50438E0475D7D075D6FF438E109011
:10489C00000C7402F0E4A3F0A3F0A3F0A3F0A3F0D7
:0D48AC00A3F0A3F0A3F0A3F0A3F0A3F0226B
:10499E008F9BE59A20E1047F0180027F00EF70F289
:0449AE00539AFD22F9
:1049B20012132EFF600C12499E740129F9E43AFA8F
:0349C20080EE2262
:0300430002452E45
:10452E00C0E0C0F0C083C082C0D075D010C2AFE56D
:10453E009A30E03F539AFE900016E0B40135C390D6
:10454E000013E09408900012E094074004E4F0A3F6
:10455E00F0900012E475F001121413FE742825F089
:10456E00F58274003EF583E59BF0900014E4F0A311
:10457E007405F0D2AFD0D0D082D083D0F0D0E0325C
:10475500759850438E40538EFE53890F758BD075D7
:104765008DFFC2ABD28E9000007401F0E4A3F0A3DC
:10477500F0A3F0A3F0A3F0A3F0A3F0A3F0A3F0A39C
:06478500F0A3F0D2AC220B
:10482700900003E0FCA3E02430F58274073CF58395
:10483700EFF0900003E475F0011213FDC3940440F8
:1048470007E4900003F0A3F0900005E0700404F083
:03485700D29922D1
:1049C50012132EFF600C124827740129F9E43AFAF4
:0349D50080EE224F
:030023000240E5B3
:1040E500C0E0C0F0C083C082C0D075D01830983E03
:1040F500C29890000AE0B40135C3900007E094101F
:10410500900006E094004004E4F0A3F0900006E47B
:1041150075F001121413FE741825F0F58274003E33
:10412500F583E599F0900008E4F0A37405F0309963
:1041350043C299900003E0FEA3E0FF900001E0FC7C
:10414500A3E0FD6F7002EC6E602574302DF582746E
:10415500073CF583E0F599900001E475F001121331
:10416500FDC39404400E900001E4F0A3F080059097
:0F4175000005E4F0D0D0D082D083D0F0D0E0327B
:100FD300EC4D6011E8497017ED33EC3304600DE418
:100FE300FCFFFEFD22E933E8330470F802122312FA
:100FF30011EE58046009E4CC2481500628500902FC
:10100300122D28400302122AC0E0EB4A7044B98033
:1010130006D0E0FB021219EF4E701CBD8008EBFFF7
:10102300EAFEE9FD80EBE98DF0A4FEE5F00210BCD9
:10103300E9CDF9EAFEEBFFEF89F0A4FCE5F0CE89F8
:10104300F0A42EFFE435F0CD89F0A42DFEE435F0B5
:101053008067EF4E7005BD80D780C3EF8BF0A4ACE3
:10106300F0EE8BF0A42CFCE435F0F8EF8AF0A42C1E
:10107300E5F038FCE433CB8DF0A42CFCE5F03BF831
:10108300EE8AF0A42CFCE5F038F8E433CF89F0A421
:101093002CFCE5F038CF3400CE89F0A42FFFE5F027
:1010A3003EFEE433C98DF0A42EFEE5F039CD8AF07F
:1010B300A42FFFE5F03EFEE43DFD33D0E0FB5007F7
:1010C3000BBB000F02122DEC2CFCEF33FFEE33FEB3
:0610D300ED33FD021205E1
:1010D90002122DEC5D046005E85904700302122325
:1010E9001211EE580460F6EC4860F2EC7004FDFE53
:1010F900FF22C860DB2481C85009C39860025006EA
:1011090002122A9850CAF582E9294B4A7005AB8226
:1011190002121975F0007C1A7880C3EF9BEE9AEDE4
:1011290099400DC3EF9BFFEE9AFEED99FDE842F061
:10113900DC23ACF0D0E0FFD0E0FED0E0FDAB8220B4
:10114900E7101BEB60BAEC2CFCEF33FFEE33FEED3E
:1011590033FD021205E803F830E705C0F075F00029
:10116900EF2FFFEE33FEED33FD40B830E7C280AA22
:1011790075F020800E75F010800575F0087D007EF1
:10118900007F003392D530D503121461EC3340103F
:10119900EF33FFEE33FEED33FDEC33FCD5F0ED22FA
:0E11A900E5F0247EA2D513CC92E7CDCEFF2236
:1011B700EDD2E7CD33EC3392D524814006E4FFFE30
:1011C700FDFC22FCE4CFCECDCC24E0501174FF808F
:1011D700EDC3CC13CCCD13CDCE13CECF13CF04702C
:0711E700F030D5DE021461B7
:1011EE00E9D2E7C933E833F892D5EDD2E7CD33EC47
:0711FE0033FC5002B2D522C0
:10120500EC30E7100FBF000C0EBE00080DBD00044A
:101215000BEB6014A2D5EB13FCED92E7FD2274FFF6
:10122500FCFDFEFF22E480F8A2D574FF13FC7D804F
:03123500E480EF63
:03000000024219A0
:0C421900787FE4F6D8FD75812002426039
:10123800E709F608DFFA8046E709F208DFFA803E98
:1012480088828C83E709F0A3DFFA8032E309F60885
:10125800DFFA8078E309F208DFFA807088828C83ED
:10126800E309F0A3DFFA806489828A83E0A3F608A1
:10127800DFFA805889828A83E0A3F208DFFA804C7B
:1012880080D280FA80C680D4806980F28033801052
:1012980080A680EA809A80A880DA80E280CA8033BB
:1012A80089828A83ECFAE493A3C8C582C8CCC58333
:1012B800CCF0A3C8C582C8CCC583CCDFE9DEE78003
:1012C8000D89828A83E493A3F608DFF9ECFAA9F082
:1012D800EDFB2289828A83ECFAE0A3C8C582C8CCD8
:1012E800C583CCF0A3C8C582C8CCC583CCDFEADEF1
:1012F800E880DB89828A83E493A3F208DFF980CC53
:1013080088F0EF60010E4E60C388F0ED2402B4044B
:101318000050B9F582EB2402B4040050AF232345F2
:061328008223901288737D
:10132E00BB010689828A83E0225002E722BBFE02BD
:09133E00E32289828A83E49322F0
:10134700BB010CE58229F582E5833AF583E022505B
:1013570006E92582F8E622BBFE06E92582F8E222A5
:0D136700E58229F582E5833AF583E49322BF
:10137400BB010689828A83F0225002F722BBFE0158
:02138400F32252
:10138600F8BB010DE58229F582E5833AF583E8F09D
:10139600225006E92582C8F622BBFE05E92582C849
:0213A600F22231
:1013A800BC000BBE0029EF8DF084FFADF022E4CC29
:1013B800F875F008EF2FFFEE33FEEC33FCEE9DECF2
:1013C800984005FCEE9DFE0FD5F0E9E4CEFD22ED38
:1013D800F8F5F0EE8420D21CFEADF075F008EF2F82
:1013E800FFED33FD4007985006D5F0F222C398FD73
:0513F8000FD5F0EA2210
:1013FD00C5F0F8A3E028F0C5F0F8E582158270027B
:06140D001583E038F02217
:10141300A3F8E0C5F025F0F0E5821582700215838C
:06142300E0C838F0E822E9
:10142900BB0110E58229F582E5833AF583E0F5F001
:10143900A3E0225009E92582F886F008E622BBFEDE
:101449000AE92582F8E2F5F008E222E5832AF58324
:08145900E993F5F0A3E99322E9
:0E146100C3E49FFFE49EFEE49DFDE49CFC229C
:10432A00900E1BEBF0A3EAF0A3E9F0900E21EBF05C
:10433A00A3EAF0A3E9F0900E1BE0FBA3E475F001F9
:10434A00121413A9F0FA12132E70EB900E1C74FFBC
:10435A00F5F01213FD900E1EE0FBA3E475F00112B6
:10436A001413A9F0FA12132EFF900E1BE0FBA3E41C
:10437A0075F001121413A9F0FAEF12137470D690A3
:0B438A000E21E0FBA3E0FAA3E0F92203
:10146F00E709F60870FA8046E709F20870FA803E3D
:10147F0088828C83E709F0A370FA807EE309F6086F
:10148F0070FA8076E309F20870FA806E88828C8396
:10149F00E309F0A370FA806289828A83E0A3F608D9
:1014AF0070FA805689828A83E0A3F20870FA804A24
:1014BF0080D280FA80C680D4806580F2803180101F
:1014CF0080A680EA809A80A880DA80E280CA803184
:1014DF0089828A83ECFAE493A3C8C582C8CCC583FA
:1014EF00CCF0A3C8C582C8CCC583CC70E9800D8968
:1014FF00828A83E493A3F60870F9ECFAA9F0EDFB66
:10150F002289828A83ECFAE0A3C8C582C8CCC5833E
:10151F00CCF0A3C8C582C8CCC583CC70EA80DD8966
:10152F00828A83E493A3F20870F980CE88F0ED24C9
:10153F0002B4040050C4F582EB2402B4040050BA84
:09154F0023234582239014BF738D
:10498900E4FFFE12132E600C0FEF70010E09E9709F
:05499900F20A80EF228C
:103E1C00900E2AEBF0A3EAF0A3E9F0A3E0FBA3E0F9
:103E2C00FAA3E0F912132E7003023EC8900E2AE09A
:103E3C00FBA3E0FAA3E0F912132E7003023ED49018
:103E4C000E2DE0F9A3E0FAA3E0A3C9F0A3EAF0A3D6
:103E5C00E9F0900E2AA3E0FAA3E0F9900E33EBF010
:103E6C00A3EAF0A3E9F0900E30E0FBA3E0FAA3E0A4
:103E7C00F912132EFF6026900E33E0FBA3E0FAA399
:103E8C00E0F912132E6F7015900E3175F0011213AC
:103E9C00FD900E34E475F0011213FD80C9900E30C4
:103EAC00E0FBA3E0FAA3E0F912132E7002800D9050
:103EBC000E2BE475F0011213FD023E38900E2AE031
:0F3ECC00FBA3E0FAA3E0F9227B007A0079002241
:10155800EF4E6012EF60010EEDBB010B89828A83AA
:10156800F0A3DFFCDEFA2289F05007F709DFFCA9B7
:0C157800F022BBFEFCF309DFFCA9F0220E
:1042250002203CE493A3F8E493A34003F68001F253
:1042350008DFF48029E493A3F85407240CC8C3339A
:10424500C4540F4420C8834004F456800146F6DF69
:10425500E4800B01020408102040809044CAE47EEB
:10426500019360BCA3FF543F30E509541FFEE4935E
:10427500A360010ECF54C025E060A840B8E493A325
:10428500FAE493A3F8E493A3C8C582C8CAC583CA50
:10429500F0A3C8C582C8CAC583CADFE9DEE780BE08
:01452D00008D
:00000001FF
