:1037FD00AD071FED600B0000007E1A1EEE60F1801C
:01380D00FAC0
:01380E002297
:0F380F007DA57C06ED1D70011C144C70F7DFF1D8
:01381E002287
:02002600AB0726
:10002800AF031BEF60107E04EED3940040F27FFA1A
:0600380012380F1E80F2D9
:01003E00229F
:103673007379732073746172740D0A0077696669D4
:103683002072657365740D0A007769666920736536
:103693007420436C69656E74207375636573730D71
:0236A3000A001B
:10343000C2AF1236D243AF0112356EE4F5B8F5B51E
:1034400043B501123756D2AF7BFF7A367973123704
:10345000EA1228027E087F007D007B017A007998BD
:103460001213387BFF7A36797F1237EA1236FF1251
:0F34700029D6EF60EE7BFF7A36798C1237EA228D
:101F61004448543131207472756520200D0A0044B3
:101F7100485431312066616C736520200D0A00548C
:101F8100454D500048554D49005357495443483138
:101F91003D4F4E00535749544348313D4F4646004B
:101FA100535749544348323D4F4E005357495443C8
:101FB10048323D4F464600535749544348333D4FFD
:101FC1004E00535749544348333D4F4646005357FB
:101FD10049544348343D4F4E0053574954434834C4
:101FE1003D4F4646004C49474854004F4E006C69EE
:101FF10067687431206F6E210D0A004F4646006CF0
:102001006967687431206F6666210D0A00494E4385
:10201100006C696768743120696E63210D0A0044A0
:102021004543006C696768743120646563210D0A5A
:10203100006C696768743220696E63210D0A006C57
:10204100696768743220646563210D0A006C6967F1
:10205100687420696E76616C696420636F6D6D616F
:102061006E643232320D0A00696E76616C696420E9
:10207100636F6D6D616E643131310D0A00535749E3
:102081005443480026535749544348323D4F4E006C
:1020910026535749544348323D4F4646002653572D
:1020A10049544348333D4F4E002653574954434802
:1020B100333D4F46460026535749544348343D4F1C
:0F20C1004E0026535749544348343D4F4646007E
:10000E00D2C87F011237FDC2C87F1212380FD2C874
:05001E007F040237FD24
:10360D00E4900E79F0900E78F030C8FD7F021237FD
:10361D00FD900E79E025E0F030C803E004F020C8FD
:10362D00FD900E78E004F0E0C3940840DC900E7934
:02363D00E0FFAC
:01363F002268
:0B270500900E6CEBF0A3EAF0A3E9F0EB
:10271000E4A3F0A3F0A3F0A3F0A3F012000E30C8DE
:10272000030227AD30C8FDC2AF7F081237FD123655
:102730000D900E6FEFF012360D900E70EFF0123616
:102740000D900E71EFF012360D900E72EFF0123602
:102750000D900E73EFF0D2AF900E70E0FD900E6F03
:10276000E02DFDE433FC900E71E07A002DFDEA3C93
:10277000FCA3E02DFDEA3CFC7E00EDB5070CEEB5B8
:1027800004087BFF7A1F796180067BFF7A1F7970CE
:102790001237EA900E71E0FF900E74E4F0A3EFF0B0
:1027A000900E6FE0FF900E76E4F0A3EFF0900EB67F
:1027B00074FFF0A3741FF0A37480F0900E6CE0FB24
:1027C000A3E0FAA3E0F9122B84EA494B6005900ECE
:1027D000748024900EB674FFF0A3741FF0A3748568
:1027E000F0900E6CE0FBA3E0FAA3E0F9122B84EA70
:1027F000494B6009900E76E0FEA3E0FF227EFF7F4A
:01280000FFD8
:0128010022B4
:0B20D000900E6CEBF0A3EAF0A3E9F027
:1020DB00A3EBF0A3EAF0A3E9F0900E6CE0FBA3E016
:1020EB00FAA3E0F912372B900EB674FFF0A3741F0E
:1020FB00F0A3748AF0900E6CE0FBA3E0FAA3E0F976
:10210B00122B84EA494B60097D047F051235A480AC
:10211B0028900EB674FFF0A3741FF0A37495F09083
:10212B000E6CE0FBA3E0FAA3E0F9122B84EA494B17
:10213B0060077D047F051234FD900EB674FFF0A38B
:10214B00741FF0A374A1F0900E6CE0FBA3E0FAA354
:10215B00E0F9122B84EA494B60097D10E4FF12353C
:10216B00A48028900EB674FFF0A3741FF0A374AC78
:10217B00F0900E6CE0FBA3E0FAA3E0F9122B84EADB
:10218B00494B60077D10E4FF1234FD900EB674FFCF
:10219B00F0A3741FF0A374B8F0900E6CE0FBA3E0F7
:1021AB00FAA3E0F9122B84EA494B60097D02E4FFA4
:1021BB001235A48028900EB674FFF0A3741FF0A301
:1021CB0074C3F0900E6CE0FBA3E0FAA3E0F9122BC2
:1021DB0084EA494B60077D02E4FF1234FD900EB692
:1021EB0074FFF0A3741FF0A374CFF0900E6CE0FBA0
:1021FB00A3E0FAA3E0F9122B84EA494B60097D01B5
:10220B00E4FF1235A48028900EB674FFF0A3741F60
:10221B00F0A374DAF0900E6CE0FBA3E0FAA3E0F904
:10222B00122B84EA494B60077D01E4FF1234FD7FDA
:01223B0001A1
:01223C00227F
:10353800900E6FEFF0BF0210900F2774A0F0C374C5
:10354800FF94A0FDE4FF8015900E6FE0B40714907F
:103558000F2874A0F0C374FF94A0FD7F0112379860
:063568007F01227F00221A
:1035D900900E6FEFF0BF020FE4900F27F0C374FF56
:1035E9009400FDE4FF8014900E6FE0B40713E4909B
:1035F9000F28F0C374FF9400FD7F011237987F01F3
:04360900227F0022FA
:10325600900E6FEFF064027028900F27E0FFC374A2
:10326600FF9FC39428500574FFF08007900F27E056
:103276002428F0900F27E0FFC374FF9FFDE4FF8032
:103286002E900E6FE06407702C900F28E0FFC37439
:10329600FF9FC39428500574FFF08007900F28E025
:1032A6002428F0900F28E0FFC374FF9FFD7F0112D2
:0832B60037987F01227F0022FE
:10332300900E6FEFF064027022900F27E0C3942891
:103333005004E4F08007900F27E024D8F0900F2783
:10334300E0FFC374FF9FFDE4FF8028900E6FE064ED
:10335300077026900F28E0C394285004E4F08007F8
:10336300900F28E024D8F0900F28E0FFC374FF9F4C
:0C337300FD7F011237987F01227F0022AD
:101A7A00900E6CEBF0A3EAF0A3E9F0900EB674FFB7
:101A8A00F0A3741FF0A374E6F0900E6CE0FBA3E0E1
:101A9A00FAA3E0F9122B84EA494B7003021C2A903C
:101AAA00000612113524CE7003021B69046003027A
:101ABA001C22900EB674FFF0A3741FF0A374ECF00E
:101ACA00900E6CE0FBA3E0FAA3E0F9122B84EA493A
:101ADA004B60057F02021B8C900EB674FFF0A37454
:101AEA001FF0A374FCF0900E6CE0FBA3E0FAA3E0F5
:101AFA00F9122B84EA494B60057F02021BBB900E48
:101B0A00B674FFF0A37420F0A3740EF0900E6CE08C
:101B1A00FBA3E0FAA3E0F9122B84EA494B600E7F9B
:101B2A00021232567BFF7A207912021C30900EB6CE
:101B3A0074FFF0A37420F0A37420F0900E6CE0FB05
:101B4A00A3E0FAA3E0F9122B84EA494B7003021CC2
:101B5A00337F021233237BFF7A207924021C3090D0
:101B6A000EB674FFF0A3741FF0A374ECF0900E6C21
:101B7A00E0FBA3E0FAA3E0F9122B84EA494B600EDA
:101B8A007F071235387BFF7A1F79EF021C30900EDF
:101B9A00B674FFF0A3741FF0A374FCF0900E6CE00F
:101BAA00FBA3E0FAA3E0F9122B84EA494B600D7F0C
:101BBA00071235D97BFF7A207900806A900EB674B5
:101BCA00FFF0A37420F0A3740EF0900E6CE0FBA358
:101BDA00E0FAA3E0F9122B84EA494B600D7F071261
:101BEA0032567BFF7A207932803C900EB674FFF031
:101BFA00A37420F0A37420F0900E6CE0FBA3E0FA2B
:101C0A00A3E0F9122B84EA494B601E7F07123323A3
:101C1A007BFF7A207940800E7BFF7A20794E8006FE
:0B1C2A007BFF7A2079691237EA7F0106
:011C3500228C
:10280200900D1A7403F0A304F07B017A0D791A7FFC
:10281200051218B6900D1B7413F07B017A0D791A0C
:10282200E4FF1218B6900D1E7403F0A37420F07B1F
:10283200017A0D791A7F051218B6E4900D1CF0A3E7
:1028420004F0FB7A0D791C7F051218B6900D1874EE
:1028520003F0A37480F07B017A0D79187F031218BC
:10286200B6900D197480F07B017A0D79187F0112F0
:1028720018B6E4900D20F0A3F0A37442F0E4A3F0A4
:10288200A3F0A304F0E4A3F0A3F07B017A0D792076
:102892007F03121C367B017A0D79207F02121C36CF
:1028A2007B017A0D79207F07121C367D047F051289
:1028B20034FD7D10E4FF1234FD7D02E4FF1234FD8D
:1028C2007D01E4FF1234FD7D207F051234FD7F027D
:1028D2001235D97F071235D97D807F031234FD7DF1
:0D28E200807F011234FDE4900F27F0A3F079
:0128EF0022C6
:0B28F000900E66EBF0A3EAF0A3E9F005
:1028FB00900EB674FFF0A37420F0A3747EF0122B2D
:10290B0084900E69EBF0A3EAF0A3E9F04A4B601751
:10291B00900E69E0FBA3E0FAA3E0F91220D0EF6080
:10292B00037F01227F0022900EB674FFF0A3741F69
:10293B00F0A374E6F0900E66E0FBA3E0FAA3E0F9D7
:10294B00122B84900E69EBF0A3EAF0A3E9F04A4B4B
:10295B006010900E69E0FBA3E0FAA3E0F9121A7A7B
:10296B008066900EB674FFF0A3741FF0A37480F012
:10297B00900E66E0FBA3E0FAA3E0F9122B84900E15
:10298B0069EBF0A3EAF0A3E9F04A4B6002802B90CD
:10299B000EB674FFF0A3741FF0A37485F0900E664F
:1029AB00E0FBA3E0FAA3E0F9122B84900E69EBF0A5
:1029BB00A3EAF0A3E9F04A4B600E900E69E0FBA38B
:0A29CB00E0FAA3E0F91227057F01EE
:0129D50022DF
:102AAE00900D7CEBF0A3EAF0A3E9F07D047F051214
:102ABE0032BEEF900EA9600C74FFF0A3741FF0A34A
:102ACE00748A800A74FFF0A3741FF0A37495F090BB
:102ADE000D7CE0FBA3E0FAA3E0F91231EB7D10E4EC
:102AEE00FF1232BEEF900EA9600C74FFF0A374209B
:102AFE00F0A37485800A74FFF0A37420F0A3749180
:102B0E00F0900D7CE0FBA3E0FAA3E0F91231EB7D2F
:102B1E0002E4FF1232BEEF900EA9600C74FFF0A318
:102B2E007420F0A3749E800A74FFF0A37420F0A3A7
:102B3E0074AAF0900D7CE0FBA3E0FAA3E0F9123149
:102B4E00EB7D01E4FF1232BEEF900EA9600C74FF14
:102B5E00F0A37420F0A374B7800A74FFF0A374205E
:102B6E00F0A374C3F0900D7CE0FBA3E0FAA3E0F9B0
:062B7E001231EB7F012281
:1036A500900F297401F0123430900F29E024FE6048
:1036B500120470F57F327E0012337FEF60EB121338
:0D36C5006480E6122E487F0112002680DC92
:101DD50041542B524553544F52450D0A004F4B0069
:101DE50041542B43574D4F44453D320D0A00415454
:101DF5002B43575341503D2241495F4C6162222C90
:101E05002231323334353637383930222C342C34BC
:101E15000D0A0041542B5253540D0A0041542B43D3
:101E250049504D55583D310D0A0041542B434950F9
:101E35005345525645523D312C353030300D0A0050
:101E450041542B43494653520D0A0041542B4357E5
:101E55004D4F44453D310D0A0041542B43574A41EE
:101E6500503D22486954565F776F6F5F706C75738C
:101E7500222C2231323334353637383930220D0AA7
:101E85000041542B4349504D55583D300D0A0041F2
:101E9500542B43495053544152543D2254435022EC
:101EA5002C223139322E3136382E312E3130362230
:101EB5002C353030300D0A0041542B434950434CEA
:101EC5004F53453D300D0A006D61746368000D0A7E
:101ED5000D0A002C000D0A003E200053454E4420FB
:101EE5004F4B00222C00434F4E4E45435400415466
:101EF5002B43495053454E443D000000000000006F
:101F050000000000000000000000000041542B43C9
:101F1500495053454E443D000000000000000000BC
:101F25000000000000000000000041542B43495010
:101F350053544152543D22544350222C2200000058
:101F4500000000000000000000000000000000008C
:0C1F550000000000000000000000000080
:10311100460ECBFF1DD5FF1DE2460EEFFF1DE5FF5D
:103121001DE2460F01FF1DF3FF1DE2460EE3FF1EE8
:1031310018FF1DE2460EF5FF1E21FF1DE2460EDDC2
:10314100FF1E2FFF1DE2460EE9FF1E45FF1DE24651
:103151000ED7FF1E50FF1DE2460EBFFF1E5EFF1D74
:10316100E2460EC5FF1E86FF1DE2460EFBFF1E94C2
:0C317100FF1DE2460ED1FF1EBDFF1DE257
:0725EF003EFE7B01AD07FC7D
:1025F600900EA6EBF0A3EAF0A3E9F0A3ECF0A3EDAE
:01260600F0E3
:10260700900EA9E0FEA3E0FF7C277D10121196EF44
:102617002430FF900EA6E0FBA3E0FAA3E0F9EF1247
:102627001162900EA9E0FEA3E0FF7C277D10121136
:10263700967E037FE8CFCDCFCECCCE121196EF2476
:1026470030FF900EA6E0FBA3E0FAA3E0F9900001AB
:10265700EF121174900EA9E0FEA3E0FF7C037DE862
:102667001211967E007F64CFCDCFCECCCE121196BD
:10267700EF2430FF900EA6E0FBA3E0FAA3E0F99069
:102687000002EF121174900EA9E0FEA3E0FF7C0098
:102697007D641211967E007F0ACFCDCFCECCCE12AD
:1026A7001196EF2430FF900EA6E0FBA3E0FAA3E01B
:1026B700F9900003EF121174900EA9E0FEA3E0FF5A
:1026C7007C007D0A121196ED2430FF900EA6E0FBE8
:1026D700A3E0FAA3E0F9900004EF1211749000054B
:1026E700E412117412111CFFB43009740129F9E4C2
:0D26F7003AFA80F0EF70060429F9E43AFA8F
:0127040022B2
:1036FF00E4900D18F0A37408F07B017A0D79187F10
:10370F00051218B67D087F051234FD7F6412380F3D
:0C371F007D087F051235A47F0202002601
:10337F00D3EF9400EE9400404F7C007D32121196F3
:10338F00D3EF9400EE9400403F9000167401F0E4E8
:10339F00900012F0A3F0900017F0900014F0A374B7
:1033AF0005F0D3900015E09400900014E0940050C5
:1033BF00F1E4900016F0A3E06007900012A3E0FF85
:0A33CF0022EF1F70BB1E80B87F00C4
:0133D90022D1
:102C4300900EE6E0F9A3E0FAA3E0900EA9C9F0A381
:102C5300EAF0A3E9F0A3740BF0A374B8F0900EE3C9
:082C6300E0FBA3E0FAA3E0F995
:102C6B001237D7900EACE0FEA3E0FF7C007D05127F
:102C7B0011967C007D0A121196900EB1EEF0A3EF27
:102C8B00F0D3900EB2E09400900EB1E09400405C53
:102C9B007F327E0012337FEF60427B017A0079989E
:102CAB001237EA900EA9E0F9A3E0FAA3E0900EB672
:102CBB00C9F0A3EAF0A3E9F07B017A007998122B13
:102CCB0084900EAEEBF0A3EAF0A3E9F04A4B600C54
:102CDB007BFF7A1E79CD12372B7F0122900EB2E04B
:0E2CEB0024FFF0900EB1E034FFF080957F00E2
:012CF90022B8
:0B164400900E66EBF0A3EAF0A3E9F0C3
:10164F0078807C0E7D017BFF7A1E79F37E007F1EF2
:10165F001210F6900E69E0FBA3E0FAA3E0F912373F
:10166F00AE900EA1EEF0FCA3EFF0FD7B017A0E79A8
:10167F00741225F6900EA974FFF0A3741EF0A374D4
:10168F00D3F07B017A0E79741231EB7B017A0E79EC
:10169F00741237AEC006C0077BFF7A00798C123701
:1016AF00AED0E02FFFD0E07A0E796E1225EF900EBC
:1016BF009EEBF0A3EAF0A3E9F0900E66E0F9A3E049
:1016CF00FAA3E0900EA9C9F0A3EAF0A3E9F07B0119
:1016DF007A0E79801231EB900EA974FFF0A3741E6D
:1016EF00F0A374D8F07B017A0E79801231EB900E53
:1016FF009EE0F9A3E0FAA3E0900EA9C9F0A3EAF0E7
:10170F00A3E9F07B017A0E79801231EB900EA97468
:10171F00FFF0A3741EF0A374DAF07B017A0E7980C8
:10172F001231EB900EA974FFF0A3741EF0A374DDB9
:10173F00F0A3740BF0A374B8F07B017A0E798012CA
:10174F002C6BEF7002FF227BFF7A00798C1237D758
:10175F007B017A0E79741237D7900EA1E0FEA3E0C9
:10176F00FF7C077D08121196900E6CEEF0A3EFF040
:10177F00D3900E6DE09400900E6CE0940050030235
:10178F0018887B017A0E796E7D087C071225F690FA
:10179F000E9EEBF0A3EAF0A3E9F0900E66E0F9A33A
:1017AF00E0FAA3E0900EA9C9F0A3EAF0A3E9F07B59
:1017BF00017A0E79801231EB900EA974FFF0A374A9
:1017CF001EF0A374D8F07B017A0E79801231EB9062
:1017DF000E9EE0F9A3E0FAA3E0900EA9C9F0A3EAE8
:1017EF00F0A3E9F07B017A0E79801231EB900EA90C
:1017FF0074FFF0A3741EF0A374DAF07B017A0E79F4
:10180F00801231EB900EA974FFF0A3741EF0A37435
:10181F00DDF0A3740BF0A374B8F07B017A0E79801E
:10182F00122C6BEF7002FF22900EA3E0FBA3E0FAE5
:10183F00A3E0F912111CFF1237C3900EA4E475F048
:10184F00011211EB900EA974FFF0A3741EF0A37494
:10185F00E0F0A3740BF0A374B8F07B007A0079006A
:10186F00122C6BEF7002FF22900E6DE024FFF090B0
:10187F000E6CE034FFF002177F900EA4E475F001B8
:10188F001211EB900EA974FFF0A3741EF0A374E075
:10189F00F0A3740BF0A374B8F0900EA3122C63EFA7
:0618AF007002FF227F0120
:0118B5002210
:0B24C800900D7CEBF0A3EAF0A3E9F01C
:1024D300788B7C0D7D017BFF7A1F79117E007F1E37
:1024E3001210F6900D7FE0FBA3E0FAA3E0F9123798
:1024F300AEEF25E0FDEE33FCC004C005900D7CE09B
:10250300FBA3E0FAA3E0F91237AED0E02FFDD0E051
:102513003EFCC004C005900D82E0FBA3E0FAA3E0FB
:10252300F91237AED0E02FFFD0E07A0D798512256E
:10253300EF900DA9EBF0A3EAF0A3E9F0900DA9E069
:10254300F9A3E0FAA3E0900EA9C9F0A3EAF0A3E986
:10255300F07B017A0D798B1231EB900EA974FFF0A9
:10256300A3741EF0A374DAF07B017A0D798B123118
:10257300EB900EA974FFF0A3741EF0A374DDF0A317
:10258300740BF0A374B8F07B017A0D798B122C6B6A
:10259300EF7002FF22900D7CE0FBA3E0FAA3E0F9C9
:1025A3001237D7900D7FE0FBA3E0FAA3E0F91237CF
:1025B300D7900D82E0FBA3E0FAA3E0F91237D7909E
:1025C3000EA974FFF0A3741EF0A374E0F0A3740BC0
:1025D300F0A374B8F0900D7F122C63EF7002FF220A
:0B25E3007BFF7A1E79E012372B7F018E
:0125EE0022CA
:1029D600900EF2E0F9A3E0FAA3E0900EA9C9F0A3E5
:1029E600EAF0A3E9F0A3740BF0A374B8F0900EEF2D
:1029F600122C63EF7002FF22900F04E0F9A3E0FAB5
:102A0600A3E0900EA9C9F0A3EAF0A3E9F0A3740B22
:102A1600F0A374B8F0900F01122C63EF7002FF223E
:102A2600122C43EF7002FF227F02120026900EF84E
:102A3600E0F9A3E0FAA3E0900EA9C9F0A3EAF0A397
:102A4600E9F0A3740BF0A374B8F0900EF5122C63A2
:102A5600EF7002FF22900EE0E0F9A3E0FAA3E09007
:102A66000EA9C9F0A3EAF0A3E9F0A3740BF0A374CE
:102A7600B8F0900EDD122C63EF7002FF22900EEC80
:102A8600E0F9A3E0FAA3E0900EA9C9F0A3EAF0A347
:102A9600E9F0A3740BF0A374B8F0900EE9122C635E
:082AA600EF7002FF227F012204
:10300400900EDAE0F9A3E0FAA3E0900EA9C9F0A3C8
:10301400EAF0A3E9F0A3740BF0A374B8F0900ED710
:10302400122C63EF7002FF22122C43EF7002FF2276
:103034007F02120026900EC2E0F9A3E0FAA3E0900A
:103044000EA9C9F0A3EAF0A3E9F0A3744EF0A374A7
:1030540020F0900EBF122C63EF7002FF22900EC876
:10306400E0F9A3E0FAA3E0900EA9C9F0A3EAF0A363
:10307400E9F0A3740BF0A374B8F0900EC5122C639E
:08308400EF7002FF227F012220
:0B2CFA00900D7CEBF0A3EAF0A3E9F0E2
:102D050078827C0D7D017BFF7A1F792F7E007F32D3
:102D15001210F6900D7CE0F9A3E0FAA3E0900EA95D
:102D2500C9F0A3EAF0A3E9F07B017A0D79821231AB
:102D3500EB900EA974FFF0A3741EF0A374E8F07B6A
:102D4500017A0D79821231EB900D7FE0F9A3E0FA5B
:102D5500A3E0900EA9C9F0A3EAF0A3E9F07B017AFC
:102D65000D79821231EB900EA974FFF0A3741EF059
:102D7500A374DAF07B017A0D79821231EB900EA9FA
:102D850074FFF0A3741EF0A374EBF0A37427F0A3F3
:102D95007410F07B017A0D7982122C6BEF7002FFB3
:032DA500227F0189
:012DA8002208
:10375600538E7F5389F0E4F58A758CB8C28DD28C6E
:10376600D2A9900F267464F0E4900F23F0A3F0A37F
:02377600F0223F
:03000B0002317E41
:10317E00C0E0C083C082C0D075D008900F26E0D3C7
:10318E0094004003E014F0900016E06047D39000E6
:10319E0015E09400900014E094004038A3E024FF62
:1031AE00F0900014E034FFF0E07002A3E070259080
:1031BE000016F0900012E0FEA3E0FFD39400EE9410
:1031CE0000401174982FF58274003EF583E4F09060
:0D31DE00001704F0D0D0D082D083D0E032B2
:070003002A2A2A000D0A0061
:04308C00AB07AA06DE
:103090007C277D10121196EF2430900F1DF07C27B5
:1030A0007D10AF03AE021211967E037FE8CFCDCF25
:1030B000CECCCE121196EF2430A3F07C037DE8AF86
:1030C00003AE021211967E007F64CFCDCFCECCCE60
:1030D000121196EF2430A3F07C007D64AF03AE02A2
:1030E0001211967E007F0ACFCDCFCECCCE12119694
:1030F000EF2430A3F0AE02AF037C007D0A121196DC
:10310000ED2430A3F0E4A3F07B017A0F791D0237A0
:01311000EAD4
:10372B00900EB3EBF0A3EAF0A3E9F07BFF7A0079FC
:10373B00031237EA900EB3E0FBA3E0FAA3E0F91211
:0B374B0037EA7BFF7A0079070237EABB
:102394002600576946692073736964206973204570
:1023A4006D70747921005769466920706173737781
:1023B4006F7264206973206C657373207468616E36
:1023C40020382062797465732100536572766572D2
:1023D40020697020697320656D70747921005365DC
:1023E4007276657220706F727420697320656D70E7
:1023F400747921005573657220697320656D70745A
:10240400792100557365722070617373776F7264FC
:1024140020697320656D7074792100436F6E66695D
:1024240067204F4B0048545450002B4950442C0013
:10243400474554202F2000474554202F3F00446532
:10244400766963657320636F6E74726F6C20466186
:10245400696C2021212100474554202F636F6E664B
:10246400696700474554202F72657300737369646C
:10247400007077640073657276657200706F7274B1
:1024840000757365720075707764004F4B003131CD
:10249400392E332E3233332E35360035303030007A
:1024A400636F6E74726F6C3F005365727665722051
:1024B400726573706F6E73652074696D656F757482
:0424C400210D0A00DC
:08223D00A3F07B017A0D7996F4
:0B224500900E66EBF0A3EAF0A3E9F0B6
:10225000900E66E0FBA3E0FAA3E0F91237AEEF249C
:10226000FFFFE434FFFE900E66E0FBA3E0FAA3E07C
:10227000F98F828E837426121174C002C001900EF1
:1022800069E0F9A3E0FAA3E0900EB6C9F0A3EAF082
:10229000A3E9F0D001D002122B84900E6FEBF0A3D3
:1022A000EAF0A3E9F04A4B7002FF22900E69E0FBCE
:1022B000A3E0FAA3E0F91237AE900E6FE0FBA3E0C3
:1022C000FAA3E02FF9EA3EFAE92401F9E43AFAA385
:1022D000EBF0A3EAF0A3E9F0900EB674FFF0A3745C
:1022E00023F0A37494F0122B84900E75EBF0A3EA04
:1022F000F0A3E9F04A4B7002FF22900E6CE0F9A3C4
:10230000E0FAA3E0900E78C9F0A3EAF0A3E9F09018
:102310000E75E0FBA3E0FAA3E0F9C003C002C00120
:10232000900E72A3E0FAA3E0F9C3D082D083D0E08C
:10233000E99582EA9583502E900E72E0FB12111CF3
:10234000FF900E78E0FBA3E0FAA3E0F9EF12116230
:10235000900E73E475F0011211EB900E79E475F0B4
:10236000011211EB80A9900E78E0FBA3E0FAA3E044
:10237000F9E4121162900E69E0FBA3E0FAA3E0F920
:1023800012372B900E6CE0FBA3E0FAA3E0F91237B2
:032390002B7F019F
:012393002227
:102EE3001237AEEF4E70077BFF7A23799622900E4E
:102EF30069E0FBA3E0FAA3E0F91237AEC3EF94084D
:102F0300EE940050077BFF7A2379AA22900E6CE09F
:102F1300FBA3E0FAA3E0F91237AEEF4E70077BFF95
:102F23007A2379CE22900E6FE0FBA3E0FAA3E0F9B7
:102F33001237AEEF4E70077BFF7A2379E222900EB1
:102F430072E0FBA3E0FAA3E0F91237AEEF4E70078D
:102F53007BFF7A2379F822900E75E0FBA3E0FAA3B6
:102F6300E0F91237AEEF4E7BFF70057A2479072222
:052F73007A24791F2201
:10136400900EB674FFF0A37424F0A37429F07B01EB
:101374007A007998122B84EA494B7003021643E4ED
:10138400121162900D96F078967C0D7D017B017AA6
:1013940000799812131B900EB674FFF0A37424F016
:1013A400A3742EF07B017A0D7996122B84900E6132
:1013B400EBF0A3EAF0A3E9F04A4B70030216439062
:1013C4000E62E475F0051211EB900E61E0FBA3E0F0
:1013D400FAA3E0F912111C900E64F0E4A3F0900E4D
:1013E400B674FFF0A37424F0A37434F07B017A0D77
:1013F4007996122B84900E61EBF0A3EAF0A3E9F046
:101404004A4B6010900E6974FFF0A37400F0A3744B
:10141400D602149B900EB674FFF0A37424F0A37448
:101424003BF07B017A0D7996122B84900E61EBF0E0
:10143400A3EAF0A3E9F04A4B602A900E61E0FBA313
:10144400E0FAA3E0F91228F0900E6974FFBF010AD4
:10145400F0A37400F0A374D68008F0A37424F0A35E
:1014640074428033900EB674FFF0A37424F0A37416
:101474005BF07B017A0D7996122B84900E61EBF070
:10148400A3EAF0A3E9F04A4B6017900E6974FFF0E9
:10149400A37407F0A3745CF07B017A0E79640216DE
:1014A40044900EB674FFF0A37424F0A37467F07B29
:1014B400017A0D7996122B84900E61EBF0A3EAF079
:1014C400A3E9F04A4B7003021643E4900D18F09020
:1014D4000D38F0900D58F0900D68F0900D6EF0906E
:1014E4000D82F0900E6974FFF0A37424F0A374705D
:1014F400F0A37401F0A3740DF0741812223D900E41
:101504006974FFF0A37424F0A37475F0A37401F05C
:10151400A3740DF0743812223D900E6974FFF0A389
:101524007424F0A37479F0A37401F0A3740DF0A3F0
:10153400745812223E900E6974FFF0A37424F0A331
:101544007480F0A37401F0A3740DF0A374681222E4
:101554003E900E6974FFF0A37424F0A37485F0A385
:101564007401F0A3740DF0A3746E12223E900E6900
:1015740074FFF0A37424F0A3748AF0A37401F0A39D
:10158400740DF0A3748212223E900E697401F0A3CC
:10159400740DF0A37438F0A37401F0A3740DF0A3D8
:1015A4007458F0A37401F0A3740DF0A37468F0A34D
:1015B4007401F0A3740DF0A3746EF0A37401F0A38E
:1015C400740DF0A37482F07B017A0D7918122EE366
:1015D400900E5EEBF0A3EAF0A3E9F0900E5EE0F962
:1015E400A3E0FAA3E0900E69C9F0A3EAF0A3E9F03E
:1015F4007B017A0E7964121644900EB674FFF0A340
:101604007424F0A3748FF0900E5EE0FBA3E0FAA3C1
:10161400E0F9122B84EA494B60257F007EE0123703
:10162400787B017A0D79961237AE900E6BEEF0A3AB
:0F163400EFF07B017A0D79967F007EE01234BED5
:011643002284
:102E4800900D7F74FFF0A37424F0A3749FF07BFFB0
:102E58007A247992122CFAEF7003022EE27D207FF9
:102E6800051235A4E4900D18F07B017A0D7918123B
:102E78002AAE900D7F7401F0A3740DF0A37418F0BE
:102E8800A374FFF0A37400F0A37450F07BFF7A00E2
:102E980079461224C8EF60427FE87E0312337FEF41
:102EA80060287D207F051234FD900EB674FFF0A3D4
:102EB8007424F0A374A4F07B017A007998122B840F
:102EC800EA494B600E1228F080097BFF7A2479AD1D
:0A2ED8001237EA7D207F051234FD59
:012EE20022CD
:10004600474554202F6131313F0020485454502FEA
:10005600312E310D0A486F73743A206C6F63616CF0
:10006600686F73743A353030300D0A436F6E6E65C3
:100076006374696F6E3A206B6565702D616C697685
:10008600650D0A0D0A00485454502F312E30203287
:100096003030204F4B0D0A436F6E74656E742D54CD
:1000A6007970653A20746578742F68746D6C3B209E
:1000B600636861727365743D7574662D380D0A4305
:1000C6006F6E74656E742D4C656E6774683A2000A9
:1000D6003C21444F43545950452068746D6C3E0D85
:1000E6000A3C68746D6C206C616E673D22656E22F9
:1000F6003E0D0A3C686561643E0D0A202020203CC6
:100106006D65746120636861727365743D22555430
:10011600462D38223E0D0A202020203C7469746C3E
:10012600653E47656E697573204149204C61623CA6
:100136002F7469746C653E0D0A202020203C737470
:10014600796C653E0D0A2020202020202020683171
:100156007B666F6E742D73697A653A363030253B4F
:10016600746578742D616C69676E3A63656E746543
:10017600727D0D0A202020202020202020617B6611
:100186006F6E742D73697A653A20333030253B6D76
:10019600617267696E3A203132307078203070783B
:1001A6002030707820343070787D0D0A2020202091
:1001B6002020207370616E7B666F6E742D73697A72
:1001C600653A333030253B6D617267696E2D6C651B
:1001D60066743A343070787D0D0A20202020202065
:1001E6002020627574746F6E7B747970653A6275DF
:1001F60074746F6E3B6D617267696E2D6C656674A3
:100206003A343070783B77696474683A31323070CA
:10021600783B6865696768743A31323070783B625A
:100226006F726465722D7261646975733A363070E7
:10023600783B70616464696E673A323070787D0D20
:100246000A20202020202020202E7373317B62611B
:10025600636B67726F756E643A2366663939353338
:100266007D0D0A20202020202020202E7373327B33
:100276006261636B67726F756E643A6461726B6715
:100286007261797D0D0A20202020202020202E73E7
:1002960073337B6261636B67726F756E643A20239A
:1002A6006666653061307D0D0A20202020202020E2
:1002B600202E7373347B6261636B67726F756E6435
:1002C6003A20236436643664367D0D0A20202020C9
:1002D600202020202E7373357B626F726465722D29
:1002E6007261646975733A323070783B6865696724
:1002F60068743A363070787D0D0A202020203C2F15
:100306007374796C653E0D0A202020203C7363725D
:100316006970743E0D0A202020202020202066755A
:100326006E6374696F6E206A702861290D0A202039
:100336002020202020207B77696E646F772E6C6FDB
:10034600636174696F6E2E687265663D222F3F2267
:100356002B617D0D0A202020203C2F73637269706B
:10036600743E0D0A3C2F686561643E0D0A3C626F5F
:1003760064793E0D0A202020203C6469762073743F
:10038600796C653D2277696474683A313030307033
:1003960078223E0D0A20202020202020203C64695F
:1003A60076207374796C653D226261636B67726F48
:1003B600756E642D636F6C6F723A736C61746567EA
:1003C600726179223E0D0A20202020202020202044
:1003D6002020203C68313E47656E6975732041498F
:1003E600204C61623C2F68313E0D0A2020202020DF
:1003F6002020203C2F6469763E0D0A2020202020F4
:100406002020203C62723E0D0A2020202020202041
:100416002020202020202020203C7370616E3E5337
:100426005749544348313A3C2F7370616E3E0D0A6A
:1004360020202020202020202020202020202020B6
:100446003C627574746F6E20636C6173733D2273C6
:10045600733122206F6E636C69636B3D226A70286C
:1004660027535749544348313D4F4E2729223E4F83
:100476004E3C2F627574746F6E3E0D0A202020204C
:100486002020202020202020202020203C6275745F
:10049600746F6E20636C6173733D22737332222016
:1004A6006F6E636C69636B3D226A702827535749E8
:1004B600544348313D4F46462729223E4F46463C47
:1004C6002F627574746F6E3E0D0A20202020202046
:1004D600202020202020202020203C62723E0D0A71
:1004E6002020202020202020202020202020202006
:1004F6003C7370616E3E535749544348323A3C2F21
:100506007370616E3E0D0A202020202020202020BE
:10051600202020202020203C627574746F6E20639A
:100526006C6173733D2273733122206F6E636C6945
:10053600636B3D226A702827535749544348323D1E
:100546004F4E2729223E4F4E3C2F627574746F6EB4
:100556003E0D0A20202020202020202020202020A0
:100566002020203C627574746F6E20636C61737317
:100576003D2273733222206F6E636C69636B3D227A
:100586006A702827535749544348323D4F464627F9
:1005960029223E4F46463C2F627574746F6E3E3C70
:1005A60062723E0D0A2020202020202020202020BC
:1005B60020202020203C7370616E3E5357495443DF
:1005C60048333A3C2F7370616E3E0D0A202020207E
:1005D6002020202020202020202020203C6275740E
:1005E600746F6E20636C6173733D227373312220C6
:1005F6006F6E636C69636B3D226A70282753574997
:10060600544348333D4F4E2729223E4F4E3C2F62DE
:100616007574746F6E3E0D0A202020202020202045
:1006260020202020202020203C627574746F6E20CC
:10063600636C6173733D2273733222206F6E636C39
:1006460069636B3D226A70282753574954434833E0
:100656003D4F46462729223E4F46463C2F6275743B
:10066600746F6E3E3C62723E0D0A202020202020D0
:10067600202020202020202020203C7370616E3E08
:10068600535749544348343A3C2F7370616E3E0DBC
:100696000A2020202020202020202020202020206A
:1006A600203C627574746F6E20636C6173733D22B7
:1006B60073733122206F6E636C69636B3D226A70BF
:1006C6002827535749544348343D4F4E2729223E45
:1006D6004F4E3C2F627574746F6E3E0D0A202020BB
:1006E600202020202020202020202020203C627551
:1006F60074746F6E20636C6173733D227373322260
:10070600206F6E636C69636B3D226A7028275357AE
:1007160049544348343D4F46462729223E4F4646D4
:100726003C2F627574746F6E3E0D0A2020202020C7
:100736002020203C62723E0D0A202020203C2F649F
:1007460069763E0D0A3C2F626F64793E0D0A3C2F96
:1007560068746D6C3E003C21444F4354595045200B
:1007660068746D6C3E0D0A3C68746D6C206C616E2D
:10077600673D22656E223E0D0A3C686561643E0D4A
:100786000A202020203C6D657461206368617273C5
:1007960065743D225554462D38223E0D0A202020F0
:1007A600203C7469746C653ECCECB2C54149CAB54F
:1007B600D1E9CAD23C2F7469746C653E0D0A2020BB
:1007C60020203C7374796C653E0D0A202020202081
:1007D60020202068317B6261636B67726F756E647F
:1007E6002D636F6C6F723A206461726B6772617908
:1007F6003B6D617267696E3A20323070783B666F86
:100806006E742D73697A653A20363470783B746558
:1008160078742D616C69676E3A2063656E746572D3
:100826003B7D0D0A20202020202020206832207BBE
:100836006D617267696E3A2031307078203430709D
:10084600783B666F6E742D73697A653A203534701D
:10085600783B7D0D0A2020202020202020626F6416
:10086600797B77696474683A38303070783B7D0DEF
:100876000A20202020202020202E6D61696E2D6602
:1008860072616D657B666C6F61743A206C65667427
:100896003B6261636B67726F756E642D636F6C6F1D
:1008A600723A20236436643664363B666C6F617434
:1008B6003A206C6566743B626F726465723A2073A7
:1008C6006F6C69642032707820626C61636B3B7D6B
:1008D6000D0A20202020202020202E7375622D66F0
:1008E60072616D657B666C6F61743A206C656674C7
:1008F6003B626F726465723A20736F6C6964203173
:10090600707820677261793B7D0D0A2020202020B7
:100916002020202E7468642D6672616D657B6D6182
:100926007267696E3A20313070783B666C6F61741D
:100936003A206C6566743B626F726465723A206435
:1009460061736865642031707820677261793B7DD8
:100956000D0A20202020202020202E666F726D2D6B
:100966006C696E657B6D617267696E3A20313070B5
:10097600783B666C6F61743A206C6566743B68659B
:10098600696768743A20383070783B7D0D0A2020FC
:100996002020202020202E666F726D2D6C696E65DA
:1009A6003E707B6D617267696E3A203070782034D4
:1009B6003070783B666C6F61743A206C6566743B88
:1009C600666F6E742D73697A653A20343870783B99
:1009D60077696474683A2032303070783B6C696E9F
:1009E600652D6865696768743A20383070783B749D
:1009F6006578742D616C69676E3A207269676874F0
:100A06003B7D0D0A20202020202020202E666F729C
:100A16006D2D6C696E653E6469762C2E666F726DFF
:100A26002D6C696E653E696E7075747B666C6F6160
:100A3600743A2072696768743B77696474683A200F
:100A460034303070783B6865696768743A203736A9
:100A560070783B626F726465723A20736F6C69647A
:100A66003B666F6E742D73697A653A2034387078F8
:100A76003B7D0D0A202020203C2F7374796C653E47
:100A86000D0A3C2F686561643E0D0A3C626F64790D
:100A96003E0D0A202020203C64697620636C617339
:100AA600733D226D61696E2D6672616D65223E0D24
:100AB6000A20202020202020203C68313ECCECB2A9
:100AC600C54149CAB5D1E9CAD23C2F68313E0D0AA3
:100AD60020202020202020203C64697620636C6141
:100AE60073733D227375622D6672616D65223E0DCC
:100AF6000A2020202020202020202020203C666F55
:100B0600726D20616374696F6E3D2223223E0D0A69
:100B160020202020202020202020202020202020CF
:100B26003C64697620636C6173733D227468642D3E
:100B36006672616D65223E0D0A202020202020204D
:100B4600202020202020202020202020203C683229
:100B56003E576946693C2F68323E0D0A2020202008
:100B6600202020202020202020202020202020207F
:100B76003C64697620636C6173733D22666F726DA7
:100B86002D6C696E65223E3C703EC3FBB3C63C2F9E
:100B9600703E3C696E70757420706C616365686F39
:100BA6006C6465723D22CAE4C8EBC1ACBDD3B5C462
:100BB600576946692220747970653D227465787498
:100BC60022206E616D653D2273736964223E3C2F5F
:100BD6006469763E0D0A2020202020202020202037
:100BE600202020202020202020203C6469762063BD
:100BF6006C6173733D22666F726D2D6C696E652232
:100C06003E3C703EC3DCC2EB3C2F703E3C696E70CE
:100C1600757420706C616365686F6C6465723D22E3
:100C2600CAE4C8EB57694669C3DCC2EB2220747973
:100C360070653D227465787422206E616D653D2273
:100C4600707764223E3C2F6469763E0D0A20202090
:100C5600202020202020202020202020203C2F641F
:100C660069763E0D0A2020202020202020202020EA
:100C760020202020203C64697620636C6173733DDC
:100C8600227468642D6672616D65223E0D0A20200D
:100C9600202020202020202020202020202020204E
:100CA60020203C68323EB7FECEF1C6F73C2F6832B4
:100CB6003E0D0A2020202020202020202020202039
:100CC600202020202020203C64697620636C6173FC
:100CD600733D22666F726D2D6C696E65223E3C70A7
:100CE6003E4950B5D8D6B73C2F703E3C696E7075FC
:100CF6007420706C616365686F6C6465723D223147
:100D060031392E332E3233332E3536222074797014
:100D1600653D227465787422206E616D653D226999
:100D260070223E3C2F6469763E0D0A20202020204A
:100D36002020202020202020202020202020203C91
:100D460064697620636C6173733D22666F726D2DE4
:100D56006C696E65223E3C703EB6CBBFDA3C2F70A6
:100D66003E3C696E70757420706C616365686F6C6B
:100D76006465723D22353030302220747970653DCD
:100D8600227465787422206E616D653D22706F72E3
:100D960074223E3C2F6469763E0D0A2020202020D6
:100DA60020202020202020202020203C2F6469762F
:100DB6003E0D0A2020202020202020202020202038
:100DC6002020203C64697620636C6173733D227435
:100DD60068642D6672616D65223E0D0A2020202012
:100DE60020202020202020202020202020202020FD
:100DF6003C68323ED3C3BBA73C2F68323E0D0A2067
:100E060020202020202020202020202020202020DC
:100E16002020203C64697620636C6173733D2266F2
:100E26006F726D2D6C696E65223E3C703ED3C3BBFE
:100E3600A7C3FB3C2F703E3C696E70757420706CC6
:100E4600616365686F6C6465723D22CAE4C8EBD75E
:100E5600D4B6A8D2E5D3C3BBA7C3FB22207479704E
:100E6600653D227465787422206E616D653D22753C
:100E7600736572223E3C2F6469763E0D0A2020205F
:100E8600202020202020202020202020202020205C
:100E9600203C64697620636C6173733D22666F72D1
:100EA6006D2D6C696E65223E3C703EC3DCC2EB3C28
:100EB6002F703E3C696E70757420706C6163656856
:100EC6006F6C6465723D22CAE4C8EBD7D4B6A8D26B
:100ED600E5C3DCC2EB2220747970653D2274657827
:100EE6007422206E616D653D2275707764223E3CEA
:100EF6002F6469763E0D0A20202020202020202005
:100F0600202020202020203C2F6469763E0D0A20D8
:100F16002020202020202020202020202020203CAF
:100F2600696E707574207374796C653D22666C6F9A
:100F360061743A72696768743B6D617267696E3A8B
:100F4600203130707820343070783B77696474686B
:100F56003A2033303070783B6865696768743A20A8
:100F6600363670783B666F6E742D73697A653A20F3
:100F7600343870783B626F726465722D7261646991
:100F860075733A20313670782220747970653D2267
:100F96007375626D6974222076616C75653D22C930
:100FA600E8B6A8223E0D0A2020202020202020205E
:100FB6002020203C2F666F726D3E0D0A20202020D7
:100FC600202020203C6120687265663D222F636FD9
:100FD6006E666967223E4149D4B6B3CCBFD8D6C641
:100FE600C9E8D6C33C2F613E0D0A202020202020D0
:100FF60020203C2F6469763E0D0A202020203C2FBD
:101006006469763E0D0A3C2F626F64793E0D0A3C98
:101016002F68746D6C3E00C9E8B6A8B3C9B9A600BE
:0E381F00E4F5C7F5C5F5C675C3FF75C4FF22F5
:10347F00AD07AC06C2AF75C78175C501ECF5C3AF1B
:10348F00058FC475C65A75C6A500E5C21211620D27
:10349F00BD00010C740129F9E43AFA900F1B74FF77
:0F34AF00F5F01211EB45F070D312381FD2AF2297
:10377800AD07AC06C2AFECF5C3AF058FC475C78102
:1037880075C50375C65A75C6A50012381FD2AF2273
:1034BE00AD07AC06C2AF75C78175C502ECF5C3AFDB
:1034CE00058FC412111CF5C275C65A75C6A5000D1E
:1034DE00BD00010C740129F9E43AFA900E6B74FFE9
:0F34EE00F5F01211EB45F070D312381FD2AF2258
:1018B600EFD3940540037F012212111CFED394033B
:1018C60040037F0222EF7041EE700B90000112116F
:1018D60035F45293529412111CB4010B900001126C
:1018E60011354293F4529412111CFEB4020A900070
:1018F6000112113542934294EEB4030D9000011289
:101906001135FEF45293EE4294EF640170431211C6
:101916001CFE700B900001121135F452915292EE9A
:10192600B4010B9000011211354291F4529212113A
:101936001CB4020A90000112113542914292121112
:101946001CB4030D900001121135FEF45291EE42C3
:1019560092EF6402704312111CFE700B900001128C
:101966001135F452955296EEB4010B900001121106
:10197600354295F4529612111CB4020A90000112D7
:1019860011354295429612111CB4030D90000112B6
:101996001135FEF45295EE4296EF64037043121130
:1019A6001CFE700B900001121135F452B152B2EECA
:1019B600B4010B90000112113542B1F452B212116A
:1019C6001CB4020A90000112113542B142B2121142
:1019D6001CB4030D900001121135FEF452B1EE4213
:1019E600B2EF6404704312111CFE700B90000112DA
:1019F6001135F452B352B4EEB4010B90000112113A
:101A06003542B3F452B412111CB4020A900001120A
:101A1600113542B342B412111CB4030D90000112E9
:101A26001135FEF452B3EE42B4EF64057043121161
:101A36001CFF700B900001121135F452C952CAEF07
:101A4600B4010B90000112113542C9F452CA1211A9
:101A56001CB4020A90000112113542C942CA121181
:101A66001CB4030D900001121135FFF452C9EF4268
:041A7600CA7F002201
:1035A400EFD3940540037F0122EF7003ED4280EFD7
:1035B400B40103ED4290EFB40203ED42A0EFB40373
:1035C40003ED42B0EFB40403ED42C0EFB40503EDE4
:0535D40042C87F002247
:1034FD00EFD3940540037F0122EF7004EDF4528069
:10350D00EFB40104EDF45290EFB40204EDF452A0C7
:10351D00EFB40304EDF452B0EFB40404EDF452C073
:0B352D00EFB40504EDF452C87F00224B
:1032BE00EFD3940540037F0122EF700BE5805D6034
:1032CE00037F01227F0022EFB4010BE5905D6003C6
:1032DE007F01227F0022EFB4020BE5A05D60037F29
:1032EE0001227F0022EFB4030BE5B05D60037F0186
:1032FE00227F0022EFB4040BE5C05D60037F012244
:10330E007F0022EFB4050BE5C85D60037F01227FCD
:05331E0000227F0022E7
:10379800EF70038DFA22EFB401038DFB22EFB40220
:0637A80004AF058FFC22B6
:101C3600900D28EBF0A3EAF0A3E9F0AD07EDD394FD
:101C4600034003021DD4ED6403704CC2DEF5F9F5C2
:101C5600E9900D28E0FBA3E0FAA3E0F912111CFFBE
:101C6600E5A254CF4FF5A2900001121135FFE5D938
:101C760054F14FF5D99000041211355401FFE5D9FE
:101C860054FE4FF5D9900005121135B40104D2BFA8
:101C96008002C2BFD2DE22900D28E0FBA3E0FAA3A9
:101CA600E02404F9E43AFA12111C5431121162903C
:101CB6000D28E0FBA3E0FAA3E0F99000021211352B
:101CC600C39448400FE92404F9E43AFA12111C546B
:101CD600CF121162ED704F900D28E0FBA3E0FAA33E
:101CE600E0F9900004121135FF900002121135FE42
:101CF6004FF5DA900003121135FFE5F2543F4FF528
:101D0600F2900006121217FBAAF0900F0AEAF0A34F
:101D1600EBF0C200900F07EEF0900F10EAF0A3EB85
:101D2600F0F5EAEAF5FAED6401704F900D28E0FB54
:101D3600A3E0FAA3E0F9900004121135FF90000227
:101D4600121135FE4FF5DB900003121135FFE5F356
:101D5600543F4FF5F3900006121217FBAAF0900FAE
:101D66000CEAF0A3EBF0C201900F08EEF0900F1210
:101D7600EAF0A3EBF0F5EBEAF5FBED6402704F90A9
:101D86000D28E0FBA3E0FAA3E0F990000412113558
:101D9600FF900002121135FE4FF5DC900003121180
:101DA60035FFE5F4543F4FF5F4900006121217FD87
:101DB600ACF0900F0EECF0A3EDF0C202900F09EE1E
:0F1DC600F0900F14ECF0A3EDF0F5ECECF5FC222F
:1036D200759A50438E0475D7D075D6FF438E1090DD
:1036E200000C7402F0E4A3F0A3F0A3F0A3F0A3F0A3
:0D36F200A3F0A3F0A3F0A3F0A3F0A3F02237
:1037C3008F9BE59A20E1047F0180027F00EF70F276
:0437D300539AFD22E6
:1037D70012111CFF600C1237C3740129F9E43AFA7D
:0337E70080EE224F
:030043000233DAAB
:1033DA00C0E0C0F0C083C082C0D075D010E59A307A
:1033EA00E039539AFE900016E0B4012FC390001200
:1033FA00E094084004E4F0A3F0900012E475F001B0
:10340A00121201FE749825F0F58274003EF583E5E8
:10341A009BF0900014E4F0A37405F0D0D0D082D0D1
:06342A0083D0F0D0E03277
:10356E00759850438E40538EFE53890F758BD075D0
:10357E008DFFC2ABD28E9000007401F0E4A3F0A3D5
:10358E00F0A3F0A3F0A3F0A3F0A3F0A3F0A3F0A395
:06359E00F0A3F0D2AC2204
:10364000900003E0FCA3E02498F58274083CF58325
:10365000EFF0900003E475F0011211EBC394044005
:1036600007E4900003F0A3F0900005E0700404F07C
:03367000D29922CA
:1037EA0012111CFF600C123640740129F9E43AFAEE
:0337FA0080EE223C
:03002300022DA902
:102DA900C0E0C0F0C083C082C0D075D01830983E52
:102DB900C29890000AE0B40135C3900007E09480FE
:102DC900900006E094004004E4F0A3F0900006E4CB
:102DD90075F001121201FE741825F0F58274003E97
:102DE900F583E599F0900008E4F0A37405F03099B3
:102DF90043C299900003E0FEA3E0FF900001E0FCCC
:102E0900A3E0FD6F7002EC6E602574982DF5827455
:102E1900083CF583E0F599900001E475F001121181
:102E2900EBC39404400E900001E4F0A3F0800590F8
:0F2E39000005E4F0D0D0D082D083D0F0D0E032CA
:03000000022F7854
:0C2F7800787FE4F6D8FD758120022FBFA1
:10102600E709F608DFFA8046E709F208DFFA803EAC
:1010360088828C83E709F0A3DFFA8032E309F60899
:10104600DFFA8078E309F208DFFA807088828C8301
:10105600E309F0A3DFFA806489828A83E0A3F608B5
:10106600DFFA805889828A83E0A3F208DFFA804C8F
:1010760080D280FA80C680D4806980F28033801066
:1010860080A680EA809A80A880DA80E280CA8033CF
:1010960089828A83ECFAE493A3C8C582C8CCC58347
:1010A600CCF0A3C8C582C8CCC583CCDFE9DEE78017
:1010B6000D89828A83E493A3F608DFF9ECFAA9F096
:1010C600EDFB2289828A83ECFAE0A3C8C582C8CCEC
:1010D600C583CCF0A3C8C582C8CCC583CCDFEADE05
:1010E600E880DB89828A83E493A3F208DFF980CC67
:1010F60088F0EF60010E4E60C388F0ED2402B40460
:101106000050B9F582EB2402B4040050AF23234506
:06111600822390107673A5
:10111C00BB010689828A83E0225002E722BBFE02D1
:09112C00E32289828A83E4932204
:10113500BB010CE58229F582E5833AF583E022506F
:1011450006E92582F8E622BBFE06E92582F8E222B9
:0D115500E58229F582E5833AF583E49322D3
:10116200BB010689828A83F0225002F722BBFE016C
:02117200F32266
:10117400F8BB010DE58229F582E5833AF583E8F0B1
:10118400225006E92582C8F622BBFE05E92582C85D
:02119400F22245
:10119600BC000BBE0029EF8DF084FFADF022E4CC3D
:1011A600F875F008EF2FFFEE33FEEC33FCEE9DEC06
:1011B600984005FCEE9DFE0FD5F0E9E4CEFD22ED4C
:1011C600F8F5F0EE8420D21CFEADF075F008EF2F96
:1011D600FFED33FD4007985006D5F0F222C398FD87
:0511E6000FD5F0EA2224
:1011EB00C5F0F8A3E028F0C5F0F8E582158270028F
:0611FB001583E038F0222C
:10120100A3F8E0C5F025F0F0E582158270021583A0
:06121100E0C838F0E822FD
:10121700BB0110E58229F582E5833AF583E0F5F015
:10122700A3E0225009E92582F886F008E622BBFEF2
:101237000AE92582F8E2F5F008E222E5832AF58338
:08124700E993F5F0A3E99322FD
:1031EB00900EA6EBF0A3EAF0A3E9F0900EACEBF097
:1031FB00A3EAF0A3E9F0900EA6E0FBA3E475F001BF
:10320B00121201A9F0FA12111C70EB900EA774FFA9
:10321B00F5F01211EB900EA9E0FBA3E475F001128F
:10322B001201A9F0FA12111CFF900EA6E0FBA3E409
:10323B0075F001121201A9F0FAEF12116270D6901B
:0B324B000EACE0FBA3E0FAA3E0F922C8
:10124F00E709F60870FA8046E709F20870FA803E5F
:10125F0088828C83E709F0A370FA807EE309F60891
:10126F0070FA8076E309F20870FA806E88828C83B8
:10127F00E309F0A370FA806289828A83E0A3F608FB
:10128F0070FA805689828A83E0A3F20870FA804A46
:10129F0080D280FA80C680D4806580F28031801041
:1012AF0080A680EA809A80A880DA80E280CA8031A6
:1012BF0089828A83ECFAE493A3C8C582C8CCC5831C
:1012CF00CCF0A3C8C582C8CCC583CC70E9800D898A
:1012DF00828A83E493A3F60870F9ECFAA9F0EDFB88
:1012EF002289828A83ECFAE0A3C8C582C8CCC58361
:1012FF00CCF0A3C8C582C8CCC583CC70EA80DD8989
:10130F00828A83E493A3F20870F980CE88F0ED24EB
:10131F0002B4040050C4F582EB2402B4040050BAA6
:09132F00232345822390129F73D1
:1037AE00E4FFFE12111C600C0FEF70010E09E970A0
:0537BE00F20A80EF2279
:102B8400900EB3EBF0A3EAF0A3E9F0A3E0FBA3E01B
:102B9400FAA3E0F912111C7003022C30900EB3E07A
:102BA400FBA3E0FAA3E0F912111C7003022C3C9081
:102BB4000EB6E0F9A3E0FAA3E0A3C9F0A3EAF0A3F8
:102BC400E9F0900EB3A3E0FAA3E0F9900EBCEBF0A9
:102BD400A3EAF0A3E9F0900EB9E0FBA3E0FAA3E0C6
:102BE400F912111CFF6026900EBCE0FBA3E0FAA3CF
:102BF400E0F912111C6F7015900EBA75F0011211E4
:102C0400EB900EBDE475F0011211EB80C9900EB982
:102C1400E0FBA3E0FAA3E0F912111C7002800D900E
:102C24000EB4E475F0011211EB022BA0900EB3E088
:0F2C3400FBA3E0FAA3E0F9227B007A00790022EB
:10133800EF4E6012EF60010EEDBB010B89828A83CC
:10134800F0A3DFFCDEFA2289F05007F709DFFCA9D9
:0C135800F022BBFEFCF309DFFCA9F02230
:102F84000236A5E493A3F8E493A34003F68001F288
:102F940008DFF48029E493A3F85407240CC8C3334E
:102FA400C4540F4420C8834004F456800146F6DF1D
:102FB400E4800B0102040810204080903111E47E6B
:102FC400019360BCA3FF543F30E509541FFEE49312
:102FD400A360010ECF54C025E060A840B8E493A3D9
:102FE400FAE493A3F8E493A3C8C582C8CAC583CA04
:102FF400F0A3C8C582C8CAC583CADFE9DEE780BEBC
:01317D000051
:00000001FF
