:1020CE00AD071FED600B0000007E1A1EEE60F18062
:0120DE00FA07
:0120DF0022DE
:0F20E0007DA57C06ED1D70011C144C70F7DFF11F
:0120EF0022CE
:02002600AB0726
:10002800AF031BEF60107E04EED3940040F27FFA1A
:060038001220E01E80F220
:01003E00229F
:101FC2007379732073746172740D0A00776966699C
:101FD2002072657365740D0A0077696669207365FE
:0E1FE20074206170207375636573730D0A00BF
:101D8600C2AF12201C43AF01121EF5E4F5B8F5B53B
:101D960043B501122047D2AF7BFF7A1F79C21220CA
:101DA600BB1216157E087F007D007B017A007996AE
:101DB6001208827BFF7A1F79CE1220BB121FF01207
:0F1DC60010CAEF60EE7BFF7A1F79DB1220BB2281
:100F95004448543131207472756520200D0A00448F
:100FA500485431312066616C736520200D0A005468
:100FB500454D500048554D49004F4E0031206F6E4C
:100FC500210D0A004F46460031206F6666210D0A45
:100FD5000032206F6E210D0A0032206F6666210DEA
:100FE5000A0033206F6E210D0A0033206F666621DB
:100FF5000D0A0034206F6E210D0A0034206F6666DD
:10100500210D0A0073776974636820696E76616CD7
:10101500696420636F6D6D616E640D0A004C49470C
:101025004854006C6967687431206F6E210D0A00A1
:101035006C6967687431206F6666210D0A00494E38
:1010450043006C696768743120696E63210D0A007D
:10105500444543006C696768743120646563210DFC
:101065000A006C696768743220696E63210D0A0095
:101075006C696768743220646563210D0A006C69C8
:1010850067687420696E76616C696420636F6D6D45
:10109500616E643232320D0A00696E76616C696484
:1010A50020636F6D6D616E643131310D0A005345FA
:1010B500545749464900535749544348004F4B003C
:0510C5004641494C000A
:10000E00D2C87F011220CEC2C87F121220E0D2C801
:05001E007F040220CE6A
:101F2900E4900DE3F0900DE2F030C8FD7F0212203D
:101F3900CE900DE3E025E0F030C803E004F020C8BE
:101F4900FD900DE2E004F0E0C3940840DC900DE35D
:021F5900E0FFA7
:011F5B002263
:0B142600900DC0EBF0A3EAF0A3E9F08A
:10143100E4A3F0A3F0A3F0A3F0A3F012000E30C8D0
:10144100030214CE30C8FDC2AF7F081220CE121F96
:1014510029900DC3EFF0121F29900DC4EFF0121F58
:1014610029900DC5EFF0121F29900DC6EFF0121F44
:1014710029900DC7EFF0D2AF900DC4E0FD900DC3E0
:10148100E02DFDE433FC900DC5E07A002DFDEA3C32
:10149100FCA3E02DFDEA3CFC7E00EDB5070CEEB5AA
:1014A10004087BFF7A0F799580067BFF7A0F79A478
:1014B1001220BB900DC5E0FF900DC8E4F0A3EFF042
:1014C100900DC3E0FF900DCAE4F0A3EFF0900D681A
:1014D10074FFF0A3740FF0A374B4F0900DC0E0FB9F
:1014E100A3E0FAA3E0F91216D9EA494B6005900D81
:1014F100C88024900D6874FFF0A3740FF0A374B931
:10150100F0900DC0E0FBA3E0FAA3E0F91216D9EACE
:10151100494B6009900DCAE0FEA3E0FF227EFF7FE8
:01152100FFCA
:0115220022A6
:1008AE00900DDCEBF0A3EAF0A3E9F090000712073D
:1008BE006824CE60781470030209A0147003020A33
:1008CE000424036003020A67900D6874FFF0A3749A
:1008DE000FF0A374BEF0900DDCE0FBA3E0FAA3E0F2
:1008EE00F91216D9EA494B60107D047F05121E8C51
:1008FE007BFF7A0F79C1020A62900D6874FFF0A334
:10090E00740FF0A374C9F0900DDCE0FBA3E0FAA322
:10091E00E0F91216D9EA494B7003020A737D047F7F
:10092E0005121E1B7BFF7A0F79CD020A62900D68AD
:10093E0074FFF0A3740FF0A374BEF0900DDCE0FB17
:10094E00A3E0FAA3E0F91216D9EA494B60107D1024
:10095E00E4FF121E8C7BFF7A0F79D6020A62900D8D
:10096E006874FFF0A3740FF0A374C9F0900DDCE06F
:10097E00FBA3E0FAA3E0F91216D9EA494B70030281
:10098E000A737D10E4FF121E1B7BFF7A0F79DE02C5
:10099E000A62900D6874FFF0A3740FF0A374BEF09A
:1009AE00900DDCE0FBA3E0FAA3E0F91216D9EA49B8
:1009BE004B60107D02E4FF121E8C7BFF7A0F79E7ED
:1009CE00020A62900D6874FFF0A3740FF0A374C94D
:1009DE00F0900DDCE0FBA3E0FAA3E0F91216D9EAE1
:1009EE00494B7003020A737D02E4FF121E1B7BFF4C
:1009FE007A0F79EF805E900D6874FFF0A3740FF09C
:100A0E00A374BEF0900DDCE0FBA3E0FAA3E0F912B4
:100A1E0016D9EA494B600F7D01E4FF121E8C7BFF55
:100A2E007A0F79F8802E900D6874FFF0A3740FF092
:100A3E00A374C9F0900DDCE0FBA3E0FAA3E0F91279
:100A4E0016D9EA494B601E7D01E4FF121E1B7BFF87
:100A5E007A1079001220BB800C7BFF7A1079091274
:070A6E0020BB7F00227F0185
:010A7500225E
:101E5600900DE6EFF0BF0210900DE474A0F0C3748D
:101E6600FF94A0FDE4FF8015900DE6E0B407149002
:101E76000DE574A0F0C374FF94A0FD7F01122069E4
:061E86007F01227F002213
:101EC100900D24EFF0BF020FE4900DE4F0C374FF16
:101ED1009400FDE4FF8014900D24E0B40713E49016
:101EE1000DE5F0C374FF9400FD7F011220697F01AD
:041EF100227F00222A
:101BBE00900DE7EFF064027028900DE4E0FFC3741F
:101BCE00FF9FC39428500574FFF08007900DE4E04A
:101BDE002428F0900DE4E0FFC374FF9FFDE4FF8026
:101BEE002E900DE7E06407702C900DE5E0FFC374B6
:101BFE00FF9FC39428500574FFF08007900DE5E019
:101C0E002428F0900DE5E0FFC374FF9FFD7F0112C5
:081C1E0020697F01227F0022F2
:101C2600900DE8EFF064027022900DE4E0C3942872
:101C36005004E4F08007900DE4E024D8F0900DE421
:101C4600E0FFC374FF9FFDE4FF8028900DE8E06489
:101C5600077026900DE5E0C394285004E4F0800751
:101C6600900DE5E024D8F0900DE5E0FFC374FF9FEA
:0C1C7600FD7F011220697F01227F002207
:100C3A00900DDFEBF0A3EAF0A3E9F0900D6874FFE2
:100C4A00F0A37410F0A37422F0900DDFE0FBA3E090
:100C5A00FAA3E0F91216D9EA494B7003020DEA9099
:100C6A00000612076824CE7003020D2904600302ED
:100C7A000DE2900D6874FFF0A3740FF0A374BEF038
:100C8A00900DDFE0FBA3E0FAA3E0F91216D9EA49D6
:100C9A004B60057F02020D4C900D6874FFF0A3743F
:100CAA000FF0A374C9F0900DDFE0FBA3E0FAA3E014
:100CBA00F91216D9EA494B60057F02020D7B900DA5
:100CCA006874FFF0A37410F0A37443F0900DDFE092
:100CDA00FBA3E0FAA3E0F91216D9EA494B600E7FAA
:100CEA0002121BBE7BFF7A107947020DF0900D6845
:100CFA0074FFF0A37410F0A37455F0900DDFE0FBBD
:100D0A00A3E0FAA3E0F91216D9EA494B7003020DDF
:100D1A00F37F02121C267BFF7A107959020DF0909C
:100D2A000D6874FFF0A3740FF0A374BEF0900DDF8A
:100D3A00E0FBA3E0FAA3E0F91216D9EA494B600EE8
:100D4A007F07121E567BFF7A107928020DF0900D4C
:100D5A006874FFF0A3740FF0A374C9F0900DDFE07C
:100D6A00FBA3E0FAA3E0F91216D9EA494B600D7F1A
:100D7A0007121EC17BFF7A107935806A900D68745C
:100D8A00FFF0A37410F0A37443F0900DDFE0FBA30F
:100D9A00E0FAA3E0F91216D9EA494B600D7F07126F
:100DAA001BBE7BFF7A107967803C900D6874FFF058
:100DBA00A37410F0A37455F0900DDFE0FBA3E0FAE2
:100DCA00A3E0F91216D9EA494B601E7F07121C26C6
:100DDA007BFF7A107975800E7BFF7A107983800603
:0B0DEA007BFF7A10799E1220BB7F0176
:010DF50022DB
:10161500900D187403F0A304F07B017A0D79187FFF
:1016250005120A76900D197413F07B017A0D79185D
:10163500E4FF120A76E4900D1AF0A304F0FB7A0D8C
:10164500791A7F05120A76900D167403F0A374803B
:10165500F07B017A0D79167F03120A76900D1774C7
:1016650080F07B017A0D79167F01120A76E4900DE0
:101675001CF0A3F0A37442F0E4A3F0A3F0A304F0DC
:10168500E4A3F0A3F07B017A0D791C7F03120DF61C
:101695007B017A0D791C7F02120DF67B017A0D799B
:1016A5001C7F07120DF67D047F05121E1B7D10E4BD
:1016B500FF121E1B7D02E4FF121E1B7D01E4FF12BB
:1016C5001E1B7F02121EC17F07121EC1E4900DE48E
:0316D500F0A3F08F
:0116D80022EF
:0B11FE00900DCCEBF0A3EAF0A3E9F0A9
:10120900900D6874FFF0A37410F0A374B3F0121674
:10121900D9900DCFEBF0A3EAF0A3E9F04A4B6003B4
:10122900021316900D6874FFF0A37410F0A374BB39
:10123900F0900DCCE0FBA3E0FAA3E0F91216D990E7
:101249000DCFEBF0A3EAF0A3E9F04A4B6020900D33
:10125900CFE0FBA3E0FAA3E0F91208AEEF7BFF6051
:10126900067A1079C280047A1079C5021523900D87
:101279006874FFF0A37410F0A37422F0900DCCE011
:10128900FBA3E0FAA3E0F91216D9900DCFEBF0A376
:10129900EAF0A3E9F04A4B600E900DCFE0FBA3E022
:1012A900FAA3E0F9020C3A900D6874FFF0A3740FE9
:1012B900F0A374B4F0900DCCE0FBA3E0FAA3E0F93D
:1012C9001216D9900DCFEBF0A3EAF0A3E9F04A4B3F
:1012D9006002802B900D6874FFF0A3740FF0A37463
:1012E900B9F0900DCCE0FBA3E0FAA3E0F91216D90E
:1012F900900DCFEBF0A3EAF0A3E9F04A4B600E9012
:0D1309000DCFE0FBA3E0FAA3E0F9121426DB
:0113160022B4
:07000300474554202F2000A7
:101DD500900DE97401F0121D86900DE9E01470F97B
:101DE500121F5CEF60F37B017A0079961220BB909D
:101DF5000D6874FFF0A37400F0A37403F07B017AFF
:101E05000079961216D9EA494B60CE7BFF7A0079A4
:061E1500901218FE80C3CC
:1017980041542B524553544F52450D0A004F4B00AC
:1017A80041542B43574D4F44453D320D0A00415497
:1017B8002B43575341503D2241495F4C6162222CD3
:1017C8002231323334353637383930222C342C3400
:1017D8000D0A0041542B5253540D0A0041542B4317
:1017E80049504D55583D310D0A0041542B4349503D
:1017F8005345525645523D312C353030300D0A0094
:1018080041542B43494653520D0A0041542B434936
:101818005053454E443D302C3137300D0A000D0AE7
:10182800003E20000D0A0D0A0041542B4349505335
:10183800454E443D302C0000000000000000000030
:071848000000000000000099
:101C8200480D71FF1798FF17A5012C480D79FF1712
:101C9200A8FF17A5012C480D81FF17B6FF17A50154
:101CA2002C480D89FF17DBFF17A5012C480D91FF6A
:101CB20017E4FF17A5012C480D99FF17F2FF17A58E
:101CC200012C480DA1FF1808FF17A5012C480DA9EA
:081CD200FF1813FF17A5012CF8
:10131700900D58EBF0A3EAF0A3E9F0A3ECF0A3EDEE
:01132700F0D5
:10132800900D5BE0FEA3E0FF7C277D101207C9EF5C
:101338002430FF900D58E0FBA3E0FAA3E0F9EF1288
:101348000795900D5BE0FEA3E0FF7C277D10120758
:10135800C97E037FE8CFCDCFCECCCE1207C9EF240C
:1013680030FF900D58E0FBA3E0FAA3E0F9900001EC
:10137800EF1207A7900D5BE0FEA3E0FF7C037DE87A
:101388001207C97E007F64CFCDCFCECCCE1207C95D
:10139800EF2430FF900D58E0FBA3E0FAA3E0F990AA
:1013A8000002EF1207A7900D5BE0FEA3E0FF7C00B0
:1013B8007D641207C97E007F0ACFCDCFCECCCE1276
:1013C80007C9EF2430FF900D58E0FBA3E0FAA3E033
:1013D800F9900003EF1207A7900D5BE0FEA3E0FF72
:1013E8007C007D0A1207C9ED2430FF900D58E0FB00
:1013F800A3E0FAA3E0F9900004EF1207A790000514
:10140800E41207A712074FFFB43009740129F9E461
:0D1418003AFA80F0EF70060429F9E43AFA80
:0114250022A4
:101FF000E4900D16F0A37408F07B017A0D79167F3A
:1020000005120A767D087F05121E1B7F641220E0F0
:0C2010007D087F05121E8C7F0202002656
:0B152300900D2EEBF0A3EAF0A3E9F01E
:10152E0078377C0D7D017BFF7A1879317E007F1E26
:10153E00120729900D2EE0FBA3E0FAA3E0F912208A
:10154E007F7B017A0D7931AD07AC06121317900D22
:10155E0055EBF0A3EAF0A3E9F0900D55E0F9A3E006
:10156E00FAA3E0900D5BC9F0A3EAF0A3E9F07B01CA
:10157E007A0D7937121B53900D5B74FFF0A374181C
:10158E00F0A37426F07B017A0D7937121B53900D60
:10159E00A97401F0A3740DF0A37437F0A374FFF0D7
:1015AE00A37418F0A37429F0A37401F0A3742CF0A3
:1015BE00900D7CE0F9A3E0FAA3E0900D5BC9F0A3D7
:1015CE00EAF0A3E9F0900D7FE0FFA3E0900D5ECF6F
:1015DE00F0A3EFF0900DA912184FEA494B7002FFDD
:1015EE0022900D5B74FFF0A37417F0A374A5F0A303
:1015FE007401F0A3742CF0900D2E12184FEA494B83
:06160E007002FF227F01C3
:0116140022B3
:0B18FE00900D16EBF0A3EAF0A3E9F058
:1019090012207F900D2CEEF0A3EFF07E007F0A7D70
:10191900007B017A0D79191208827BFF7A007946DA
:10192900121523EF7002FF227B017A0D7923900DA6
:101939002CE0FCA3E0FD121317900D29EBF0A3EAAC
:10194900F0A3E9F0900D29E0F9A3E0FAA3E0900DE6
:101959005BC9F0A3EAF0A3E9F07B017A0D791912CA
:101969001B53900D5B74FFF0A37418F0A3742CF053
:101979007B017A0D7919121B537B017A0D791912A2
:101989001523EF7002FF22900D16E0FBA3E0FAA3E6
:0C199900E0F9121523EF7002FF227F011D
:0119A500221F
:101F5C009000147401F0E4900011F0A3F0900015BF
:101F6C00F0900013740AF0900013E0D3940050F733
:101F7C00E4900014F0A3E06007900011A3E0FF22AE
:031F8C007F0022B1
:08184F00E0FBA3E0FAA3E0F9BD
:0B185700900D58EBF0A3EAF0A3E9F0BD
:10186200900D5EE0FEA3E0FF7C007D0A1207C990A6
:101872000D63EEF0A3EFF0D3900D64E09400900DB1
:1018820063E09400406F900D58E0FBA3E0FAA3E000
:10189200F91220BB900D58E0FBA3E0FAA3E0F91285
:1018A20020A8121F5CEF603D7B017A00799612201E
:1018B200BB900D5BE0F9A3E0FAA3E0900D68C9F0DC
:1018C200A3EAF0A3E9F07B017A0079961216D99087
:1018D2000D60EBF0A3EAF0A3E9F04A4B60077B004E
:1018E2007A00790122900D64E024FFF0900D63E00C
:0B18F20034FFF080827B007A00790058
:0118FD0022C8
:1010CA00900D7CE0F9A3E0FAA3E0900D5BC9F0A3D0
:1010DA00EAF0A3E9F0900D7FE0FFA3E0900D5ECF68
:1010EA00F0A3EFF0900D7912184FEA494B7002FF06
:1010FA0022900D84E0F9A3E0FAA3E0900D5BC9F019
:10110A00A3EAF0A3E9F0900D87E0FFA3E0900D5E5B
:10111A00CFF0A3EFF0900D8112184FEA494B7008F7
:10112A007F021200267F0022900D8CE0F9A3E0FADC
:10113A00A3E0900D5BC9F0A3EAF0A3E9F0900D8F4C
:10114A00E0FFA3E0900D5ECFF0A3EFF0900D8912BF
:10115A00184FEA494B7002FF227F05120026900DB4
:10116A0094E0F9A3E0FAA3E0900D5BC9F0A3EAF0DA
:10117A00A3E9F0900D97E0FFA3E0900D5ECFF0A3F6
:10118A00EFF0900D9112184FEA494B7002FF22902E
:10119A000D9CE0F9A3E0FAA3E0900D5BC9F0A3EA85
:1011AA00F0A3E9F0900D9FE0FFA3E0900D5ECFF071
:1011BA00A3EFF0900D9912184FEA494B7002FF22E3
:1011CA00900DA4E0F9A3E0FAA3E0900D5BC9F0A3A7
:1011DA00EAF0A3E9F0900DA7E0FFA3E0900D5ECF3F
:1011EA00F0A3EFF0900DA112184FEA494B7002FFDD
:0411FA00227F01222D
:10204700538E7F5389F0E4F58A758CB8C28DD28C94
:10205700D2A9900DDB7464F0E4900DD8F0A3F0A33F
:02206700F02265
:03000B00021CDBF9
:101CDB00C0E0C083C082C0D075D008900DDBE0D3CC
:101CEB0094004003E014F0900014E0603290001375
:101CFB00E0D394004029E014F0E07023A3F09000AF
:101D0B0011E0FEA3E0FFD39400EE94004011749613
:101D1B002FF58274003EF583E4F090001504F0D0AB
:081D2B00D0D082D083D0E03259
:10004600485454502F312E3020323030204F4B0D33
:100056000A436F6E74656E742D547970653A207418
:100066006578742F68746D6C3B2063686172736584
:10007600743D7574662D380D0A436F6E74656E7423
:100086002D4C656E6774683A20003C21444F4354FA
:100096005950452068746D6C3E0D0A3C68746D6C51
:1000A600206C616E673D22656E223E0D0A3C6865D6
:1000B60061643E0D0A202020203C6D65746120633A
:1000C6006861727365743D225554462D38223E0D83
:1000D6000A202020203C7469746C653E47656E6971
:1000E6007573204149204C61623C2F7469746C65BC
:1000F6003E0D0A202020203C7374796C653E0D0A63
:10010600202020202020202068317B666F6E742DF1
:1001160073697A653A363030253B746578742D619B
:100126006C69676E3A63656E7465727D0D0A202090
:100136002020202020202E77647B666F6E742D731E
:10014600697A653A333030253B6D617267696E2D89
:100156006C6566743A343070787D0D0A2020202054
:1001660020202020627574746F6E7B747970653AF6
:100176007375626D69743B6D617267696E2D6C652E
:1001860066743A343070783B77696474683A313211
:100196003070783B6865696768743A3132307078D8
:1001A6003B626F726465722D7261646975733A366B
:1001B6003070783B70616464696E673A323070788B
:1001C6007D0D0A20202020202020202E7377317BD1
:1001D6006261636B67726F756E643A23666639395E
:1001E60035333B76616C75653A4F4E7D0D0A20209E
:1001F6002020202020202E7377327B6261636B677C
:10020600726F756E643A6461726B677261793B7680
:10021600616C75653A4F46467D0D0A202020203CCC
:100226002F7374796C653E0D0A3C2F686561643ED8
:100236000D0A3C626F64793E0D0A202020203C6442
:100246006976207374796C653D2277696474683ABF
:10025600313030307078223E0D0A202020202020B8
:1002660020203C646976207374796C653D22626156
:10027600636B67726F756E642D636F6C6F723A7322
:100286006C61746567726179223E0D0A2020202018
:1002960020202020202020203C68313E47656E69C2
:1002A6007573204149204C61623C2F68313E0D0A2E
:1002B60020202020202020203C2F6469763E0D0A35
:1002C60020202020202020203C62723E0D0A202083
:1002D600202020202020202020203C666F726D20C8
:1002E6006E616D653D2273772220616374696F6E5E
:1002F6003D227461626C6522206D6574686F643D91
:1003060022706F7374223E0D0A20202020202020A8
:100316002020202020202020203C7370616E206346
:100326006C6173733D227764223E535749544348A8
:10033600313A3C2F7370616E3E0D0A20202020203A
:1003460020202020202020202020203C627574744C
:100356006F6E20636C6173733D2273773122206E5A
:10036600616D653D2253574954434831223E4F4EF5
:100376003C2F627574746F6E3E0D0A20202020207B
:1003860020202020202020202020203C627574740C
:100396006F6E20636C6173733D2273773222206E19
:1003A600616D653D2253574954434831223E4F46BD
:1003B600463C2F627574746F6E3E0D0A2020202015
:1003C6002020202020202020202020203C62723E59
:1003D6000D0A202020202020202020202020202040
:1003E60020203C7370616E20636C6173733D2277CD
:1003F60064223E535749544348323A3C2F73706146
:100406006E3E0D0A202020202020202020202020A3
:10041600202020203C627574746F6E20636C6173BB
:10042600733D2273773122206E616D653D225357ED
:100436004954434832223E4F4E3C2F627574746FC6
:100446006E3E0D0A20202020202020202020202063
:10045600202020203C627574746F6E20636C61737B
:10046600733D2273773222206E616D653D225357AC
:100476004954434832223E4F46463C2F62757474B7
:100486006F6E3E3C62723E0D0A2020202020202006
:100496002020202020202020203C7370616E2063C5
:1004A6006C6173733D227764223E53574954434827
:1004B600333A3C2F7370616E3E0D0A2020202020B7
:1004C60020202020202020202020203C62757474CB
:1004D6006F6E20636C6173733D2273773122206ED9
:1004E600616D653D2253574954434833223E4F4E72
:1004F6003C2F627574746F6E3E0D0A2020202020FA
:1005060020202020202020202020203C627574748A
:100516006F6E20636C6173733D2273773222206E97
:10052600616D653D2253574954434833223E4F4639
:10053600463C2F627574746F6E3E3C62723E0D0AC5
:1005460020202020202020202020202020202020A5
:100556003C7370616E20636C6173733D2277642215
:100566003E535749544348343A3C2F7370616E3EAC
:100576000D0A20202020202020202020202020209E
:1005860020203C627574746F6E20636C6173733DDA
:100596002273773122206E616D653D22535749548F
:1005A600434834223E4F4E3C2F627574746F6E3E44
:1005B6000D0A20202020202020202020202020205E
:1005C60020203C627574746F6E20636C6173733D9A
:1005D6002273773222206E616D653D22535749544E
:1005E600434834223E4F46463C2F627574746F6E04
:1005F6003E0D0A2020202020202020202020203CE4
:100606002F666F726D3E0D0A2020202020202020AC
:10061600202020203C62723E0D0A2020202020202F
:100626002020202020203C68723E0D0A2020202019
:100636003C2F6469763E0D0A202020203C62723EE3
:100646000D0A3C2F626F64793E0D0A3C2F68746D6B
:030656006C3E00F7
:041ACE00AB07AA06B2
:101AD2007C277D101207C9EF2430900DD2F07C27AD
:101AE2007D10AF03AE021207C97E037FE8CFCDCFD0
:101AF200CECCCE1207C9EF2430A3F07C037DE8AF31
:101B020003AE021207C97E007F64CFCDCFCECCCE0A
:101B12001207C9EF2430A3F07C007D64AF03AE024C
:101B22001207C97E007F0ACFCDCFCECCCE1207C915
:101B3200EF2430A3F0AE02AF037C007D0A1207C986
:101B4200ED2430A3F0E4A3F07B017A0D79D20220D8
:011B5200BBD7
:100A7600EFD3940540037F012212074FFED3940360
:100A860040037F0222EF7041EE700B9000011207C7
:100A960068F45293529412074FB4010B900001125E
:100AA60007684293F4529412074FFEB4020A90006C
:100AB6000112076842934294EEB4030D90000112AE
:100AC6000768FEF45293EE4294EF640170431207F6
:100AD6004FFE700B900001120768F452915292EE8D
:100AE600B4010B9000011207684291F4529212076A
:100AF6004FB4020A9000011207684291429212070F
:100B06004FB4030D900001120768FEF45291EE42B5
:100B160092EF6402704312074FFE700B90000112B1
:100B26000768F452955296EEB4010B900001120735
:100B3600684295F4529612074FB4020A90000112C9
:100B460007684295429612074FB4030D90000112B2
:100B56000768FEF45295EE4296EF6403704312075F
:100B66004FFE700B900001120768F452B152B2EEBC
:100B7600B4010B90000112076842B1F452B2120799
:100B86004FB4020A90000112076842B142B212073E
:100B96004FB4030D900001120768FEF452B1EE4205
:100BA600B2EF6404704312074FFE700B90000112FF
:100BB6000768F452B352B4EEB4010B900001120769
:100BC6006842B3F452B412074FB4020A90000112FD
:100BD600076842B342B412074FB4030D90000112E6
:100BE6000768FEF452B3EE42B4EF64057043120791
:100BF6004FFF700B900001120768F452C952CAEFFA
:100C0600B4010B90000112076842C9F452CA1207D8
:100C16004FB4020A90000112076842C942CA12077D
:100C26004FB4030D900001120768FFF452C9EF425A
:040C3600CA7F00224F
:101E8C00EFD3940540037F0122EF7003ED4280EF06
:101E9C00B40103ED4290EFB40203ED42A0EFB403A2
:101EAC0003ED42B0EFB40403ED42C0EFB40503ED13
:051EBC0042C87F002276
:101E1B00EFD3940540037F0122EF7004EDF4528061
:101E2B00EFB40104EDF45290EFB40204EDF452A0C0
:101E3B00EFB40304EDF452B0EFB40404EDF452C06C
:0B1E4B00EFB40504EDF452C87F002244
:10206900EF70038DFA22EFB401038DFB22EFB40266
:0620790004AF058FFC22FC
:100DF600900D24EBF0A3EAF0A3E9F0AD07EDD39450
:100E0600034003020F94ED6403704CC2DEF5F9F55E
:100E1600E9900D24E0FBA3E0FAA3E0F912074FFFE7
:100E2600E5A254CF4FF5A2900001120768FFE5D95D
:100E360054F14FF5D99000041207685401FFE5D923
:100E460054FE4FF5D9900005120768B40104D2BFCD
:100E56008002C2BFD2DE22900D24E0FBA3E0FAA3FB
:100E6600E02404F9E43AFA12074F54311207959038
:100E76000D24E0FBA3E0FAA3E0F990000212076854
:100E8600C39448400FE92404F9E43AFA12074F5490
:100E9600CF120795ED704F900D24E0FBA3E0FAA367
:100EA600E0F9900004120768FF900002120768FE3E
:100EB6004FF5DA900003120768FFE5F2543F4FF54D
:100EC600F290000612084AFBAAF0900DB4EAF0A3CD
:100ED600EBF0C200900DB1EEF0900DBAEAF0A3EB84
:100EE600F0F5EAEAF5FAED6401704F900D24E0FBA7
:100EF600A3E0FAA3E0F9900004120768FF9000024D
:100F0600120768FE4FF5DB900003120768FFE5F352
:100F1600543F4FF5F390000612084AFBAAF0900DD5
:100F2600B6EAF0A3EBF0C201900DB2EEF0900DBC64
:100F3600EAF0A3EBF0F5EBEAF5FBED6402704F90F7
:100F46000D24E0FBA3E0FAA3E0F990000412076881
:100F5600FF900002120768FE4FF5DC9000031207AF
:100F660068FFE5F4543F4FF5F490000612084AFD79
:100F7600ACF0900DB8ECF0A3EDF0C202900DB3EE1C
:0F0F8600F0900DBEECF0A3EDF0F5ECECF5FC22D5
:10201C00759A50438E0475D7D075D6FF438E1090A9
:10202C00000B7402F0E4A3F0A3F0A3F0A3F0A3F070
:0B203C00A3F0A3F0A3F0A3F0A3F02298
:102094008F9BE59A20E1047F0180027F00EF70F2BC
:0420A400539AFD222C
:1020A80012074FFF600C122094740129F9E43AFAE0
:0320B80080EE2295
:03004300021D3368
:101D3300C0E0C0F0C083C082C0D075D010E59A3037
:101D4300E036539AFE900014E0B4012CC3900011C6
:101D5300E094084004E4F0A3F0900011E475F0016E
:101D6300120834FE749625F0F58274003EF583E57F
:101D73009BF0900013740AF0D0D0D082D083D0F0BF
:031D8300D0E0327B
:101EF500759850438E40538EFE53890F758BD07560
:101F05008DFFC2ABD28E9000007401F0E4A3F0A364
:101F1500F0A3F0A3F0A3F0A3F0A3F0A3F0A3F0A324
:041F2500F0D2AC2228
:101F8F00900003E0FCA3E02496F58274083CF583EF
:101F9F00EFF0900003E475F00112081EC3940440A3
:101FAF0007E4900003F0A3F0900005E0700404F044
:031FBF00D2992292
:1020BB0012074FFF600C121F8F740129F9E43AFAD3
:0320CB0080EE2282
:030023000219A619
:1019A600C0E0C0F0C083C082C0D075D01830983B6C
:1019B600C298900009E0B40132C3900007E0948019
:1019C600900006E094004004E4F0A3F0900006E4E2
:1019D60075F001120834FE741625F0F58274003E87
:1019E600F583E599F09000087405F0309943C299A3
:1019F600900003E0FEA3E0FF900001E0FCA3E0FD01
:101A06006F7002EC6E602574962DF58274083CF5B5
:101A160083E0F599900001E475F00112081EC39465
:101A260004400E900001E4F0A3F08005900005E468
:0C1A3600F0D0D0D082D083D0F0D0E032CD
:03000000021A429F
:0C1A4200787FE4F6D8FD758120021A8937
:10065900E709F608DFFA8046E709F208DFFA803E83
:1006690088828C83E709F0A3DFFA8032E309F60870
:10067900DFFA8078E309F208DFFA807088828C83D8
:10068900E309F0A3DFFA806489828A83E0A3F6088C
:10069900DFFA805889828A83E0A3F208DFFA804C66
:1006A90080D280FA80C680D4806980F2803380103D
:1006B90080A680EA809A80A880DA80E280CA8033A6
:1006C90089828A83ECFAE493A3C8C582C8CCC5831E
:1006D900CCF0A3C8C582C8CCC583CCDFE9DEE780EE
:1006E9000D89828A83E493A3F608DFF9ECFAA9F06D
:1006F900EDFB2289828A83ECFAE0A3C8C582C8CCC3
:10070900C583CCF0A3C8C582C8CCC583CCDFEADEDB
:10071900E880DB89828A83E493A3F208DFF980CC3D
:1007290088F0EF60010E4E60C388F0ED2402B40436
:100739000050B9F582EB2402B4040050AF232345DD
:0607490082239006A97353
:10074F00BB010689828A83E0225002E722BBFE02A8
:09075F00E32289828A83E49322DB
:10076800BB010CE58229F582E5833AF583E0225046
:1007780006E92582F8E622BBFE06E92582F8E22290
:0D078800E58229F582E5833AF583E49322AA
:10079500BB010689828A83F0225002F722BBFE0143
:0207A500F3223D
:1007A700F8BB010DE58229F582E5833AF583E8F088
:1007B700225006E92582C8F622BBFE05E92582C834
:0207C700F2221C
:1007C900BC000BBE0029EF8DF084FFADF022E4CC14
:1007D900F875F008EF2FFFEE33FEEC33FCEE9DECDD
:1007E900984005FCEE9DFE0FD5F0E9E4CEFD22ED23
:1007F900F8F5F0EE8420D21CFEADF075F008EF2F6D
:10080900FFED33FD4007985006D5F0F222C398FD5D
:050819000FD5F0EA22FA
:10081E00C5F0F8A3E028F0C5F0F8E5821582700265
:06082E001583E038F02202
:10083400A3F8E0C5F025F0F0E58215827002158377
:06084400E0C838F0E822D4
:10084A00BB0110E58229F582E5833AF583E0F5F0EC
:10085A00A3E0225009E92582F886F008E622BBFEC9
:10086A000AE92582F8E2F5F008E222E5832AF5830F
:08087A00E993F5F0A3E99322D4
:101B5300900D58EBF0A3EAF0A3E9F0900D5EEBF0E3
:101B6300A3EAF0A3E9F0900D58E0FBA3E475F001BC
:101B7300120834A9F0FA12074F70EB900D5974FF55
:101B8300F5F012081E900D5BE0FBA3E475F0011263
:101B93000834A9F0FA12074FFF900D58E0FBA3E4B5
:101BA30075F001120834A9F0FAEF12079570D69078
:0B1BB3000D5EE0FBA3E0FAA3E0F922C6
:10207F00E4FFFE12074F600C0FEF70010E09E970BD
:05208F00F20A80EF22BF
:1016D900900D65EBF0A3EAF0A3E9F0A3E0FBA3E02A
:1016E900FAA3E0F912074F7003021785900D65E020
:1016F900FBA3E0FAA3E0F912074F700302179190D8
:101709000D68E0F9A3E0FAA3E0A3C9F0A3EAF0A306
:10171900E9F0900D65A3E0FAA3E0F9900D6EEBF006
:10172900A3EAF0A3E9F0900D6BE0FBA3E0FAA3E0D4
:10173900F912074FFF6026900D6EE0FBA3E0FAA3B4
:10174900E0F912074F6F7015900D6C75F0011208D2
:101759001E900D6FE475F00112081E80C9900D6B83
:10176900E0FBA3E0FAA3E0F912074F7002800D90A5
:101779000D66E475F00112081E0216F5900D65E07C
:0F178900FBA3E0FAA3E0F9227B007A00790022AB
:10088200EF4E6012EF60010EEDBB010B89828A838D
:10089200F0A3DFFCDEFA2289F05007F709DFFCA99A
:0C08A200F022BBFEFCF309DFFCA9F022F1
:101A4E00021DD5E493A3F8E493A34003F68001F2BC
:101A5E0008DFF48029E493A3F85407240CC8C33399
:101A6E00C4540F4420C8834004F456800146F6DF68
:101A7E00E4800B0102040810204080901C82E47E5A
:101A8E00019360BCA3FF543F30E509541FFEE4935D
:101A9E00A360010ECF54C025E060A840B8E493A324
:101AAE00FAE493A3F8E493A3C8C582C8CAC583CA4F
:101ABE00F0A3C8C582C8CAC583CADFE9DEE780BE07
:011CDA000009
:00000001FF
