:10164F00AD071FED600B0000007E1A1EEE60F180EB
:01165F00FA90
:011660002267
:0F1661007DA57C06ED1D70011C144C70F7DFF1A8
:011670002257
:0215D100AB0766
:1015D300AF031BEF60107E04EED3940040F27FFA5A
:0615E3001216611E80F2E9
:0115E90022DF
:1014DB007379732073746172740D0A00776966698E
:1014EB002072657365740D0A0077696669207365F0
:0E14FB0074206170207375636573730D0A00B1
:10137F00C2AF12158843AF0112155E43AF10E4F5EB
:10138F00B8F5B543B5011215AFD2AF7BFF7A14791B
:10139F00DB12163C120F5F7E087F007D007B017A07
:1013AF000079121208787BFF7A1479E712163C1233
:1013BF0015091209EFEF60EE7BFF7A1479F412161C
:0213CF003C22BE
:1008BA004448543131207472756520200D0A004471
:1008CA00485431312066616C736520200D0A00544A
:1008DA00454D500048554D49004F4E0031206F6E2E
:1008EA00210D0A004F46460031206F6666210D0A27
:1008FA000032206F6E210D0A0032206F6666210DCC
:10090A000A0033206F6E210D0A0033206F666621BC
:10091A000D0A0034206F6E210D0A0034206F6666BE
:10092A00210D0A0073776974636820696E76616CB9
:10093A00696420636F6D6D616E640D0A004C4947EE
:10094A004854006C6967687431206F6E210D0A0083
:10095A006C6967687431206F6666210D0A00494E1A
:10096A0043006C696768743120696E63210D0A005F
:10097A00444543006C696768743120646563210DDE
:10098A000A006C696768743220696E63210D0A0077
:10099A006C696768743220646563210D0A006C69AA
:1009AA0067687420696E76616C696420636F6D6D27
:1009BA00616E643232320D0A00696E76616C696466
:1009CA0020636F6D6D616E643131310D0A005345DC
:1009DA00545749464900535749544348004F4B001E
:0509EA004641494C00EC
:10160000D2C47F0112164FC2C47F12121661D2C417
:051610007F0402164FEB
:10147600E4900DFAF0900DF9F030C4FD7F021216DB
:101486004F900DFAE025E0F030C403E004F020C4EC
:10149600FD900DF9E004F0E0C3940840DC900DFAED
:0214A600E0FF65
:0114A8002221
:0B0C3000900DDDEBF0A3EAF0A3E9F06B
:100C3B00E4A3F0A3F0A3F0A3F0A3F012160030C4CA
:100C4B0003020CD830C4FDC2AF7F0812164F12142A
:100C5B0076900DE0EFF0121476900DE1EFF0121498
:100C6B0076900DE2EFF0121476900DE3EFF0121484
:100C7B0076900DE4EFF0D2AF900DE1E0FD900DE03A
:100C8B00E02DFDE433FC900DE2E07A002DFDEA3C13
:100C9B00FCA3E02DFDEA3CFC7E00EDB5070CEEB5A8
:100CAB0004087BFF7A0879BA80067BFF7A0879C93A
:100CBB0012163C900DE2E0FF900DE5E4F0A3EFF08F
:100CCB00900DE0E0FF900DE7E4F0A3EFF0900DC581
:100CDB0074FFF0A37408F0A374D9F0900DDDE0FB62
:100CEB00A3E0FAA3E0F9120D2DEA494B6005900D34
:100CFB00E58024900DC574FFF0A37408F0A374DE97
:100D0B00F0900DDDE0FBA3E0FAA3E0F9120D2DEA64
:100D1B00494B6009900DE7E0FEA3E0FF227EFF7FC9
:010D2B00FFC8
:010D2C0022A4
:10009600900DF3EBF0A3EAF0A3E9F0900007120746
:1000A6009624CE607814700302018814700302014E
:1000B600EC2403600302024F900DC574FFF0A37495
:1000C60008F0A374E3F0900DF3E0FBA3E0FAA3E0DD
:1000D600F9120D2DEA494B60107D017F0212144181
:1000E6007BFF7A0879E602024A900DC574FFF0A3F9
:1000F6007408F0A374EEF0900DF3E0FBA3E0FAA30E
:10010600E0F9120D2DEA494B700302025B7D017F77
:10011600021213D17BFF7A0879F202024A900DC5CA
:1001260074FFF0A37408F0A374E3F0900DF3E0FB02
:10013600A3E0FAA3E0F9120D2DEA494B60107D0207
:100146007F021214417BFF7A0879FB02024A900D66
:10015600C574FFF0A37408F0A374EEF0900DF3E0FD
:10016600FBA3E0FAA3E0F9120D2DEA494B70030256
:10017600025B7D027F021213D17BFF7A09790302AB
:10018600024A900DC574FFF0A37408F0A374E3F05F
:10019600900DF3E0FBA3E0FAA3E0F9120D2DEA4976
:1001A6004B60107D047F021214417BFF7A09790CA3
:1001B60002024A900DC574FFF0A37408F0A374EE12
:1001C600F0900DF3E0FBA3E0FAA3E0F9120D2DEA9F
:1001D600494B700302025B7D047F021213D17BFF41
:1001E6007A097914805E900DC574FFF0A37408F047
:1001F600A374E3F0900DF3E0FBA3E0FAA3E0F91299
:100206000D2DEA494B600F7D087F021214417BFFDA
:100216007A09791D802E900DC574FFF0A37408F03D
:10022600A374EEF0900DF3E0FBA3E0FAA3E0F9125D
:100236000D2DEA494B601E7D087F021213D17BFF0C
:100246007A09792512163C800C7BFF7A09792E12E1
:07025600163C7F00227F012E
:01025D00227E
:10000E00900DFDEFF07010900DFB74A0F0C374FF17
:10001E0094A0FDE4FF8015900DFDE0B40214900D48
:10002E00FC74A0F0C374FF94A0FD7F011215EA7F4B
:05003E0001227F0022F9
:1014A900900DC0EFF0700E900DFBF0C374FF940027
:1014B900FDE4FF8014900DC0E0B40213E4900DFC2C
:1014C900F0C374FF9400FD7F011215EA7F01227FAA
:0214D9000022EF
:1011AF00900DFEEFF07028900DFBE0FFC374FF9FD2
:1011BF00C39428500574FFF08007900DFBE024289E
:1011CF00F0900DFBE0FFC374FF9FFDE4FF802E90B6
:1011DF000DFEE06402702C900DFCE0FFC374FF9FC6
:1011EF00C39428500574FFF08007900DFCE024286D
:1011FF00F0900DFCE0FFC374FF9FFD7F011215EA15
:06120F007F01227F002296
:10127A00900DFFEFF07022900DFBE0C3942850040C
:10128A00E4F08007900DFBE024D8F0900DFBE0FF1E
:10129A00C374FF9FFDE4FF8028900DFFE064027095
:1012AA0026900DFCE0C394285004E4F08007900DCA
:1012BA00FCE024D8F0900DFCE0FFC374FF9FFD7F93
:0A12CA00011215EA7F01227F0022C5
:10042200900DF6EBF0A3EAF0A3E9F0900DC574FF8E
:10043200F0A37409F0A37447F0900DF6E0FBA3E07B
:10044200FAA3E0F9120D2DEA494B70030205D2908E
:10045200000612079624CE700302051104600302FF
:1004620005CA900DC574FFF0A37408F0A374E3F0FD
:10047200900DF6E0FBA3E0FAA3E0F9120D2DEA4994
:100482004B6005E4FF020534900DC574FFF0A374C0
:1004920008F0A374EEF0900DF6E0FBA3E0FAA3E0FF
:1004A200F9120D2DEA494B6005E4FF020563900D38
:1004B200C574FFF0A37409F0A37468F0900DF6E020
:1004C200FBA3E0FAA3E0F9120D2DEA494B600EE41A
:1004D200FF1211AF7BFF7A09796C0205D8900DC526
:1004E20074FFF0A37409F0A3747AF0900DF6E0FBA8
:1004F200A3E0FAA3E0F9120D2DEA494B70030205BD
:10050200DBE4FF12127A7BFF7A09797E0205D8902A
:100512000DC574FFF0A37408F0A374E3F0900DF618
:10052200E0FBA3E0FAA3E0F9120D2DEA494B600EBD
:100532007F0212000E7BFF7A09794D0205D8900DD9
:10054200C574FFF0A37408F0A374EEF0900DF6E00A
:10055200FBA3E0FAA3E0F9120D2DEA494B600D7FEF
:10056200021214A97BFF7A09795A806A900DC57428
:10057200FFF0A37409F0A37468F0900DF6E0FBA3FA
:10058200E0FAA3E0F9120D2DEA494B600D7F021249
:1005920011AF7BFF7A09798C803C900DC574FFF016
:1005A200A37409F0A3747AF0900DF6E0FBA3E0FACD
:1005B200A3E0F9120D2DEA494B601E7F0212127A56
:1005C2007BFF7A09799A800E7BFF7A0979A88006E7
:0B05D2007BFF7A0979C312163C7F0101
:0105DD0022FB
:100F5F00900DB47403F0A3740FF07B017A0D79B484
:100F6F007F0212025EE4900DB6F0A37410F07B01C5
:100F7F007A0D79B67F0412025E900DB27403F0A35E
:100F8F007460F07B017A0D79B27F0212025E900DD0
:100F9F00B87420F0E4A3F0A37442F0E4A3F0A3F03C
:100FAF00A304F0E4A3F0A3F07B017A0D79B87F03DB
:100FBF001205DE7B017A0D79B8E4FF1205DE7B01A5
:100FCF007A0D79B87F011205DE7D017F021213D1F0
:100FDF007D027F021213D17D047F021213D17D088F
:100FEF007F021213D1E4FF1214A97F021214A9E495
:060FFF00900DFBF0A3F0D1
:0110050022C8
:0B0B1700900DE9EBF0A3EAF0A3E9F079
:100B2200900DC574FFF0A37409F0A374D8F0120DF0
:100B32002D900DECEBF0A3EAF0A3E9F04A4B600331
:100B4200020C2F900DC574FFF0A37409F0A374E09A
:100B5200F0900DE9E0FBA3E0FAA3E0F9120D2D906D
:100B62000DECEBF0A3EAF0A3E9F04A4B6020900D04
:100B7200ECE0FBA3E0FAA3E0F9120096EF7BFF6042
:100B8200067A0979E780047A0979EA021215900D4A
:100B9200C574FFF0A37409F0A37447F0900DE9E067
:100BA200FBA3E0FAA3E0F9120D2D900DECEBF0A3FC
:100BB200EAF0A3E9F04A4B600E900DECE0FBA3E0F3
:100BC200FAA3E0F9020422900DC574FFF0A37408A1
:100BD200F0A374D9F0900DE9E0FBA3E0FAA3E0F9E9
:100BE200120D2D900DECEBF0A3EAF0A3E9F04A4BC5
:100BF2006002802B900DC574FFF0A37408F0A374FB
:100C0200DEF0900DE9E0FBA3E0FAA3E0F9120D2D6E
:100C1200900DECEBF0A3EAF0A3E9F04A4B600E90E2
:0D0C22000DECE0FBA3E0FAA3E0F9120C30AA
:010C2F0022A2
:07000300474554202F2000A7
:10004600900E007401F012137F900E00E01470F908
:1000560012140CEF60F37B017A00791212163C90B1
:100066000DC574FFF0A37400F0A37403F07B017A4E
:10007600007912120D2D900DAFEBF0A3EAF0A3E973
:0C008600F07B017A0D791212121580BD7A
:1010060041542B524553544F52450D0A004F4B0045
:1010160041542B43574D4F44453D320D0A00415430
:101026002B43575341503D2241495F4C6162222C6C
:101036002231323334353637383930222C342C3499
:101046000D0A0041542B5253540D0A0041542B43B0
:1010560049504D55583D310D0A0041542B434950D6
:101066005345525645523D312C353030300D0A002D
:1010760041542B43494653520D0A0041542B4349D0
:101086005053454E443D302C31300D0A003E3E3E15
:021096003E001A
:100DEC00470D77FF1006FF10132C470D7EFF1016D2
:100DFC00FF10132C470D85FF1024FF10132C470DEB
:100E0C008CFF1049FF10132C470D93FF1052FF104D
:100E1C00132C470D9AFF1060FF10132C470DA1FFE8
:100E2C001076FF10132C470DA8FF1081FF10132C08
:10150900E4900DB2F0A37404F07B017A0D79B2FF77
:1015190012025E7D047F041213D17F641216617D6D
:0B152900047F041214417F050215D15D
:10121500900DB2EBF0A3EAF0A3E9F0900D81E0F9AF
:10122500A3E0FAA3E0900DB8C9F0A3EAF0A3E9F0B2
:10123500900D84E0FF900DBBE4F0A3EFF0900DA8B6
:10124500120EA6EA494B7002FF227F0A1216619020
:101255000DB874FFF0A37410F0A37413F0A3740118
:10126500F0A3742CF0900DB2120EA6EA494B700251
:05127500FF227F0122B1
:10140C009000077401F0E4900004F0A3F090000841
:10141C00F0900006740AF0900006E0D3940050F7A8
:10142C00900008E0600CE4900007F0900004A3E04A
:05143C00FF227F0022E9
:080EA600E0FBA3E0FAA3E0F970
:0B0EAE00900DB5EBF0A3EAF0A3E9F013
:100EB900900DBBE0FEA3E0FF7C007D0A1207D590F0
:100EC9000DC0EEF0A3EFF0D3900DC1E09400900DAA
:100ED900C0E094004079900DB5E0FBA3E0FAA3E0EF
:100EE900F91216297BFF7A10799312163C900DB5E9
:100EF900E0FBA3E0FAA3E0F912163C12140CEF6030
:100F09003D7B017A00791212163C900DB8E0F9A3E5
:100F1900E0FAA3E0900DC5C9F0A3EAF0A3E9F07BDC
:100F2900017A007912120D2D900DBDEBF0A3EAF0B4
:100F3900A3E9F04A4B60077B007A00790122900D02
:100F4900C1E024FFF0900DC0E034FFF0020ED07B29
:050F5900007A007900A0
:010F5E002270
:1009EF00900D81E0F9A3E0FAA3E0900DB8C9F0A350
:1009FF00EAF0A3E9F0900D84E0FF900DBBE4F0A3C3
:100A0F00EFF0900D7E120EA6EA494B7002FF229076
:100A1F000D88E0F9A3E0FAA3E0900DB8C9F0A3EABE
:100A2F00F0A3E9F0900D8BE0FF900DBBE4F0A3EF86
:100A3F00F0900D85120EA6EA494B70087F02121531
:100A4F00D17F0022900D8FE0F9A3E0FAA3E0900D83
:100A5F00B8C9F0A3EAF0A3E9F0900D92E0FF900D72
:100A6F00BBE4F0A3EFF0900D8C120EA6EA494B7089
:100A7F0002FF227F051215D1900D96E0F9A3E0FA3F
:100A8F00A3E0900DB8C9F0A3EAF0A3E9F0900D9997
:100A9F00E0FF900DBBE4F0A3EFF0900D93120EA6C4
:100AAF00EA494B7002FF22900D9DE0F9A3E0FAA3F3
:100ABF00E0900DB8C9F0A3EAF0A3E9F0900DA0E023
:100ACF00FF900DBBE4F0A3EFF0900D9A120EA6EA83
:100ADF00494B7002FF22900DA4E0F9A3E0FAA3E0C6
:100AEF00900DB8C9F0A3EAF0A3E9F0900DA7E0FFCD
:100AFF00900DBBE4F0A3EFF0900DA1120EA6EA4902
:080B0F004B7002FF227F01225E
:1015AF00538E7F5389F0E4F58A758CB8C28DD28C37
:1015BF00D2A9900DF27464F0E4900DEFF0A3F0A3B4
:0215CF00F02208
:03000B000212D40A
:1012D400C0E0C083C082C0D075D008900DF2E0D3C6
:1012E40094004003E014F0900007E06032900006A0
:1012F400E0D394004029E014F0E07023A3F09000C0
:1013040004E0FEA3E0FFD39400EE940040117412B5
:101314002FF58274003EF583E4F090000804F0D0C9
:08132400D0D082D083D0E0326A
:100E3C0060650D123C686561643E202020203C6D8D
:100E4C0065746120636861727365743D2255544604
:100E5C002D38223E202020203C7469746C653ECCD9
:100E6C00ECB2C53C2F7469746C653E3C2F686561AF
:100E7C00643E3C626F64793E20202020CED2CAC7EB
:100E8C00D2BBB8F6CCECB2C5A3A13C2F626F64798F
:090E9C003E3C2F68746D6C3E00B1
:10025E00EFD3940540037F012212077DFED3940352
:10026E0040037F0222EF7041EE700B9000011207E7
:10027E0096F45293529412077DB4010B9000011222
:10028E0007964293F4529412077DFEB4020A900030
:10029E000112079642934294EEB4030D90000112A0
:1002AE000796FEF45293EE4294EF640170431207E8
:1002BE007DFE700B900001120796F452915292EE51
:1002CE00B4010B9000011207964291F4529212075C
:1002DE007DB4020A900001120796429142921207D3
:1002EE007DB4030D900001120796FEF45291EE427A
:1002FE0092EF6402704312077DFE700B90000112A4
:10030E000796F452955296EEB4010B900001120727
:10031E00964295F4529612077DB4020A900001128D
:10032E0007964295429612077DB4030D9000011276
:10033E000796FEF45295EE4296EF64037043120751
:10034E007DFE700B900001120796F452B152B2EE80
:10035E00B4010B90000112079642B1F452B212078B
:10036E007DB4020A90000112079642B142B2120702
:10037E007DB4030D900001120796FEF452B1EE42C9
:10038E00B2EF6404704312077DFE700B90000112F1
:10039E000796F452B352B4EEB4010B90000112075B
:1003AE009642B3F452B412077DB4020A90000112C1
:1003BE00079642B342B412077DB4030D90000112AA
:1003CE000796FEF452B3EE42B4EF64057043120783
:1003DE007DFF700B900001120796F452C952CAEFBE
:1003EE00B4010B90000112079642C9F452CA1207CB
:1003FE007DB4020A90000112079642C942CA120742
:10040E007DB4030D900001120796FFF452C9EF421E
:04041E00CA7F00226F
:10144100EFD3940540037F0122EF7003ED4280EF5B
:10145100B40103ED4290EFB40203ED42A0EFB403F7
:1014610003ED42B0EFB40403ED42C0EFB40503ED68
:0514710042C87F0022CB
:1013D100EFD3940540037F0122EF7004EDF45280B6
:1013E100EFB40104EDF45290EFB40204EDF452A015
:1013F100EFB40304EDF452B0EFB40404EDF452C0C1
:0B140100EFB40504EDF452C87F002298
:1015EA00EF70038DFA22EFB401038DFB22EFB402F0
:0615FA0004AF058FFC2286
:1005DE00900DC0EBF0A3EAF0A3E9F0AD07EDD394D4
:1005EE0003400302077CED6403704CC2DEF5F9F59F
:1005FE00E9900DC0E0FBA3E0FAA3E0F912077DFF3E
:10060E00E5A254CF4FF5A2900001120796FFE5D94F
:10061E0054F14FF5D99000041207965401FFE5D915
:10062E0054FE4FF5D9900005120796B40104D2BFBF
:10063E008002C2BFD2DE22900DC0E0FBA3E0FAA37F
:10064E00E02404F9E43AFA12077D54311207C390FC
:10065E000DC0E0FBA3E0FAA3E0F9900002120796AA
:10066E00C39448400FE92404F9E43AFA12077D5482
:10067E00CF1207C3ED704F900DC0E0FBA3E0FAA3BD
:10068E00E0F9900004120796FF900002120796FE02
:10069E004FF5DA900003120796FFE5F2543F4FF53F
:1006AE00F2900006120840FBAAF0900DD1EAF0A3DA
:1006BE00EBF0C200900DCEEEF0900DD7EAF0A3EB6A
:1006CE00F0F5EAEAF5FAED6401704F900DC0E0FB2B
:1006DE00A3E0FAA3E0F9900004120796FF9000023F
:1006EE00120796FE4FF5DB900003120796FFE5F317
:1006FE00543F4FF5F3900006120840FBAAF0900D00
:10070E00D3EAF0A3EBF0C201900DCFEEF0900DD92D
:10071E00EAF0A3EBF0F5EBEAF5FBED6402704F9017
:10072E000DC0E0FBA3E0FAA3E0F9900004120796D7
:10073E00FF900002120796FE4FF5DC9000031207A1
:10074E0096FFE5F4543F4FF5F4900006120840FD75
:10075E00ACF0900DD5ECF0A3EDF0C202900DD0EE02
:0F076E00F0900DDBECF0A3EDF0F5ECECF5FC22D8
:101615008F9BE59A20E1047F0180027F00EF70F245
:04162500539AFD22B5
:1016290012077DFF600C121615740129F9E43AFAC4
:0316390080EE221E
:1015340090000BE02412F582E43409F583EFF09077
:10154400000BE004F0C3748094844002E4F0900043
:0A1554000CE0700504F0438402224D
:10163C0012077DFF600C121534740129F9E43AFA93
:03164C0080EE220B
:10158800759A50438E0475D7D075D6FF438E109048
:1015980000007402F0E4A3F0A3F0A3F0A3F0A3F01A
:0715A800A3F0A3F0A3F02261
:10155E0075841043844043D12075D3D075D2FF4398
:10156E00D1809000097404F0E4A3F0A3F0A3F0A3DB
:0A157E00F0A3F0A3F0A3F0A3F02205
:0300430002132C79
:10132C00C0E0C0F0C083C082C0D075D010E59A3048
:10133C00E036539AFE900007E0B4012CC3900004F1
:10134C00E094084004E4F0A3F0900004E475F0018C
:10135C0012082AFE741225F0F58274003EF583E51E
:10136C009BF0900006740AF0D0D0D082D083D0F0DD
:03137C00D0E0328C
:0300930002112433
:10112400C0E0C0F0C083C082C0D075D018E5843060
:10113400E0365384FE900010E0B4012CC390000DFF
:10114400E094084004E4F0A3F090000DE475F0018D
:1011540012082AFE741225F0F58274083EF583E520
:1011640085F090000F7405F0E58430E1335384FD7D
:1011740090000BE0FF90000AE0FE6F601E74122ED8
:10118400F582E43409F583E0F58590000AE004F083
:10119400C3748094844009E4F0800590000CE4F06A
:0B11A400D0D0D082D083D0F0D0E03259
:0300000002109853
:0C109800787FE4F6D8FD7581200210DF9F
:10077D00BB010689828A83E0225002E722BBFE027A
:09078D00E32289828A83E49322AD
:10079600BB010CE58229F582E5833AF583E0225018
:1007A60006E92582F8E622BBFE06E92582F8E22262
:0D07B600E58229F582E5833AF583E493227C
:1007C300BB010689828A83F0225002F722BBFE0115
:0207D300F3220F
:1007D500BC000BBE0029EF8DF084FFADF022E4CC08
:1007E500F875F008EF2FFFEE33FEEC33FCEE9DECD1
:1007F500984005FCEE9DFE0FD5F0E9E4CEFD22ED17
:10080500F8F5F0EE8420D21CFEADF075F008EF2F60
:10081500FFED33FD4007985006D5F0F222C398FD51
:050825000FD5F0EA22EE
:10082A00A3F8E0C5F025F0F0E58215827002158381
:06083A00E0C838F0E822DE
:10084000BB0110E58229F582E5833AF583E0F5F0F6
:10085000A3E0225009E92582F886F008E622BBFED3
:100860000AE92582F8E2F5F008E222E5832AF58319
:08087000E993F5F0A3E99322DE
:100D2D00900DC2EBF0A3EAF0A3E9F0A3E0FBA3E082
:100D3D00FAA3E0F912077D7003020DD9900DC2E000
:100D4D00FBA3E0FAA3E0F912077D7003020DE59015
:100D5D000DC5E0F9A3E0FAA3E0A3C9F0A3EAF0A35F
:100D6D00E9F0900DC2A3E0FAA3E0F9900DCBEBF002
:100D7D00A3EAF0A3E9F0900DC8E0FBA3E0FAA3E02D
:100D8D00F912077DFF6026900DCBE0FBA3E0FAA3DF
:100D9D00E0F912077D6F7015900DC975F0011208FD
:100DAD00A4900DCCE475F0011208A480C9900DC873
:100DBD00E0FBA3E0FAA3E0F912077D7002800D902D
:100DCD000DC3E475F0011208A4020D49900DC2E0A7
:0F0DDD00FBA3E0FAA3E0F9227B007A0079002261
:10087800EF4E6012EF60010EEDBB010B89828A8397
:10088800F0A3DFFCDEFA2289F05007F709DFFCA9A4
:0C089800F022BBFEFCF309DFFCA9F022FB
:1010A400020046E493A3F8E493A34003F68001F21C
:1010B40008DFF48029E493A3F85407240CC8C3334D
:1010C400C4540F4420C8834004F456800146F6DF1C
:1010D400E4800B0102040810204080900DECE47EB3
:1010E400019360BCA3FF543F30E509541FFEE49311
:1010F400A360010ECF54C025E060A840B8E493A3D8
:10110400FAE493A3F8E493A3C8C582C8CAC583CA02
:10111400F0A3C8C582C8CAC583CADFE9DEE780BEBA
:010EA500004C
:1008A400C5F0F8A3E028F0C5F0F8E58215827002DF
:0608B4001583E038F0227C
:00000001FF
