:101A4C00AD071FED600B0000007E1A1EEE60F180EA
:011A5C00FA8F
:011A5D002266
:0F1A5E007DA57C06ED1D70011C144C70F7DFF1A7
:011A6D002256
:0219B900AB077A
:1019BB00AF031BEF60107E04EED3940040F27FFA6E
:0619CB00121A5E1E80F2FC
:0119D10022F3
:1018C2007379732073746172740D0A0077696669A3
:1018D2002072657365740D0A007769666920736505
:0E18E20074206170207375636573730D0A00C6
:10176300C2AF12197043AF0112194643AF10E4F52B
:10177300B8F5B543B501121997D2AF7BFF7A187943
:10178300C2121A3912112D7E087F007D007B017A67
:101793000079121202877BFF7A1879CE121A391256
:1017A30018F0120C13EF60EE7BFF7A1879DB121A34
:0217B3003922D9
:1009B0004448543131207472756520200D0A00447A
:1009C000485431312066616C736520200D0A005453
:1009D000454D500048554D49004F4E0031206F6E37
:1009E000210D0A004F46460031206F6666210D0A30
:1009F0000032206F6E210D0A0032206F6666210DD5
:100A00000A0033206F6E210D0A0033206F666621C5
:100A10000D0A0034206F6E210D0A0034206F6666C7
:100A2000210D0A0073776974636820696E76616CC2
:100A3000696420636F6D6D616E640D0A004C4947F7
:100A40004854006C6967687431206F6E210D0A008C
:100A50006C6967687431206F6666210D0A00494E23
:100A600043006C696768743120696E63210D0A0068
:100A7000444543006C696768743120646563210DE7
:100A80000A006C696768743220696E63210D0A0080
:100A90006C696768743220646563210D0A006C69B3
:100AA00067687420696E76616C696420636F6D6D30
:100AB000616E643232320D0A00696E76616C69646F
:100AC00020636F6D6D616E643131310D0A005345E5
:100AD000545749464900535749544348004F4B0027
:050AE0004641494C00F5
:1019E800D2C87F01121A4CC2C87F12121A5ED2C81E
:0519F8007F04021A4CFF
:10188F00E4900E9BF0900E9AF030C8FD7F02121A72
:10189F004C900E9BE025E0F030C803E004F020C828
:1018AF00FD900E9AE004F0E0C3940840DC900E9B8C
:0218BF00E0FF48
:0118C1002204
:0B0F5600900E78EBF0A3EAF0A3E9F0A6
:100F6100E4A3F0A3F0A3F0A3F0A3F01219E830C8B2
:100F710003020FFE30C8FDC2AF7F08121A4C1218CF
:100F81008F900E7BEFF012188F900E7CEFF01218FD
:100F91008F900E7DEFF012188F900E7EEFF01218E9
:100FA1008F900E7FEFF0D2AF900E7CE0FD900E7B24
:100FB100E02DFDE433FC900E7DE07A002DFDEA3C4E
:100FC100FCA3E02DFDEA3CFC7E00EDB5070CEEB57F
:100FD10004087BFF7A0979B080067BFF7A0979BF23
:100FE100121A39900E7DE0FF900E80E4F0A3EFF02D
:100FF100900E7BE0FF900E82E4F0A3EFF0900E22C2
:1010010074FFF0A37409F0A374CFF0900E78E0FBA5
:10101100A3E0FAA3E0F91211F1EA494B6005900E41
:10102100808024900E2274FFF0A37409F0A374D47D
:10103100F0900E78E0FBA3E0FAA3E0F91211F1EAD7
:10104100494B6009900E82E0FEA3E0FF227EFF7F04
:01105100FF9F
:01105200227B
:1002C900900E94EBF0A3EAF0A3E9F0900007120175
:1002D900A524CE60781470030203BB1470030204D2
:1002E9001F24036003020482900E2274FFF0A3749A
:1002F90009F0A374D9F0900E94E0FBA3E0FAA3E00F
:10030900F91211F1EA494B60107D047F0512182694
:100319007BFF7A0979DC02047D900E2274FFF0A339
:100329007409F0A374E4F0900E94E0FBA3E0FAA33F
:10033900E0F91211F1EA494B700302048E7D047F42
:10034900051217B57BFF7A0979E802047D900E2220
:1003590074FFF0A37409F0A374D9F0900E94E0FB34
:10036900A3E0FAA3E0F91211F1EA494B60107D10FC
:10037900E4FF1218267BFF7A0979F102047D900EB9
:100389002274FFF0A37409F0A374E4F0900E94E0D2
:10039900FBA3E0FAA3E0F91211F1EA494B70030259
:1003A900048E7D10E4FF1217B57BFF7A0979F902F3
:1003B900047D900E2274FFF0A37409F0A374D9F0A0
:1003C900900E94E0FBA3E0FAA3E0F91211F1EA49D7
:1003D9004B60107D02E4FF1218267BFF7A0A79022E
:1003E90002047D900E2274FFF0A37409F0A374E453
:1003F900F0900E94E0FBA3E0FAA3E0F91211F1EA00
:10040900494B700302048E7D02E4FF1217B57BFF8E
:100419007A0A790A805E900E2274FFF0A37409F0BB
:10042900A374D9F0900E94E0FBA3E0FAA3E0F912CB
:1004390011F1EA494B600F7D01E4FF1218267BFF99
:100449007A0A7913802E900E2274FFF0A37409F0B2
:10045900A374E4F0900E94E0FBA3E0FAA3E0F91290
:1004690011F1EA494B601E7D01E4FF1217B57BFFCC
:100479007A0A791B121A39800C7BFF7A0A792412BD
:070489001A397F00227F01F8
:010490002249
:1017F000900E9EEFF0BF0210900E9C74A0F0C37488
:10180000FF94A0FDE4FF8015900E9EE0B4071490B5
:101810000E9D74A0F0C374FF94A0FD7F011219D235
:061820007F01227F00227F
:10185B00900DF9EFF0BF020FE4900E9CF0C374FFF4
:10186B009400FDE4FF8014900DF9E0B40713E490AD
:10187B000E9DF0C374FF9400FD7F011219D27F01FE
:04188B00227F002296
:1015F400900E9FEFF064027028900E9CE0FFC3747D
:10160400FF9FC39428500574FFF08007900E9CE060
:101614002428F0900E9CE0FFC374FF9FFDE4FF803C
:101624002E900E9FE06407702C900E9DE0FFC37413
:10163400FF9FC39428500574FFF08007900E9DE02F
:101644002428F0900E9DE0FFC374FF9FFD7F0112DC
:0816540019D27F01227F002260
:10165C00900EA0EFF064027022900E9CE0C39428D0
:10166C005004E4F08007900E9CE024D8F0900E9C7F
:10167C00E0FFC374FF9FFDE4FF8028900EA0E064A0
:10168C00077026900E9DE0C394285004E4F0800768
:10169C00900E9DE024D8F0900E9DE0FFC374FF9F48
:0C16AC00FD7F011219D27F01227F002275
:10065500900E97EBF0A3EAF0A3E9F0900E2274FF59
:10066500F0A3740AF0A3743DF0900E97E0FBA3E0AD
:10067500FAA3E0F91211F1EA494B7003020805905B
:1006850000061201A524CE7003020744046003028C
:1006950007FD900E2274FFF0A37409F0A374D9F03E
:1006A500900E97E0FBA3E0FAA3E0F91211F1EA49F5
:1006B5004B60057F02020767900E2274FFF0A3745A
:1006C50009F0A374E4F0900E97E0FBA3E0FAA3E031
:1006D500F91211F1EA494B60057F02020796900E67
:1006E5002274FFF0A3740AF0A3745EF0900E97E0F5
:1006F500FBA3E0FAA3E0F91211F1EA494B600E7F82
:10070500021215F47BFF7A0A796202080B900E2219
:1007150074FFF0A3740AF0A37470F0900E97E0FBD9
:10072500A3E0FAA3E0F91211F1EA494B70030208BC
:100735000E7F0212165C7BFF7A0A797402080B9011
:100745000E2274FFF0A37409F0A374D9F0900E97EC
:10075500E0FBA3E0FAA3E0F91211F1EA494B600EC0
:100765007F071217F07BFF7A0A794302080B900E78
:100775002274FFF0A37409F0A374E4F0900E97E0DF
:10078500FBA3E0FAA3E0F91211F1EA494B600D7FF2
:100795000712185B7BFF7A0A7950806A900E2274E3
:1007A500FFF0A3740AF0A3745EF0900E97E0FBA32C
:1007B500E0FAA3E0F91211F1EA494B600D7F071247
:1007C50015F47BFF7A0A7982803C900E2274FFF043
:1007D500A3740AF0A37470F0900E97E0FBA3E0FAFF
:1007E500A3E0F91211F1EA494B601E7F0712165C6E
:1007F5007BFF7A0A7990800E7BFF7A0A799E8006C4
:0B0805007BFF7A0A79B9121A397F01D3
:0108100022C5
:10112D00900DED7403F0A304F07B017A0D79ED7F42
:10113D0005120491900DEE7413F07B017A0D79ED8B
:10114D00E4FF120491E4900DEFF0A304F0FB7A0D8F
:10115D0079EF7F05120491900DEB7403F0A3748069
:10116D00F07B017A0D79EB7F03120491900DEC74F5
:10117D0080F07B017A0D79EB7F01120491E4900DE3
:10118D00F1F0A3F0A37442F0E4A3F0A3F0A304F0F4
:10119D00E4A3F0A3F07B017A0D79F17F031208111E
:1011AD007B017A0D79F17F021208117B017A0D799D
:1011BD00F17F071208117D047F051217B57D10E42C
:1011CD00FF1217B57D02E4FF1217B57D01E4FF1282
:1011DD0017B57F0212185B7F0712185BE4900E9C07
:0311ED00F0A3F07C
:0111F00022DC
:0B0D3B00900E84EBF0A3EAF0A3E9F0B7
:100D4600900E2274FFF0A3740AF0A374CEF0121171
:100D5600F1900E87EBF0A3EAF0A3E9F04A4B6003AB
:100D6600020E53900E2274FFF0A3740AF0A374D6F9
:100D7600F0900E84E0FBA3E0FAA3E0F91211F190E3
:100D86000E87EBF0A3EAF0A3E9F04A4B6020900E41
:100D960087E0FBA3E0FAA3E0F91202C9EF7BFF604C
:100DA600067A0A79DD80047A0A79E0020E54900EFA
:100DB6002274FFF0A3740AF0A3743DF0900E84E051
:100DC600FBA3E0FAA3E0F91211F1900E87EBF0A372
:100DD600EAF0A3E9F04A4B600E900E87E0FBA3E031
:100DE600FAA3E0F9020655900E2274FFF0A37409E7
:100DF600F0A374CFF0900E84E0FBA3E0FAA3E0F931
:100E06001211F1900E87EBF0A3EAF0A3E9F04A4B3A
:100E16006002802B900E2274FFF0A37409F0A37475
:100E2600D4F0900E84E0FBA3E0FAA3E0F91211F1EE
:100E3600900E87EBF0A3EAF0A3E9F04A4B600E9020
:0D0E46000E87E0FBA3E0FAA3E0F9120F56BF
:010E5300227C
:07000300474554202F2000A7
:10004600900EA17401F0121763900EA1E01470F9DE
:1000560012000EEF60F37B017A007912121A3990C2
:100066000E2274FFF0A37400F0A37403F07B017AF0
:100076000079121211F1EA494B60CE7B017A0D79B3
:0600860012120E5480C3AB
:1010530041542B524553544F52450D0A004F4B00F8
:1010630041542B43574D4F44453D320D0A004154E3
:101073002B43575341503D2241495F4C6162222C1F
:101083002231323334353637383930222C342C344C
:101093000D0A0041542B5253540D0A0041542B4363
:1010A30049504D55583D310D0A0041542B43495089
:1010B3005345525645523D312C353030300D0A00E0
:1010C30041542B43494653520D0A0041542B434983
:1010D3005053454E443D302C3137300D0A000D0A34
:1010E300002D2D2D2D2D2D2D2D2D2D2D2D3E3E3E27
:1010F3003E002424242424242424242424242424B7
:101103002424242424242424240D0A0041542B437E
:10111300495053454E443D302C0000000000000070
:0A11230000000000000000000000C2
:100AE500470E31FF1053FF10602C470E38FF10637F
:100AF500FF10602C470E3FFF1071FF10602C470E52
:100B050046FF1096FF10602C470E4DFF109FFF10FB
:100B1500602C470E54FF10ADFF10602C470E5BFF95
:100B250010C3FF10602C470E62FF10CEFF10602C23
:04135100AB07AA0636
:101355007C277D101201E4EF2430900E2BF07C27C2
:101365007D10AF03AE021201E47E037FE8CFCDCF3F
:10137500CECCCE1201E4EF2430A3F07C037DE8AFA0
:1013850003AE021201E47E007F64CFCDCFCECCCE7A
:101395001201E4EF2430A3F07C007D64AF03AE02BC
:1013A5001201E47E007F0ACFCDCFCECCCE1201E470
:1013B500EF2430A3F0AE02AF037C007D0A1201E4F6
:1013C500ED2430A3F0E4A3F07B017A0E792B120112
:1013D5008CFFB43009740129F9E43AFA80F0EF7012
:0713E500060429F9E43AFABD
:0113EC0022DE
:1018F000E4900DEBF0A37408F07B017A0D79EB7F97
:10190000051204917D087F051217B57F64121A5ED7
:0C1910007D087F051218267F050219B91A
:0B0E5400900DEBEBF0A3EAF0A3E9F037
:100E5F0078F17C0D7D017BFF7A11790F7E007F1E6B
:100E6F00120166900DEBE0FBA3E0FAA3E0F9121973
:100E7F00FD121351900E0FEBF0A3EAF0A3E9F090DF
:100E8F000E0FE0F9A3E0FAA3E0900E15C9F0A3EA64
:100E9F00F0A3E9F07B017A0D79F1121589900E1507
:100EAF0074FFF0A37410F0A374E1F07B017A0D7955
:100EBF00F11215897BFF7A1079E4121A397B017AC6
:100ECF000D79F1121A397BFF7A1079F5121A3990D0
:100EDF000E627401F0A3740DF0A374F1F0A374FF0C
:100EEF00F0A37410F0A37460F0A3742CF0900E3B79
:100EFF00E0F9A3E0FAA3E0900E15C9F0A3EAF0A37E
:100F0F00E9F0900E3EE0FF900E18E4F0A3EFF090A2
:100F1F000E621212B0EA494B7002FF227F01121AC1
:100F2F005E900E1574FFF0A37410F0A37460F0A31D
:100F3F007401F0A3742CF0900DEB1212B0EA494B30
:060F4F007002FF227F0189
:010F55002279
:10000E009000077401F0E4900004F0A3F090000853
:10001E00F0900006740AF0900006E0D3940050F7BA
:10002E00900008E0600CE4900007F0900004A3E05C
:05003E00FF227F0022FB
:0812B000E0FBA3E0FAA3E0F962
:0B12B800900E12EBF0A3EAF0A3E9F0A7
:1012C300900E18E0FEA3E0FF7C007D0A1201E4907B
:1012D3000E1DEEF0A3EFF0D3900E1EE09400900EDF
:1012E3001DE094004061900E12E0FBA3E0FAA3E03E
:1012F300F9121A2612000EEF603D7B017A00791273
:10130300121A39900E15E0F9A3E0FAA3E0900E2229
:10131300C9F0A3EAF0A3E9F07B017A007912121174
:10132300F1900E1AEBF0A3EAF0A3E9F04A4B600741
:101333007B007A00790122900E1EE024FFF0900ECC
:0D1343001DE034FFF080907B007A007900FF
:01135000227A
:100C1300900E3BE0F9A3E0FAA3E0900E15C9F0A310
:100C2300EAF0A3E9F0900E3EE0FF900E18E4F0A383
:100C3300EFF0900E381212B0EA494B7002FF229087
:100C43000E42E0F9A3E0FAA3E0900E15C9F0A3EA7F
:100C5300F0A3E9F0900E45E0FF900E18E4F0A3EF47
:100C6300F0900E3F1212B0EA494B70087F0212193E
:100C7300B97F0022900E49E0F9A3E0FAA3E0900EB9
:100C830015C9F0A3EAF0A3E9F0900E4CE0FF900E33
:100C930018E4F0A3EFF0900E461212B0EA494B703D
:100CA30002FF227F051219B9900E50E0F9A3E0FA72
:100CB300A3E0900E15C9F0A3EAF0A3E9F0900E5358
:100CC300E0FF900E18E4F0A3EFF0900E4D1212B077
:100CD300EA494B7002FF22900E57E0F9A3E0FAA312
:100CE300E0900E15C9F0A3EAF0A3E9F0900E5AE0E4
:100CF300FF900E18E4F0A3EFF0900E541212B0EA36
:100D0300494B7002FF22900E5EE0F9A3E0FAA3E0E4
:100D1300900E15C9F0A3EAF0A3E9F0900E61E0FF8D
:100D2300900E18E4F0A3EFF0900E5B1212B0EA49B4
:080D33004B7002FF227F012238
:10199700538E7F5389F0E4F58A758CB8C28DD28C4B
:1019A700D2A9900E937464F0E4900E90F0A3F0A384
:0219B700F0221C
:03000B000216B822
:1016B800C0E0C083C082C0D075D008900E93E0D33C
:1016C80094004003E014F0900007E06032900006B8
:1016D800E0D394004029E014F0E07023A3F09000D8
:1016E80004E0FEA3E0FFD39400EE940040117412CE
:1016F8002FF58274003EF583E4F090000804F0D0E2
:08170800D0D082D083D0E03282
:100B350060D90D12485454502F312E3120323030A7
:100B4500204F4B0D0A436F6E74656E742D5479708A
:100B5500653A20746578742F68746D6C0D0A436F5F
:100B65006E74656E742D4C656E6774683A313532F6
:100B75000D0A0D0A3C21444F4354595045206874D1
:100B85006D6C3E0D0A3C68746D6C206C616E673D42
:100B950022656E223E0D0A3C686561643E0D0A20A1
:100BA5002020203C6D6574612063686172736574F3
:100BB5003D225554462D38223E0D0A202020203C4A
:100BC5007469746C653ECCECB2C53C2F7469746C69
:100BD500653E0D0A3C2F686561643E0D0A3C626FF7
:100BE50064793E0D0A202020203C68313ECED2CAD1
:100BF500C7CCECB2C53C2F68313E0D0A3C2F626F65
:0D0C050064793E0D0A3C2F68746D6C3E0052
:04150400AB07AA0681
:101508007C277D101201E4EF2430900E8AF07C27AE
:101518007D10AF03AE021201E47E037FE8CFCDCF8A
:10152800CECCCE1201E4EF2430A3F07C037DE8AFEB
:1015380003AE021201E47E007F64CFCDCFCECCCEC5
:101548001201E4EF2430A3F07C007D64AF03AE0207
:101558001201E47E007F0ACFCDCFCECCCE1201E4BB
:10156800EF2430A3F0AE02AF037C007D0A1201E441
:10157800ED2430A3F0E4A3F07B017A0E798A021AF5
:011588003929
:10049100EFD3940540037F012212018CFED3940314
:1004A10040037F0222EF7041EE700B9000011201B8
:1004B100A5F45293529412018CB4010B90000112D5
:1004C10001A54293F4529412018CFEB4020A9000E9
:1004D100011201A542934294EEB4030D9000011262
:1004E10001A5FEF45293EE4294EF640170431201B0
:1004F1008CFE700B9000011201A5F452915292EE04
:10050100B4010B9000011201A54291F45292120123
:100511008CB4020A9000011201A54291429212018B
:100521008CB4030D9000011201A5FEF45291EE422C
:1005310092EF6402704312018CFE700B9000011265
:1005410001A5F452955296EEB4010B9000011201EF
:10055100A54295F4529612018CB4020A9000011240
:1005610001A54295429612018CB4030D900001122F
:1005710001A5FEF45295EE4296EF64037043120119
:100581008CFE700B9000011201A5F452B152B2EE33
:10059100B4010B9000011201A542B1F452B2120153
:1005A1008CB4020A9000011201A542B142B21201BB
:1005B1008CB4030D9000011201A5FEF452B1EE427C
:1005C100B2EF6404704312018CFE700B90000112B3
:1005D10001A5F452B352B4EEB4010B900001120123
:1005E100A542B3F452B412018CB4020A9000011274
:1005F10001A542B342B412018CB4030D9000011263
:1006010001A5FEF452B3EE42B4EF6405704312014A
:100611008CFF700B9000011201A5F452C952CAEF70
:10062100B4010B9000011201A542C9F452CA120192
:100631008CB4020A9000011201A542C942CA1201FA
:100641008CB4030D9000011201A5FFF452C9EF42D1
:04065100CA7F00223A
:10182600EFD3940540037F0122EF7003ED4280EF72
:10183600B40103ED4290EFB40203ED42A0EFB4030E
:1018460003ED42B0EFB40403ED42C0EFB40503ED7F
:0518560042C87F0022E2
:1017B500EFD3940540037F0122EF7004EDF45280CE
:1017C500EFB40104EDF45290EFB40204EDF452A02D
:1017D500EFB40304EDF452B0EFB40404EDF452C0D9
:0B17E500EFB40504EDF452C87F0022B1
:1019D200EF70038DFA22EFB401038DFB22EFB40204
:0619E20004AF058FFC229A
:10081100900DF9EBF0A3EAF0A3E9F0AD07EDD39465
:100821000340030209AFED6403704CC2DEF5F9F534
:10083100E9900DF9E0FBA3E0FAA3E0F912018CFFC6
:10084100E5A254CF4FF5A29000011201A5FFE5D911
:1008510054F14FF5D99000041201A55401FFE5D9D7
:1008610054FE4FF5D99000051201A5B40104D2BF81
:100871008002C2BFD2DE22900DF9E0FBA3E0FAA311
:10088100E02404F9E43AFA12018C54311201D290B5
:100891000DF9E0FBA3E0FAA3E0F99000021201A533
:1008A100C39448400FE92404F9E43AFA12018C5444
:1008B100CF1201D2ED704F900DF9E0FBA3E0FAA346
:1008C100E0F99000041201A5FF9000021201A5FEBB
:1008D1004FF5DA9000031201A5FFE5F2543F4FF501
:1008E100F290000612024FFBAAF0900E6CEAF0A300
:1008F100EBF0C200900E69EEF0900E72EAF0A3EBFD
:10090100F0F5EAEAF5FAED6401704F900DF9E0FBBC
:10091100A3E0FAA3E0F99000041201A5FF90000200
:100921001201A5FE4FF5DB9000031201A5FFE5F3CF
:10093100543F4FF5F390000612024FFBAAF0900EC0
:100941006EEAF0A3EBF0C201900E6AEEF0900E7425
:10095100EAF0A3EBF0F5EBEAF5FBED6402704F90E2
:100961000DF9E0FBA3E0FAA3E0F99000041201A560
:10097100FF9000021201A5FE4FF5DC900003120169
:10098100A5FFE5F4543F4FF5F490000612024FFD28
:10099100ACF0900E70ECF0A3EDF0C202900E6BEE95
:0F09A100F0900E76ECF0A3EDF0F5ECECF5FC2207
:101A12008F9BE59A20E1047F0180027F00EF70F244
:041A2200539AFD22B4
:101A260012018CFF600C121A12740129F9E43AFAB9
:031A360080EE221D
:10191C0090000BE02412F582E43409F583EFF0908B
:10192C00000BE004F0C3748094844002E4F0900057
:0A193C000CE0700504F04384022261
:101A390012018CFF600C12191C740129F9E43AFA9D
:031A490080EE220A
:10197000759A50438E0475D7D075D6FF438E10905C
:1019800000007402F0E4A3F0A3F0A3F0A3F0A3F02E
:07199000A3F0A3F0A3F02275
:1019460075841043844043D12075D3D075D2FF43AC
:10195600D1809000097404F0E4A3F0A3F0A3F0A3EF
:0A196600F0A3F0A3F0A3F0A3F02219
:0300430002171091
:10171000C0E0C0F0C083C082C0D075D010E59A3060
:10172000E036539AFE900007E0B4012CC390000409
:10173000E094084004E4F0A3F0900004E475F001A4
:10174000120239FE741225F0F58274003EF583E52D
:101750009BF0900006740AF0D0D0D082D083D0F0F5
:03176000D0E032A4
:03009300021479DB
:10147900C0E0C0F0C083C082C0D075D018E5843008
:10148900E0365384FE900010E0B4012CC390000DA7
:10149900E094084004E4F0A3F090000DE475F00135
:1014A900120239FE741225F0F58274083EF583E5BF
:1014B90085F090000F7405F0E58430E1335384FD25
:1014C90090000BE0FF90000AE0FE6F601E74122E80
:1014D900F582E43409F583E0F58590000AE004F02B
:1014E900C3748094844009E4F0800590000CE4F012
:0B14F900D0D0D082D083D0F0D0E03201
:030000000213EDFB
:0C13ED00787FE4F6D8FD758120021434EE
:10009600E709F608DFFA8046E709F208DFFA803E4C
:1000A60088828C83E709F0A3DFFA8032E309F60839
:1000B600DFFA8078E309F208DFFA807088828C83A1
:1000C600E309F0A3DFFA806489828A83E0A3F60855
:1000D600DFFA805889828A83E0A3F208DFFA804C2F
:1000E60080D280FA80C680D4806980F28033801006
:1000F60080A680EA809A80A880DA80E280CA80336F
:1001060089828A83ECFAE493A3C8C582C8CCC583E6
:10011600CCF0A3C8C582C8CCC583CCDFE9DEE780B6
:100126000D89828A83E493A3F608DFF9ECFAA9F035
:10013600EDFB2289828A83ECFAE0A3C8C582C8CC8B
:10014600C583CCF0A3C8C582C8CCC583CCDFEADEA4
:10015600E880DB89828A83E493A3F208DFF980CC06
:1001660088F0EF60010E4E60C388F0ED2402B404FF
:100176000050B9F582EB2402B4040050AF232345A6
:0601860082239000E673E5
:10018C00BB010689828A83E0225002E722BBFE0271
:09019C00E32289828A83E49322A4
:1001A500BB010CE58229F582E5833AF583E022500F
:1001B50006E92582F8E622BBFE06E92582F8E22259
:0D01C500E58229F582E5833AF583E4932273
:1001D200BB010689828A83F0225002F722BBFE010C
:0201E200F32206
:1001E400BC000BBE0029EF8DF084FFADF022E4CCFF
:1001F400F875F008EF2FFFEE33FEEC33FCEE9DECC8
:10020400984005FCEE9DFE0FD5F0E9E4CEFD22ED0D
:10021400F8F5F0EE8420D21CFEADF075F008EF2F57
:10022400FFED33FD4007985006D5F0F222C398FD48
:050234000FD5F0EA22E5
:10023900A3F8E0C5F025F0F0E58215827002158378
:06024900E0C838F0E822D5
:10024F00BB0110E58229F582E5833AF583E0F5F0ED
:10025F00A3E0225009E92582F886F008E622BBFECA
:10026F000AE92582F8E2F5F008E222E5832AF58310
:08027F00E993F5F0A3E99322D5
:10158900900E12EBF0A3EAF0A3E9F0900E18EBF03D
:10159900A3EAF0A3E9F0900E12E0FBA3E475F001D1
:1015A900120239A9F0FA12018C70EB900E1374FF34
:1015B900F5F01202B3900E15E0FBA3E475F00112E9
:1015C9000239A9F0FA12018CFF900E12E0FBA3E494
:1015D90075F001120239A9F0FAEF1201D270D69012
:0B15E9000E18E0FBA3E0FAA3E0F922DB
:1019FD00E4FFFE12018C600C0FEF70010E09E9700F
:051A0D00F20A80EF2247
:1011F100900E1FEBF0A3EAF0A3E9F0A3E0FBA3E05C
:10120100FAA3E0F912018C700302129D900E1FE007
:10121100FBA3E0FAA3E0F912018C70030212A9907A
:101221000E22E0F9A3E0FAA3E0A3C9F0A3EAF0A338
:10123100E9F0900E1FA3E0FAA3E0F9900E28EBF07D
:10124100A3EAF0A3E9F0900E25E0FBA3E0FAA3E006
:10125100F912018CFF6026900E28E0FBA3E0FAA3AF
:10126100E0F912018C6F7015900E2675F0011202D3
:10127100B3900E29E475F0011202B380C9900E25D6
:10128100E0FBA3E0FAA3E0F912018C7002800D905B
:101291000E20E475F0011202B302120D900E1FE050
:0F12A100FBA3E0FAA3E0F9227B007A0079002298
:10028700EF4E6012EF60010EEDBB010B89828A838E
:10029700F0A3DFFCDEFA2289F05007F709DFFCA99B
:0C02A700F022BBFEFCF309DFFCA9F022F2
:1013F900020046E493A3F8E493A34003F68001F2C4
:1014090008DFF48029E493A3F85407240CC8C333F4
:10141900C4540F4420C8834004F456800146F6DFC3
:10142900E4800B0102040810204080900AE5E47E64
:10143900019360BCA3FF543F30E509541FFEE493B8
:10144900A360010ECF54C025E060A840B8E493A37F
:10145900FAE493A3F8E493A3C8C582C8CAC583CAAA
:10146900F0A3C8C582C8CAC583CADFE9DEE780BE62
:010C120000E1
:1002B300C5F0F8A3E028F0C5F0F8E58215827002D6
:0602C3001583E038F02273
:00000001FF
