:10226900AD071FED600B0000007E1A1EEE60F180C5
:01227900FA6A
:01227A002241
:0F227B007DA57C06ED1D70011C144C70F7DFF182
:01228A002231
:0221D600AB0755
:1021D800AF031BEF60107E04EED3940040F27FFA49
:0621E80012227B1E80F2B2
:0121EE0022CE
:102104007379732073746172740D0A007769666958
:102114002072657365740D0A0077696669207365BA
:0E21240074206170207375636573730D0A007B
:101F0E00C2AF12218943AF01122037E4F5B8F5B5FF
:101F1E0043B5011221B4D2AF7BFF7A21790412228C
:101F2E00561216D37E087F007D007B017A007996CB
:101F3E001209357BFF7A21791012225612213212A4
:0F1F4E001181EF60EE7BFF7A21791D122256225E
:1012B5004448543131207472756520200D0A00446C
:1012C500485431312066616C736520200D0A005445
:1012D500454D500048554D49004F4E0031206F6E29
:1012E500210D0A004F46460031206F6666210D0A22
:1012F5000032206F6E210D0A0032206F6666210DC7
:101305000A0033206F6E210D0A0033206F666621B7
:101315000D0A0034206F6E210D0A0034206F6666B9
:10132500210D0A0073776974636820696E76616CB4
:10133500696420636F6D6D616E640D0A004C4947E9
:101345004854006C6967687431206F6E210D0A007E
:101355006C6967687431206F6666210D0A00494E15
:1013650043006C696768743120696E63210D0A005A
:10137500444543006C696768743120646563210DD9
:101385000A006C696768743220696E63210D0A0072
:101395006C696768743220646563210D0A006C69A5
:1013A50067687420696E76616C696420636F6D6D22
:1013B500616E643232320D0A00696E76616C696461
:1013C50020636F6D6D616E643131310D0A005357C5
:0513D5004954434800EB
:10000E00D2C87F01122269C2C87F1212227BD2C8C7
:05001E007F04022269CD
:10206B00E4900D2EF0900D2DF030C8FD7F02122262
:10207B0069900D2EE025E0F030C803E004F020C895
:10208B00FD900D2DE004F0E0C3940840DC900D2E84
:02209B00E0FF64
:01209D002220
:0B14F000900D21EBF0A3EAF0A3E9F05F
:1014FB00E4A3F0A3F0A3F0A3F0A3F012000E30C806
:10150B000302159830C8FDC2AF7F08122269122062
:10151B006B900D24EFF012206B900D25EFF0122045
:10152B006B900D26EFF012206B900D27EFF0122031
:10153B006B900D28EFF0D2AF900D25E0FD900D24B0
:10154B00E02DFDE433FC900D26E07A002DFDEA3C06
:10155B00FCA3E02DFDEA3CFC7E00EDB5070CEEB5DF
:10156B0004087BFF7A1279B580067BFF7A1279C467
:10157B00122256900D26E0FF900D29E4F0A3EFF018
:10158B00900D24E0FF900D2BE4F0A3EFF0900D7580
:10159B0074FFF0A37412F0A374D4F0900D21E0FB50
:1015AB00A3E0FAA3E0F9121915EA494B6005900D77
:1015BB00298024900D7574FFF0A37412F0A374D9D5
:1015CB00F0900D21E0FBA3E0FAA3E0F9121915EA64
:1015DB00494B6009900D2BE0FEA3E0FF227EFF7FBD
:0115EB00FF00
:0115EC0022DC
:10096100900D21EBF0A3EAF0A3E9F0900006120844
:100971001B24CE6078147003020A53147003020A18
:10098100B724036003020B1A900D7574FFF0A37472
:1009910012F0A374DEF0900D21E0FBA3E0FAA3E0D6
:1009A100F9121915EA494B60107D047F05121FCE1B
:1009B1007BFF7A1279E1020B15900D7574FFF0A39C
:1009C1007412F0A374E9F0900D21E0FBA3E0FAA307
:1009D100E0F9121915EA494B7003020B267D047FD9
:1009E10005121F5D7BFF7A1279ED020B15900D75D3
:1009F10074FFF0A37412F0A374DEF0900D21E0FBFC
:100A0100A3E0FAA3E0F9121915EA494B60107D1031
:100A1100E4FF121FCE7BFF7A1279F6020B15900DBF
:100A21007574FFF0A37412F0A374E9F0900D21E046
:100A3100FBA3E0FAA3E0F9121915EA494B7003028E
:100A41000B267D10E4FF121F5D7BFF7A1279FE02F7
:100A51000B15900D7574FFF0A37412F0A374DEF002
:100A6100900D21E0FBA3E0FAA3E0F9121915EA4980
:100A71004B60107D02E4FF121FCE7BFF7A137907D2
:100A8100020B15900D7574FFF0A37412F0A374E9B5
:100A9100F0900D21E0FBA3E0FAA3E0F9121915EAA9
:100AA100494B7003020B267D02E4FF121F5D7BFFA1
:100AB1007A13790F805E900D7574FFF0A37412F0B4
:100AC100A374DEF0900D21E0FBA3E0FAA3E0F9129C
:100AD1001915EA494B600F7D01E4FF121FCE7BFF20
:100AE1007A137918802E900D7574FFF0A37412F0AB
:100AF100A374E9F0900D21E0FBA3E0FAA3E0F91261
:100B01001915EA494B601E7D01E4FF121F5D7BFF51
:100B11007A137920122256800C7BFF7A13792912DD
:070B210022567F00227F0134
:010B280022AA
:101F9800900D24EFF0BF0210900DD774A0F0C37419
:101FA800FF94A0FDE4FF8015900D24E0B407149081
:101FB8000DD874A0F0C374FF94A0FD7F011221EF27
:061FC8007F01227F0022D0
:10200300900D24EFF0BF020FE4900DD7F0C374FFDF
:102013009400FDE4FF8014900D24E0B40713E490D2
:102023000DD8F0C374FF9400FD7F011221EF7F01EF
:04203300227F0022E6
:101D4600900D24EFF064027028900DD7E0FFC37465
:101D5600FF9FC39428500574FFF08007900DD7E0CD
:101D66002428F0900DD7E0FFC374FF9FFDE4FF80A9
:101D76002E900D24E06407702C900DD8E0FFC374FC
:101D8600FF9FC39428500574FFF08007900DD8E09C
:101D96002428F0900DD8E0FFC374FF9FFD7F011249
:081DA60021EF7F01227F0022E2
:101DAE00900D24EFF064027022900DD7E0C39428BA
:101DBE005004E4F08007900DD7E024D8F0900DD7B2
:101DCE00E0FFC374FF9FFDE4FF8028900D24E064C4
:101DDE00077026900DD8E0C394285004E4F08007D5
:101DEE00900DD8E024D8F0900DD8E0FFC374FF9F7B
:0C1DFE00FD7F011221EF7F01227F0022F7
:100CED00900D21EBF0A3EAF0A3E9F0900D7574FFE0
:100CFD00F0A37413F0A37442F0900D21E0FBA3E078
:100D0D00FAA3E0F9121915EA494B7003020E9D90F2
:100D1D00000612081B24CE7003020DDC04600302D2
:100D2D000E95900D7574FFF0A37412F0A374DEF0A0
:100D3D00900D21E0FBA3E0FAA3E0F9121915EA49A1
:100D4D004B60057F02020DFF900D7574FFF0A374CB
:100D5D0012F0A374E9F0900D21E0FBA3E0FAA3E0FB
:100D6D00F9121915EA494B60057F02020E2E900DFE
:100D7D007574FFF0A37413F0A37463F0900D21E06C
:100D8D00FBA3E0FAA3E0F9121915EA494B600E7FB7
:100D9D0002121D467BFF7A137967020EA3900D7523
:100DAD0074FFF0A37413F0A37475F0900D21E0FBA4
:100DBD00A3E0FAA3E0F9121915EA494B7003020EEC
:100DCD00A67F02121DAE7BFF7A137979020EA390D6
:100DDD000D7574FFF0A37412F0A374DEF0900D2165
:100DED00E0FBA3E0FAA3E0F9121915EA494B600EF6
:100DFD007F07121F987BFF7A137948020EA3900D7F
:100E0D007574FFF0A37412F0A374E9F0900D21E056
:100E1D00FBA3E0FAA3E0F9121915EA494B600D7F27
:100E2D00071220037BFF7A137955806A900D757434
:100E3D00FFF0A37413F0A37463F0900D21E0FBA3F6
:100E4D00E0FAA3E0F9121915EA494B600D7F07127C
:100E5D001D467BFF7A137987803C900D7574FFF0EA
:100E6D00A37413F0A37475F0900D21E0FBA3E0FAC9
:100E7D00A3E0F9121915EA494B601E7F07121DAE4A
:100E8D007BFF7A137995800E7BFF7A1379A3800609
:0B0E9D007BFF7A1379BE1222567F0102
:010EA8002227
:1016D300900D187403F0A304F07B017A0D79187F41
:1016E30005120B29900D197413F07B017A0D7918EB
:1016F300E4FF120B29E4900D1AF0A304F0FB7A0D1A
:10170300791A7F05120B29900D167403F0A37480C8
:10171300F07B017A0D79167F03120B29900D177454
:1017230080F07B017A0D79167F01120B29E4900D6D
:101733001CF0A3F0A37442F0E4A3F0A3F0A304F01D
:10174300E4A3F0A3F07B017A0D791C7F03120EA9A9
:101753007B017A0D791C7F02120EA97B017A0D7928
:101763001C7F07120EA97D047F05121F5D7D10E407
:10177300FF121F5D7D02E4FF121F5D7D01E4FF1276
:101783001F5D7F021220037F07122003E4900DD711
:03179300F0A3F0D0
:011796002230
:0B15ED00900D1BEBF0A3EAF0A3E9F067
:1015F800900D7574FFF0A37413F0A374D3F012194F
:1016080015900D1EEBF0A3EAF0A3E9F04A4B601722
:10161800900D1EE0FBA3E0FAA3E0F9120961EF6068
:10162800037F01227F0022900D7574FFF0A37413CD
:10163800F0A37442F0900D1BE0FBA3E0FAA3E0F9DD
:10164800121915900D1EEBF0A3EAF0A3E9F04A4B2E
:101658006010900D1EE0FBA3E0FAA3E0F9120CED78
:101668008066900D7574FFF0A37412F0A374D4F023
:10167800900D1BE0FBA3E0FAA3E0F9121915900DF9
:101688001EEBF0A3EAF0A3E9F04A4B6002802B902E
:101698000D7574FFF0A37412F0A374D9F0900D1BAC
:1016A800E0FBA3E0FAA3E0F9121915900D1EEBF088
:1016B800A3EAF0A3E9F04A4B600E900D1EE0FBA3ED
:0A16C800E0FAA3E0F91214F07F012C
:0116D20022F5
:10220500900DD97401F0121F0E900DD9E01470F9DC
:0522150012185680F4D0
:1019D40041542B524553544F52450D0A004F4B006E
:1019E40041542B43574D4F44453D320D0A00415459
:1019F4002B43575341503D2241495F4C6162222C95
:101A04002231323334353637383930222C342C34C1
:101A14000D0A0041542B5253540D0A0041542B43D8
:101A240049504D55583D310D0A0041542B434950FE
:101A34005345525645523D312C353030300D0A0055
:101A440041542B43494653520D0A0041542B4349F8
:101A54005053454E443D302C3137300D0A002C0094
:101A64000D0A003E20000D0A0D0A0041542B434983
:101A74005053454E443D00000000000000000000AB
:091A840000000000000000000059
:101E0A00480D7EFF19D4FF19E1012C480D86FF19F0
:101E1A00E4FF19E1012C480D8EFF19F2FF19E101C7
:101E2A002C480D96FF1A17FF19E1012C480D9EFF49
:101E3A001A20FF19E1012C480DA6FF1A2EFF19E1FD
:101E4A00012C480DAEFF1A44FF19E1012C480DB6CA
:081E5A00FF1A4FFF19E1012CF2
:0713DA007B01E0FCA3E0FD34
:1013E100900D65EBF0A3EAF0A3E9F0A3ECF0A3ED17
:0113F100F00B
:1013F200900D68E0FEA3E0FF7C277D1012087CEFD1
:101402002430FF900D65E0FBA3E0FAA3E0F9EF12B0
:101412000848900D68E0FEA3E0FF7C277D101208CB
:101422007C7E037FE8CFCDCFCECCCE12087CEF24DA
:1014320030FF900D65E0FBA3E0FAA3E0F990000114
:10144200EF12085A900D68E0FEA3E0FF7C037DE8EE
:1014520012087C7E007F64CFCDCFCECCCE12087C2A
:10146200EF2430FF900D65E0FBA3E0FAA3E0F990D2
:101472000002EF12085A900D68E0FEA3E0FF7C0024
:101482007D6412087C7E007F0ACFCDCFCECCCE12F7
:10149200087CEF2430FF900D65E0FBA3E0FAA3E0A7
:1014A200F9900003EF12085A900D68E0FEA3E0FFE6
:1014B2007C007D0A12087CED2430FF900D65E0FB74
:1014C200A3E0FAA3E0F9900004EF12085A90000595
:1014D200E412085A120802FFB43009740129F9E42F
:0D14E2003AFA80F0EF70060429F9E43AFAB6
:0114EF0022DA
:10213200E4900D16F0A37408F07B017A0D79167FF6
:1021420005120B297D087F05121F5D7F6412227B19
:0C2152007D087F05121FCE7F020221D6FF
:0D104800A3F0900D1BE0FBA3E0FAA3E0F97C
:0B105500900D36EBF0A3EAF0A3E9F0E9
:1010600078427C0D7D017BFF7A1A796F7E007F1EAE
:101070001207DC900D39E0FBA3E0FAA3E0F912229D
:101080001A900D63EEF0A3EFF0900D36E0F9A3E0B7
:10109000FAA3E0900D68C9F0A3EAF0A3E9F07B01A0
:1010A0007A0D7942121CDB900D6874FFF0A3741A5C
:1010B000F0A37462F07B017A0D7942121CDB7A0D89
:1010C000793C900D631213DA900D60EBF0A3EAF017
:1010D000A3E9F0900D60E0F9A3E0FAA3E0900D68B9
:1010E000C9F0A3EAF0A3E9F07B017A0D7942121C62
:1010F000DB900D6874FFF0A3741AF0A37464F07BA6
:10110000017A0D7942121CDB900DB67401F0A374C4
:101110000DF0A37442F0A374FFF0A3741AF0A3744B
:1011200067F0A37401F0A3742CF0900D89E0F9A38B
:10113000E0FAA3E0900D68C9F0A3EAF0A3E9F0900B
:101140000D8CE0FFA3E0900D6BCFF0A3EFF0900DBE
:10115000B6121A8DEA494B7002FF22900D6874FF97
:10116000F0A37419F0A374E1F0A37401F0A3742C3C
:10117000F0900D39121A8DEA494B7002FF227F015F
:01118000224C
:0B179700900D1BEBF0A3EAF0A3E9F0BB
:1017A200A3E0FBA3E0FAA3E0F912221A900D34EEB3
:1017B200F0A3EFF07E007F0A7D007B017A0D792194
:1017C200120935900D3974FFF0A37400F07473128E
:1017D2001048EF7002FF227A0D792B900D3412130C
:1017E200DA900D31EBF0A3EAF0A3E9F0900D31E0CD
:1017F200F9A3E0FAA3E0900D68C9F0A3EAF0A3E927
:10180200F07B017A0D7921121CDB900D6874FFF0D8
:10181200A3741AF0A3746AF07B017A0D7921121C69
:10182200DB900D397401F0A3740DF074211210488D
:10183200EF7002FF22900D1EE0F9A3E0FAA3E09000
:101842000D39C9F0A3EAF0A3E9121049EF7002FFC3
:03185200227F01F1
:011855002270
:10209E009000147401F0E4900011F0A3F09000157C
:1020AE00F0900013740AF0900013E0D3940050F7F0
:1020BE00E4900014F0A3E06007900011A3E0FF226B
:0320CE007F00226E
:081A8D00E0FBA3E0FAA3E0F97D
:0B1A9500900D65EBF0A3EAF0A3E9F070
:101AA000900D6BE0FEA3E0FF7C007D0A12087C90A5
:101AB0000D70EEF0A3EFF0D3900D71E09400900D57
:101AC00070E094004061900D65E0FBA3E0FAA3E0B4
:101AD000F912224312209EEF603D7B017A00799635
:101AE000122256900D68E0F9A3E0FAA3E0900D757C
:101AF000C9F0A3EAF0A3E9F07B017A007996121904
:101B000015900D6DEBF0A3EAF0A3E9F04A4B6007E6
:101B10007B007A00790122900D71E024FFF0900D96
:0D1B200070E034FFF080907B007A007900C7
:011B2D002295
:10118100900D89E0F9A3E0FAA3E0900D68C9F0A3FE
:10119100EAF0A3E9F0900D8CE0FFA3E0900D6BCF96
:1011A100F0A3EFF0900D86121A8DEA494B7002FF01
:1011B10022900D91E0F9A3E0FAA3E0900D68C9F047
:1011C100A3EAF0A3E9F0900D94E0FFA3E0900D6B8A
:1011D100CFF0A3EFF0900D8E121A8DEA494B7008F3
:1011E1007F021221D67F0022900D99E0F9A3E0FA47
:1011F100A3E0900D68C9F0A3EAF0A3E9F0900D9C7B
:10120100E0FFA3E0900D6BCFF0A3EFF0900D9612ED
:101211001A8DEA494B7002FF227F051221D6900DEB
:10122100A1E0F9A3E0FAA3E0900D68C9F0A3EAF008
:10123100A3E9F0900DA4E0FFA3E0900D6BCFF0A324
:10124100EFF0900D9E121A8DEA494B7002FF229029
:101251000DA9E0F9A3E0FAA3E0900D68C9F0A3EAB3
:10126100F0A3E9F0900DACE0FFA3E0900D6BCFF09F
:10127100A3EFF0900DA6121A8DEA494B7002FF22DE
:10128100900DB1E0F9A3E0FAA3E0900D68C9F0A3D5
:10129100EAF0A3E9F0900DB4E0FFA3E0900D6BCF6D
:1012A100F0A3EFF0900DAE121A8DEA494B7002FFD8
:0412B100227F012275
:1021B400538E7F5389F0E4F58A758CB8C28DD28C26
:1021C400D2A9900DD67464F0E4900DD3F0A3F0A3DB
:0221D400F022F7
:03000B00021E636F
:101E6300C0E0C083C082C0D075D008900DD6E0D347
:101E730094004003E014F0900014E06032900013EB
:101E8300E0D394004029E014F0E07023A3F0900025
:101E930011E0FEA3E0FFD39400EE9400401174968A
:101EA3002FF58274003EF583E4F090001504F0D022
:081EB300D0D082D083D0E032D0
:100046002B5049442C00474554202F200047455447
:10005600202F3F004465766963657320636F6E7475
:10006600726F6C204661696C20212121004854542E
:10007600502F312E3020323030204F4B0D0A436F37
:100086006E74656E742D547970653A207465787453
:100096002F68746D6C3B20636861727365743D757F
:1000A60074662D380D0A436F6E74656E742D4C653B
:1000B6006E6774683A20003C21444F4354595045BA
:1000C6002068746D6C3E0D0A3C68746D6C206C6122
:1000D6006E673D22656E223E0D0A3C686561643E90
:1000E6000D0A202020203C6D6574612063686172D2
:1000F6007365743D225554462D38223E0D0A202044
:1001060020203C7469746C653E47656E6975732082
:100116004149204C61623C2F7469746C653E0D0A3E
:10012600202020203C7374796C653E0D0A20202027
:10013600202020202068317B666F6E742D73697ACB
:10014600653A363030253B746578742D616C696785
:100156006E3A63656E7465727D0D0A20202020203C
:100166002020207370616E7B666F6E742D73697AC2
:10017600653A333030253B6D617267696E2D6C656B
:1001860066743A343070787D0D0A202020202020B5
:100196002020627574746F6E7B747970653A62752F
:1001A60074746F6E3B6D617267696E2D6C656674F3
:1001B6003A343070783B77696474683A313230701B
:1001C600783B6865696768743A31323070783B62AB
:1001D6006F726465722D7261646975733A36307038
:1001E600783B70616464696E673A323070787D0D71
:1001F6000A20202020202020202E7373317B62616C
:10020600636B67726F756E643A2366663939353388
:100216007D0D0A20202020202020202E7373327B83
:100226006261636B67726F756E643A6461726B6765
:100236007261797D0D0A20202020202020202E7337
:1002460073337B6261636B67726F756E643A2023EA
:100256006666653061307D0D0A2020202020202032
:10026600202E7373347B6261636B67726F756E6485
:100276003A20236436643664367D0D0A2020202019
:10028600202020202E7373357B626F726465722D79
:100296007261646975733A323070783B6865696774
:1002A60068743A363070787D0D0A202020203C2F65
:1002B6007374796C653E0D0A202020203C736372AE
:1002C6006970743E0D0A20202020202020206675AB
:1002D6006E6374696F6E206A702861290D0A20208A
:1002E6002020202020207B77696E646F772E6C6F2C
:1002F600636174696F6E2E687265663D222F3F22B8
:100306002B617D0D0A202020203C2F7363726970BB
:10031600743E0D0A3C2F686561643E0D0A3C626FAF
:1003260064793E0D0A202020203C6469762073748F
:10033600796C653D2277696474683A313030307083
:1003460078223E0D0A20202020202020203C6469AF
:1003560076207374796C653D226261636B67726F98
:10036600756E642D636F6C6F723A736C617465673A
:10037600726179223E0D0A20202020202020202094
:100386002020203C68313E47656E697573204149DF
:10039600204C61623C2F68313E0D0A20202020202F
:1003A6002020203C2F6469763E0D0A202020202044
:1003B6002020203C62723E0D0A2020202020202092
:1003C6002020202020202020203C7370616E3E5388
:1003D6005749544348313A3C2F7370616E3E0D0ABB
:1003E6002020202020202020202020202020202007
:1003F6003C627574746F6E20636C6173733D227317
:10040600733122206F6E636C69636B3D226A7028BC
:1004160027535749544348313D4F4E2729223E4FD3
:100426004E3C2F627574746F6E3E0D0A202020209C
:100436002020202020202020202020203C627574AF
:10044600746F6E20636C6173733D22737332222066
:100456006F6E636C69636B3D226A70282753574938
:10046600544348313D4F46462729223E4F46463C97
:100476002F627574746F6E3E0D0A20202020202096
:10048600202020202020202020203C62723E0D0AC1
:100496002020202020202020202020202020202056
:1004A6003C7370616E3E535749544348323A3C2F71
:1004B6007370616E3E0D0A2020202020202020200F
:1004C600202020202020203C627574746F6E2063EB
:1004D6006C6173733D2273733122206F6E636C6996
:1004E600636B3D226A702827535749544348323D6F
:1004F6004F4E2729223E4F4E3C2F627574746F6E05
:100506003E0D0A20202020202020202020202020F0
:100516002020203C627574746F6E20636C61737367
:100526003D2273733222206F6E636C69636B3D22CA
:100536006A702827535749544348323D4F46462749
:1005460029223E4F46463C2F627574746F6E3E3CC0
:1005560062723E0D0A20202020202020202020200C
:1005660020202020203C7370616E3E53574954432F
:1005760048333A3C2F7370616E3E0D0A20202020CE
:100586002020202020202020202020203C6275745E
:10059600746F6E20636C6173733D22737331222016
:1005A6006F6E636C69636B3D226A702827535749E7
:1005B600544348333D4F4E2729223E4F4E3C2F622F
:1005C6007574746F6E3E0D0A202020202020202096
:1005D60020202020202020203C627574746F6E201D
:1005E600636C6173733D2273733222206F6E636C8A
:1005F60069636B3D226A7028275357495443483331
:100606003D4F46462729223E4F46463C2F6275748B
:10061600746F6E3E3C62723E0D0A20202020202020
:10062600202020202020202020203C7370616E3E58
:10063600535749544348343A3C2F7370616E3E0D0C
:100646000A202020202020202020202020202020BA
:10065600203C627574746F6E20636C6173733D2207
:1006660073733122206F6E636C69636B3D226A700F
:100676002827535749544348343D4F4E2729223E95
:100686004F4E3C2F627574746F6E3E0D0A2020200B
:10069600202020202020202020202020203C6275A1
:1006A60074746F6E20636C6173733D2273733222B0
:1006B600206F6E636C69636B3D226A7028275357FF
:1006C60049544348343D4F46462729223E4F464625
:1006D6003C2F627574746F6E3E0D0A202020202018
:1006E6002020203C62723E0D0A202020203C2F64F0
:1006F60069763E0D0A3C2F626F64793E0D0A3C2FE7
:0607060068746D6C3E00FA
:101856007B017A007996122256900D7574FFF0A3DB
:101866007400F0A37446F07B017A0079961219157C
:10187600EA494B70030219147B017A00799B122105
:101886005E90009BE0900D19F0E4A3F0900D757446
:10189600FFF0A37400F0A3744CF07B017A007996F4
:1018A600121915900D16EBF0A3EAF0A3E9F04A4BD6
:1018B6006016900D1E74FFF0A37400F0A374BDF0C3
:1018C6007B017A0D79198043900D7574FFF0A3742E
:1018D60000F0A37453F07B017A00799612191590E3
:1018E6000D16EBF0A3EAF0A3E9F04A4B6020900D49
:1018F60016E0FBA3E0FAA3E0F91215ED7BFFBF01AA
:0E190600067A0079BD80047A00795A1217978C
:0119140022B0
:100026002A2A2A2A2A2A2A2A2A2A2A2A2A2A2A2A2A
:0D0036002A2A2A2A2A2A2A2A2A000D0A002C
:041C5600AB07AA0628
:101C5A007C277D1012087CEF2430900DCDF07C2774
:101C6A007D10AF03AE0212087C7E037FE8CFCDCF92
:101C7A00CECCCE12087CEF2430A3F07C037DE8AFF3
:101C8A0003AE0212087C7E007F64CFCDCFCECCCECD
:101C9A0012087CEF2430A3F07C007D64AF03AE020F
:101CAA0012087C7E007F0ACFCDCFCECCCE12087C24
:101CBA00EF2430A3F0AE02AF037C007D0A12087C49
:101CCA00ED2430A3F0E4A3F07B017A0D79CD022252
:011CDA0056B3
:10215E00900D1BEBF0A3EAF0A3E9F07BFF7A007978
:10216E0026122256900D1BE0FBA3E0FAA3E0F91213
:0B217E0022567BFF7A007940022256B7
:100B2900EFD3940540037F0122120802FED39403F8
:100B390040037F0222EF7041EE700B900001120812
:100B49001BF452935294120802B4010B9000011243
:100B5900081B4293F45294120802FEB4020A900050
:100B69000112081B42934294EEB4030D9000011246
:100B7900081BFEF45293EE4294EF6401704312088D
:100B890002FE700B90000112081BF452915292EE72
:100B9900B4010B90000112081B4291F45292120801
:100BA90002B4020A90000112081B429142921208F3
:100BB90002B4030D90000112081BFEF45291EE429B
:100BC90092EF64027043120802FE700B900001124A
:100BD900081BF452955296EEB4010B9000011208CD
:100BE9001B4295F45296120802B4020A90000112AF
:100BF900081B42954296120802B4030D9000011297
:100C0900081BFEF45295EE4296EF640370431208F6
:100C190002FE700B90000112081BF452B152B2EEA1
:100C2900B4010B90000112081B42B1F452B2120830
:100C390002B4020A90000112081B42B142B2120822
:100C490002B4030D90000112081BFEF452B1EE42EA
:100C5900B2EF64047043120802FE700B9000011297
:100C6900081BF452B352B4EEB4010B900001120800
:100C79001B42B3F452B4120802B4020A90000112E2
:100C8900081B42B342B4120802B4030D90000112CA
:100C9900081BFEF452B3EE42B4EF64057043120828
:100CA90002FF700B90000112081BF452C952CAEFDF
:100CB900B4010B90000112081B42C9F452CA120870
:100CC90002B4020A90000112081B42C942CA120862
:100CD90002B4030D90000112081BFFF452C9EF4240
:040CE900CA7F00229C
:101FCE00EFD3940540037F0122EF7003ED4280EFC3
:101FDE00B40103ED4290EFB40203ED42A0EFB4035F
:101FEE0003ED42B0EFB40403ED42C0EFB40503EDD0
:051FFE0042C87F002233
:101F5D00EFD3940540037F0122EF7004EDF452801E
:101F6D00EFB40104EDF45290EFB40204EDF452A07D
:101F7D00EFB40304EDF452B0EFB40404EDF452C029
:0B1F8D00EFB40504EDF452C87F002201
:1021EF00EF70038DFA22EFB401038DFB22EFB402DF
:0621FF0004AF058FFC2275
:100EA900900D24EBF0A3EAF0A3E9F0AD07EDD3949C
:100EB900034003021047ED6403704CC2DEF5F9F5F7
:100EC900E9900D24E0FBA3E0FAA3E0F9120802FF80
:100ED900E5A254CF4FF5A290000112081BFFE5D9F6
:100EE90054F14FF5D990000412081B5401FFE5D9BC
:100EF90054FE4FF5D990000512081BB40104D2BF66
:100F09008002C2BFD2DE22900D24E0FBA3E0FAA347
:100F1900E02404F9E43AFA1208025431120848901C
:100F29000D24E0FBA3E0FAA3E0F990000212081BEC
:100F3900C39448400FE92404F9E43AFA1208025428
:100F4900CF120848ED704F900D24E0FBA3E0FAA3FF
:100F5900E0F990000412081BFF90000212081BFE22
:100F69004FF5DA90000312081BFFE5F2543F4FF5E5
:100F7900F29000061208FDFBAAF0900DC1EAF0A359
:100F8900EBF0C200900DBEEEF0900DC7EAF0A3EBB6
:100F9900F0F5EAEAF5FAED6401704F900D24E0FBF3
:100FA900A3E0FAA3E0F990000412081BFF900002E5
:100FB90012081BFE4FF5DB90000312081BFFE5F337
:100FC900543F4FF5F39000061208FDFBAAF0900D6F
:100FD900C3EAF0A3EBF0C201900DBFEEF0900DC98A
:100FE900EAF0A3EBF0F5EBEAF5FBED6402704F9044
:100FF9000D24E0FBA3E0FAA3E0F990000412081B1A
:10100900FF90000212081BFE4FF5DC900003120846
:101019001BFFE5F4543F4FF5F49000061208FDFD5F
:10102900ACF0900DC5ECF0A3EDF0C202900DC0EE4E
:0F103900F0900DCBECF0A3EDF0F5ECECF5FC2214
:10218900759A50438E0475D7D075D6FF438E10903B
:10219900000B7402F0E4A3F0A3F0A3F0A3F0A3F002
:0B21A900A3F0A3F0A3F0A3F0A3F0222A
:10222F008F9BE59A20E1047F0180027F00EF70F21F
:04223F00539AFD228F
:10224300120802FF600C12222F740129F9E43AFAF2
:0322530080EE22F8
:03004300021EBBDF
:101EBB00C0E0C0F0C083C082C0D075D010E59A30AE
:101ECB00E036539AFE900014E0B4012CC39000113D
:101EDB00E094084004E4F0A3F0900011E475F001E5
:101EEB001208E7FE749625F0F58274003EF583E543
:101EFB009BF0900013740AF0D0D0D082D083D0F036
:031F0B00D0E032F1
:10203700759850438E40538EFE53890F758BD0751C
:102047008DFFC2ABD28E9000007401F0E4A3F0A321
:10205700F0A3F0A3F0A3F0A3F0A3F0A3F0A3F0A3E1
:04206700F0D2AC22E5
:1020D100900003E0FCA3E02496F58274083CF583AC
:1020E100EFF0900003E475F0011208D1C3940440AD
:1020F10007E4900003F0A3F0900005E0700404F001
:03210100D299224E
:10225600120802FF600C1220D1740129F9E43AFA3F
:0322660080EE22E5
:03002300021B2E8F
:101B2E00C0E0C0F0C083C082C0D075D01830983BE2
:101B3E00C298900009E0B40132C3900007E094808F
:101B4E00900006E094004004E4F0A3F0900006E458
:101B5E0075F0011208E7FE741625F0F58274003E4A
:101B6E00F583E599F09000087405F0309943C29919
:101B7E00900003E0FEA3E0FF900001E0FCA3E0FD77
:101B8E006F7002EC6E602574962DF58274083CF52C
:101B9E0083E0F599900001E475F0011208D1C39429
:101BAE0004400E900001E4F0A3F08005900005E4DF
:0C1BBE00F0D0D0D082D083D0F0D0E03244
:03000000021BCA16
:0C1BCA00787FE4F6D8FD758120021C1124
:10070C00E709F608DFFA8046E709F208DFFA803ECF
:10071C0088828C83E709F0A3DFFA8032E309F608BC
:10072C00DFFA8078E309F208DFFA807088828C8324
:10073C00E309F0A3DFFA806489828A83E0A3F608D8
:10074C00DFFA805889828A83E0A3F208DFFA804CB2
:10075C0080D280FA80C680D4806980F28033801089
:10076C0080A680EA809A80A880DA80E280CA8033F2
:10077C0089828A83ECFAE493A3C8C582C8CCC5836A
:10078C00CCF0A3C8C582C8CCC583CCDFE9DEE7803A
:10079C000D89828A83E493A3F608DFF9ECFAA9F0B9
:1007AC00EDFB2289828A83ECFAE0A3C8C582C8CC0F
:1007BC00C583CCF0A3C8C582C8CCC583CCDFEADE28
:1007CC00E880DB89828A83E493A3F208DFF980CC8A
:1007DC0088F0EF60010E4E60C388F0ED2402B40483
:1007EC000050B9F582EB2402B4040050AF2323452A
:0607FC00822390075C73EC
:10080200BB010689828A83E0225002E722BBFE02F4
:09081200E32289828A83E4932227
:10081B00BB010CE58229F582E5833AF583E0225092
:10082B0006E92582F8E622BBFE06E92582F8E222DC
:0D083B00E58229F582E5833AF583E49322F6
:10084800BB010689828A83F0225002F722BBFE018F
:02085800F32289
:10085A00F8BB010DE58229F582E5833AF583E8F0D4
:10086A00225006E92582C8F622BBFE05E92582C880
:02087A00F22268
:10087C00BC000BBE0029EF8DF084FFADF022E4CC60
:10088C00F875F008EF2FFFEE33FEEC33FCEE9DEC29
:10089C00984005FCEE9DFE0FD5F0E9E4CEFD22ED6F
:1008AC00F8F5F0EE8420D21CFEADF075F008EF2FB9
:1008BC00FFED33FD4007985006D5F0F222C398FDAA
:0508CC000FD5F0EA2247
:1008D100C5F0F8A3E028F0C5F0F8E58215827002B2
:0608E1001583E038F0224F
:1008E700A3F8E0C5F025F0F0E582158270021583C4
:0608F700E0C838F0E82221
:1008FD00BB0110E58229F582E5833AF583E0F5F039
:10090D00A3E0225009E92582F886F008E622BBFE15
:10091D000AE92582F8E2F5F008E222E5832AF5835B
:08092D00E993F5F0A3E9932220
:101CDB00900D65EBF0A3EAF0A3E9F0900D6BEBF040
:101CEB00A3EAF0A3E9F0900D65E0FBA3E475F00126
:101CFB001208E7A9F0FA12080270EB900D6674FF58
:101D0B00F5F01208D1900D68E0FBA3E475F0011219
:101D1B0008E7A9F0FA120802FF900D65E0FBA3E4B7
:101D2B0075F0011208E7A9F0FAEF12084870D69087
:0B1D3B000D6BE0FBA3E0FAA3E0F9222F
:10221A00E4FFFE120802600C0FEF70010E09E9706C
:05222A00F20A80EF2222
:10191500900D72EBF0A3EAF0A3E9F0A3E0FBA3E0DE
:10192500FAA3E0F912080270030219C1900D72E0E2
:10193500FBA3E0FAA3E0F912080270030219CD90A7
:101945000D75E0F9A3E0FAA3E0A3C9F0A3EAF0A3BB
:10195500E9F0900D72A3E0FAA3E0F9900D7BEBF0AE
:10196500A3EAF0A3E9F0900D78E0FBA3E0FAA3E089
:10197500F9120802FF6026900D7BE0FBA3E0FAA3B5
:10198500E0F91208026F7015900D7975F0011208D3
:10199500D1900D7CE475F0011208D180C9900D78C5
:1019A500E0FBA3E0FAA3E0F91208027002800D90B3
:1019B5000D73E475F0011208D1021931900D72E032
:0F19C500FBA3E0FAA3E0F9227B007A007900226D
:10093500EF4E6012EF60010EEDBB010B89828A83D9
:10094500F0A3DFFCDEFA2289F05007F709DFFCA9E6
:0C095500F022BBFEFCF309DFFCA9F0223D
:101BD600022205E493A3F8E493A34003F68001F2FE
:101BE60008DFF48029E493A3F85407240CC8C33310
:101BF600C4540F4420C8834004F456800146F6DFDF
:101C0600E4800B0102040810204080901E0AE47E46
:101C1600019360BCA3FF543F30E509541FFEE493D3
:101C2600A360010ECF54C025E060A840B8E493A39A
:101C3600FAE493A3F8E493A3C8C582C8CAC583CAC5
:101C4600F0A3C8C582C8CAC583CADFE9DEE780BE7D
:011E6200007F
:00000001FF
