:10228000AD071FED600B0000007E1A1EEE60F180AE
:01229000FA53
:01229100222A
:0F2292007DA57C06ED1D70011C144C70F7DFF16B
:0122A100221A
:02220200AB0728
:10220400AF031BEF60107E04EED3940040F27FFA1C
:062214001222921E80F26E
:01221A0022A1
:102113007379732073746172740D0A007769666949
:102123002072657365740D0A0077696669207365AB
:0E21330074206170207375636573730D0A006C
:101ECA00C2AF12214143AF0112200EE4F5B8F5B5B5
:101EDA0043B5011221C5D2AF7BFF7A2179131222B1
:101EEA006D12186B7E087F007D007B017A0079985D
:101EFA0012093A7BFF7A21791F12226D12216E1282
:0F1F0A0015C6EF60EE7BFF7A21792C12226D2233
:10106D004448543131207472756520200D0A0044B6
:10107D00485431312066616C736520200D0A00548F
:10108D00454D500048554D49003E3E3E3E3E3E3E8C
:10109D003E3E3E3E3E3E3E000D0A004F4E0031208C
:1010AD006F6E210D0A004F46460031206F66662196
:1010BD000D0A0032206F6E210D0A0032206F666618
:1010CD00210D0A0033206F6E210D0A0033206F664B
:1010DD0066210D0A0034206F6E210D0A0034206F39
:1010ED006666210D0A0073776974636820696E76F0
:1010FD00616C696420636F6D6D616E640D0A004CE7
:10110D0049474854006C6967687431206F6E210D32
:10111D000A006C6967687431206F6666210D0A00DC
:10112D00494E43006C696768743120696E63210D07
:10113D000A00444543006C69676874312064656337
:10114D00210D0A006C696768743220696E63210D88
:10115D000A006C696768743220646563210D0A00AA
:10116D006C6967687420696E76616C696420636F61
:10117D006D6D616E643232320D0A00696E76616C8E
:10118D00696420636F6D6D616E643131310D0A00DC
:07119D005357495443480079
:10000E00D2C87F01122280C2C87F12122292D2C899
:05001E007F04022280B6
:1020AD00E4900D30F0900D2FF030C8FD7F0212221C
:1020BD0080900D30E025E0F030C803E004F020C83A
:1020CD00FD900D2FE004F0E0C3940840DC900D303E
:0220DD00E0FF22
:0120DF0022DE
:0B14C900900D23EBF0A3EAF0A3E9F084
:1014D400E4A3F0A3F0A3F0A3F0A3F012000E30C82D
:1014E4000302157130C8FDC2AF7F0812228012209A
:1014F400AD900D26EFF01220AD900D27EFF01220E5
:10150400AD900D28EFF01220AD900D29EFF01220D0
:10151400AD900D2AEFF0D2AF900D27E0FD900D268F
:10152400E02DFDE433FC900D28E07A002DFDEA3C2B
:10153400FCA3E02DFDEA3CFC7E00EDB5070CEEB506
:1015440004087BFF7A10796D80067BFF7A10797C22
:1015540012226D900D28E0FF900D2BE4F0A3EFF024
:10156400900D26E0FF900D2DE4F0A3EFF0900D76A2
:1015740074FFF0A37410F0A3748CF0900D23E0FBBF
:10158400A3E0FAA3E0F91219EEEA494B6005900DC5
:101594002B8024900D7674FFF0A37410F0A3749143
:1015A400F0900D23E0FBA3E0FAA3E0F91219EEEAB0
:1015B400494B6009900D2DE0FEA3E0FF227EFF7FE2
:0115C400FF27
:0115C5002203
:10096600900D23EBF0A3EAF0A3E9F07BFF7A107970
:100976009612226D900D23E0FBA3E0FAA3E0F91294
:10098600226D7BFF7A1079A512226D900D23E0FB74
:10099600A3E0FAA3E0F990000612082024CE606DC9
:1009A600147003020A78147003020ADC240360033D
:1009B600020B3F900D7674FFF0A37410F0A374A899
:1009C600F01219EEEA494B60107D047F05122044AF
:1009D6007BFF7A1079AB020B3A900D7674FFF0A389
:1009E6007410F0A374B3F0900D23E0FBA3E0FAA318
:1009F600E0F91219EEEA494B7003020B4B7D047FB6
:100A060005121F9D7BFF7A1079B7020B3A900D767F
:100A160074FFF0A37410F0A374A8F0900D23E0FB0C
:100A2600A3E0FAA3E0F91219EEEA494B60107D1033
:100A3600E4FF1220447BFF7A1079C0020B3A900D36
:100A46007674FFF0A37410F0A374B3F0900D23E056
:100A5600FBA3E0FAA3E0F91219EEEA494B70030290
:100A66000B4B7D10E4FF121F9D7BFF7A1079C802A5
:100A76000B3A900D7674FFF0A37410F0A374A8F0EF
:100A8600900D23E0FBA3E0FAA3E0F91219EEEA4980
:100A96004B60107D02E4FF1220447BFF7A1079D16F
:100AA600020B3A900D7674FFF0A37410F0A374B3A2
:100AB600F0900D23E0FBA3E0FAA3E0F91219EEEAA9
:100AC600494B7003020B4B7D02E4FF121F9D7BFF17
:100AD6007A1079D9805E900D7674FFF0A37410F0C9
:100AE600A374A8F0900D23E0FBA3E0FAA3E0F912AB
:100AF60019EEEA494B600F7D01E4FF1220447BFFAB
:100B06007A1079E2802E900D7674FFF0A37410F0BF
:100B1600A374B3F0900D23E0FBA3E0FAA3E0F9126F
:100B260019EEEA494B601E7D01E4FF121F9D7BFF13
:100B36007A1079EA12226D800C7BFF7A1079F31213
:070B4600226D7F00227F01F8
:010B4D002285
:101FD800900D26EFF0BF0210900DC874A0F0C374E6
:101FE800FF94A0FDE4FF8015900D26E0B40714903F
:101FF8000DC974A0F0C374FF94A0FD7F0112221BC9
:062008007F01227F00228F
:10207900900D26EFF0BF020FE4900DC8F0C374FF76
:102089009400FDE4FF8014900D26E0B40713E4905A
:102099000DC9F0C374FF9400FD7F0112221B7F015B
:0420A900227F002270
:101DB000900D26EFF064027028900DC8E0FFC37408
:101DC000FF9FC39428500574FFF08007900DC8E072
:101DD0002428F0900DC8E0FFC374FF9FFDE4FF804E
:101DE0002E900D26E06407702C900DC9E0FFC3749F
:101DF000FF9FC39428500574FFF08007900DC9E041
:101E00002428F0900DC9E0FFC374FF9FFD7F0112ED
:081E1000221B7F01227F00224A
:101E1800900D26EFF064027022900DC8E0C394285C
:101E28005004E4F08007900DC8E024D8F0900DC865
:101E3800E0FFC374FF9FFDE4FF8028900D26E06457
:101E4800077026900DC9E0C394285004E4F0800779
:101E5800900DC9E024D8F0900DC9E0FFC374FF9F2E
:0C1E6800FD7F0112221B7F01227F00225F
:100D1200900D23EBF0A3EAF0A3E9F0900D7674FFB7
:100D2200F0A37411F0A3740CF0900D23E0FBA3E088
:100D3200FAA3E0F91219EEEA494B7003020EC290CF
:100D4200000612082024CE7003020E010460030282
:100D52000EBA900D7674FFF0A37410F0A374A8F08D
:100D6200900D23E0FBA3E0FAA3E0F91219EEEA49A1
:100D72004B60057F02020E24900D7674FFF0A3747F
:100D820010F0A374B3F0900D23E0FBA3E0FAA3E00C
:100D9200F91219EEEA494B60057F02020E53900DDB
:100DA2007674FFF0A37411F0A3742DF0900D23E07C
:100DB200FBA3E0FAA3E0F91219EEEA494B600E7FB9
:100DC20002121DB07BFF7A117931020EC8900D76A6
:100DD20074FFF0A37411F0A3743FF0900D23E0FBB5
:100DE200A3E0FAA3E0F91219EEEA494B7003020EEE
:100DF200CB7F02121E187BFF7A117943020EC89034
:100E02000D7674FFF0A37410F0A374A8F0900D2374
:100E1200E0FBA3E0FAA3E0F91219EEEA494B600EF7
:100E22007F07121FD87BFF7A117912020EC8900D2C
:100E32007674FFF0A37410F0A374B3F0900D23E066
:100E4200FBA3E0FAA3E0F91219EEEA494B600D7F29
:100E5200071220797BFF7A11791F806A900D7674D0
:100E6200FFF0A37411F0A3742DF0900D23E0FBA307
:100E7200E0FAA3E0F91219EEEA494B600D7F07127E
:100E82001DB07BFF7A117951803C900D7674FFF092
:100E9200A37411F0A3743FF0900D23E0FBA3E0FADA
:100EA200A3E0F91219EEEA494B601E7F07121E18E1
:100EB2007BFF7A11795F800E7BFF7A11796D800654
:0B0EC2007BFF7A11798812226D7F01FE
:010ECD002202
:10186B00900D1A7403F0A304F07B017A0D791A7FA3
:10187B0005120B4E900D1B7413F07B017A0D791A28
:10188B00E4FF120B4EE4900D1CF0A304F0FB7A0D59
:10189B00791C7F05120B4E900D187403F0A3748006
:1018AB00F07B017A0D79187F03120B4E900D197492
:1018BB0080F07B017A0D79187F01120B4EE4900DAD
:1018CB001EF0A3F0A37442F0E4A3F0A3F0A304F082
:1018DB00E4A3F0A3F07B017A0D791E7F03120ECEE9
:1018EB007B017A0D791E7F02120ECE7B017A0D7968
:1018FB001E7F07120ECE7D047F05121F9D7D10E407
:10190B00FF121F9D7D02E4FF121F9D7D01E4FF125C
:10191B001F9D7F021220797F07122079E4900DC85A
:03192B00F0A3F036
:01192E002296
:0B16BE00900D1DEBF0A3EAF0A3E9F093
:1016C900900D7674FFF0A37411F0A3749DF01219B4
:1016D900EE900D20EBF0A3EAF0A3E9F04A4B601776
:1016E900900D20E0FBA3E0FAA3E0F9120966EF6090
:1016F900037F01227F0022900D7674FFF0A37411FD
:10170900F0A3740CF0900D1DE0FBA3E0FAA3E0F93F
:101719001219EE900D20EBF0A3EAF0A3E9F04A4B81
:101729006010900D20E0FBA3E0FAA3E0F9120D127E
:101739008066900D7674FFF0A37410F0A3748CF09A
:10174900900D1DE0FBA3E0FAA3E0F91219EE900D4C
:1017590020EBF0A3EAF0A3E9F04A4B6002802B905A
:101769000D7674FFF0A37410F0A37491F0900D1D21
:10177900E0FBA3E0FAA3E0F91219EE900D20EBF0DB
:10178900A3EAF0A3E9F04A4B600E900D20E0FBA319
:0A179900E0FAA3E0F91214C97F0181
:0117A3002223
:1021E700900DCA7401F0121ECA900DCAE01470F95E
:0B21F700121F62EF60F31212BA80EEBC
:1017A40041542B524553544F52450D0A004F4B00A0
:1017B40041542B43574D4F44453D320D0A0041548B
:1017C4002B43575341503D2241495F4C6162222CC7
:1017D4002231323334353637383930222C342C34F4
:1017E4000D0A0041542B5253540D0A0041542B430B
:1017F40049504D55583D310D0A0041542B43495031
:101804005345525645523D312C353030300D0A0087
:1018140041542B43494653520D0A0041542B43492A
:101824005053454E443D302C3137300D0A006D6124
:10183400746368002C000D0A003E200053454E449A
:10184400204F4B000D0A0D0A0041542B43495053BD
:10185400454E443D00000000000000000000000070
:07186400000000000000007D
:101F1900460D7FFF17A4FF17B1460D9DFF17B4FFAC
:101F290017B1460DA9FF17C2FF17B1460D8BFF1751
:101F3900E7FF17B1460DA3FF17F0FF17B1460D854F
:101F4900FF17FEFF17B1460D97FF1814FF17B1468B
:081F59000D91FF181FFF17B1E5
:0711A4007B01E0FCA3E0FD6C
:1011AB00900D67EBF0A3EAF0A3E9F0A3ECF0A3ED4D
:0111BB00F043
:1011BC00900D6AE0FEA3E0FF7C277D10120881EF02
:1011CC002430FF900D67E0FBA3E0FAA3E0F9EF12E7
:1011DC00084D900D6AE0FEA3E0FF7C277D101208FD
:1011EC00817E037FE8CFCDCFCECCCE120881EF2409
:1011FC0030FF900D67E0FBA3E0FAA3E0F99000014B
:10120C00EF12085F900D6AE0FEA3E0FF7C037DE81F
:10121C001208817E007F64CFCDCFCECCCE12088158
:10122C00EF2430FF900D67E0FBA3E0FAA3E0F99008
:10123C000002EF12085F900D6AE0FEA3E0FF7C0055
:10124C007D641208817E007F0ACFCDCFCECCCE122A
:10125C000881EF2430FF900D67E0FBA3E0FAA3E0D8
:10126C00F9900003EF12085F900D6AE0FEA3E0FF17
:10127C007C007D0A120881ED2430FF900D67E0FBA5
:10128C00A3E0FAA3E0F9900004EF12085F900005C8
:10129C00E412085F120807FFB43009740129F9E45D
:0D12AC003AFA80F0EF70060429F9E43AFAEE
:0112B9002212
:10216E00E4900D18F0A37408F07B017A0D79187FB6
:10217E0005120B4E7D087F05121F9D7F6412229261
:0C218E007D087F051220447F020222021F
:101F62009000167401F0E4900012F0A3F0900017B4
:101F7200F0900014F0A37405F0D3900015E09400E3
:101F8200900014E0940050F1E4900016F0A3E06099
:0B1F920007900012A3E0FF227F002256
:081C5D00E0FBA3E0FAA3E0F9AB
:101C650012225A900D6DE0FEA3E0FF7C007D32123A
:101C75000881900D72EFF0900D72E0D39400405002
:101C8500121F62EF60427B017A00799812226D90F3
:101C95000D6AE0F9A3E0FAA3E0900D76C9F0A3EA96
:101CA500F0A3E9F07B017A0079981219EE900D6F97
:101CB500EBF0A3EAF0A3E9F04A4B600C7BFF7A183E
:101CC500793212219A7F0122900D72E014F080A7DB
:021CD5007F008E
:011CD70022EA
:0D13C200A3F0900D1DE0FBA3E0FAA3E0F9FD
:0B13CF00900D38EBF0A3EAF0A3E9F06A
:1013DA0078447C0D7D017BFF7A18794D7E007F1E53
:1013EA001207E1900D3BE0FBA3E0FAA3E0F9122219
:1013FA0031900D65EEF0A3EFF0900D38E0F9A3E01F
:10140A00FAA3E0900D6AC9F0A3EAF0A3E9F07B0120
:10141A007A0D7944121D45900D6A74FFF0A3741871
:10142A00F0A37438F07B017A0D7944121D457A0DC8
:10143A00793E900D651211A4900D62EBF0A3EAF0CB
:10144A00A3E9F0900D62E0F9A3E0FAA3E0900D6A37
:10145A00C9F0A3EAF0A3E9F07B017A0D7944121DE1
:10146A0045900D6A74FFF0A37418F0A3743AF07BE8
:10147A00017A0D7944121D45900D6A74FFF0A37428
:10148A0018F0A3743DF0A3E4F0A374C8F07B017ACA
:10149A000D7944121C65EF7002FF22900D6A74FFE9
:1014AA00F0A37418F0A37440F0A37401F0A374F4C9
:0E14BA00F0900D3B121C5DEF7002FF227F01CF
:0114C8002201
:0B192F00900D1DEBF0A3EAF0A3E9F01F
:10193A00A3E0FBA3E0FAA3E0F9122231900D36EE00
:10194A00F0A3EFF07E007F0A7D007B017A0D7923F8
:10195A0012093A900D3B74FFF0A37400F0747812E8
:10196A0013C2EF7002FF227A0D792D900D361211F3
:10197A00A4900D33EBF0A3EAF0A3E9F0900D33E065
:10198A00F9A3E0FAA3E0900D6AC9F0A3EAF0A3E98B
:10199A00F07B017A0D7923121D45900D6A74FFF0D0
:1019AA00A37418F0A37448F07B017A0D7923121DF1
:1019BA0045900D3B7401F0A3740DF074231213C209
:1019CA00EF7002FF22900D20E0F9A3E0FAA3E09065
:1019DA000D3BC9F0A3EAF0A3E91213C3EF7002FFAB
:0319EA00227F0158
:0119ED0022D7
:1015C600900DA0E0F9A3E0FAA3E0900D6AC9F0A39C
:1015D600EAF0A3E9F0A3E4F0A374C8F0900D9D121D
:1015E6001C5DEF7002FF22900DACE0F9A3E0FAA3B8
:1015F600E0900D6AC9F0A3EAF0A3E9F0A3E4F0A332
:1016060074C8F0900DA9121C5DEF70087F021222BB
:10161600027F0022900D8EE0F9A3E0FAA3E0900D80
:101626006AC9F0A3EAF0A3E9F0A3E4F0A374C8F052
:10163600900D8B121C5DEF7002FF227F02122202B8
:10164600900DA6E0F9A3E0FAA3E0900D6AC9F0A315
:10165600EAF0A3E9F0A3E4F0A374C8F0900DA31296
:101666001C5DEF7002FF22900D88E0F9A3E0FAA35B
:10167600E0900D6AC9F0A3EAF0A3E9F0A3E4F0A3B1
:1016860074C8F0900D85121C5DEF7002FF22900D5C
:101696009AE0F9A3E0FAA3E0900D6AC9F0A3EAF094
:1016A600A3E9F0A3E4F0A374C8F0900D97121C5DB3
:0816B600EF7002FF227F012208
:1021C500538E7F5389F0E4F58A758CB8C28DD28C15
:1021D500D2A9900DC77464F0E4900DC4F0A3F0A3E8
:0221E500F022E6
:03000B00021CD8FC
:101CD800C0E0C083C082C0D075D008900DC7E0D3E3
:101CE80094004003E014F0900016E06047D39000A1
:101CF80015E09400900014E094004038A3E024FF1D
:101D0800F0900014E034FFF0E07002A3E07025903A
:101D18000016F0900012E0FEA3E0FFD39400EE94CA
:101D280000401174982FF58274003EF583E4F0901A
:0D1D3800001704F0D0D0D082D083D0E0326C
:1000460048545450002B4950442C00474554202F07
:100056002000474554202F3F004465766963657349
:1000660020636F6E74726F6C204661696C2021216B
:100076002100485454502F312E3020323030204F3A
:100086004B0D0A436F6E74656E742D547970653A24
:1000960020746578742F68746D6C3B206368617298
:1000A6007365743D7574662D380D0A436F6E7465FD
:1000B6006E742D4C656E6774683A20003C21444F7F
:1000C60043545950452068746D6C3E0D0A3C687463
:1000D6006D6C206C616E673D22656E223E0D0A3C9A
:1000E600686561643E0D0A202020203C6D657461C0
:1000F60020636861727365743D225554462D38221B
:100106003E0D0A202020203C7469746C653E4765CC
:100116006E697573204149204C61623C2F74697485
:100126006C653E0D0A202020203C7374796C653E78
:100136000D0A202020202020202068317B666F6E4B
:10014600742D73697A653A363030253B7465787458
:100156002D616C69676E3A63656E7465727D0D0A12
:1001660020202020202020207370616E7B666F6E19
:10017600742D73697A653A333030253B6D61726749
:10018600696E2D6C6566743A343070787D0D0A2080
:1001960020202020202020627574746F6E7B747975
:1001A60070653A627574746F6E3B6D617267696EE5
:1001B6002D6C6566743A343070783B776964746880
:1001C6003A31323070783B6865696768743A313223
:1001D6003070783B626F726465722D726164697506
:1001E600733A363070783B70616464696E673A3290
:1001F6003070787D0D0A20202020202020202E73AC
:1002060073317B6261636B67726F756E643A2366E6
:1002160066393935337D0D0A202020202020202004
:100226002E7373327B6261636B67726F756E643AAD
:100236006461726B677261797D0D0A20202020202F
:100246002020202E7373337B6261636B67726F7538
:100256006E643A20236666653061307D0D0A202083
:100266002020202020202E7373347B6261636B670D
:10027600726F756E643A20236436643664367D0D7B
:100286000A20202020202020202E7373357B626FC9
:10029600726465722D7261646975733A3230707872
:1002A6003B6865696768743A363070787D0D0A2058
:1002B6002020203C2F7374796C653E0D0A20202087
:1002C600203C7363726970743E0D0A202020202042
:1002D60020202066756E6374696F6E206A702861CF
:1002E600290D0A20202020202020207B77696E649B
:1002F6006F772E6C6F636174696F6E2E68726566B8
:100306003D222F3F222B617D0D0A202020203C2FED
:100316007363726970743E0D0A3C2F686561643EB2
:100326000D0A3C626F64793E0D0A202020203C6451
:100336006976207374796C653D2277696474683ACE
:10034600313030307078223E0D0A202020202020C7
:1003560020203C646976207374796C653D22626165
:10036600636B67726F756E642D636F6C6F723A7331
:100376006C61746567726179223E0D0A2020202027
:1003860020202020202020203C68313E47656E69D1
:100396007573204149204C61623C2F68313E0D0A3D
:1003A60020202020202020203C2F6469763E0D0A44
:1003B60020202020202020203C62723E0D0A202092
:1003C60020202020202020202020202020203C73B8
:1003D60070616E3E535749544348313A3C2F73700F
:1003E600616E3E0D0A202020202020202020202083
:1003F60020202020203C627574746F6E20636C612F
:1004060073733D2273733122206F6E636C69636B65
:100416003D226A702827535749544348313D4F4E71
:100426002729223E4F4E3C2F627574746F6E3E0D27
:100436000A202020202020202020202020202020CC
:10044600203C627574746F6E20636C6173733D2219
:1004560073733222206F6E636C69636B3D226A7020
:100466002827535749544348313D4F4646272922AA
:100476003E4F46463C2F627574746F6E3E0D0A20E1
:100486002020202020202020202020202020203C4A
:1004960062723E0D0A2020202020202020202020CD
:1004A60020202020203C7370616E3E5357495443F0
:1004B60048323A3C2F7370616E3E0D0A2020202090
:1004C6002020202020202020202020203C6275741F
:1004D600746F6E20636C6173733D227373312220D7
:1004E6006F6E636C69636B3D226A702827535749A8
:1004F600544348323D4F4E2729223E4F4E3C2F62F1
:100506007574746F6E3E0D0A202020202020202056
:1005160020202020202020203C627574746F6E20DD
:10052600636C6173733D2273733222206F6E636C4A
:1005360069636B3D226A70282753574954434832F2
:100546003D4F46462729223E4F46463C2F6275744C
:10055600746F6E3E3C62723E0D0A202020202020E1
:10056600202020202020202020203C7370616E3E19
:10057600535749544348333A3C2F7370616E3E0DCE
:100586000A2020202020202020202020202020207B
:10059600203C627574746F6E20636C6173733D22C8
:1005A60073733122206F6E636C69636B3D226A70D0
:1005B6002827535749544348333D4F4E2729223E57
:1005C6004F4E3C2F627574746F6E3E0D0A202020CC
:1005D600202020202020202020202020203C627562
:1005E60074746F6E20636C6173733D227373322271
:1005F600206F6E636C69636B3D226A7028275357C0
:1006060049544348333D4F46462729223E4F4646E6
:100616003C2F627574746F6E3E3C62723E0D0A200A
:100626002020202020202020202020202020203CA8
:100636007370616E3E535749544348343A3C2F73A6
:1006460070616E3E0D0A20202020202020202020D0
:100656002020202020203C627574746F6E20636C0D
:100666006173733D2273733122206F6E636C69630D
:100676006B3D226A702827535749544348343D4FEF
:100686004E2729223E4F4E3C2F627574746F6E3E84
:100696000D0A20202020202020202020202020207D
:1006A60020203C627574746F6E20636C6173733DB9
:1006B6002273733222206F6E636C69636B3D226A0C
:1006C600702827535749544348343D4F46462729F7
:1006D600223E4F46463C2F627574746F6E3E0D0A7D
:1006E60020202020202020203C62723E0D0A20205F
:1006F60020203C2F6469763E0D0A3C2F626F647998
:0B0706003E0D0A3C2F68746D6C3E0035
:1012BA007B017A00799812219A900D7674FFF0A337
:1012CA007400F0A37446F07B017A0079981219EE43
:1012DA00E412084D900D7674FFF0A37400F0A37425
:1012EA004BF07B017A0079981219EE900D18EBF009
:1012FA00A3EAF0A3E9F04A4B70030213C1900D1957
:10130A00E475F0051208D6900D18E0FBA3E0FAA3E5
:10131A00E0F912219A900D18E0FBA3E0FAA3E0F994
:10132A00120807900D1BF0E4A3F0900D7674FFF0FD
:10133A00A37400F0A37451F07B017A007998121912
:10134A00EE900D18EBF0A3EAF0A3E9F04A4B600F18
:10135A00900D2074FFF0A37400F0A374C2804E9025
:10136A000D7674FFF0A37400F0A37458F07B017A31
:10137A000079981219EE900D18EBF0A3EAF0A3E9A0
:10138A00F04A4B6032900D18E0FBA3E0FAA3E0F9B3
:10139A001216BE900D2074FFBF010AF0A37400F06C
:1013AA00A374C28008F0A37400F0A3745FF07B01F9
:0713BA007A0D791B12192FB7
:0113C1002209
:100026002A2A2A2A2A2A2A2A2A2A2A2A2A2A2A2A2A
:0D0036002A2A2A2A2A2A2A2A2A000D0A002C
:041BD800AB07AA06A7
:101BDC007C277D10120881EF2430900DBEF07C27FD
:101BEC007D10AF03AE021208817E037FE8CFCDCF0C
:101BFC00CECCCE120881EF2430A3F07C037DE8AF6D
:101C0C0003AE021208817E007F64CFCDCFCECCCE46
:101C1C00120881EF2430A3F07C007D64AF03AE0288
:101C2C001208817E007F0ACFCDCFCECCCE12088198
:101C3C00EF2430A3F0AE02AF037C007D0A120881C2
:101C4C00ED2430A3F0E4A3F07B017A0D79BE0222DF
:011C5C006D1A
:10219A00900D73EBF0A3EAF0A3E9F07BFF7A0079E4
:1021AA002612226D900D73E0FBA3E0FAA3E0F91268
:0B21BA00226D7BFF7A00794002226D4D
:100B4E00EFD3940540037F0122120807FED39403CE
:100B5E0040037F0222EF7041EE700B9000011208ED
:100B6E0020F452935294120807B4010B9000011214
:100B7E0008204293F45294120807FEB4020A900021
:100B8E000112082042934294EEB4030D900001121C
:100B9E000820FEF45293EE4294EF64017043120863
:100BAE0007FE700B900001120820F452915292EE43
:100BBE00B4010B9000011208204291F452921208D7
:100BCE0007B4020A900001120820429142921208C4
:100BDE0007B4030D900001120820FEF45291EE426C
:100BEE0092EF64027043120807FE700B9000011220
:100BFE000820F452955296EEB4010B9000011208A3
:100C0E00204295F45296120807B4020A900001127F
:100C1E00082042954296120807B4030D9000011267
:100C2E000820FEF45295EE4296EF640370431208CC
:100C3E0007FE700B900001120820F452B152B2EE72
:100C4E00B4010B90000112082042B1F452B2120806
:100C5E0007B4020A90000112082042B142B21208F3
:100C6E0007B4030D900001120820FEF452B1EE42BB
:100C7E00B2EF64047043120807FE700B900001126D
:100C8E000820F452B352B4EEB4010B9000011208D6
:100C9E002042B3F452B4120807B4020A90000112B3
:100CAE00082042B342B4120807B4030D900001129B
:100CBE000820FEF452B3EE42B4EF640570431208FE
:100CCE0007FF700B900001120820F452C952CAEFB0
:100CDE00B4010B90000112082042C9F452CA120846
:100CEE0007B4020A90000112082042C942CA120833
:100CFE0007B4030D900001120820FFF452C9EF4211
:040D0E00CA7F002276
:10204400EFD3940540037F0122EF7003ED4280EF4C
:10205400B40103ED4290EFB40203ED42A0EFB403E8
:1020640003ED42B0EFB40403ED42C0EFB40503ED59
:0520740042C87F0022BC
:101F9D00EFD3940540037F0122EF7004EDF45280DE
:101FAD00EFB40104EDF45290EFB40204EDF452A03D
:101FBD00EFB40304EDF452B0EFB40404EDF452C0E9
:0B1FCD00EFB40504EDF452C87F0022C1
:10221B00EF70038DFA22EFB401038DFB22EFB402B2
:06222B0004AF058FFC2248
:100ECE00900D26EBF0A3EAF0A3E9F0AD07EDD39475
:100EDE0003400302106CED6403704CC2DEF5F9F5AD
:100EEE00E9900D26E0FBA3E0FAA3E0F9120807FF54
:100EFE00E5A254CF4FF5A2900001120820FFE5D9CC
:100F0E0054F14FF5D99000041208205401FFE5D991
:100F1E0054FE4FF5D9900005120820B40104D2BF3B
:100F2E008002C2BFD2DE22900D26E0FBA3E0FAA320
:100F3E00E02404F9E43AFA120807543112084D90ED
:100F4E000D26E0FBA3E0FAA3E0F9900002120820C0
:100F5E00C39448400FE92404F9E43AFA12080754FE
:100F6E00CF12084DED704F900D26E0FBA3E0FAA3D3
:100F7E00E0F9900004120820FF900002120820FEF3
:100F8E004FF5DA900003120820FFE5F2543F4FF5BB
:100F9E00F2900006120902FBAAF0900DB2EAF0A33D
:100FAE00EBF0C200900DAFEEF0900DB8EAF0A3EBAF
:100FBE00F0F5EAEAF5FAED6401704F900D26E0FBCC
:100FCE00A3E0FAA3E0F9900004120820FF900002BB
:100FDE00120820FE4FF5DB900003120820FFE5F308
:100FEE00543F4FF5F3900006120902FBAAF0900D44
:100FFE00B4EAF0A3EBF0C201900DB0EEF0900DBA92
:10100E00EAF0A3EBF0F5EBEAF5FBED6402704F901E
:10101E000D26E0FBA3E0FAA3E0F9900004120820ED
:10102E00FF900002120820FE4FF5DC90000312081C
:10103E0020FFE5F4543F4FF5F4900006120902FD2F
:10104E00ACF0900DB6ECF0A3EDF0C202900DB1EE47
:0F105E00F0900DBCECF0A3EDF0F5ECECF5FC22FE
:10214100759A50438E0475D7D075D6FF438E109083
:10215100000C7402F0E4A3F0A3F0A3F0A3F0A3F049
:0D216100A3F0A3F0A3F0A3F0A3F0A3F022DD
:102246008F9BE59A20E1047F0180027F00EF70F208
:04225600539AFD2278
:10225A00120807FF600C122246740129F9E43AFABF
:03226A0080EE22E1
:03004300021E7426
:101E7400C0E0C0F0C083C082C0D075D010E59A30F5
:101E8400E039539AFE900016E0B4012FC39000127B
:101E9400E094084004E4F0A3F0900012E475F0012B
:101EA4001208ECFE749825F0F58274003EF583E583
:101EB4009BF0900014E4F0A37405F0D0D0D082D04D
:061EC40083D0F0D0E032F3
:10200E00759850438E40538EFE53890F758BD07545
:10201E008DFFC2ABD28E9000007401F0E4A3F0A34A
:10202E00F0A3F0A3F0A3F0A3F0A3F0A3F0A3F0A30A
:06203E00F0A3F0D2AC2279
:1020E000900003E0FCA3E02498F58274083CF5839B
:1020F000EFF0900003E475F0011208D6C394044099
:1021000007E4900003F0A3F0900005E0700404F0F1
:03211000D299223F
:10226D00120807FF600C1220E0740129F9E43AFA14
:03227D0080EE22CE
:03002300021AAD11
:101AAD00C0E0C0F0C083C082C0D075D01830983E61
:101ABD00C29890000AE0B40135C3900007E094800D
:101ACD00900006E094004004E4F0A3F0900006E4DA
:101ADD0075F0011208ECFE741825F0F58274003EC5
:101AED00F583E599F0900008E4F0A37405F03099C2
:101AFD0043C299900003E0FEA3E0FF900001E0FCDB
:101B0D00A3E0FD6F7002EC6E602574982DF5827464
:101B1D00083CF583E0F599900001E475F001120899
:101B2D00D6C39404400E900001E4F0A3F08005901C
:0F1B3D000005E4F0D0D0D082D083D0F0D0E032D9
:03000000021B4C94
:0C1B4C00787FE4F6D8FD758120021B9321
:10071100E709F608DFFA8046E709F208DFFA803ECA
:1007210088828C83E709F0A3DFFA8032E309F608B7
:10073100DFFA8078E309F208DFFA807088828C831F
:10074100E309F0A3DFFA806489828A83E0A3F608D3
:10075100DFFA805889828A83E0A3F208DFFA804CAD
:1007610080D280FA80C680D4806980F28033801084
:1007710080A680EA809A80A880DA80E280CA8033ED
:1007810089828A83ECFAE493A3C8C582C8CCC58365
:10079100CCF0A3C8C582C8CCC583CCDFE9DEE78035
:1007A1000D89828A83E493A3F608DFF9ECFAA9F0B4
:1007B100EDFB2289828A83ECFAE0A3C8C582C8CC0A
:1007C100C583CCF0A3C8C582C8CCC583CCDFEADE23
:1007D100E880DB89828A83E493A3F208DFF980CC85
:1007E10088F0EF60010E4E60C388F0ED2402B4047E
:1007F1000050B9F582EB2402B4040050AF23234525
:06080100822390076173E1
:10080700BB010689828A83E0225002E722BBFE02EF
:09081700E32289828A83E4932222
:10082000BB010CE58229F582E5833AF583E022508D
:1008300006E92582F8E622BBFE06E92582F8E222D7
:0D084000E58229F582E5833AF583E49322F1
:10084D00BB010689828A83F0225002F722BBFE018A
:02085D00F32284
:10085F00F8BB010DE58229F582E5833AF583E8F0CF
:10086F00225006E92582C8F622BBFE05E92582C87B
:02087F00F22263
:10088100BC000BBE0029EF8DF084FFADF022E4CC5B
:10089100F875F008EF2FFFEE33FEEC33FCEE9DEC24
:1008A100984005FCEE9DFE0FD5F0E9E4CEFD22ED6A
:1008B100F8F5F0EE8420D21CFEADF075F008EF2FB4
:1008C100FFED33FD4007985006D5F0F222C398FDA5
:0508D1000FD5F0EA2242
:1008D600C5F0F8A3E028F0C5F0F8E58215827002AD
:0608E6001583E038F0224A
:1008EC00A3F8E0C5F025F0F0E582158270021583BF
:0608FC00E0C838F0E8221C
:10090200BB0110E58229F582E5833AF583E0F5F033
:10091200A3E0225009E92582F886F008E622BBFE10
:100922000AE92582F8E2F5F008E222E5832AF58356
:08093200E993F5F0A3E993221B
:101D4500900D67EBF0A3EAF0A3E9F0900D6DEBF0D1
:101D5500A3EAF0A3E9F0900D67E0FBA3E475F001B9
:101D65001208ECA9F0FA12080770EB900D6874FFE1
:101D7500F5F01208D6900D6AE0FBA3E475F00112A8
:101D850008ECA9F0FA120807FF900D67E0FBA3E441
:101D950075F0011208ECA9F0FAEF12084D70D69013
:0B1DA5000D6DE0FBA3E0FAA3E0F922C3
:10223100E4FFFE120807600C0FEF70010E09E97050
:05224100F20A80EF220B
:1019EE00900D73EBF0A3EAF0A3E9F0A3E0FBA3E004
:1019FE00FAA3E0F91208077003021A9A900D73E029
:101A0E00FBA3E0FAA3E0F91208077003021AA690EE
:101A1E000D76E0F9A3E0FAA3E0A3C9F0A3EAF0A3E0
:101A2E00E9F0900D73A3E0FAA3E0F9900D7CEBF0D2
:101A3E00A3EAF0A3E9F0900D79E0FBA3E0FAA3E0AE
:101A4E00F9120807FF6026900D7CE0FBA3E0FAA3D5
:101A5E00E0F91208076F7015900D7A75F0011208F3
:101A6E00D6900D7DE475F0011208D680C9900D79DF
:101A7E00E0FBA3E0FAA3E0F91208077002800D90D4
:101A8E000D74E475F0011208D6021A0A900D73E077
:0F1A9E00FBA3E0FAA3E0F9227B007A0079002293
:10093A00EF4E6012EF60010EEDBB010B89828A83D4
:10094A00F0A3DFFCDEFA2289F05007F709DFFCA9E1
:0C095A00F022BBFEFCF309DFFCA9F02238
:101B58000221E7E493A3F8E493A34003F68001F29B
:101B680008DFF48029E493A3F85407240CC8C3338E
:101B7800C4540F4420C8834004F456800146F6DF5D
:101B8800E4800B0102040810204080901F19E47EB5
:101B9800019360BCA3FF543F30E509541FFEE49352
:101BA800A360010ECF54C025E060A840B8E493A319
:101BB800FAE493A3F8E493A3C8C582C8CAC583CA44
:101BC800F0A3C8C582C8CAC583CADFE9DEE780BEFC
:011F6100007F
:00000001FF
