:100E10007365727665722063726561746521212144
:030E20000D0A00B8
:100CFC00120DC87E047F007D007B017A0079001202
:100D0C000621120C86120B3A7BFF7A0E7910120E0A
:060D1C003612007D80FB91
:04087300AB07AA061F
:100877007C277D10120594EF2430F56C7C277D10C2
:10088700AF03AE021205947E037FE8CFCDCFCECC67
:10089700CE120594EF2430F56D7C037DE8AF03AEEF
:1008A700021205947E007F64CFCDCFCECCCE120549
:1008B70094EF2430F56E7C007D64AF03AE02120521
:1008C700947E007F0ACFCDCFCECCCE120594EF24F5
:1008D70030F56FAE02AF037C007D0A120594ED245C
:0E08E70030F570E4F571FB7A00796C020E3684
:100DC800120D6A43AF01120CD543AF10E4F5B8F524
:0A0DD800B543B501120DACD2AF22F5
:08000300000000004387012208
:100DAC00538E7F5389F0E4F58A758CB8C28DD28C42
:0C0DBC00D2A9757564F572F573F5742208
:03000B00020AD511
:100AD500C0E0C083C082C0D0E575D3940040041542
:100AE50075801C7575640572E572C3943C4010757C
:100AF50072000573E573943C40057573000574E554
:100B0500526029E551D394004022D5511F755200FA
:100B1500D3E5509400E54F9400401174002550F53D
:100B2500827400354FF583E4F0755301D0D0D0823F
:050B3500D083D0E03286
:100A690041542B43574D4F44453D320D0A004F4BDE
:100A79000041542B43575341503D2241495F4C613A
:100A890062222C223132333435363738222C312C3C
:100A9900340D0A0041542B5253540D0A0041542B72
:100AA9004349504D55583D310D0A0041542B434996
:100AB900505345525645523D312C383030300D0A8D
:0C0AC9000041542B43494653520D0A00D3
:100046000721FF0A69FF0A772C0728FF0A7AFF0AA9
:10005600772C072FFF0A9DFF0A772C0736FF0AA683
:10006600FF0A772C073DFF0AB4FF0A772C0744FFE7
:060076000ACAFF0A772C04
:100C8600E4F508750904FB7A0079087F04120096DA
:100C96007D047F04120C507F64120E6D7D047F0468
:080CA60012000E7F03020DE2B3
:100D8E00755201E4F54FF550F55375510AE551D3FF
:0E0D9E00940050F9E5536003AF50227F00220D
:060BF8008B088A09890A3E
:100BFE00AE0EAF0F7C007D0A1205948E108F11D3AE
:100C0E00E5119400E51094004031AB08AA09A90A39
:100C1E00120E23120D8EEF6018850B15850C16859E
:100C2E000D177B017A0079001208F5EA494B600135
:100C3E0022E511151170C8151080C47B007A007959
:010C4E0000A5
:010C4F002282
:100B3A0085390B853A0C853B0D750E00853C0FAB4C
:100B4A0036AA37A938120BF8EA494B7002FF2285F8
:100B5A00400B85410C85420D750E0085430FAB3D58
:100B6A00AA3EA93F120BF8EA494B7002FF228547B9
:100B7A000B85480C85490D750E00854A0FAB44AAB2
:100B8A0045A946120BF8EA494B7002FF227F01225F
:1007390044485431312073746172740D0A00757024
:100749000D0A004448543131207472756520200D1A
:100759000A0044485431312066616C736520200DCC
:100769000A00535749544348004F4E0031206F6ED9
:10077900210D0A004F46460031206F6666210D0A99
:100789000032206F6E210D0A0032206F6666210D3E
:100799000A0033206F6E210D0A0033206F6666212F
:1007A9000D0A0034206F6E210D0A0034206F666631
:1007B900210D0A00696E76616C696420636F6D6D45
:1007C900616E643232320D0A00696E76616C696459
:0E07D90020636F6D6D616E643131310D0A0069
:100DFB00D2C47F01120E49C2C47F12120E6DD2C42F
:050E0B007F04020E4906
:100CAE00E4F50EF50D30C4FD7F02120E49E50E255A
:100CBE00E0F50E30C402050E20C4FD050DE50DC392
:060CCE00940840E1AF0EA6
:010CD40022FD
:10064D00E4F508F509F50AF50BF50C7BFF7A07794A
:10065D0039120E36120DFB30C40302073830C4FDBB
:10066D007BFF7A077947120E36C2AF7F08120E490B
:10067D00120CAE8F08120CAE8F09120CAE8F0A122F
:10068D000CAE8F0B120CAE8F0CD2AFE5082509FF07
:10069D00E433FE7C00EF250AFFEC3EFEEF250BFF59
:1006AD00EC3EFEEFB50C0CECB506087BFF7A077936
:1006BD004C80067BFF7A07795B120E36E50875F0E4
:1006CD000A842430900900F0E50875F00A84E5F0FD
:1006DD002430A3F0E50975F00A842430A3F0E50970
:1006ED0075F00A84E5F02430A3F0A37452F0A374DE
:1006FD0048F0A37420F0A3F0E50A75F00A842430C5
:10070D00A3F0E50A75F00A84E5F02430A3F0E50BBB
:10071D0075F00A842430A3F0E50B75F00A84E5F03A
:0B072D002430A3F0A37443F0E4A3F019
:01073800229E
:10025A008B768A7789787515FF75160775176B126D
:10026A0008F5EA494B70030203D4900007120555BA
:10027A0024CE6064147003020333147003020380F3
:10028A00240360030203CC7515FF751607751772F0
:10029A00AB76AA77A9781208F5EA494B60107D0176
:1002AA007F0212000E7BFF7A0779750203DA751551
:1002BA00FF75160775177DAB76AA77A9781208F528
:1002CA00EA494B70030203DD7D017F02120C507B69
:1002DA00FF7A0779810203DA7515FF751607751714
:1002EA0072AB76AA77A9781208F5EA494B60107DB5
:1002FA00027F0212000E7BFF7A07798A0203DA75FF
:10030A0015FF75160775177DAB76AA77A9781208B7
:10031A00F5EA494B70030203DD7D027F02120C509D
:10032A007BFF7A0779920203DA7515FF751607754E
:10033A001772AB76AA77A9781208F5EA494B6010CA
:10034A007D047F0212000E7BFF7A07799B0203DA93
:10035A007515FF75160775177DAB76AA77A97812FA
:10036A0008F5EA494B606C7D047F02120C507BFF52
:10037A007A0779A3805A7515FF751607751772AB38
:10038A0076AA77A9781208F5EA494B600F7D087FAB
:10039A000212000E7BFF7A0779AC80347515FF755F
:1003AA00160775177DAB76AA77A9781208F5EA4978
:1003BA004B60207D087F02120C507BFF7A0779B4CC
:1003CA00800E7BFF7A0779BD80067BFF7A0779D298
:0303DA00120E36CA
:0103DD0022FD
:070E7D008B798A7A897B2240
:100B9A007508037509607B007A0079087F021200E4
:100BAA0096750A03750B0F7B007A00790A7F021289
:100BBA000096E4F50C750D10FB7A00790C7F04128F
:100BCA000096750E20E4F50F751042F511F51275B1
:100BDA001301F514F515FB7A00790E7F031203DE73
:0D0BEA007B007A00790EE4FF1203DED2DEFC
:010BF70022DB
:10007D00120B9A12064D7B017A097900120E367F0A
:06008D0001120DE280EDFE
:100E4900AD071FED600B0000007E1A1EEE60F180F9
:010E5900FA9E
:010E5A002275
:0F0E6D007DA57C06ED1D70011C144C70F7DFF1A4
:010E7C002253
:020DE200AB075D
:100DE400AF031BEF60107E04EED3940040F27FFA51
:060DF400120E6D1E80F2DC
:010DFA0022D6
:10009600EFD3940540037F012212053CFED394035F
:1000A60040037F0222EF7041EE700B9000011205B3
:1000B60055F45293529412053CB4010B9000011270
:1000C60005554293F4529412053CFEB4020A900080
:1000D6000112055542934294EEB4030D90000112AD
:1000E6000555FEF45293EE4294EF640170431205F7
:1000F6003CFE700B900001120555F452915292EE9F
:10010600B4010B9000011205554291F4529212056A
:100116003CB4020A90000112055542914292120522
:100126003CB4030D900001120555FEF45291EE42C7
:1001360092EF6402704312053CFE700B90000112B0
:100146000555F452955296EEB4010B900001120536
:10015600554295F4529612053CB4020A90000112DB
:1001660005554295429612053CB4030D90000112C6
:100176000555FEF45295EE4296EF64037043120560
:100186003CFE700B900001120555F452B152B2EECE
:10019600B4010B90000112055542B1F452B212059A
:1001A6003CB4020A90000112055542B142B2120552
:1001B6003CB4030D900001120555FEF452B1EE4217
:1001C600B2EF6404704312053CFE700B90000112FE
:1001D6000555F452B352B4EEB4010B90000112056A
:1001E6005542B3F452B412053CB4020A900001120F
:1001F600055542B342B412053CB4030D90000112FA
:100206000555FEF452B3EE42B4EF64057043120591
:100216003CFF700B900001120555F452C952CAEF0B
:10022600B4010B90000112055542C9F452CA1205D9
:100236003CB4020A90000112055542C942CA120591
:100246003CB4030D900001120555FFF452C9EF426C
:04025600CA7F002239
:10000E00EFD3940540037F0122EF7003ED4280BFD2
:10001E000103ED4290BF0203ED42A0BF0303ED4288
:10002E00B0BF0403ED42C0BF0503ED42C87F0022FE
:100C5000EFD3940540037F0122EF7004EDF452803E
:100C6000BF0104EDF45290BF0204EDF452A0BF03A3
:100C700004EDF452B0BF0404EDF452C0BF0504ED1E
:060C8000F452C87F0022BF
:100D22007480254DF582E43404F583EFF0054DE53A
:100D32004DC394804003E4F54DE54E7006754E01B7
:040D4200439A0222AC
:100E230012053CFF600C120D22740129F9E43AFA11
:030E330080EE222C
:100D460074002556F582E43405F583EFF00556C3A5
:100D5600748094844003E4F556E557700675570190
:040D6600438402229E
:100E360012053CFF600C120D46740129F9E43AFADA
:030E460080EE2219
:100D6A00759A50438E0475D7D075D6FF438E107589
:100D7A004B02E4F54CF54DF54EF54FF550F551F5AE
:040D8A0052F55322A9
:100CD50075841043844043D12075D3D075D2FF432A
:100CE500D180755404E4F555F556F557F558F55981
:070CF500F55AF55BF55C22E6
:0300430002097738
:10097700C0E0C083C082C0D075D000C006E59A3001
:10098700E02F539AFEE552B40127C3E54F94044084
:1009970006754F007550000550E550AE4F700205C3
:1009A7004F142400F58274003EF583E59BF07551E2
:1009B7000AE59A30E128539AFDE54C654D601C74B1
:1009C70080254CF582E43404F583E0F59B054CE57E
:1009D7004CC394804008754C008003754E00D006C8
:0909E700D0D0D082D083D0E032E0
:030093000209F06F
:1009F000C0E0C083C082C0D075D000C006E584309E
:100A0000E02F5384FEE55BB40127C3E5589404400E
:100A1000067558007559000559E559AE587002051C
:100A200058142400F58274043EF583E585F0755A68
:100A300005E58430E1285384FDE5556556601C7456
:100A4000002555F582E43405F583E0F5850555C3A9
:100A50007480948440087555008003755700D00653
:090A6000D0D0D082D083D0E03266
:100E5B00EF70038DFA22BF01038DFB22BF02028DBF
:020E6B00FC2267
:1003DE008B168A178918AD07EDD3940340030205D7
:1003EE003BED64037047C2DEF5F9F5E9AB16AA17CB
:1003FE00A91812053CFFE5A254CF4FF5A2900001BB
:10040E00120555FFE5D954F14FF5D99000041205A8
:10041E00555401FFE5D954FE4FF5D990000512054C
:10042E0055B40104D2BF8002C2BFD2DE22AB16E5A4
:10043E00182404F9E43517FA12053C5431120582DA
:10044E00AB16AA17A918900002120555C39448407E
:10045E000FE92404F9E43AFA12053C54CF1205824E
:10046E00ED7040AB16AA17A918900004120555FF9F
:10047E00900002120555FE4FF5DA90000312055555
:10048E00FFE5F2543F4FF5F29000061205E9F561D3
:10049E0085F060C2008E5D856066F5678567EAE56A
:1004AE0066F5FAED64017040AB16AA17A918900014
:1004BE0004120555FF900002120555FE4FF5DB9014
:1004CE000003120555FFE5F3543F4FF5F390000678
:1004DE001205E9F56385F062C2018E5E856268F5EC
:1004EE00698569EBE568F5FBED64027040AB16AA11
:1004FE0017A918900004120555FF90000212055519
:10050E00FE4FF5DC900003120555FFE5F4543F4F06
:10051E00F5F49000061205E9F56585F064C2028EC9
:0E052E005F85646AF56B856BECE56AF5FC226F
:030000000207E70D
:0C07E700787FE4F6D8FD75817B02082EB7
:10053C00BB010689828A83E0225002E722BBFE02BD
:09054C00E32289828A83E49322F0
:10055500BB010CE58229F582E5833AF583E022505B
:1005650006E92582F8E622BBFE06E92582F8E222A5
:0D057500E58229F582E5833AF583E49322BF
:10058200BB010689828A83F0225002F722BBFE0158
:02059200F32252
:10059400BC000BBE0029EF8DF084FFADF022E4CC4B
:1005A400F875F008EF2FFFEE33FEEC33FCEE9DEC14
:1005B400984005FCEE9DFE0FD5F0E9E4CEFD22ED5A
:1005C400F8F5F0EE8420D21CFEADF075F008EF2FA4
:1005D400FFED33FD4007985006D5F0F222C398FD95
:0505E4000FD5F0EA2232
:1005E900BB0110E58229F582E5833AF583E0F5F050
:1005F900A3E0225009E92582F886F008E622BBFE2D
:100609000AE92582F8E2F5F008E222E5832AF58372
:08061900E993F5F0A3E9932237
:1008F5008B128A138914AB15AA16A91712053C6029
:1009050063AB12AA13A91412053C605F85151885FF
:10091500161985171A8B1B8A1C891DAB18AA19A9CC
:100925001A12053CFF6023AB1BAA1CA91D12053C2E
:100935006F701704251AF51AE43519F51974012590
:100945001DF51DE4351CF51C80D1AB18AA19A91A93
:1009550012053C7002800D74012514F514E435135D
:10096500F513809DAB12AA13A914227B007A007996
:0209750000225E
:10062100EF4E6012EF60010EEDBB010B89828A83F0
:10063100F0A3DFFCDEFA2289F05007F709DFFCA9FD
:0C064100F022BBFEFCF309DFFCA9F02254
:1007F300020CFCE493A3F8E493A34003F68001F214
:1008030008DFF48029E493A3F85407240CC8C33306
:10081300C4540F4420C8834004F456800146F6DFD5
:10082300E4800B0102040810204080900046E47E1F
:10083300019360BCA3FF543F30E509541FFEE493CA
:10084300A360010ECF54C025E060A840B8E493A391
:10085300FAE493A3F8E493A3C8C582C8CAC583CABC
:10086300F0A3C8C582C8CAC583CADFE9DEE780BE74
:01007C000083
:00000001FF
