:100583001200467E047F007D007B017A0079001211
:10059300039B1205C9EF60FA7B017A00790012060A
:0305A3002F80EFB7
:10004600752E03752F207B007A00792E7F0412000F
:1000560096752FE07B007A00792E7F021200967546
:10006600300375310F7B007A0079027F0212009609
:1000760012055F43AF011204F043AF10E4F5B8F583
:0C008600B543B5011205E7D2AF0205A694
:08000300000000004387012208
:1005E700538E7F5389F0E4F58A758CB8C28DD28C0F
:0C05F700D2A9753764F534F535F53622CD
:03000B000203C726
:1003C700C0E0C083C082C0D0E537D3940040041595
:1003D70037801C7537640534E534C3943C40107589
:1003E70034000535E535943C40057535000536E59F
:1003F7000F6029E50ED394004022D50E1FD3E50DDB
:100407009400E50C94004014750F007400250DF559
:10041700827400350CF583E4F0751001D0D0D082DA
:05042700D083D0E0329B
:1005A600E4F532753304FB7A0079327F0412009643
:1005B6007D047F041204BA7F641206427D047F0420
:0305C60002000E22
:1005C900750F01E4F50CF50DF510750E0AE50ED35E
:0E05D900940050F9E5106003AF0D227F002260
:060478008B268A2789286B
:10047E00852C2DE52DD39400402BAB26AA27A92839
:10048E0012061C1205C9EF601885291D852A1E85C6
:10049E002B1F7B017A00790012025AEA494B600148
:0B04AE0022152D80CE7B007A00790023
:0104B9002220
:0F0642007DA57C06ED1D70011C144C70F7DFF1D7
:010651002286
:02060300AB0743
:10060500AF031BEF60107E04EED3940040F27FFA37
:060615001206421E80F2F5
:01061B0022BC
:10009600EFD3940540037F0122120355FED3940348
:1000A60040037F0222EF7041EE700B9000011203B5
:1000B6006EF452935294120355B4010B9000011240
:1000C600036E4293F45294120355FEB4020A900052
:1000D6000112036E42934294EEB4030D9000011296
:1000E600036EFEF45293EE4294EF640170431203E2
:1000F60055FE700B90000112036EF452915292EE6F
:10010600B4010B90000112036E4291F45292120355
:1001160055B4020A90000112036E429142921203F4
:1001260055B4030D90000112036EFEF45291EE4297
:1001360092EF64027043120355FE700B9000011299
:10014600036EF452955296EEB4010B900001120321
:100156006E4295F45296120355B4020A90000112AB
:10016600036E42954296120355B4030D9000011298
:10017600036EFEF45295EE4296EF6403704312034B
:1001860055FE700B90000112036EF452B152B2EE9E
:10019600B4010B90000112036E42B1F452B2120385
:1001A60055B4020A90000112036E42B142B2120324
:1001B60055B4030D90000112036EFEF452B1EE42E7
:1001C600B2EF64047043120355FE700B90000112E7
:1001D600036EF452B352B4EEB4010B900001120355
:1001E6006E42B3F452B4120355B4020A90000112DF
:1001F600036E42B342B4120355B4030D90000112CC
:10020600036EFEF452B3EE42B4EF6405704312037C
:1002160055FF700B90000112036EF452C952CAEFDB
:10022600B4010B90000112036E42C9F452CA1203C4
:1002360055B4020A90000112036E42C942CA120363
:1002460055B4030D90000112036EFFF452C9EF423C
:04025600CA7F002239
:10000E00EFD3940540037F0122EF7003ED4280BFD2
:10001E000103ED4290BF0203ED42A0BF0303ED4288
:10002E00B0BF0403ED42C0BF0503ED42C87F0022FE
:1004BA00EFD3940540037F0122EF7004EDF45280DC
:1004CA00BF0104EDF45290BF0204EDF452A0BF0341
:1004DA0004EDF452B0BF0404EDF452C0BF0504EDBC
:0604EA00F452C87F00225D
:100517007480250AF582E43404F583EFF0050AE5D3
:100527000AC394804003E4F50AE50B7006750B01D6
:04053700439A0222BF
:10061C00120355FF600C120517740129F9E43AFA1C
:03062C0080EE223B
:10053B0074002513F582E43405F583EFF00513C33E
:10054B00748094844003E4F513E51470067514016C
:04055B0043840222B1
:10062F00120355FF600C12053B740129F9E43AFAE5
:03063F0080EE2228
:10055F00759A50438E0475D7D075D6FF438E10759C
:10056F000802E4F509F50AF50BF50CF50DF50EF596
:04057F000FF5102242
:1004F00075841043844043D12075D3D075D2FF4317
:10050000D180751104E4F512F513F514F515F516FF
:07051000F517F518F519229B
:0300430002042C88
:10042C00C0E0C083C082C0D075D000C006E59A3051
:10043C00E02F539AFEE50FB40127C3E50C9404405A
:10044C0006750C00750D00050DE50DAE0C70020562
:10045C000C142400F58274003EF583E59BF0750EB8
:0C046C000AD006D0D0D082D083D0E0327D
:030093000202DC8A
:1002DC00C0E0C083C082C0D075D000C006E58430B9
:1002EC00E02F5384FEE518B40127C3E515940440B0
:1002FC00067515007516000516E516AE1570020587
:10030C0015142400F58274043EF583E585F0751709
:10031C0005E58430E1285384FDE5126513601C74F7
:10032C00002512F582E43405F583E0F5850512C34A
:10033C007480948440087512008003751400D006F4
:09034C00D0D0D082D083D0E03281
:03000000020652A3
:0C065200787FE4F6D8FD7581370205833F
:10035500BB010689828A83E0225002E722BBFE02A6
:09036500E32289828A83E49322D9
:10036E00BB010CE58229F582E5833AF583E0225044
:10037E0006E92582F8E622BBFE06E92582F8E2228E
:0D038E00E58229F582E5833AF583E49322A8
:10025A008B1A8A1B891CAB1DAA1EA91F1203556083
:10026A0063AB1AAA1BA91C120355605F851D208562
:10027A001E21851F228B238A248925AB20AA21A926
:10028A0022120355FF6023AB23AA24A92512035582
:10029A006F7017042522F522E43521F52174012512
:1002AA0025F525E43524F52480D1AB20AA21A922FD
:1002BA001203557002800D7401251CF51CE4351BD0
:1002CA00F51B809DAB1AAA1BA91C227B007A007918
:0202DA00002200
:10039B00EF4E6012EF60010EEDBB010B89828A8379
:1003AB00F0A3DFFCDEFA2289F05007F709DFFCA986
:0C03BB00F022BBFEFCF309DFFCA9F022DD
:00000001FF
