:10137B0073657276657220637265617465212121D4
:03138B000D0A0048
:1012670012131B7E047F007D007B017A00797A12BE
:10127700097F1211EB120E957BFF7A13797B1213FC
:06128700A1120F9280FB92
:040D8C00AB07AA0601
:100D90007C277D101208F2EF24307862F27C277DE8
:100DA00010AF03AE021208F27E037FE8CFCDCFCEA4
:100DB000CCCE1208F2EF24307863F27C037DE8AFEA
:100DC00003AE021208F27E007F64CFCDCFCECCCE30
:100DD0001208F2EF24307864F27C007D64AF03AE39
:100DE000021208F27E007F0ACFCDCFCECCCE120801
:100DF000F2EF24307865F2AE02AF037C007D0A1278
:100E000008F2ED24307866F2E408F27BFE7A00798D
:040E1000620213A1C6
:10131B0012128D43AF0112123E43AF10E4F5B8F534
:0C132B00B543B5011212FBD2AF020B4A11
:08000300000000004387012208
:1012FB00538E7F5389F0E4F58A758CB8C28DD28CEE
:10130B00D2A978037464F2E47800F208F208F222AE
:03000B00020E14CE
:100E1400C0E0C083C082C0D075D000C000C006C08E
:100E2400077803E2D394004005E214F280217803AA
:100E34007464F27800E204F2E2C3943C4011E4F2F8
:100E440008E204F2E2943C4006E4F208E204F27898
:100E540043E2602E18E2D394004027E214F2E270D9
:100E64002108F27840E2FE08E2FFD39400EE9400F9
:100E74004010747A2FF58274003EF583E4F07844D0
:100E840004F2D007D006D000D0D0D082D083D0E0F6
:010E9400322B
:100FFF0041542B43574D4F44453D320D0A004F4B43
:10100F000041542B43575341503D2241495F4C619E
:10101F0062222C223132333435363738222C312CA0
:10102F00340D0A0041542B5253540D0A0041542BD6
:10103F004349504D55583D310D0A0041542B4349FA
:10104F00505345525645523D312C383030300D0AF1
:0C105F000041542B43494653520D0A0037
:101156008704FF0FFFFF100D2C870BFF1010FF10E9
:101166000D2C8712FF1033FF100D2C8719FF103C32
:10117600FF100D2C8720FF104AFF100D2C8727FF2C
:061186001060FF100D2CAB
:1011EB00E4785DF2087404F27BFE7A00795DFF12FD
:1011FB0000967D047F0412111B7F641213C67D04BD
:0A120B007F0412000E7F0302133768
:1012150078437401F2E47840F208F27844F27842B7
:10122500740AF27842E2D3940050F87844E26006FA
:09123500784008E2FF227F00224C
:080F1600E2FB08E2FA08E2F92F
:0A0F1E00785DEBF208EAF208E9F250
:100F28007863E2FE08E2FF7C007D0A1208F2786529
:100F3800EEF208EFF2D37866E2940018E2940040EB
:100F480042785DE2FB08E2FA08E2F912138E121207
:100F580015EF60227860E2F908E2FA08E27871C9D0
:100F6800F208EAF208E9F27B017A00797A120A912A
:100F7800EA494B6001227866E224FFF218E234FF66
:090F8800F280B27B007A007900CE
:010F9100223D
:100E9500781CE2F908E2FA08E27860C9F208EAF299
:100EA50008E9F2781FE2FF7863E4F208EFF27819B7
:100EB500120F16EA494B7002FF227823E2F908E285
:100EC500FA08E27860C9F208EAF208E9F27826E25F
:100ED500FF7863E4F208EFF27820120F16EA494B27
:100EE5007002FF22782AE2F908E2FA08E27860C97E
:100EF500F208EAF208E9F2782DE2FF7863E4F208F5
:100F0500EFF27827120F16EA494B7002FF227F0194
:010F150022B9
:10074D004448543131207472756520200D0A0044DF
:10075D00485431312066616C736520200D0A0054B8
:10076D00454D500048554D49004F4E0031206F6E9C
:10077D00210D0A004F46460031206F6666210D0A95
:10078D000032206F6E210D0A0032206F6666210D3A
:10079D000A0033206F6E210D0A0033206F6666212B
:1007AD000D0A0034206F6E210D0A0034206F66662D
:1007BD00210D0A0073776974636820696E76616C28
:1007CD00696420636F6D6D616E640D0A006C6967FD
:1007DD00687431206F66660D0A006C696768743243
:1007ED00206F66660D0A004C49474854006C6967D6
:1007FD00687431206F6E210D0A006C696768743161
:10080D00206F6666210D0A00494E43006C696768CA
:10081D00743120696E63210D0A00444543006C69F3
:10082D006768743120646563210D0A006C6967681F
:10083D00743220696E63210D0A006C696768743229
:10084D0020646563210D0A006C6967687420696E08
:10085D0076616C696420636F6D6D616E64323232E6
:10086D000D0A00696E76616C696420636F6D6D6150
:10087D006E643131310D0A0074656D70206973201D
:0D088D00000D0A0068756D69206973200078
:10136600D2C47F011213B4C2C47F121213C6D2C4F0
:051376007F040213B426
:1011BE00E4786FF218F230C4FD7F021213B4786F28
:1011CE00E225E0F230C403E204F220C4FD786EE2C0
:0C11DE0004F2E2C3940840DE786FE2FFE8
:0111EA0022E2
:0A09AB007862EBF208EAF208E9F2C4
:1009B500E408F208F208F208F208F212136620C4FD
:1009C5007C30C4FDC2AF7F081213B41211BE786526
:1009D500EFF21211BE7866EFF21211BE7867EFF2F0
:1009E5001211BE7868EFF21211BE7869EFF2D2AF3C
:1009F5007866E2FD18E22DFDE433FC7867E27A00C3
:100A05002DFDEA3CFC08E22DFDEA3CFC7E00EDB53F
:100A1500070CEEB504087BFF7A07794D80067BFF4E
:100A25007A07795C1213A17867E2FF786AE4F20825
:100A3500EFF27865E2FF786CE4F208EFF278717412
:100A4500FFF2087407F208746CF27862E2FB08E2C0
:100A5500FA08E2F9120A91EA494B6004786A8021A2
:100A6500787174FFF2087407F2087471F27862E223
:100A7500FB08E2FA08E2F9120A91EA494B600878A4
:0B0A85006CE2FE08E2FF227EFF7FFF14
:010A90002243
:10025A00782EEBF208EAF208E9F208E2FB08E2FA81
:10026A0008E2F99000071208B324CE6074147003F0
:10027A0002034C1470030203A92403600302040856
:10028A00787174FFF2087407F2087476F2782EE235
:10029A00FB08E2FA08E2F9120A91EA494B60107D7A
:1002AA00017F0212000E7BFF7A0779790204037834
:1002BA007174FFF2087407F2087481F2782EE2FB77
:1002CA0008E2FA08E2F9120A91EA494B70030204B9
:1002DA00147D017F0212111B7BFF7A0779850204C4
:1002EA0003787174FFF2087407F2087476F2782EB4
:1002FA00E2FB08E2FA08E2F9120A91EA494B6010B5
:10030A007D027F0212000E7BFF7A07798E020403B8
:10031A00787174FFF2087407F2087481F2782EE299
:10032A00FB08E2FA08E2F9120A91EA494B70030261
:10033A0004147D027F0212111B7BFF7A0779960251
:10034A000403787174FFF2087407F2087476F2787D
:10035A002EE2FB08E2FA08E2F9120A91EA494B6036
:10036A00107D047F0212000E7BFF7A07799F020438
:10037A0003787174FFF2087407F2087481F2782E18
:10038A00E2FB08E2FA08E2F9120A91EA494B607ABA
:10039A007D047F0212111B7BFF7A0779A7805A78A6
:1003AA007174FFF2087407F2087476F2782EE2FB91
:1003BA0008E2FA08E2F9120A91EA494B600F7D084D
:1003CA007F0212000E7BFF7A0779B0802C78717455
:1003DA00FFF2087407F2087481F2782EE2FB08E251
:1003EA00FA08E2F9120A91EA494B601E7D087F0277
:1003FA0012111B7BFF7A0779B81213A1800C7BFFBD
:0C040A007A0779C11213A17F00227F0144
:0104160022C3
:10118D007834EFF2700F783A74A0F2C374FF94A024
:10119D00FDE4FF80137834E2B40213783B74A0F2BF
:1011AD00C374FF94A0FD7F011213507F01227F00B5
:0111BD00220F
:10004600786BEFF270177BFF7A0779DA1213A1E467
:10005600783AF2C374FF9400FDE4FF801B786BE2EC
:10006600B4021B7BFF7A0779E71213A1E4783BF20F
:10007600C374FF9400FD7F011213507F01227F009D
:010086002257
:10106B007835EFF27025783AE2FFC374FF9FC39493
:10107B0028500574FFF28006783AE22428F2783A79
:10108B00E2FFC374FF9FFDE4FF802A7835E2640220
:10109B007029783BE2FFC374FF9FC39428500574FB
:1010AB00FFF28006783BE22428F2783BE2FFC37420
:0E10BB00FF9FFD7F011213507F01227F002254
:1010C9007836EFF2701F783AE2C394285004E4F2BC
:1010D9008006783AE224D8F2783AE2FFC374FF9F97
:1010E900FDE4FF80247836E264027023783BE2C392
:1010F90094285004E4F28006783BE224D8F2783B45
:10110900E2FFC374FF9FFD7F011213507F01227F0D
:021119000022B2
:100417007837EBF208EAF208E9F2787174FFF2082C
:100427007407F20874F4F27837E2FB08E2FA08E29C
:10043700F9120A91EA494B70030205B490000712BA
:1004470008B324CE70030204FB0460030205AC78F2
:100457007174FFF2087407F2087476F27837E2FBDA
:1004670008E2FA08E2F9120A91EA494B6005E4FF4B
:1004770002051C787174FFF2087407F2087481F2A0
:100487007837E2FB08E2FA08E2F9120A91EA494BE7
:100497006005E4FF020549787174FFF2087408F2F9
:1004A700087415F27837E2FB08E2FA08E2F9120A53
:1004B70091EA494B600EE4FF12106B7BFF7A0879D3
:1004C700190205BA787174FFF2087408F2087427E4
:1004D700F27837E2FB08E2FA08E2F9120A91EA49F0
:1004E7004B70030205BDE4FF1210C97BFF7A087940
:1004F7002B0205BA787174FFF2087407F208747654
:10050700F27837E2FB08E2FA08E2F9120A91EA49BF
:100517004B600E7F0212118D7BFF7A0779FA020575
:10052700BA787174FFF2087407F2087481F27837A9
:10053700E2FB08E2FA08E2F9120A91EA494B600D78
:100547007F021200467BFF7A08790780667871740C
:10055700FFF2087408F2087415F27837E2FB08E234
:10056700FA08E2F9120A91EA494B600D7F0212106C
:100577006B7BFF7A087939803A787174FFF20874D7
:1005870008F2087427F27837E2FB08E2FA08E2F982
:10059700120A91EA494B601E7F021210C97BFF7A4B
:1005A700087947800E7BFF7A08795580067BFF7AAA
:0605B7000879701213A187
:0105BD00221B
:100B4A00785F7403F208740FF27BFE7A00795F7F94
:100B5A0002120096E47861F2087410F27BFE7A00C1
:100B6A0079617F04120096785D7403F2087460F26A
:100B7A007BFE7A00795D7F0212009678637420F218
:100B8A00E408F2087442F2E408F208F20804F2E413
:100B9A0008F208F27BFE7A0079637F031205BE7BB6
:100BAA00FE7A007963E4FF1205BE7BFE7A00796360
:100BBA007F011205BE7D017F0212111B7D027F0299
:100BCA0012111B7D047F0212111B7D087F02121174
:100BDA001BE4FF1200467F02120046E4783AF2084C
:010BEA00F218
:010BEB0022E7
:100F92007D017F0212000E7F011213377D017F0255
:100FA20012111B7BFF7A07796C1209AB785EEEF2A5
:100FB20008EFF27BFF7A0879851213A1785EE2FED0
:100FC20008E2FF120D8C7BFF7A08798E1213A17B47
:100FD200FF7A0779711209AB7860EEF208EFF27BC3
:100FE200FF7A0879911213A17860E2FE08E2FF12FB
:0D0FF2000D8C7BFF7A08798E1213A180937D
:1013B400AD071FED600B0000007E1A1EEE60F18089
:0113C400FA2E
:0113C5002205
:0F13C6007DA57C06ED1D70011C144C70F7DFF146
:0113D50022F5
:02133700AB0702
:10133900AF031BEF60107E04EED3940040F27FFAF6
:061349001213C61E80F223
:01134F00227B
:10009600EFD3940540037F012212089AFED39403FE
:1000A60040037F0222EF7041EE700B9000011208B0
:1000B600B3F45293529412089AB4010B90000112B1
:1000C60008B34293F4529412089AFEB4020A9000BE
:1000D600011208B342934294EEB4030D900001124C
:1000E60008B3FEF45293EE4294EF64017043120893
:1000F6009AFE700B9000011208B3F452915292EEE0
:10010600B4010B9000011208B34291F45292120806
:100116009AB4020A9000011208B342914292120860
:100126009AB4030D9000011208B3FEF45291EE4208
:1001360092EF6402704312089AFE700B900001124F
:1001460008B3F452955296EEB4010B9000011208D2
:10015600B34295F4529612089AB4020A900001121C
:1001660008B34295429612089AB4030D9000011204
:1001760008B3FEF45295EE4296EF640370431208FC
:100186009AFE700B9000011208B3F452B152B2EE0F
:10019600B4010B9000011208B342B1F452B2120836
:1001A6009AB4020A9000011208B342B142B2120890
:1001B6009AB4030D9000011208B3FEF452B1EE4258
:1001C600B2EF6404704312089AFE700B900001129D
:1001D60008B3F452B352B4EEB4010B900001120806
:1001E600B342B3F452B412089AB4020A9000011250
:1001F60008B342B342B412089AB4030D9000011238
:1002060008B3FEF452B3EE42B4EF6405704312082D
:100216009AFF700B9000011208B3F452C952CAEF4C
:10022600B4010B9000011208B342C9F452CA120875
:100236009AB4020A9000011208B342C942CA1208CF
:100246009AB4030D9000011208B3FFF452C9EF42AD
:04025600CA7F002239
:10000E00EFD3940540037F0122EF7003ED4280EFA2
:10001E00B40103ED4290EFB40203ED42A0EFB4033E
:10002E0003ED42B0EFB40403ED42C0EFB40503EDAF
:05003E0042C87F002212
:10111B00EFD3940540037F0122EF7004EDF452806E
:10112B00EFB40104EDF45290EFB40204EDF452A0CD
:10113B00EFB40304EDF452B0EFB40404EDF452C079
:0B114B00EFB40504EDF452C87F002251
:1012D800783EE224FAF582E43404F583EFF0E20480
:1012E800F2C394804002E4F2783FE2700504F243CE
:0312F8009A022235
:10138E0012089AFF600C1212D8740129F9E43AFA85
:03139E0080EE22BC
:1012B3007847E2247AF582E43405F583EFF0E2041B
:1012C300F2C3748094844002E4F27848E270050427
:0512D300F24384022239
:1013A10012089AFF600C1212B3740129F9E43AFA97
:0313B10080EE22A9
:10128D00759A50438E0475D7D075D6FF438E10785E
:10129D003C7402F2E408F208F208F208F208F208CF
:0612AD00F208F208F22233
:10123E0075841043844043D12075D3D075D2FF43BB
:10124E00D18078457404F2E408F208F208F208F24C
:09125E0008F208F208F208F2227D
:03004300020D03A8
:100D0300C0E0C083C082C0D075D000C000C006C0A0
:100D130007E59A30E035539AFE7843E2B4012CC3D9
:100D23007840E294044004E4F208F2784008E2FFD9
:100D33002401F218E2FE3400F2747A2FF582740073
:100D43003EF583E59BF07842740AF2E59A30E12A96
:100D5300539AFD783EE2FF18E2FE6F601974FA2E93
:100D6300F582E43404F583E0F59BE204F2C3948056
:100D73004008E4F28004783FE4F2D007D006D000C4
:090D8300D0D0D082D083D0E03240
:03009300020C78E4
:100C7800C0E0C083C082C0D075D000C000C006C02C
:100C880007E58430E0355384FE784CE2B4012CC388
:100C98007849E294044004E4F208F2784908E2FF53
:100CA8002401F218E2FE3400F2747A2FF5827404FB
:100CB8003EF583E585F0784B7405F2E58430E12C48
:100CC8005384FD7847E2FF18E2FE6F601B747A2EAA
:100CD800F582E43405F583E0F585E204F2C3748017
:100CE80094844008E4F280047848E4F2D007D006FF
:0B0CF800D000D0D0D082D083D0E032FA
:10135000EF70038DFA22EFB401038DFB22EFB4028C
:0613600004AF058FFC2222
:1005BE00786BEBF208EAF208E9F2AD07EDD394039B
:1005CE00400302074CED6403704BC2DEF5F9F5E90A
:1005DE00786BE2FB08E2FA08E2F912089AFFE5A24C
:1005EE0054CF4FF5A29000011208B3FFE5D954F194
:1005FE004FF5D99000041208B35401FFE5D954FE0B
:10060E004FF5D99000051208B3B40104D2BF800291
:10061E00C2BFD2DE22786BE2FB08E2FA08E22404C3
:10062E00F9E43AFA12089A54311208E0786BE2FBB8
:10063E0008E2FA08E2F99000021208B3C3944840A7
:10064E000FE92404F9E43AFA12089A54CF1208E09A
:10065E00ED704B786BE2FB08E2FA08E2F9900004C9
:10066E001208B3FF9000021208B3FE4FF5DA9000A5
:10067E00031208B3FFE5F2543F4FF5F29000061255
:10068E000947FBAAF07851EAF208EBF2C200784E65
:10069E00EEF27857EAF208EBF2F5EAEAF5FAED64D3
:1006AE0001704B786BE2FB08E2FA08E2F990000465
:1006BE001208B3FF9000021208B3FE4FF5DB900054
:1006CE00031208B3FFE5F3543F4FF5F39000061203
:1006DE000947FBAAF07853EAF208EBF2C201784F11
:1006EE00EEF27859EAF208EBF2F5EBEAF5FBED647F
:1006FE0002704B786BE2FB08E2FA08E2F990000414
:10070E001208B3FF9000021208B3FE4FF5DC900002
:10071E00031208B3FFE5F4543F4FF5F490000612B0
:10072E000947FDACF07855ECF208EDF2C2027850B4
:0F073E00EEF2785BECF208EDF2F5ECECF5FC2254
:03000000020BEC04
:0C0BEC00787FE4F6D8FD758120020C3300
:10089A00BB010689828A83E0225002E722BBFE025C
:0908AA00E32289828A83E493228F
:1008B300BB010CE58229F582E5833AF583E02250FA
:1008C30006E92582F8E622BBFE06E92582F8E22244
:0D08D300E58229F582E5833AF583E493225E
:1008E000BB010689828A83F0225002F722BBFE01F7
:0208F000F322F1
:1008F200BC000BBE0029EF8DF084FFADF022E4CCEA
:10090200F875F008EF2FFFEE33FEEC33FCEE9DECB2
:10091200984005FCEE9DFE0FD5F0E9E4CEFD22EDF8
:10092200F8F5F0EE8420D21CFEADF075F008EF2F42
:10093200FFED33FD4007985006D5F0F222C398FD33
:050942000FD5F0EA22D0
:10094700BB0110E58229F582E5833AF583E0F5F0EE
:10095700A3E0225009E92582F886F008E622BBFECB
:100967000AE92582F8E2F5F008E222E5832AF58311
:08097700E993F5F0A3E99322D6
:100A9100786EEBF208EAF208E9F208E2FB08E2FA02
:100AA10008E2F912089A7003020B38786EE2FB082B
:100AB100E2FA08E2F912089A7003020B4308E2F91C
:100AC10008E2FA08E208C9F208EAF208E9F2786EE7
:100AD100E2F908E2FA08E27877C9F208EAF208E9ED
:100AE100F27874E2FB08E2FA08E2F912089AFF6070
:100AF1002708E2FB08E2FA08E2F912089A6F701877
:100B01007876E22401F218E23400F27879E22401E5
:100B1100F218E23400F280C97874E2FB08E2FA08C4
:100B2100E2F912089A7002800E7870E22401F2183C
:100B3100E23400F2020AAC786EE2FB08E2FA08E263
:090B4100F9227B007A0079002200
:10097F00EF4E6012EF60010EEDBB010B89828A838F
:10098F00F0A3DFFCDEFA2289F05007F709DFFCA99C
:0C099F00F022BBFEFCF309DFFCA9F022F3
:100BF800021267E493A3F8E493A34003F68001F29A
:100C080008DFF48029E493A3F85407240CC8C333FD
:100C1800C4540F4420C8834004F456800146F6DFCC
:100C2800E4800B0102040810204080901156E47EF5
:100C3800019360BCA3FF543F30E509541FFEE493C1
:100C4800A360010ECF54C025E060A840B8E493A388
:100C5800FAE493A3F8E493A3C8C582C8CAC583CAB3
:100C6800F0A3C8C582C8CAC583CADFE9DEE780BE6B
:01118C000062
:00000001FF
