:1006130064656C61792066696E6973680D0A0041CF
:10062300540D0A004F4B006D61746368210D0A007D
:1004E7001200467E047F007D007B017A00790012AE
:1004F70004147F0512066D7BFF7A0679131206999D
:10050700750CFF750D06750E27750F057BFF7A06AF
:1005170079221204A57BFF7A06792A12069980FEB2
:10004600750903750A207B007A0079097F0412007E
:1000560096750AE07B007A0079097F021200967590
:100066000B03750C0F7B007A0079027F0212009653
:100076001205CC43AF0112055D43AF10E4F5B8F5A8
:0C008600B543B501120651D2AF0205F0DF
:08000300000000004387012208
:10065100538E7F5389F0E4F58A758CB8C28DD28CA4
:0C066100D2A9753264F52FF530F5312276
:03000B00020440AC
:10044000C0E0C083C082C0D0E532D3940040041520
:1004500032801C753264052FE52FC3943C40107523
:100460002F000530E530943C40057530000531E53E
:10047000246029E523D394004022D5231FD3E5220D
:100480009400E5219400401475240074002522F5A1
:100490008274003521F583E4F0752501D0D0D08237
:0504A000D083D0E03222
:1005F000E4F50D750E04FB7A00790D7F0412009668
:100600007D047F041205277F641206AC7D047F04FD
:0306100002000ED7
:10063300752401E4F521F522F52575230AE523D375
:0E064300940050F9E5256003AF22227F0022CB
:0604A5008B098A0A890B95
:1004AB00850F10E510D39400402BAB09AA0AA90BBA
:1004BB00120686120633EF6018850C14850D158510
:1004CB000E167B017A00790012025AEA494B600141
:0B04DB0022151080CE7B007A00790013
:0104E60022F3
:0F06AC007DA57C06ED1D70011C144C70F7DFF16D
:0106BB00221C
:02066D00AB07D9
:10066F00AF031BEF60107E04EED3940040F27FFACD
:06067F001206AC1E80F221
:010685002252
:10009600EFD3940540037F01221203CEFED39403CF
:1000A60040037F0222EF7041EE700B9000011203B5
:1000B600E7F4529352941203CEB4010B900001124E
:1000C60003E74293F452941203CEFEB4020A900060
:1000D600011203E742934294EEB4030D900001121D
:1000E60003E7FEF45293EE4294EF64017043120369
:1000F600CEFE700B9000011203E7F452915292EE7D
:10010600B4010B9000011203E74291F452921203DC
:10011600CEB4020A9000011203E742914292120302
:10012600CEB4030D9000011203E7FEF45291EE42A5
:1001360092EF640270431203CEFE700B9000011220
:1001460003E7F452955296EEB4010B9000011203A8
:10015600E74295F452961203CEB4020A90000112B9
:1001660003E7429542961203CEB4030D90000112A6
:1001760003E7FEF45295EE4296EF640370431203D2
:10018600CEFE700B9000011203E7F452B152B2EEAC
:10019600B4010B9000011203E742B1F452B212030C
:1001A600CEB4020A9000011203E742B142B2120332
:1001B600CEB4030D9000011203E7FEF452B1EE42F5
:1001C600B2EF640470431203CEFE700B900001126E
:1001D60003E7F452B352B4EEB4010B9000011203DC
:1001E600E742B3F452B41203CEB4020A90000112ED
:1001F60003E742B342B41203CEB4030D90000112DA
:1002060003E7FEF452B3EE42B4EF64057043120303
:10021600CEFF700B9000011203E7F452C952CAEFE9
:10022600B4010B9000011203E742C9F452CA12034B
:10023600CEB4020A9000011203E742C942CA120371
:10024600CEB4030D9000011203E7FFF452C9EF424A
:04025600CA7F002239
:10000E00EFD3940540037F0122EF7003ED4280BFD2
:10001E000103ED4290BF0203ED42A0BF0303ED4288
:10002E00B0BF0403ED42C0BF0503ED42C87F0022FE
:10052700EFD3940540037F0122EF7004EDF452806E
:10053700BF0104EDF45290BF0204EDF452A0BF03D3
:1005470004EDF452B0BF0404EDF452C0BF0504ED4E
:06055700F452C87F0022EF
:100584007480251FF582E43404F583EFF0051FE53C
:100594001FC394804003E4F51FE520700675200115
:0405A400439A022252
:100686001203CEFF600C120584740129F9E43AFACC
:0306960080EE22D1
:1005A80074002528F582E43405F583EFF00528C3A7
:1005B800748094844003E4F528E5297006752901C0
:0405C8004384022244
:100699001203CEFF600C1205A8740129F9E43AFA95
:0306A90080EE22BE
:1005CC00759A50438E0475D7D075D6FF438E10752F
:1005DC001D02E4F51EF51FF520F521F522F523F596
:0405EC0024F52522AB
:10055D0075841043844043D12075D3D075D2FF43A9
:10056D00D180752604E4F527F528F529F52AF52B14
:07057D00F52CF52DF52E22EF
:030043000202DCDA
:1002DC00C0E0C083C082C0D075D000C006E59A30A3
:1002EC00E02F539AFEE524B40127C3E52194044082
:1002FC00067521007522000522E522AE217002054B
:10030C0021142400F58274003EF583E59BF07523DF
:10031C000AE59A30E128539AFDE51E651F601C74AE
:10032C0080251EF582E43404F583E0F59B051EE57B
:10033C001EC394804008751E008003752000D006F3
:09034C00D0D0D082D083D0E03281
:0300930002035510
:10035500C0E0C083C082C0D075D000C006E584303F
:10036500E02F5384FEE52DB40127C3E52A9404400C
:1003750006752A00752B00052BE52BAE2A700205A4
:100385002A142400F58274043EF583E585F0752C66
:1003950005E58430E1285384FDE5276528601C7454
:1003A500002527F582E43405F583E0F5850527C3A7
:1003B5007480948440087527008003752900D00651
:0903C500D0D0D082D083D0E03208
:030000000206BC39
:0C06BC00787FE4F6D8FD7581320204E777
:1003CE00BB010689828A83E0225002E722BBFE022D
:0903DE00E32289828A83E4932260
:1003E700BB010CE58229F582E5833AF583E02250CB
:1003F70006E92582F8E622BBFE06E92582F8E22215
:0D040700E58229F582E5833AF583E493222E
:10025A008B118A128913AB14AA15A9161203CE6040
:10026A0063AB11AA12A9131203CE605F8514178516
:10027A0015188516198B1A8A1B891CAB17AA18A977
:10028A00191203CEFF6023AB1AAA1BA91C1203CEB4
:10029A006F7017042519F519E43518F51874012536
:1002AA001CF51CE4351BF51B80D1AB17AA18A9193C
:1002BA001203CE7002800D74012513F513E4351272
:1002CA00F512809DAB11AA12A913227B007A00793C
:0202DA00002200
:10041400EF4E6012EF60010EEDBB010B89828A83FF
:10042400F0A3DFFCDEFA2289F05007F709DFFCA90C
:0C043400F022BBFEFCF309DFFCA9F02263
:00000001FF
